:020000040800F2
:1000000020A20024E1020008DB4C00082142000885
:10001000D94C0008EF030008356800080000000014
:10002000000000000000000000000000576300080E
:10003000A90A000800000000C35400085963000822
:10004000FB020008FB020008FB020008FB0200089C
:10005000FB020008FB020008FB020008FB0200088C
:10006000FB020008FB020008FB0200087106000802
:10007000FB020008FB020008FB020008FB0200086C
:10008000FB020008FB020008FB020008FB0200085C
:10009000FB020008FB020008FB020008FB0200084C
:1000A000FB020008FB020008FB020008FB0200083C
:1000B000FB020008FB020008FB020008FB0200082C
:1000C000FB020008FB020008FB020008FB0200081C
:1000D000FB020008FB020008FB020008FB0200080C
:1000E000FB020008FB02000800000000FB02000801
:1000F000FB020008FB020008FB020008FB020008EC
:10010000FB020008FB020008FB020008FB020008DB
:10011000FB020008FB020008FB020008FB020008CB
:10012000FB020008FB020008FB020008FB020008BB
:10013000FB020008FB020008FB020008FB020008AB
:1001400000000000000000000000000000000000AF
:10015000FB020008FB020008FB020008FB0200088B
:10016000FB020008FB020008FB020008FB0200087B
:10017000FB020008FB020008650600080000000002
:10018000FB020008FB020008FB020008FB0200085B
:10019000FB020008FB020008FB020008FB0200084B
:1001A000FB020008FB020008FB0200080000000040
:1001B000FB020008FB020008FB020008FB0200082B
:1001C000FB020008FB020008000000000000000025
:1001D00000000000000000007D0600080000000094
:1001E000000000000000000000000000000000000F
:1001F0000000000000000000FB020008FB020008F5
:10020000FB020008FB02000800000000FB020008DF
:10021000FB020008FB020008FB020008FB020008CA
:10022000FB02000800000000FB02000800000000C4
:10023000FB020008FB02000800000000FB020008AF
:10024000FB020008FB020008FB020008FB0200089A
:10025000FB020008FB020008FB020008FB0200088A
:10026000FB020008FB020008FB020008FB0200087A
:10027000FB020008FB020008FB020008000000006F
:10028000FB020008FB020008FB020008FB0200085A
:1002900000000000FB020008FB0200080000000054
:1002A00000000000FB020008FB020008FB0200083F
:1002B000FB020008FB020008FB020008FB0200082A
:1002C000FB020008FB020008FB020008DFF80CD06C
:1002D00000F05CF800480047496A000820A20024AA
:1002E0000648804706480047FEE7FEE7FEE7FEE7D0
:1002F000FEE7FEE7FEE7FEE7FEE7FEE72D64000807
:10030000CD020008D2B201E000F8012B491EFBD259
:1003100070470022F6E710B513460A460446194610
:10032000FFF7F0FF204610BD2DE9F05F05460020E5
:1003300092469B4688460646814640241BE0284656
:1003400041464746224600F042F853465A46C01AF4
:10035000914110D311461846224600F029F82D1A73
:1003600067EB01084F4622460120002100F020F8EB
:1003700017EB00094E41201EA4F10104DFDC4846C2
:1003800031462A464346BDE8F09F0000064C074D23
:1003900006E0E06840F0010394E807009847103455
:1003A000AC42F6D3FFF796FFE4EF000804F0000834
:1003B000202A04DB203A00FA02F100207047914025
:1003C000C2F1200320FA03F3194390407047202A1A
:1003D00004DB203A21FA02F00021704721FA02F3EF
:1003E000D040C2F120029140084319467047FEE711
:1003F00070B5744D0C46642128602846A9604221DE
:10040000297100F09DF8A88947F6A276B04208D17C
:10041000E88947F27361884203D1BDE8704004F077
:100420009DBF602004F0A5FCA889B04209D1E889ED
:1004300042F24361884204D82046BDE8704006F08D
:1004400063BC422004F095FCA88947F6A27188425B
:1004500009D1E88947F22371884204D82046BDE8D3
:10046000704006F015BF782004F083FCE88945F25F
:100470004061884204D12046BDE8704006F0E2BCED
:100480000020E881287170BDBCB505468DF80710C5
:100490001446006801232979AA6800920DF1070229
:1004A000013101F0E5FE2979AA682868009201234C
:1004B0002246013101F07AFE002818BF0120BCBDA0
:1004C000BFB50B460179046880680125CDE9002598
:1004D00002901A4620460223013101F02BFF00282A
:1004E00018BF012004B0B0BDE0B58DF8061011783A
:1004F00003680DF106028DF80710017980680090FD
:100500001846022301F0B4FE002818BF01208CBD5C
:10051000BFB50B4601798DF80F2002688068029004
:1005200001240DF10F05CDE9005410461A460223AF
:10053000013101F08FFF002818BF012004B0B0BDC9
:10054000F8B5044601208DF802002079782811D1F1
:100550001C4D0DF1020643F20A0128463246FFF710
:10056000AFFF721C284643F20B01FFF7A9FF0020E2
:10057000A0811DE00DF102052046FF212A46FFF76C
:10058000B3FF0F4F20461C212A46B8476E1C204659
:100590001D213246B847BDF802000A212A4600BA9A
:1005A000000CA0812046B84720460B213246B847B0
:1005B000BDF8020000BA000CE0810020F8BD00BFC9
:1005C00089040008F0050024806B816C496D0229C4
:1005D00006D0012180F83510C16C41F04001C164A2
:1005E00000F067BA10B5846BA36BA06C01680A6851
:1005F00002F400224BB1A36BDB0712D18AB1C968A8
:10060000E26B01EBC201002213E0C2B908680003EB
:1006100017D4E06BD4E9102303EB80000861A263D8
:100620000FE00A6812030CD40969E26B01EBC20106
:10063000012200F0EBFBA06B0138A06301E0606CCD
:10064000C860A06B216C88420AD12068C16841F063
:100650000101C1600068800702D5012084F83500DF
:1006600010BD0000014800F03FBA00BF040600249E
:10067000014800F0B7BE00BF5406002470470000D8
:1006800010B50168234A914223D0234A91421CBFEE
:10069000224A91421DD0224A91421CBF214A9142D6
:1006A00017D0214A91421CBF204A914211D0204AC2
:1006B00091421CBF1F4A91420BD01F4A91421CBF5E
:1006C0001E4A914205D01E4A91421CBF1D4A9142CA
:1006D00013D101F0F80218231EA4103AB2FBF3F371
:1006E00003F00703E35CC36540F2FF3399435F2ADD
:1006F00088BF04318165084610BD134A9142E8D095
:10070000124A9142E5D0124A9142E2D021F0FF0113
:10071000F0E700BF10000240280002404000024005
:10072000580002407000024088000240A0000240D1
:10073000B800024010040240280402404004024075
:10074000580402407004024088040240B804024089
:10075000A0040240000610160006101610B501682D
:10076000C94A91420BD0C94A91421CBFC84A914222
:1007700005D0C84A91421CBFC74A914213D101F02B
:10078000FC011422154B0839B1FBF2F203F1800190
:1007900003EB820302F01F020124C0E9183104FABE
:1007A00002F2826610BDBD4A9142E8D0BC4A914235
:1007B000E5D0BC4A9142E2D001F0F8021823084C7F
:1007C000103AB2FBF3F3A1421A4688BF0832AA34AA
:1007D000A14228BF1A46034BD8E700BF0058025871
:1007E0000F0402400008024070B501794A1E072A32
:1007F0001AD8144B0568A44E03F14404B5420BD03B
:10080000A24EB5421CBFA24EB54205D0A14EB54284
:100810001CBFA14EB54208D1012503EB8101C0E9FF
:100820001B1405FA02F2426770BD9C4EB542F3D02C
:100830009C4EB542F0D09A4EB5421CBF024B03F11C
:100840004404E9E7FC580258FC080240B0B50468CB
:100850007D4DAC4223D07D4DAC421CBF7C4DAC42A3
:100860001DD07C4DAC421CBF7B4DAC4217D07B4DA4
:10087000AC421CBF7A4DAC4211D07A4DAC421CBF89
:10088000794DAC420BD0794DAC421CBF784DAC4297
:1008900005D0784DAC421CBF774DAC4208D16360A7
:1008A0008068402819BFA160E260A260E160B0BD2D
:1008B000724DAC42F3D0734DAC42F0D0704DAC42AF
:1008C000EDE700BFF0B5964604685F4AD0F858C01F
:1008D00094423BD05D4FBC421CBF5D4FBC4235D003
:1008E0005C4FBC421CBF5C4FBC422FD05B4FBC4234
:1008F0001CBF5B4FBC4229D05A4FBC421CBF5A4F51
:10090000BC4223D0594FBC421CBF594FBC421DD0E2
:10091000584FBC421CBF584FBC4217D0574FBC4227
:100920001CBF574FBC4211D0564FBC421CBF564F44
:10093000BC420BD0554FBC421CBF554FBC4205D0EA
:10094000544FBC421CBF544FBC4267D1C66ED0E965
:1009500019757D6016B1D0E91C566E60944229D09D
:100960003A4A94421CBF3A4A944223D0394A9442AC
:100970001CBF394A94421DD0384A94421CBF384AA1
:10098000944217D0374A94421CBF374A944211D040
:10099000364A94421CBF364A94420BD0354A9442A0
:1009A0001CBF354A944205D0344A94421CBF344A95
:1009B000944217D18268C06D3F2500F01F0005FAF0
:1009C00000F0CCF80800206820F480202060402A45
:1009D000636003D1C4F808E0E160F0BDA160C4F831
:1009E0000CE0F0BD2E4A94421CBF274A94420BD023
:1009F000264A94421CBF264A944205D0254A944276
:100A00001CBF254A944214D18268C06D012500F0B4
:100A10001F0005FA00F0CCF80400D8E71F4FBC42D5
:100A200094D01F4FBC4291D01E4FBC423FF48EAFBA
:100A3000D7E71A4A9442E7D01A4A9442E4D0114ABE
:100A40009442B7D0CDE700BF10000240280002401A
:100A500040000240580002407000024088000240FE
:100A6000A0000240B80002401004024028040240E6
:100A700040040240580402407004024088040240CE
:100A8000A0040240B8040240085402581C54025802
:100A90003054025844540258585402586C54025866
:100AA00094540258805402587047EFF3108072B685
:100AB000FEE7704710B501F0E9FA0A4CE168401A08
:100AC000C0087C2806D901F0E1FAE060A068606007
:100AD000012001E0A0680130A060206801302060A2
:100AE00010BD00BF88000024B0B504460068056949
:100AF00069070CD504214161C14AE06C40F0020055
:100B0000E064A06C026584F8351000F081FBA80752
:100B10000ED52168A06C02224A61E16C41F001010E
:100B2000E164B7490165042184F8351000F070FBD9
:100B3000E80605D5206810214161204600F064F8E0
:100B4000280705D5206808214161204600F05CF99E
:100B5000E80708BFB0BD20680168890703D5C168F0
:100B600021F01E01C160C16821F00101C1600121B5
:100B700041612046BDE8B040FFF79CBF00283ED051
:100B8000F8B5044690F8350010B9204600F03EF85C
:100B9000022084F835001B4FD4F818C0BCF1000FB8
:100BA0001CBF00206062D4E9000ED4E9023506685B
:100BB0003E40066004F120076669D4E90B12354314
:100BC000266935432B43E0CF2B4333433B43194343
:100BD00011430268114341EA0C01BEF1100F41EAD2
:100BE0000E01016001D1E1698161C16841F01E011E
:100BF000C1600020E064012184F83510F8BD0120B7
:100C0000704700BF07F0E0FF704700002DE9F04F8C
:100C100085B0044600684849884240F089804748CA
:100C20008A466E46474D4FF00D0800274FF00209E7
:100C300050F8041C41F0010140F8041C50F8041C59
:100C400001F0010104F09CF841F01001016001681D
:100C500001F0100104F094F841F001010160016815
:100C600001F0010104F08CF841F004010160016819
:100C700001F0040104F084F841F00801016001680A
:100C800001F0080104F07CF841F002010160006805
:100C90002B4900F0020000908B460098CDF81080A0
:100CA000CDE90277CDF804907320009001F5406003
:100CB0003146A847502004F015F80AF18050A847A3
:100CC000C02004F00FF80BF58060A847082004F05E
:100CD00009F80BF50060A847802004F003F8584697
:100CE000A847194D4FF480304B264FF4807C4FF4C9
:100CF00080634FF480414FF48052C5E908075F4894
:100D0000C5E90373C5E90521C5F81CC085E8C10024
:100D1000284600F017FE08B1FFF7C7FE4E2000215D
:100D20000022AC63A56401F017FD4E2001F004FD24
:100D300005B0BDE8F08F00BF00000248E044025853
:100D400000040258D11E000854060024F8B590F89B
:100D5000345004460220012D50D084F8350000277D
:100D60002568A06C2E6846F480462E602E6826F01A
:100D700002062E602E6831432960214EA763C0E928
:100D80001367C4E9107701211E4E84F83410C6633E
:100D9000E763B7EB134F04D105F1280100F070FFB2
:100DA0001CE0A16346646264E363E16BB1F5803FDC
:100DB00006D3E16B4908E163A16B4900A163F4E745
:100DC000A16B0239A163A16B2164E16BE36B00931A
:100DD00002EB810305F1280100F052F828B1402010
:100DE000E064012084F8350005E02068016841F0E6
:100DF000010101600020002184F83410F8BD00BF1B
:100E0000C9050008E5050008704700000068EB4BC5
:100E1000984223D0EA4B98421CBFEA4B98421DD01F
:100E2000E94B98421CBFE94B984217D0E84B9842D7
:100E30001CBFE84B984211D0E74B98421CBFE74BD0
:100E400098420BD0E64B98421CBFE64B984205D027
:100E5000E54B98421CBFE54B984206D10AB11030D1
:100E600000E00C30016000207047E14B9842F5D063
:100E7000E04B9842F2D0E04B9842EFE7100002407E
:100E8000F8B504468068802802D14FF4807042E1B2
:100E900094F83400012804BF0220F8BD03F087FF56
:100EA00040F03781022084F83500C44EDDF818C0C8
:100EB0000020606535462068B04224D0C04EB04264
:100EC0001CBFC04EB0421ED0BF4EB0421CBFBF4E72
:100ED000B04218D0BE4EB0421CBFBE4EB04212D07F
:100EE000BD4EB0421CBFBD4EB0420CD0BC4EB04255
:100EF0001CBFBC4EB04206D0BB4EB0421CBFBB4E66
:100F0000B04240F00B8106683F2746F48026066019
:100F100008260361D4E9160303F01F0307FA03F35D
:100F2000835120466346FFF791FC2068A8423CD0DD
:100F3000A34988421CBFA349884236D0A2498842AF
:100F40001CBFA249884230D0A14988421CBFA14998
:100F500088422AD0A04988421CBFA049884224D098
:100F60009F4988421CBF9F4988421ED09E498842A3
:100F70001CBF9E49884218D09D4988421CBF9E498B
:100F8000884212D09B4988421CBF9C4988420CD0A1
:100F90009B4988421CBF9B49884206D09A49884297
:100FA0001CBF9A49884240F0EF8004F164030ECBE5
:100FB0004A6013B1D4E91C124A60A84224D0F24915
:100FC00088421CBFF14988421ED0F14988421CBFAB
:100FD000F049884218D0F04988421CBFEF49884246
:100FE00012D0EF4988421CBFEE4988420CD0EE492E
:100FF00088421CBFED49884206D0ED4988421CBF9B
:10100000EC49884240F09E8001680B2262F3440163
:101010000160416941F080014161216C09B9A16C15
:1010200019B10821026811430160A8423BD0D6499A
:1010300088421CBFD549884235D0D54988421CBF5B
:10104000D44988422FD0D44988421CBFD349884212
:1010500029D0D34988421CBFD249884223D0D249E3
:1010600088421CBFD14988421DD0D14988421CBF4B
:10107000D049884217D0D04988421CBFD049884205
:1010800011D0CE4988421CBFCE4988420BD0CE49F0
:1010900088421CBFCD49884205D0CD4988421CBF3B
:1010A000CC4988427DD1216E0A68D20303D50A68F3
:1010B00042F480720A60E16E19B10A6842F48072EB
:1010C0000A60A84223D0B04988421CBFAF49884279
:1010D0001DD0AF4988421CBFAE49884217D0AE49E7
:1010E00088421CBFAD49884211D0AD4988421CBF1F
:1010F000AC4988420BD0AC4988421CBFAB498842FE
:1011000005D0AB4988421CBFAA49884233D103F0BD
:1011100000BE4FF4006060650120F8BDA64EB042ED
:101120003FF4F1AEA54EB0423FF4EDAEA44EB04256
:101130003FF4E9AE066848F220073E430660012707
:101140000426E6E69C4988423FF45EAF9B4988420C
:101150003FF45AAF9A4988423FF456AF01680522DE
:1011600062F343010160216C19B9A16C00293FF4BD
:101170005CAF042156E790498842C8D08F49884225
:10118000C5D08F498842C2E7934988423FF40DAFEA
:10119000924988423FF409AF914988423FF405AF34
:1011A000DCE78D4988423FF47EAF8C4988423FF4AA
:1011B0007AAF8B4988423FF476AFA8E7100002402F
:1011C00028000240400002405800024070000240E7
:1011D00088000240A0000240B80002401004024013
:1011E00028040240400402405804024070040240B7
:1011F00088040240B8040240A00402400854025887
:101200001C5402583054025844540258585402583E
:10121000B0B500285CD090F83510022956D101688D
:10122000584A914223D0584B99421CBF574B994280
:101230001DD0574B99421CBF564B994217D0564B65
:1012400099421CBF554B994211D0554B99421CBF36
:10125000544B99420BD0544B99421CBF534B99426B
:1012600005D0534B99421CBF524B994233D10423B2
:1012700080F83530914223D0434881421CBF434817
:1012800081421DD0424881421CBF4248814217D052
:10129000414881421CBF4148814211D040488142AF
:1012A0001CBF404881420BD03F4881421CBF3F4891
:1012B000814205D03E4881421CBF3E4881424DD10B
:1012C000086820F001000860002102E080214165EB
:1012D00001210846B0BD384B9942C8D0374B9942DE
:1012E000C5D0374B9942C2D00A6822F00E020A607C
:1012F0000A6822F001020A60324A91420BD0324A57
:1013000091421CBF314A914205D0314A91421CBFE3
:10131000304A91422BD100F158041ECC1D6825F4AF
:1013200080751D6002F01F02012303FA02F24A6079
:10133000816E6160C16E31B10A6822F480720A6008
:10134000D0E91C124A60002180F83410012280F894
:101350003520026D002ABCD09047B5E7164881427F
:10136000AED016488142ABD015488142A8E71A4A50
:101370009142D0D0194A9142CDD0194A9142CAD057
:10138000E1E700BF10000240280002404000024098
:10139000580002407000024088000240A000024055
:1013A000B8000240100402402804024040040240F9
:1013B000580402407004024088040240B80402400D
:1013C000A0040240085402581C54025830540258D9
:1013D00044540258585402586C54025894540258B9
:1013E000805402582DE9F843044600200090C34F72
:1013F000DFF8F804D4F85890D0F800802068D9F8C5
:101400000060D9F80010B8422AD0BD4A90421CBFF3
:10141000BC4A904224D0BC4A90421CBFBB4A904276
:101420001ED0BB4A90421CBFBA4A904218D0BA4A5A
:1014300090421CBFB94A904212D0B94A90421CBF98
:10144000B84A90420CD0B84A90421CBFB74A90426A
:1014500006D0B74A90421CBFB64A904240F09A81EB
:10146000E16D082201F01F018A40324236D0042388
:101470003D46B84224D0A24FB8421CBFA14FB8424B
:101480001ED0A14FB8421CBFA04FB84218D0A04FE9
:10149000B8421CBF9F4FB84212D09F4FB8421CBFEA
:1014A0009E4FB8420CD09E4FB8421CBF9D4FB842D1
:1014B00006D09D4FB8421CBF9C4FB84240F095816A
:1014C00007681F422F4609D0036823F00403036016
:1014D000C9F80820626D42F00102626501228A406B
:1014E00032422FD0B84224D0854B98421CBF854B46
:1014F00098421ED0844B98421CBF844B984218D00F
:10150000834B98421CBF834B984212D0824B984227
:101510001CBF824B98420CD0814B98421CBF814B20
:10152000984206D0804B98421CBF804B984240F0B6
:10153000698143691B0605D5C9F80820626D42F030
:101540000202626504228A4032422FD0B84224D07F
:101550006B4B98421CBF6B4B98421ED06A4B984213
:101560001CBF6A4B984218D0694B98421CBF694B0C
:10157000984212D0684B98421CBF684B98420CD0DE
:10158000674B98421CBF674B984206D0664B984207
:101590001CBF664B984240F0438103689B0705D50A
:1015A000C9F80820626D42F004026265102202FA56
:1015B00001F131423FD00822B84224D0CC4B9842AE
:1015C0001CBFCC4B98421ED0CB4B98421CBFCB4B80
:1015D000984218D0CA4B98421CBFCA4B984212D0AE
:1015E000C94B98421CBFC94B98420CD0C84B98427B
:1015F0001CBFC84B984206D0C74B98421CBFC74B74
:10160000984240F01B810368134214D0C9F80810B7
:1016100002680168520306D4C90506D4016821F0A6
:101620000801016001E0080301D4216C00E0A16C15
:1016300009B120468847E06D00F01F01202000FA24
:1016400001F232427CD020681023B84224D0A84E48
:10165000B0421CBFA74EB0421ED0A74EB0421CBF26
:10166000A64EB04218D0A64EB0421CBFA54EB04206
:1016700012D0A54EB0421CBFA44EB0420CD0A44E16
:10168000B0421CBFA34EB04206D0A34EB0421CBF16
:10169000A24EB04240F0DF8006681E4250D0C9F82A
:1016A000082094F835300268042B16D122F0160277
:1016B0000260426922F080024261226C0AB9A26C87
:1016C0001AB1026822F0080202603F208840C9F87F
:1016D000080003F065FB216D57E00168520308D450
:1016E000C90529D4016821F01001016003F058FBFD
:1016F00022E0080320D4616C1FE000BF100002400C
:1017000028000240400002405800024070000240A1
:1017100088000240A0000240B800024010040240CD
:101720002804024040040240580402407004024071
:1017300088040240A0040240E16B09B120468847BA
:10174000606D00284FD0606DC0071DD04FF416505B
:10175000B8FBF0F1042084F835002068026822F01C
:1017600001020260009A013200928A4202D80268A5
:10177000D207F7D103F0F4FB0068C0074FF0030075
:1017800008BF012084F83500E16C61B32046BDE854
:10179000F8430847644A90421CBF644A90420CD008
:1017A000634A90421CBF634A904206D0624A90420C
:1017B0001CBF624A904240F08C80E26D02F01F0331
:1017C000042202FA03F602680E4201D057074FD4F2
:1017D00002269E400E4201D0970754D4D9400907F3
:1017E00001D5110762D4BDE8F8834D4FB8423FF4EC
:1017F00067AE4C4FB8423FF463AE514FB84218BF8A
:1018000008235DE6464B98423FF493AE454B984221
:101810003FF48FAE4A4B98423FF48BAE026891E69C
:101820003F4B98423FF4B9AE3E4B98423FF4B5AEC1
:10183000434B98423FF4B1AE0268B7E6384B98424A
:101840003FF4E1AE374B98423FF4DDAE3C4B98425B
:1018500018BF0422D7E6324EB0423FF41DAF314EDE
:10186000B0423FF419AF364EB04218BF022313E71F
:101870001104C9F8046013D4910615D4016821F04D
:101880000401016010E01104C9F804601BD4910642
:101890001DD4016821F00A01016003F081FA16E00D
:1018A000D00301D4A16C70E7216C6EE7016821F0D0
:1018B0000E010160012000FA03F1C9F8041060650F
:1018C00003F04EFB5EE7D00301D4616C5DE7E16B92
:1018D0005BE7E74A90423FF470AFE64A90423FF43C
:1018E0006CAFE54988423FF4BBAD7CE708000024BB
:1018F00028000240400002405800024070000240B0
:1019000088000240A0000240B800024010040240DB
:10191000280402404004024058040240700402407F
:1019200088040240A004024094540258085402580B
:101930001C54025830540258445402585854025807
:10194000B80402402DE9F843044600F09FFB002C48
:1019500046D005462068B74FB8422AD0B6498842DB
:101960001CBFB649884224D0B54988421CBFB5493E
:1019700088421ED0B44988421CBFB449884218D05E
:10198000B34988421CBFB349884212D0B249884249
:101990001CBFB24988420CD0B14988421CBFB14932
:1019A000884206D0B04988421CBFB049884240F006
:1019B000E880022184F8351003F0D2FA016821F0A2
:1019C0000101016020680168C9070CD000F05EFBCE
:1019D000401B0628F6D320206065032084F83500DC
:1019E0000120BDE8F8830168A44AB946D4E902574A
:1019F000D4E906C301EA0208D4E90462D4E9081E66
:101A000045EA08053D4335432A431A43114341EA59
:101A10000C01BEF1040F03D1D4E90B231A43114387
:101A20006568A5F12902062A0FD3A5F13F02042A11
:101A30000BD3A5F14702022A07D3A5F14F02042ACE
:101A400003D325F00302742A01D141F4801101600F
:101A50004F46BEF1040F416921F0070141EA0E0132
:101A600028D1D4E90A53294323B3BCF5005F08D039
:101A7000BCF1000F11D1022D12D0012D07D07DB184
:101A800018E0032D16D8DFE805F00E0B0E02A3F1C7
:101A9000C072B2FA82F2520904E0032D03D309D1D5
:101AA000C3F3006232B140206065012084F8350044
:101AB000BDE8F883416103F093FB03F00AFB206863
:101AC000B8423BD0E24988421CBFE249884235D047
:101AD000E14988421CBFE14988422FD0E049884251
:101AE0001CBFE049884229D0DF4988421CBFDF493A
:101AF000884223D0DE4988421CBFDE4988421DD07F
:101B0000DD4988421CBFDD49884217D0DC49884244
:101B10001CBFDD49884211D0DA4988421CBFDB492D
:101B200088420BD0DA4988421CBFDA49884205D086
:101B3000D94988421CBFD94988426FD12046FEF757
:101B40000DFEA06804F16003802806BF00206060DD
:101B50006068C5B20ECB013807280D60536005D808
:101B60002046FEF741FE03F0C2FB03E00020C4E97B
:101B70001B00606700206065012184F83510BDE816
:101B8000F883C84988421CBFC04988420BD0C0496D
:101B900088421CBFBF49884205D0BF4988421CBF4C
:101BA000BE4988422ED1022104F1080584F835107F
:101BB00003F0D6F92ECD06686FF3101646EAD2026E
:101BC000A1F18006B6FA86F67609B603402908BF69
:101BD000102642EA0601D4E9066232432A431A4338
:101BE00041EAD201226A41EA121140F80819C0B252
:101BF0001421B0FBF1F08000E06503F0F1FA03F08E
:101C000002FA5CE7A6498842CDD0A7498842CAD0EB
:101C10009C4988423FF4CDAE4020DDE6A049884291
:101C20008CD0A04988423FF489AF9F4988423FF455
:101C300085AF9FE7100002402800024040000240AC
:101C4000580002407000024088000240A00002409C
:101C5000B800024010040240280402404004024040
:101C6000580402407004024088040240A00402406C
:101C70006C54025880540258B80402403F8010FE51
:101C8000B0B5002800F0B58003F0EDF804BF0220E5
:101C9000B0BD03F0E6FA40F0AA8003F02DF820680A
:101CA0006A49884224D06A4A90421CBF694A9042DD
:101CB0001ED0694A90421CBF684A904218D0684AB8
:101CC00090421CBF674A904212D0674A90421CBFA4
:101CD000664A90420CD0664A90421CBF654A9042C8
:101CE00006D0654A90421CBF644A904240F083800F
:101CF00002680B2363F344020260226C1AB10822CB
:101D000003681A43026088423BD0514A90421CBF8C
:101D1000504A904235D0504A90421CBF4F4A9042A0
:101D20002FD04F4A90421CBF4E4A904229D04E4A73
:101D300090421CBF4D4A904223D04D4A90421CBF56
:101D40004C4A90421DD04C4A90421CBF4B4A904294
:101D500017D04B4A90421CBF4B4A904211D0494A7F
:101D600090421CBF494A90420BD0494A90421CBF46
:101D7000484A904205D0484A90421CBF474A904288
:101D800059D1226E1368DB0303D5136843F48073C3
:101D90001360E26E1AB1136843F4807313608842D3
:101DA00023D02B4988421CBF2A4988421DD02A498A
:101DB00088421CBF2949884217D0294988421CBF44
:101DC0002849884211D0284988421CBF27498842A7
:101DD0000BD0274988421CBF2649884205D0264996
:101DE00088421CBF254988421CD103F0A7B903F0E3
:101DF00060FA0120B0BD224A90423FF479AF214AF7
:101E000090423FF475AF204A90423FF471AF0268B0
:101E1000052363F343020260226C002A3FF473AF90
:101E200004226DE716498842DFD016498842DCD08B
:101E300015498842D9E71A4A9042A2D0194A9042DD
:101E40009FD0194A90429CD0CFE700BF10000240BB
:101E5000280002404000024058000240700002404A
:101E600088000240A0000240B80002401004024076
:101E7000280402404004024058040240700402401A
:101E800088040240B8040240A004024008540258EA
:101E90001C540258305402584454025858540258A2
:101EA0006C5402589454025880540258B0B50446F9
:101EB00000F0ECF805460548611C007818BF0444A2
:101EC00000F0E4F8401BA042FAD3B0BD00000024AB
:101ED0002DE9FC4F5B4A0A244FF0000A4FF0000B3B
:101EE0009042594A08BF092402444FEAB223082B02
:101EF00038BF4FEAB2240094012700220E6836FA58
:101F000002F500F09C8007FA02F916EA090E00F0CB
:101F100090800323D1F804C003FA0BF50CF00308FA
:101F2000EE43A8F10105012D12D885685346D1F87A
:101F30000CA00AFA0BF435409A462C438460CCF38B
:101F400000144568944025EA09052C43446005E0E7
:101F5000B8F1030F02D14FF0030820E0C4688D6888
:101F6000344005FA0BF52C43C460B8F1020F16D1CA
:101F70000AF01C040F2303FA04FC6FF0030303EAC6
:101F8000520303441D6A25EA0C0C0D6905FA04F49A
:101F900044EA0C041C62D1F804C00CF00308046885
:101FA00008FA0BF33440234303601CF4403F40D055
:101FB000274C284E236843F00203236023680F2434
:101FC00003F002030193019D0AF00C0322F00305C4
:101FD0009C40AF5927EA0404009F07FA03F3234308
:101FE000AB514FF0B04633684D6843EA0E04EF0240
:101FF00058BF23EA0E043460144EAF02336843EA3C
:102000000E0458BF23EA0E043460AF03D6F88030C4
:102010004FF0010743EA0E0458BF23EA0E04C6F846
:102020008040ED03F36F43EA0E0458BF23EA0E0429
:10203000F4670AF1040A0BF1020B01325EE7BDE816
:10204000FC8F00BF002402580000FEA704000058C7
:10205000F4440258080400580069084018BF0120E1
:102060007047426902EA0103914341EA03418161F9
:102070007047002A08BF0904816170470248006860
:102080006FF31F30704700BF0010005C014800680C
:10209000704700BF189E002490F84120202A03D1E9
:1020A00090F84020012A01D1022111E0242280F879
:1020B00041200268136823F001031360136823F4BE
:1020C0008053136013681943734602F02CFE9E463A
:1020D0000846704790F84120202A03D190F840200C
:1020E000012A01D1022110E0242280F84120026857
:1020F000136823F001031360136823F4706343EA49
:102100000121734602F00FFE9E460846704700000C
:1021100000B3B0B5044690F8410018B903F003F9D4
:1021200000F024FA242084F84100D4E90003D4E923
:10213000021223F07063012A056825F0010505608D
:102140000361836823F40043836005D141F40041B7
:10215000816009E001207047022A41F40441816056
:1021600002D14FF40061416041680F4A04F110054B
:1021700011434160C16821F40041C1602ECD11437B
:1021800041EA0321C160216A29430160016841F0ED
:102190000101016000206064202184F84110206367
:1021A00084F84200B0BD00BF008000022DE9F84372
:1021B00002F007FE02D102F094FF03D10227384655
:1021C000BDE8F88302F09FFF02F025FF0028F6D15A
:1021D000222002F03EFF9E48B1F5807F06D3FF210A
:1021E00021850090204602F0C9FF01E003F021F8AC
:1021F000414602F09DF8089F0025FF26608D48B3F8
:10220000204639464A4602F0CFF840BB02F03EFE77
:10221000F4D00004F2D12046802100223B4602F097
:10222000CAFEE0B902F0D2FE21BF26850095204605
:10223000414627BFFF224FF08073608D20853FBF4E
:102240000095C2B22046414638BF4FF0007302F0FD
:102250006FF8D3E72046394603F01EF808B101278E
:10226000ADE7206820210027BF4B02F018FFA6E74A
:102270002DE9F84302F0A5FD02D102F032FF03D1AF
:1022800002273846BDE8F88302F03DFF02F0C3FEA6
:102290000028F6D1212002F0DCFEB248B1F5807FA3
:1022A00006D3FF2121850090204602F067FF01E060
:1022B00002F0BFFF414602F03BF8089F0025FF26D1
:1022C000608D48B3204639464A4602F0CDF840BBFF
:1022D00002F015FEF4D00004F2D120468021002245
:1022E0003B4602F068FEE0B902F070FE21BF268591
:1022F00000952046414627BFFF224FF08073608D36
:1023000020853FBF0095C2B22046414638BF4FF0FE
:10231000007302F00DF8D3E72046394602F0BCFF07
:1023200008B10127ADE72068202100278E4B02F07D
:10233000B6FEA6E72DE9F84F02F043FD0CD1DDF81B
:1023400028B0BBF1000F09D0DDF82C80B8F1000FE8
:1023500004D002F0C6FE07D1022502E002F071FFB0
:1023600001252846BDE8F88F02F0C5FE02F053FEB5
:102370000028F6D1222084F841000C990025F2B201
:10238000002302F072FE32488346A0F58060009080
:1023900002F06EFF02F0C4FE60B92068012E03D087
:1023A00002F0F9FE30B9206802F04FFF402101F041
:1023B000D7FF10B184F84050D2E702F007FE07D3F0
:1023C000FF202085CDF800B0514602F0D7FE07E08F
:1023D000608D51464FF000732085CDF800B0C2B239
:1023E00002F046FF0025FF26204604210022434636
:1023F00002F0E1FD0028B3D102F048FD17D000043F
:1024000015D1204680210022434602F0D4FD002849
:10241000A6D102F0DBFD06D3268500952046514665
:1024200002F0ACFE01E002F080FE01F081FF608D61
:102430000028D9D12046414602F02EFF00287FF423
:102440008FAF206820210025474B02F033FE88E73C
:10245000002400802DE9F84F02F0B3FC0CD1DDF828
:1024600028B0BBF1000F09D0DDF82C80B8F1000FC7
:1024700004D002F036FE07D1022502E002F0E1FEB0
:1024800001252846BDE8F88F02F035FE02F0C3FDB5
:102490000028F6D1212084F841000C990025F2B2E1
:1024A0004FF0807302F0E1FD2E48009002F0E0FE54
:1024B00002F036FE60B92068012E03D002F06BFEF8
:1024C00030B9206802F0C1FE802101F049FF10B14F
:1024D00084F84050D4E702F079FD08D3FF2020852E
:1024E0005146FF224FF080730020009007E0608D7E
:1024F00000214FF00073208500915146C2B202F0D6
:10250000B7FE0025FF2602F00BFE0028B8D102F02E
:10251000F6FC17D0000415D1204680210022434646
:1025200002F049FD0028ABD102F050FD06D326850C
:1025300000952046514602F021FE01E002F0F5FD33
:1025400001F0F6FE608D0028DDD12046414602F004
:10255000A3FE002894D1206820210025024B02F020
:10256000A9FD8EE70020008000E800FEB0B5B6B0FF
:10257000044602A8B0210830FDF7CBFE20681749B9
:10258000884229D1082000240394029002A800F078
:1025900043F908B1FEF789FA114D286840F00200AE
:1025A0002860286800F002000190CDE9334404203F
:1025B0003590122032904FF440703190019831A93B
:1025C0000848FFF785FCA86840F40010A860A868D8
:1025D00000F400100190019836B0B0BD00540040E6
:1025E000E0440258000402582948034900780A6868
:1025F00010440860704700BF189E002480B5032077
:1026000000F0D0F800F0C8FD0E490F4B0A680968C9
:1026100001F00F01C2F30322595C9A5C01F01F0123
:1026200002F01F02D0401B4A1060C84007490860F2
:102630000F2000F00DF808B1012080BD00F06CF80B
:10264000002080BD18440258447900080C00002482
:1026500070B50F4E04463078B0B14FF47A71B1FBCB
:10266000F0F00C490968B1FBF0F001F02DFC0125F8
:102670000F2C0AD848B94FF0FF3021460022002520
:1026800000F06AF8746000E00125284670BD00BFC4
:1026900000000024080000240278114943780B60F0
:1026A000D2B143684B60037B42EA0372C37A42EAC9
:1026B0000362837A42EAC342437B42EA8342837BDA
:1026C00042EA4342C37B42EA0342437A007A42EA47
:1026D000032242EA400001E0002048608860704721
:1026E00098ED00E00B48BFF35F8F016821F4803163
:1026F0000160002101677047064940F0010008674A
:10270000086840F480300860BFF34F8FBFF36F8FCD
:10271000704700BF24ED00E081B00648016841F039
:1027200002010160006800F002000090009801B012
:10273000704700BFF4440258002809D400F01F017C
:1027400080B2012202FA01F14009024A42F8201047
:10275000704700BF00E100E0F0B5184B4FF0FF36C6
:102760001C68C4F30224E51E84F0070438BF00256A
:1027700006FA05F7BA43042C28BF042406FA04F429
:10278000A14300F00F04A940043C1143044A234430
:1027900009010244002848BF03F10C021170F0BD8A
:1027A00000E400E005494FF6FF030A681A4060F3B1
:1027B0000A22034810430860704700BF0CED00E098
:1027C0000000FA05B0B50F4D2A682968520705D4F4
:1027D00001F00701081A18BF0120B0BD21F0070160
:1027E000084302F0EBFA044655F8080C800406D4BE
:1027F000FFF74CFC02F093FAF6D90120B0BD00209F
:10280000B0BD00BF0C4802580248016841F4807115
:1028100001607047004802582DE9F0470446C0782F
:10282000A74F00071CD5606E4FEA3051032908D826
:10283000DFE801F002090C11F96941F40031F96196
:1028400009E001260DE002F009FB01E002F083FB44
:10285000064630B9606E396C21F440110843386483
:1028600000266078BA46C00701D1354621E0A06D48
:1028700004280BD83546DFE800F0030C0F121200D5
:10288000F869354640F40030F86108E00125012779
:1028900010E002F0B3FB01E002F0CEFA05462F464D
:1028A00045B9A06D02F026FB21F007010843CAF8E4
:1028B000400037466078400720D5D4F8A4004FEA9E
:1028C0007050052807D8DFE800F003090C0F0F0F40
:1028D00002F05EFA08E00125012610E002F08EFB0E
:1028E00001E002F0A9FA05462E4645B9D4F8A40045
:1028F00002F0C7FA21F4600102F0E6FA3E46607881
:10290000000720D5D4F8A8004FEA3060052807D882
:10291000DFE800F003090C0F0F0F02F039FA08E0AE
:102920000125012710E002F069FB01E002F084FAC2
:1029300005462F4645B9D4F8A80002F0A2FA21F0C6
:10294000E06102F0C1FA3746E07880071DD5E06CFF
:102950004FEA3010032806D8DFE800F00B02080B1E
:1029600002F016FA05E0012501260FE002F076FAE2
:1029700005462E4655B9E06CDAF83C100025524663
:1029800021F030010843CAF83C003E466078C0069A
:102990001FD5E06D4FEA3030042807D8DFE800F09B
:1029A00003090C0F0F0002F0F3F908E001250127DD
:1029B00010E002F023FB01E002F03EFA05462F464C
:1029C00045B9E06D02F096FA21F4E0410843CAF8F7
:1029D00040003746607880061CD5206E4FEA3040B4
:1029E000052807D8DFE800F00C03090C0C0C02F0F6
:1029F00079FC04E0012501260DE002F055FC0546B6
:102A00002E4645B9206E02F075FA21F4E021084304
:102A1000CAF840003E46607840061DD5D4F8AC00A8
:102A20004FEA3070052807D8DFE800F00C03090CE6
:102A30000C0C02F057FC04E0012501270DE002F028
:102A400033FC05462F4645B9D4F8AC0002F019FA1C
:102A500021F0E04102F038FA37466078000617D5D9
:102A6000E06E58B1B0F1005F05D0B0F1805F23D1C6
:102A700002F08EF902E002F035FC05462E4645B91B
:102A8000E06E02F037FA21F040510843CAF84000E6
:102A90003E46E078C00702D1B046574623E0A06C1E
:102AA000574603280ED8DFE800F014021114F86925
:102AB00040F40030F8610CE001250126E9E700BF91
:102AC0001044025801254FF001080CE002F0C6F94D
:102AD0000546A8463DB9A06CF96B0025B04621F02B
:102AE00003010843F863A078400601D4474616E086
:102AF000D7F8F00340F48070C7F8F003FFF7C6FA88
:102B00000646D7F8F003C00507D4FFF7BFFA801BCD
:102B10006428F6D90325032701E02F467DB12078EC
:102B2000C00746D0A06F4FEAF000052832D8DFE892
:102B300000F037033437373702F0D4FB2FE0DAF8F0
:102B40006010D4F8B0005546414011F4407F0BD0DE
:102B5000296E2A6E42F480322A6621F440712A6E70
:102B600022F480322A662966B0F5807F40F0EF813A
:102B7000FFF78CFA064641F288390327DAF860003D
:102B8000800700F1E181FFF781FA801B03254845AA
:102B9000F4D9C4E7012501260CE002F085FB0546C7
:102BA0002E463DB9A06F02F0BEF921F0380102F0C7
:102BB000C6F93E462078800719D5606F052807D8EA
:102BC000DFE800F00C03090C0C0C02F08BFB04E0B6
:102BD000012501270CE002F067FB05462F463DB9B1
:102BE000606F02F0A0F921F0070102F0A8F9374662
:102BF000207840071BD5D4F89000052807D8DFE8D7
:102C000000F00C03090C0C0C02F06CFB04E0012535
:102C100001260DE002F048FB05462E4645B9D4F8E2
:102C2000900002F02EF921F0070102F04DF93E4626
:102C3000207880061DD5D4F88C004FEA3070052826
:102C400007D8DFE800F00C03090C0C0C02F0D6F9F1
:102C500004E0012501270DE002F07DF905462F462D
:102C600045B9D4F88C0002F05EF921F0E04102F0A1
:102C700066F93746207840061DD5D4F898004FEA0B
:102C8000B020052807D8DFE800F00C03090C0C0C75
:102C900002F0B4F904E0012501260DE002F05BF931
:102CA00005462E4645B9D4F8980002F0EAF821F41A
:102CB000E05102F009F93E46207800061DD5D4F80F
:102CC0009C004FEA7030052807D8DFE800F00C03BD
:102CD000090C0C0C02F092F904E0012501270DE02B
:102CE00002F039F905462F4645B9D4F89C0002F0A8
:102CF000C8F821F4604102F0E7F837462068010780
:102D000013D5D4F88000B0F5805F06D102F023F926
:102D1000002818BF0127D4F88000DAF84410524682
:102D200021F4405102F00BF92068C10613D5D4F804
:102D30009400B0F5807F06D102F00DF9002818BF8D
:102D40000127D4F89400DAF84810524621F4407173
:102D500002F0BAF82068000318D5D4F8A000B0F546
:102D6000003F09D0B0F5803F03D010BB02F046F918
:102D700001E002F0F0F805462E4645B9D4F8A0006F
:102D800002F07FF821F4403102F09EF83E46A07830
:102D900040071ED5D4F88400B0F5401F0FD0B0F521
:102DA000001F09D0B0F5801F40F0C98001F0F0FF8E
:102DB00005E001250126EAE702F076FA05462F46EE
:102DC00045B9D4F8840002F0AEF821F4401102F0C5
:102DD000B6F83746A078C00701D13E4619E0206D0D
:102DE000B0F5803F03D090B901F0D2FF02E002F0CD
:102DF00035F805462E4665B9206DDAF83C100025F9
:102E0000524621F480310843CAF83C00E5E7012529
:102E100001262168880001D4606806E002F09BF872
:102E2000002818BF0126D4E900108A0319D5E26FE3
:102E30006FF0010303EB3223022B0AD34FEA322354
:102E40003BB1012B7ED1DAF81C3043F40033CAF8D1
:102E50001C303DB9DAF8443023F440731A43CAF801
:102E600044203546CA0207D5226FDAF8403023F0F5
:102E700000431A43CAF840208A0207D5A26EDAF846
:102E8000403023F080731A43CAF840204A000CD522
:102E9000DAF8002022F40042CAF80020D4F8B42066
:102EA000DAF800301A43CAF80020CA0F07D0626D62
:102EB000DAF83C3023F040531A43CAF83C200902A8
:102EC00008D5D4F88810DAF8442022F440021143DF
:102ED000CAF84410C10705D002F090F8002818BFC6
:102EE00005466068810705D502F0FCF9002818BF87
:102EF00005466068410705D501F0B0FF002818BFFE
:102F000005466068010705D501F096FF002818BF47
:102F100005466068C10605D502F0C6F9002818BF4D
:102F200005466068800604D502F015F8002818BF31
:102F30000125002D18BF01252846BDE8F087012591
:102F4000012747E701258DE75546D4F8B0002A68E8
:102F5000094900F4407322F47C5201EA1011B3F5E0
:102F6000407F6FF31F3008BF0A432A60296E084371
:102F700028660025BAE500BFCFFFFF002DE9F84322
:102F8000002800F0FB807F4D04468846286800F04A
:102F90000F0088420BD2286820F00F0040EA08009A
:102FA0002860286800F00F00404540F0E780206866
:102FB000AF4F410709D52169BA6902F086F804D9F3
:102FC000BA6922F070021143B961010709D561693C
:102FD000FA6902F07AF804D9FA6922F07002114312
:102FE000F961C1060AD5A169FA6902F4E062914269
:102FF00004D9FA6922F4E0621143F961810609D526
:10300000E1693A6A02F061F804D93A6A22F0700282
:103010001143396210F002010AD0E268BB6903F083
:103020000F039A4204D9BB6923F00F031A43BA6114
:10303000C2073AD0D4E90101BA6922F4706211439F
:10304000B961012807D0032809D002280BD13968BB
:1030500089030CD492E03968C90508D48EE0396838
:10306000890104D48AE03968490740F187803969C9
:10307000A94621F0070108433861FFF707F8064623
:1030800041F288356068396901F03801B1EBC00F51
:1030900007D0FEF7FBFF801BA842F3D90320BDE851
:1030A000F88320684D4600F0020151B1E168BA6929
:1030B00002F00F02914204D2BA6922F00F021143CA
:1030C000B961296801F00F0141450AD9296821F049
:1030D0000F0141EA08012960296801F00F0141450B
:1030E0004CD1410709D52169BA6901F0EEFF04D23C
:1030F000BA6922F070021143B961010709D561690B
:10310000FA6901F0E2FF04D2FA6922F07002114379
:10311000F961C1060AD5A169FA6902F4E062914237
:1031200004D2FA6922F4E0621143F96180060AD5FB
:10313000E069396A01F07001884204D2396A21F0ED
:1031400070010843386200F027F8B9690E4A0F4B46
:10315000C1F30321515C01F01F01C840B969186037
:1031600001F00F01515C01F01F01C84008490860DF
:1031700008480068BDE8F843FFF76ABA0120BDE8D7
:10318000F88300BF002000524479000808000024A2
:103190000C0000240400002410B535490869C0F370
:1031A000C20003280FD0022804BF334810BD40B925
:1031B0000868800634485AD50968C1F3C101C8407F
:1031C00010BD2C4810BD8A6A886ACC6A4B6BC0F36C
:1031D000051000B304F0010402F00302644204EAA3
:1031E000D303022A6FF35F3300EE103AB8EE400AC1
:1031F00013D0AAB90A68920651BF9FED221A0A6835
:10320000C2F3C102204B42BF23FA02F201EE102AA0
:10321000B8EE411A06E0002010BD9FED191A01E03A
:103220009FED161A0A6B9FED193A6FF35F2202EEBB
:10323000102AB8EE422A00EE032AB7EE000A32EE58
:10324000000A02EE100A086BC0F34620B8EE422ACC
:10325000013081EE021A21EE000A01EE100AB8EEEA
:10326000411A80EE010ABCEEC00A10EE100A10BD31
:103270000044025800093D0040787D010024744A52
:1032800020BCBE4B0024744C0090D00300000039D9
:1032900070B586B00D46014614462348234E09B347
:1032A000D6F8D01000F5006041F00401C6F8D01047
:1032B000D6F8D01001F004010091032104910221FD
:1032C00002914FF400710191002105910391009941
:1032D00001A9FEF7FDFD306820F07E4040EAC410F1
:1032E00028431DE0D6F8D01041F00101C6F8D010F7
:1032F000D6F8D01001F001010091032104910221C0
:1033000002914FF480710191002105910391009980
:1033100001A9FEF7DDFD306820F0FE702843204350
:10332000306006B070BD00BF000002581044025863
:10333000F8B5002800F0DC8004460078D74EC007BE
:103340001FD1207880075CD5306910F03801B06A51
:1033500039D0182901D1800735D03068E1680029BB
:1033600000F0248120F01900084301F0C2FC05465A
:10337000306840073ED4FEF789FE401B0228F7D98B
:103380005FE1306900F03801B06A102905D01829D2
:103390000AD100F00300022806D130688003D0D59E
:1033A00060680028CDD1A3E06068002800F0268185
:1033B000B0F5A02F00F03281B0F5803F00F03281EF
:1033C00001F0C1FD31E1E0683168490702D500280C
:1033D00000F08E80316821F01901084301F089FC6A
:1033E00005463068400705D4FEF750FE01F0CCFCDE
:1033F000F7D9F8BD2069716821F0FE4141EA00600B
:1034000070602078C0061AD5306900F03801B06AC3
:10341000082907D0182940F0938000F00300012804
:1034200040F08E803068C00502D5E06980285FD109
:10343000206AF16821F07C5141EA0060F060207858
:10344000000757D42078800667D42078400700F121
:103450008A80676A002F49D0306900F03800182848
:1034600040F00081B16A306B012F41D0A26A01F0B7
:10347000030393423CD1E26AC1F30511914237D173
:103480000146226B6FF35F21013A914230D1626BAA
:10349000C0F34621013A91422AD1A26BC0F3064102
:1034A000013A914224D1E16BC0F3066001398842B0
:1034B0001ED1A06C716BC1F3CC01884216D0F06AAA
:1034C00020F00100F062FEF7E1FD0546FEF7DEFDAB
:1034D000A842FBD0706B4FF6F8718843A16C40EAAC
:1034E000C1007063F06A40F00100F0620020F8BD96
:1034F0000120F8BD706F6169002947D040F00100DC
:103500007067FEF7C3FD0546706F80079AD4FEF71B
:10351000BDFD401B0228F7D993E03068A16900295E
:103520005DD040F4805001F0E4FB05463068800433
:103530003FF58BAFFEF7AAFD401B0228F6D980E0CD
:103540003068E16900297ED040F0800001F0D1FBB5
:1035500005463068C0053FF56BAFFEF797FD01F0FB
:1035600013FCF6D945E7D6F8000440F48070C6F89D
:103570000004FEF78BFD0546D6F80004C00524D4F0
:10358000FEF784FD401B6428F6D95AE020F00100C4
:103590007067FEF77BFD0546706F80077FF552AFC1
:1035A000FEF774FD01F0F0FBF6D922E720F00100F0
:1035B00001F09FFB0546306840077FF522AFFEF71C
:1035C00065FD01F0E1FBF6D913E7A068002867D09C
:1035D000052878D001287AD001F008FD7AE020F49F
:1035E000805001F086FB0546306880047FF52DAFE2
:1035F000FEF74CFD01F0C8FBF6D9FAE601F0A3FC9A
:1036000001F077FB0546306880037FF59AAEFEF740
:103610003DFD411B03206429F5D9EAE6306840F4FA
:1036200080203060306840F4803001F062FB054655
:10363000306880033FF585AEFEF728FD401B642807
:10364000F6D90320F8BD20F0800001F052FB0546BA
:103650003068C0057FF5F3AEFEF718FD01F094FB6E
:10366000F6D9C6E6306820F0807001F042FB0546CE
:10367000022F08D1306880013DD5FEF707FD01F02B
:1036800083FBF7D9B5E6306880017FF52FAFFEF7F1
:10369000FDFC01F079FBF6D9ABE600BF004402580F
:1036A00001F0A4FC3067FEF7F1FC054641F28837D3
:1036B000306F80077FF5CDAEFEF7E8FC411B03209D
:1036C000B942F5D995E6306F40F004003067306FAD
:1036D00040F001003067FEF7D9FC054641F288371B
:1036E000306F80073FF5B5AEFEF7D0FC411B0320DD
:1036F000B942F5D97DE604F12805B06A40F2F3310C
:1037000088432ECD0843591E40EA0210B0626FF381
:103710005F214FF4FE024FF47E4000EB452080B263
:103720000844A16B02EB01414FF0FE4201F4FE019F
:103730000844E16B02EB016101F0FE410844306393
:103740004FF6F871F06A20F00100F062706B884368
:10375000A16C40EAC1007063206CF16A21F00C0199
:103760000843F062F06A616C20F002000843F062E6
:10377000F06A40F48030F062F06A40F40030F062A9
:10378000F06A40F48020F062F06A40F00100F062DC
:10379000306840F0807001F0ACFA04463068800177
:1037A0003FF5A4AEFEF772FC011B03200229F5D9F8
:1037B0001FE6000070B560B3044690F8210028B9F8
:1037C000002084F82000204600F038F8022084F819
:1037D00021002068C168C9062AD4CA21416201F0CB
:1037E000C3FB90B994E80F00134E8568354085609F
:1037F00025692943A569294385682943816043EAEE
:103800000241016101F058FB28B12168FF224A62A0
:1038100070BD012070BD20686169E2691143C36C0D
:1038200023F00303C364C26C1143C164FF214162EE
:1038300001F04EFB70BD00BFBFFF8FFF10B5AEB0F3
:1038400004466846B0210830FCF763FD20680C4947
:10385000884212D1002001904FF4800000904FF474
:1038600080702C906846FEF7D7FF08B1FDF71DF970
:103870000448016841F4004101602EB010BD00BF52
:1038800000400058704402582DE9F04101F09EFAC2
:1038900041D084F82100012084F820004AB16978E1
:1038A000EB782878AA780902460341EA03418D188B
:1038B00016E06E78F00604D506F0EF0000F10A0677
:1038C0006E70E878DFF8FC80C04707463046C04796
:1038D000000240EA0746A878C04706442878450316
:1038E0002068CA21416201F03FFB18B12168FF2224
:1038F0004A620DE045EA0600216820F0C0004860F9
:1039000001F0DAFAFF2221684A6208B901F0E0FA10
:10391000002184F82010BDE8F08100BF2DE9F041BE
:1039200001F054FA4BD084F82100CA2116462068D1
:103930004162012184F8201001F016FB18B12168C2
:10394000FF224A6238E02768B86800F040001EB1E4
:1039500098B90020E87012E008B90020E8702878D3
:10396000DFF86080C04706466878C04701F0C6FCB3
:10397000E978304440EA815009E0E87880056A78C7
:103980002978AB78120242EA0141194408430E49F2
:1039900008403860B86820F48020B860D5E9030199
:1039A0000843B9680843B86001F086FAFF2221682D
:1039B0004A6208B901F08CFA002184F82010BDE8B1
:1039C000F08100BF495600087F7F7F00B0B50446F4
:1039D00000680949C160FEF759FB05462068C068C8
:1039E000800606D4FEF752FB01F0FDFBF6D903205A
:1039F000B0BD0020B0BD00BF5FFF03002DE9F8435C
:103A000048B3044600205D4AA0622068904208D076
:103A10005B49884205D05B49884202D0E1680F29A2
:103A200019D8E168E36B0125083105EB5313C90888
:103A3000594390420DD0534A90420AD0504A904286
:103A400018BF082907D802F57443984218BF90425E
:103A500004D1102902D90120BDE8F88394F881002F
:103A600020B901F065FA204600F08EF8022084F8B3
:103A70008100D4E90009D4F81880B8F1806F036898
:103A800023F001030360836803F4F81E12D1B9F137
:103A9000000F07D0B9F5800F0CD1A56B35B14FF4ED
:103AA00080090DE0A56BB5F1805F64D1056845F430
:103AB000805505605FEA492502D44FF0010C0DE006
:103AC000E668072E08D3256D07684FF0000C27F431
:103AD00080773D43056006E04FF0000C066826F451
:103AE00080760660E668E269A16AA768D4E90453B3
:103AF00042EA0E021143E26B114331438160616A75
:103B0000626B1143A26B1143226A2943194311438B
:103B1000D4E91223194339431143A26D114341EAF9
:103B20000801B9F1000F41EA0901C1600DD0016D32
:103B3000BCF1000F21F00101016514D1616DC26873
:103B400022F000421143C1600DE08168012262F35E
:103B5000CC2181600222816862F34A218160016D7B
:103B600021F0010101650020C4F88400012184F8DE
:103B70008110BDE8F8834FF000099EE7003800404F
:103B8000003C00400030014010B5B6B0044602A829
:103B9000B0210830FCF7BDFB2068184988422BD1C2
:103BA0004FF4005000240394029002A8FEF734FE64
:103BB00008B1FCF77AFF1248016941F40051016134
:103BC000016901F4005131913199016841F010010E
:103BD0000160006800F01000019005203590012080
:103BE000CDE93340022032904FF4A040319001984B
:103BF00031A90448FEF76CF936B010BD003401401D
:103C0000E0440258001002582DE9F84301F0A9FAE7
:103C100025D001201D4617460E4601F012F901F08D
:103C200013FA1AD1F6B1EFB1042001F021F9A4F88A
:103C30006A70A4F868706666A4F86000E065C4E97C
:103C40001C00A4F86200A1682068B1F5C02F0DD156
:103C5000016821F4006101600DE001F069F90220C2
:103C6000BDE8F88301F09AF9BDE8F883C168022243
:103C700062F35241C16001F0BAFA01D101F020FBB8
:103C8000E06810281ED348F208066F1CB4F86A00DA
:103C9000002847D020684169314206D0006B616E30
:103CA00001C1616601F065F9F0E7FEF7EFF9002F59
:103CB000ECD001F078F9E9D301F00FF901F03FF809
:103CC000BDE8F8836E1C072817D9B4F86A0048B31A
:103CD00020684069C00707D1FEF7D8F9002EF4D05C
:103CE00001F061F9F1D3E7E7B9F83000616E21F82E
:103CF000020B616601F03DF9E7E7B4F86A0088B1AC
:103D000020684169C90707D1FEF7C0F9002EF4D039
:103D100001F049F9F1D3CFE701F051F9606601F004
:103D200028F9EAE701F0D9F801F07EF918BF01207F
:103D3000BDE8F8832DE9F04701F013FA25D0012002
:103D40001D4617460E4601F07CF801F07DF91AD1A8
:103D5000F6B1EFB1032001F08BF8A4F86270A4F87B
:103D60006070E665A4F868006066C4E91C00A4F809
:103D70006A00A1682068B1F5C02F0DD1016841F437
:103D8000006101600DE001F0D3F80220BDE8F0878A
:103D900001F004F9BDE8F087C168012262F35241E5
:103DA000C16001F024FA01D101F08AFAE06810281C
:103DB00019D36E1CB4F8620000286FD001F0F7F838
:103DC00007D4FEF763F9002EF4D001F0ECF8F1D33C
:103DD00074E0E16D04C90262E165B4F86200013883
:103DE000A4F86200E6E7072824D901F04AF9B4F8FC
:103DF0006200002852D001F0DAF807D4FEF746F945
:103E0000002EF4D001F0CFF8F1D357E0B4F86210EF
:103E1000022906D3E16B21B1E16D04C9026250466B
:103E200005E0E16D31F8020BA9F82000384601F0F9
:103E30002FF9DCE701F025F9B4F8620070B301F066
:103E4000B6F807D4FEF722F9002EF5D001F0ABF852
:103E5000F2D333E0B4F86210042908D3E16B4129AE
:103E600005D3E16D04C902624FF6FC7013E0B4F8AB
:103E70006210022908D3E16B31B1E16D31F8020B18
:103E8000A9F82000504606E0E16D097880F820107E
:103E9000E06D411C384601F0FBF8CDE7204629468D
:103EA000424601F083FC08B101F099F801F015F8E1
:103EB00001F0BAF818BF0120BDE8F08701F00DF855
:103EC00000F03DFFBDE8F087411E0020B0EB116F10
:103ED00001D001207047044AF023516003490B7060
:103EE000906007211160704710E000E023ED00E0D2
:103EF000F0B590F83C20012A01D1022140E091E880
:103F00003C00204E25F47C5524F47054334022F4B8
:103F100077222C43704D23431A430B6923F47623F5
:103F20001A434B691A430B6B22F4742223F4702357
:103F30001A438B6942EA0343026842F48064AC424C
:103F400002BF23F08053CE693343AC4214D1AE4656
:103F50008D6A0D4FD1E9086C23F07C7307EA055593
:103F60002B4326F000752B4343EA0C03744502BF34
:103F700023F00053C96A0B43002180F83C105364BE
:103F80000846F0BDFF87F0FF0000F0FC70B590F828
:103F90003C300222012B32D080F83D204E4C02688A
:103FA00042F4806655689368A64202BF25F4700506
:103FB0004E6835430E6825F0700535435560B2F103
:103FC000804F11D03D4DAA421CBF3D4DAA420BD09F
:103FD0003C4DAA421CBF3C4DAA4205D03B4DAA42D3
:103FE0001CBF3B4DAA420CD123F0800389681943C2
:103FF0009160002280F83C20012180F83D1010469D
:1040000070BD854DAA42EFD0324DAA4218BFA242E0
:10401000EAD0EEE710B5044641B108290ED00429D4
:1040200014BF04F1470004F1450009E094F844008E
:10403000012812D1022084F8440012E004F1460065
:104040000078012809D10220082908D0042914BFCA
:1040500084F8470084F8450003E0012010BD84F88F
:1040600046002068042202F093FA00F0D1FE11D03D
:10407000124881421CBF124881420BD01148814234
:104080001CBF1148814205D0104881421CBF104816
:10409000814208D18868114A00F07CFF18BFB2F550
:1040A000803F09D110BD5C488142F3D0094881426C
:1040B000F0D009488142EDD001F0DDB800040040A5
:1040C00000080040000C00400018004000E00040E4
:1040D00000E40040004001400004014007000100EE
:1040E000FEB500684C49884217D10D48016841F07F
:1040F00010010160006800F01000009001200590A0
:104100000020CDE90300022002904FF4806001906E
:10411000009801A90348FDF7DBFE06B080BD00BF93
:10412000E044025800100258B0B501F0B8F804BFDE
:104130000220B0BD01F0A9F8052948D8DFE801F058
:10414000030B131B23332068294602F031FA206841
:1041500050F8181F1EE02068294602F069FA20680E
:1041600050F8181F26E02068294602F099FA2068C6
:1041700050F81C1F0EE02068294602F0CDFA206896
:1041800050F81C1F16E02068294602F0F5FA206856
:1041900050F8541F41F008010160016821F004014A
:1041A000016029690FE02068294602F00FFB2068B2
:1041B00050F8541F41F400610160016821F48061EE
:1041C0000160296909020268114301600020002191
:1041D00084F83C10B0BD58B110B500F0E3FF03D136
:1041E00000F0F8FE00F006F801F08DF800F0F5BDE3
:1041F0000120704781B000680749884209D107480B
:10420000016841F001010160006800F001000090C8
:10421000009801B0704700BF00000140F044025810
:10422000FEE700688169890701D500218162816903
:10423000C90703D1816941F0010181617047000024
:104240002DE9F041044600680D468169C90602D493
:104250000025002139E01021C16116464FF0000809
:104260006F1C0021826902F020020A4327D12FB17E
:10427000FDF70CFF801BA84203D815B10021206870
:10428000F0E72068426894F8421083691B0409D55E
:1042900012F4804206D1202904D001F01EF8FDF767
:1042A000F5FE0646206880698006E7D4FDF7EEFE3D
:1042B000801B1A28F6D348F020080121DFE709B94E
:1042C0002021C16148F0040501218269D30505D58B
:1042D0004FF48071C16145F001050121530505D4FA
:1042E00092050AD471B90020BDE8F0814FF48061D5
:1042F000C16145F00805910504D545F002054FF46C
:104300000071C1612046FFF78CFF2068474A416871
:1043100011404160606C28436064202084F84100B3
:10432000002084F8400084F842000120BDE8F081BC
:1043300070B56FF39F21049C4FF480650068074EB1
:1043400041EA024105EA5455194375404668214344
:10435000354021F000412943416070BD009C00FCC4
:104360002DE9F8431D4616460F460446DDF8208029
:1043700003F1010900F006FF12D1B9F1000FF9D0E5
:10438000FDF784FEA0EB0800A84201D8002DF1D172
:1043900000F0F8FEEED100F0D7FE0120BDE8F88372
:1043A0000020BDE8F883000070B515460E460446AF
:1043B0002068806940071ED400F0ADFE98BB2068DD
:1043C0008169890612D4FDF761FE401BB04201D815
:1043D000002EEDD1206880694007E9D4606C40F080
:1043E00020006064202084F841001AE081694907B8
:1043F00003D5218D09B1002070BD81690022C90655
:104400004FF0000102D51022C26104226264202212
:10441000C261064D43682B40436084F8412084F814
:10442000421000F01AFF012070BD00BF00E800FE3E
:1044300070B515460E46044620688069800611D482
:1044400000F069FE60B9FDF721FE401BB04201D8C3
:10445000002EF1D1206880698006EDD400F074FE52
:10446000012070BD002070BDF8B515460E4604460B
:104470004F1C20688069800713D400F04CFE70B98F
:10448000002FF6D0FDF702FE401BB04201D8002EEF
:10449000EFD1206880698007EBD400F055FE012041
:1044A000F8BD0020F8BD000070B52DED048B194E4D
:1044B0000C463168896B814228D03CB300EE101A5B
:1044C00001EE104AB8EE408A00EE100AB8EE411A2A
:1044D000B8EE400A30EE480A80EE019AFDF7D6FDAC
:1044E00005460120FDF7E2FCFDF7D0FD401BB0EED4
:1044F000481A316800EE100AA042B8EE400AA0EE59
:10450000091ABCEEC10A81ED0E0AEAD3BDEC048B98
:1045100070BD00BFCC0700242DE9F04F03AF8FB072
:10452000814608208A468F4C1D4616460C2B08BF34
:10453000062047F81C0C47F838DC5843072101EBEC
:104540004000218820F0070047F8201CADEB000058
:1045500047F8280C8546DFF82484A7F1180108F1F4
:10456000080B584601F0FEFAA7F11401584647F827
:1045700044BC01F0FDFAA6F1200047F8409CC1B20E
:10458000B86947F82C1C002867D02088C84600224C
:1045900057F8146C4FF0000C54464FF0000900BA65
:1045A000000C47F8240C57F8180C47F83C0C6E48E0
:1045B00000EB011047F8300CAC4500F0BA8057F81A
:1045C000300C01EB4101694B0C2D4FF0000E6044A3
:1045D00003EB810108BF01EB0C0057F8283C2CF0DD
:1045E000010100780B4404F1080147F8341CBEF1C6
:1045F000070F2BD841B2B1F1FF3F09DC1FFA89F157
:1046000057F81C2C514357F8242C23F81120002272
:104610000134A1B28E4240F2998009F10109A1EB67
:104620000A010EF1010E1FFA89FBAB4528BF914626
:104630004000A942DBD1404657F83C1C544608F1E3
:104640000100804680B2814202D87FE057F8344CA6
:104650000CF1010C57F82C1CAEE7B8F8000057F825
:10466000148C00265446002347F83C9C00BA4FEABD
:10467000104C57F8180C47F8480C3B4800EB011059
:1046800047F8300CAE4254D057F8300C01EB4101E2
:10469000364A0C2D4FF0000E304402EB810108BF6A
:1046A000881957F8282C47F8246C26F00101007867
:1046B00002EB010904F108012A4A47F8341CBEF153
:1046C000070F2DD841B257F8202C0029614648BF6A
:1046D00051BA9AB257F81C6C013472431FFA84FB2A
:1046E00029F81210D84531D901330EF1010E9AB2D2
:1046F000AA424FF0000228BF1346ABEB0A0240006B
:10470000AA42184ADBD157F83C0C118057F8481CD4
:104710005446013047F83C0C80B2814203D815E082
:1047200057F8344C118057F8246C57F82C1C01367C
:10473000A8E782B057F81C0CCDE90005524657F89F
:10474000283C57E9110101F061F902B0054857F81A
:10475000201C018057F838DCA7F10C04A546BDE801
:10476000F08F00BF140000249DE2000829DE00083D
:104770002DE9FE4F83465818DDF830A00C460D9FFA
:1047800000264FEA5A091FFA80F85D4602EB0B013A
:1047900002913A78A2F12000C0B25E2814D80298A3
:1047A000ABB280B2834228BF5444A1B241450BD280
:1047B0008342009628BF5FFA8BF5A8B25346FFF7F5
:1047C000ABFE4D440137E4E7BDE8FE8F2DE9F04F25
:1047D00087B0694C4FF48070684D694905F1080B4A
:1047E000A0810320A060584601F00AFC654E58469F
:1047F0000521224633689847B268291D58469047DC
:10480000DFF884A10021614B0022DAF80000816307
:1048100058460021B46AA047FDF738FC05465C48BD
:104820005C4E6427A0EB050900F0A9FB012858D0D5
:104830000A20FDF73BFBFDF729FC0446FDF726FCAB
:10484000A0EB0508601BB0F57A7F09D808FB07F0DC
:104850004FF47A71B0FBF1F0DAF800108863E3E707
:10486000FDF714FC40F6B831884531D848440A2198
:1048700002ACB0FBF1F2204647A102F003FEDFF8E4
:10488000F880102001211023B8F80020CDE90004A1
:10489000A2F11E0080B2FFF76BFF3A483746D8F806
:1048A0000460846BFDF7F2FBD8F800104844032243
:1048B000009248434FF6FF724FF4FA610192F21EE4
:1048C0003E466427B0FBF1F358460021A047ABE712
:1048D000401B40F6B9318842A6D302E00A20FDF71A
:1048E000E5FA00F04CFB0128F8D000204FF4967157
:1048F0000024FFF7D9FD23481F4E00210022856BBD
:10490000D6E90030CDE900045846A8472448029073
:10491000274C1023102522A0D0E90112CDE9031263
:10492000007B32888DF8140004200421009502AF2A
:104930000197A047FDF7A2FB02461EA1384602F0F0
:10494000A1FD3288042016211023CDE90057A0478D
:104950000A481CA14268384602F094FD32880420BF
:1049600028211023CDE90057A0476420C82107B0B3
:10497000BDE8F04FFFF798BDE00000249800002448
:104980006400002418000024CC070024E07900080B
:1049900018FCFFFF000802582530336400000000B7
:1049A00057654163742053747564696F000000009B
:1049B0007147000853544D333248377878203078A7
:1049C000255800004C43442049443A30782558008B
:1049D00010B50C4C002020210B4AC4E90210C4E998
:1049E0000020C4E90400A06104F120001421FBF7B9
:1049F00090FC2046FCF7C2F818B1BDE81040FCF767
:104A000054B810BD0406002400000248E0B50E486A
:104A10000022016841F0010101600068002100F0FE
:104A20000100019001980B20FDF796FE0B20FDF789
:104A300083FE662000210022FDF78EFE6620BDE881
:104A40008C40FDF779BE00BFD844025870B586B0DF
:104A50002A48002605962A4C00224FF4205501686A
:104A600041F010010160016801F0100100F036F919
:104A700041F004010160016801F0040100F02EF929
:104A800041F080010160016801F0800100F026F929
:104A900041F001010160016801F0010100F01EF91F
:104AA00041F008010160016801F0080100F016F909
:104AB00041F00201016000684FF4205100F0020053
:104AC000009000982046FDF7D4FA0120CDE903605C
:104AD000CDE9015001AD20462946FDF7F9F9022044
:104AE000029029460596CDE903664FF48070019047
:104AF000A4F58050FDF7ECF906B070BDE044025813
:104B00000010025810B5124C01200021114A124B1E
:104B1000C4E9021004F110001421C4E90032FBF7CB
:104B2000F8FB2046FDF7F4FA08B1FBF7BEFF084892
:104B30000021FDF7B1FA08B1FBF7B7FF04480021E7
:104B4000FDF7C8FA18B1BDE81040FBF7AEBF10BDC5
:104B5000CC060024724E40600054004010B586B070
:104B600017480024174BFF217F22CDE90244CDE9ED
:104B70000044C0E90034C0E90221C0E90444C0E9AE
:104B80000644FEF717FE08B1FBF78FFFCDE904449A
:104B90008DF80640ADF80440094801A90122FEF74E
:104BA000BDFE08B1FBF781FF07480090694601226E
:104BB0000348FEF769FE08B1FBF777FF06B010BDAA
:104BC000200700240040005801010100F8B5144CF2
:104BD00000204FF000514FF0806207234FF4C025B2
:104BE0004FF480060F4F2062C4E90400C4E90900B5
:104BF000E0624FF08040C4E9062160632421C4E9EB
:104C00000076C4E9025304F13800FBF782FB20462A
:104C1000FEF7F4FE18B1BDE8F840FBF746BFF8BD5B
:104C20004407002400340140B0B598B00EA81C2100
:104C3000FBF76FFB01A83421FBF76BFB2448002432
:104C400040F2E7310D22234BC0E90032C0E90241B6
:104C5000C0E904448461FFF7BEFA08B1FBF725FF01
:104C60001794CDE915441A4815A9FFF78FF908B133
:104C7000FBF71BFF0820119000251495CDE9125574
:104C8000CDE90F55042260200E900EA91048FFF7C1
:104C90004BFA08B1FBF709FF01AC14212046FBF7E2
:104CA00038FB4FF00070CDE9095021460D950B956A
:104CB00007954FF4005006900548FFF719F908B121
:104CC000FBF7F3FE0248FFF70BFA18B0B0BD00BFC8
:104CD000CC07002400000140FEE7FEE700910099A8
:104CE0000168704700903146CDE90378CDE901971E
:104CF00070473060FDF7CAB9022084F83500002003
:104D000060652068056825F0010505602046FBF711
:104D1000D9BD016841F0010101600020F8BD001B10
:104D2000B0F57A7F70471160116841F001011160A0
:104D30002022002180F8401080F841207047D4F8EC
:104D4000840040F48070C4F88400002084F880005F
:104D5000012084F881000320704720464FF4006151
:104D60000122FDF786B98DF8EF0039460122304661
:104D7000584728712846FBF7E3BBFF200121304745
:104D80000091009901687047411B03200229704778
:104D9000DAF81C00514640F40030CAF81C00704795
:104DA000002084F83400012084F835007047012089
:104DB00084F8340094F83500012870472860FDF726
:104DC00065B9044690F84100202870470D4690F8D8
:104DD00020100446022001297047012084F8480071
:104DE00084F83E0084F83F0084F8400084F84100D5
:104DF00084F8420084F8430084F8440084F84500B5
:104E000084F8460084F8470084F83D00002010BD77
:104E10002168B1F1804F486C40F40040486470470D
:104E20000D4606464FF4006100222046FDF721B9E9
:104E3000304639460122704704F12800002100F075
:104E4000A1BBD4F8009084F88000FDF71FB91321AE
:104E5000002307F120044A462046284704F10800B1
:104E6000022100F02FBB044690F83400012870475F
:104E700084F881000020C4F8840070470846114679
:104E80001847DAF848100025524670472068616AD2
:104E9000406A0870608D01386085606A0130606228
:104EA000208D01382085618D0029704738462946BC
:104EB00001228DF813604047204600F0F9BB2046E0
:104EC00036214A46002328470843CAF8480070475D
:104ED000012084F8210000207047204600F010BC1B
:104EE0003A4601238DF8EF9020473A4601238DF88A
:104EF000EF502047DAF84010002552467047616AAB
:104F0000206811F8012B8262608D01386085616232
:104F1000208D01382085618D002970478DF8EF00C4
:104F2000394601227047DAF844100025524670478E
:104F3000002084F8800070473860FDF7A7B8084368
:104F4000CAF844007047306820F480303060306820
:104F500020F48020704704F12800022100F012BBE9
:104F6000002184F83410704753214162204600F03C
:104F70007DBBB4F86A000138A4F86A007047304677
:104F80004FF40051FDF768B83046394601228DF8DC
:104F9000EF90584702400020062A7047002084F80E
:104FA000800001207047A0EB0800A84270472068ED
:104FB000416989077047CDF80090FFF7D1B990F8A3
:104FC0003000616E0870606E01307047608DB0F522
:104FD000807F7047002084F83C0020467047D4F85A
:104FE000840040F02000C4F884007047306F20F047
:104FF00001003067306F20F00400704704F10800B2
:10500000002100F05FBAE16D012201F01F0102FAF8
:1050100001F1416070478146009020464FF4004105
:1050200001221923FFF79CB9012084F88100002098
:1050300084F88000D4F88400002870473046394650
:1050400001228DF8EF505847804694F881000128DE
:10505000704784F84100102084F84200002060640A
:10506000668560636562618D7047402084F8420008
:105070006564C4F824B06563A4F82A808846514664
:1050800070474FF6FC706E1C00F1020AC71C704797
:10509000E165B4F862100844A4F862007047C16189
:1050A00042681A40426084F8411084F8407084F8E5
:1050B00042707047C16142681A40426084F84110F2
:1050C00084F8405084F84250704702F070029142D8
:1050D0007047E16D3F2201F01F0102FA01F181608A
:1050E000704794F840000128704730463946012245
:1050F0008DF8EF80584701251E4617468A4684F8EA
:105100004050FCF7C3BF01271E461546884684F869
:105110004070FCF7BBBF204631462A46FFF790B8E7
:10512000204641464A46FFF79FB9608D51464FF0F1
:10513000007320850095C2B220467047016841F097
:10514000010101600020B0BD606C40F0200060648F
:10515000202084F84100002084F8400084F84200B8
:105160007047044690F88000012870470D188DF8AC
:10517000032020464946012202F06CB9FF224FF07D
:1051800080737047206880693840C01BB0FA80F097
:105190004009B0427047390A816220464A4641467A
:1051A000FFF762B9044690F83D0000287047B862E6
:1051B0006FF35F214FF47E4000EB42204FF0FE4240
:1051C00080B208444FF4FE0101EB034101F4FE01FB
:1051D0000844296902EB016101F0FE41084470476F
:1051E0002046FBF74DBA401BB0F57A7F7047416807
:1051F0004FF6FF72914339444160016841F001016B
:1052000001606168B1F5800F704738460A2100F0EF
:10521000B7BC0262B842026A46680C688B68456D8A
:1052200070470262B042D1F800C08B68046A4568DA
:105230007047618D4FF00073218500902046CAB2FF
:1052400070474FF4007060647047F9B28162204685
:1052500000224346CDF800907047002084F84000BB
:105260007047012084F8340094F835000128704715
:105270002046FFF75DB8086840F001000860002094
:1052800010BD3A460123304620470D4601204FEA23
:10529000B20184F83C0070474A46FFF7C9B804469B
:1052A00090F83C000128704704F12800012100F02B
:1052B00069B9002084F834004FF4006060657047DD
:1052C000016841F40071016070473046394601229F
:1052D0008DF8EF804FF02D085847416841F4804128
:1052E0004160704704F10800012100F0EBB804F1BF
:1052F0006C02002307CA03604A607047000240EA5C
:105300000646A8784047022084F83D00211D206809
:1053100001F0D8B88A68097B03EBC202002906EBCA
:10532000080152687047002084F84000204670470A
:10533000E0B5014659480DF10702FBF7A5F89DF8C5
:1053400007008CBDE0B503468DF8071053480DF1FA
:1053500007021946FBF7C8F88CBD00BF1CB500F06A
:1053600075F80446C8B9284800F09AF80446A0B970
:1053700004208DF807000DF107010C2000F07AF8E9
:1053800008B1012409E0214800F08AF8044620B958
:105390001F4800F085F8044608B120461CBD0020D7
:1053A0008DF806000DF10601112000F033F80028F9
:1053B000E7D19DF806000DF1060100F080000130F4
:1053C0008DF80600112000F055F80028D9D10020F2
:1053D0008DF805000DF105016B2000F01BF801248C
:1053E0000028DAD19DF805000DF1050164F39F1046
:1053F0008DF805006B2000F03DF80028CDD1642029
:10540000FCF754FD0024C8E7FBED0008A5EF0008F9
:10541000B9EF0008BCB5214D0C468DF807000123FB
:105420002979AA68009228680DF107020131FCF77A
:105430001FFF2979AA6800922868012322460131BA
:10544000FCF7B4FE002818BF0120BCBDE0B5642005
:10545000FCF72CFD80208DF807000DF107011220CC
:1054600000F008F808B101208CBD6420FCF71EFD97
:1054700000208CBDE0B5094A8DF8060008780223AB
:105480008DF8070010681179926800920DF10602FC
:10549000FCF7EEFE002818BF01208CBDF0050024AB
:1054A00010B504462078FF281CBF6178FF2906D07C
:1054B000611CFFF7DFFF02340028F3D010BD00208D
:1054C00010BD7047F8B55F4F0546B86A00F003009D
:1054D000032804BF0120F8BD38680C4620F0806026
:1054E000FFF72AFD06463868000105D5FCF7CEFD1A
:1054F000801B0228F7D941E095E80F00BE6A26F428
:105500007C36013946EA0030FFF751FEB86368691E
:10551000F96A21F0C0010843F862A869F96A21F02C
:1055200020010843F8624FF6F871F86A20F0100085
:10553000F862F86B8843E969012C40EAC100F8631E
:10554000F86A40F01000F8624FF4001008BF4FF402
:105550008010002C08BF4FF40020F96A0843F8625D
:10556000386840F08060FFF7E7FC044638680001C7
:1055700006D4FCF78BFD001B0328F7D30320F8BDEE
:105580000020F8BDF8B52F4F0546B86A00F00300BB
:10559000032804BF0120F8BD38680C4620F0805075
:1055A000FFF7CAFC06463868800005D5FCF76EFD9B
:1055B000801B0228F7D941E095E80F00BE6A26F06B
:1055C0007C76013946EA0050FFF7F1FD38646869DE
:1055D000F96A21F440610843F862A869F96A21F484
:1055E00000710843F8624FF6F871F86A20F4807091
:1055F000F862786C8843E969012C40EAC10078645C
:10560000F86A40F48070F8624FF0807008BF4FF481
:105610000000002C08BF4FF48000F96A0843F862CC
:10562000386840F08050FFF787FC044638688000F7
:1056300006D4FCF72BFD001B0328F7D30320F8BD8D
:105640000020F8BD004402580928014698BF0921EE
:10565000CAB20A23B2FBF3F202EB8203A1EB4303CB
:10566000591A084440EA0210C0B27047F8B504461F
:105670000068C168490618D44FF0FF31C1600026A8
:105680000127FCF703FD05462168F843C96840EA95
:105690009110C0070AD1FCF7F9FCFFF7A4FDF3D97C
:1056A000032684F821600027EEE70026F0B2F8BD5B
:1056B000B0B5124D0446686820F040006860286864
:1056C000800607D42046FEF781F978B1032084F8DC
:1056D0002100B0BD286820F0200028602046FEF799
:1056E00075F928B1032084F8210002E00020B0BD44
:1056F0000020296841F020012960B0BD0840005811
:1057000010B5016840F26F344A698B6943F00803B1
:105710008B618B6943F010038B610B6823F00103ED
:105720000B600B69A3430B618B6823F440438B60D0
:1057300090F88130042B0BD0930609D5D0F8843033
:1057400043F08003C0F884308B6943F020038B6101
:1057500090F88130032B0BD0530609D5D0F8843054
:1057600043F00403C0F884308B6943F040038B613D
:10577000930509D5D0F8843043F00103C0F8843094
:105780008B6943F400738B61D20509D5D0F884206E
:1057900042F00802C0F884208A6942F480728A616B
:1057A0000021A0F86210A0F86A1010BDF8B51446E8
:1057B0000D4606464F1C30684069000708D4FCF7C8
:1057C00065FC002FF7D0001BA842F4D30320F8BDDE
:1057D0000020F8BD002070472DE9F843074600205F
:1057E0000DF103098DF80300234DFFF730FB8046D0
:1057F000FFF70BFD204628214A460023A84706460E
:10580000FFF703FDFFF75BFBDC495A4BFFF782FD17
:1058100008BF42F00802FFF7A9FC4042281A18BF4F
:105820004FF0FF30BDE8F8832DE9F843074600202C
:105830000DF103098DF803000F4DFFF708FB8046BB
:10584000FFF7E3FC204629214A460023A8470646E5
:10585000FFF7DBFCFFF733FBC849464BFFF75AFD68
:1058600008BF42F00802FFF781FC4042281A18BF27
:105870004FF0FF30BDE8F8835B7400082DE9FE4F60
:105880001E46DFF8BC9A0F460446D3F802B0D3F8A0
:105890000AA0D3F81230D6F816100091D9F80400F7
:1058A0001144451A204639462A4600F04DFCE0B91D
:1058B000D9F808002F4904F120080DF1090251F828
:1058C000300099F80C10002908BF40F008008DF84E
:1058D000090040463621012301F0BFFD28B92046CA
:1058E00039462A4600F0BCFB20B14FF0FF35284670
:1058F000BDE8FE8F5644ABEB0A0700250DF10A0AFE
:10590000705D514602228DF80B00701940788DF8B9
:105910000A00404601F09EFD20B90235BD42EFD39A
:10592000002601E04FF0FF361249D9F808000DF1CA
:10593000090201EBC00099F80C104068002908BF6B
:1059400040F008008DF8090036210123404601F09F
:1059500084FD4FF0FF350028C9D1D9E9003000900F
:1059600000210022204600F0EFFB002808BF35464A
:10597000BDE700BF90E8000870B505461C46581802
:105980007E4B1B68984203D8284600F069FB10B193
:105990004FF0FF3070BD049800220B4B010A944277
:1059A00006D003EB420603F8121001327070F6E7DE
:1059B00005F120006200044901F04CFD002818BFE9
:1059C0004FF0FF3070BD00BFF00000242DE9F04122
:1059D0000E466A4907469818496888420ED81C4600
:1059E0001546DDF818806CB1384631462A464346E4
:1059F00000F082FC0135013C0028F4D04FF0FF306C
:105A0000BDE8F0810020BDE8F08100BF2DE9FE4F28
:105A100083465A48DDF8309015460E4649440268E0
:105A2000914202D94FF0FF3806E00D9940684FF0DF
:105A3000FF382944814202D94046BDE8FE8F4FEA33
:105A400049001C464FF00008164F4FF0000A029024
:105A50000BF1200001900D988245EDD00AEB050274
:105A60005846314600F0FCFA10B14FF0FF3816E00E
:105A70000020814509D0217807F8101007EB40017C
:105A80000130627802344A70F3E701983946029A8D
:105A900001F0E0FC00284FF0FF3018BF80460AF10B
:105AA000010AD8E7700300242DE9F843994615460A
:105AB0000E460746DDE908485CB1384631462A46BD
:105AC0004B46CDF80080FFF757FF28B9013C013560
:105AD000F2E70020BDE8F8834FF0FF30BDE8F8831F
:105AE0004FF0FF30704700002448806808600020B5
:105AF000704700BF2DE9FC479846064600F0B0FA13
:105B00000DF1050406F1200781462E213846224674
:105B100001F09AFC8246124E384621460122B047D7
:105B200004460DF1070138460122B04705460DF144
:105B3000060138460122B0479DF806109DF807205F
:105B4000404242EA0121C8F800100AEB0901214451
:105B50002944081A18BF4FF0FF30BDE8FC8700BF8A
:105B60004F7400080548006808600020704700BFB7
:105B70000248406808600020704700BFE000002431
:105B800070B50546C0690C4680470646E8698047FF
:105B9000801BA042FAD370BD2DE9F04FBDB00028A4
:105BA0003A923C9100F0F98100210DF1EF0700F1EC
:105BB00020068DF8EF100546FA4C00234FF000093F
:105BC000304601213A46A047284678213995FFF70B
:105BD000D7FF304601213A4600238DF8EF90A047C9
:105BE000389028467821FFF7CBFF30461121FFF788
:105BF00077F937903046B1213A460023A0473690D6
:105C0000DFF868B6FFF714F901258DF8EF50D84793
:105C100035902C20FFF782F94FF02C093046D847F9
:105C200034902D20FFF77AF94FF02D083046D847F1
:105C300033903046B2213A4601238DF8EF504FF0B1
:105C4000010AA04732903046394601228DF8EF9084
:105C50002C25D8473190FFF738FB30903046B321E0
:105C60003A4601238DF8EFA04FF00109A0472F908D
:105C70003046394601228DF8EF502C25D8472E901A
:105C8000FFF723FB2D90FFF77FF92C90FFF7D6F954
:105C90002B90FFF72AFA2A9007208DF8EF00B42105
:105CA0003A4601234FF007083046A0472990A2202A
:105CB0008DF8EF00C021FFF7E4FA28900220FFF7EB
:105CC0002DF94FF002093046D84727908420FFF77E
:105CD0004AF82690C5208DF8EF00C121FFF7D1FAD0
:105CE00025900A208DF8EF00C221FFF7CAFA249010
:105CF0000020FFF738F823903046C3213A460123AD
:105D00008A258DF8EF50A04722902A20FFF72BF824
:105D100021903046C421FFF7E8F82090EE20FFF7ED
:105D200022F81F900E208DF8EF00C521FFF7A9FA89
:105D30001E903A9820213A46007B002808BF212176
:105D400030460023A0471D903CAA30463A2101234B
:105D5000A0471C903046E021FFF7C2F81B901C20A2
:105D6000FFF701F81A90FFF7C0F919901220FEF71B
:105D7000FAFF1890FFF75CF84FF037088DF8EF80C6
:105D8000D84717903220FEF7EEFF1690FFF750F835
:105D90004FF029098DF8EF90D8471590FFF748F894
:105DA0004FF02D0A8DF8EFA0D8471490FFF7ECF8CC
:105DB00013902520FEF7D7FF12902B20FEF7D3FF7C
:105DC00011903920FEF7CFFF10900020FEF7CBFF97
:105DD0000F900120FEF7C7FF0E90FFF729F803256B
:105DE0008DF8EF50D8470D901020FEF7BCFF0C90B7
:105DF0003046E121FFF779F80B901D20FEF7B3FF45
:105E00000A900720FEF7AFFF09900620FEF7ABFFD0
:105E10000890FFF70DF82E258DF8EF50D847079022
:105E20002C20FEF7A0FF0690FFF7AEF80590FEF7D6
:105E3000FFFF8DF8EFA0D8470490FFF7FFF803901D
:105E4000FFF7FCF80290FFF750F901903F20FEF7B2
:105E50008AFF8146FEF7ECFF00248DF8EF40D8471B
:105E60000546FEF7E5FF8DF8EF404FF00008D847F4
:105E700082460220FEF777FF04461020FEF773FFEC
:105E8000DDE9372101238DF8EF801144369A114462
:105E9000359A1144349A1144339A1144329A114478
:105EA000319A1144309A11442F9A11442E9A114478
:105EB0002D9A11442C9A11442B9A11442A9A114478
:105EC000299A1144289A1144279A1144269A114478
:105ED000259A1144249A1144239A1144229A114478
:105EE000219A1144209A11441F9A11441E9A114478
:105EF0001D9A11441C9A11441B9A11441A9A114478
:105F0000199A1144189A1144179A1144169A114477
:105F1000159A1144149A1144139A1144129A114477
:105F2000119A1144109A11440F9A11440E9A114477
:105F30000D9A11440C9A11440B9A11440A9A114477
:105F4000099A1144089A1144079A1144069A114477
:105F5000059A1144049A1144039A1144029A114477
:105F6000019A11443A4649442944764D514421440A
:105F70000C1830461321A8470444304629213A46DC
:105F80000123A8470444DDE9390100F071F92044F8
:105F9000B0FA80F04009013801E04FF0FF303DB029
:105FA000BDE8F08F5B7400087CB500F120050DF1B1
:105FB00005060C46DA212846324601F045FA58B962
:105FC000721C2846DB2101F03FFA28B9B21C284692
:105FD000DC2101F039FA10B14FF0FF307CBDBDF883
:105FE00006009DF8051040BA40EA014020600020FC
:105FF0007CBD0369FEF742BF8369FEF73FBF000027
:10600000E8B1B0B50F4A4262D1E90345C0E90345A2
:1060100000630D4AC2620D4A82620D4A0262D1E9F2
:106020000023C0E900230B8903814B6943618B691D
:10603000C9698361C161BDE8B04002B110474FF04A
:10604000FF307047F35F0008F95F000855600008F3
:10605000456300084369FEF711BF4FF0FF307047FA
:106060002DE9F84F0C46B6498B684D7B012B05D8BE
:10607000012D0AD1097BD9B1183417E0012D0DD1BA
:10608000097BC9B102F1180919E0022D0ED1097B73
:1060900001290BD102F10109023410E0022D05D1D2
:1060A000097B012902D102F1020907E0914606E0CD
:1060B00002F101091A3402E002F11A09013400F177
:1060C00020060DF103071F4D2A21002330463A46D2
:1060D000A8478246200A8DF80300DFF890813946F0
:1060E00001223046C0478346FEF7A2FE8DF80340EA
:1060F000C047044630462B213A460023A8470546B0
:106100004FEA19208DF80300394601223046C04776
:106110000BEB0A0101228DF80390214429440C184D
:1061200030463946C047044430462C213A460023C5
:10613000044DA8474042201A18BF4FF0FF30BDE879
:10614000F88F00BF5B7400082DE9F04F85B00E4654
:106150007B491C4692468B684A7B012B09D8012A51
:1061600012D1097B002912BF18360AF1010A1A362A
:106170001BE0012A11D1097B0136002914BF0AF165
:10618000180A0AF11A0A10E0022A0ED1097B012925
:1061900004BF0AF1010A023607E0022A05D1097B91
:1061A000012904BF0AF1020A013600F120070DF1AE
:1061B00013052A21002338462A4601F04EF90390A0
:1061C000300A8DF81300DFF8A480294601223846F2
:1061D000C0470290FEF76AFE0190A01929460122ED
:1061E000441E200A8DF813003846C04700903846F8
:1061F000294601228DF81340C047044638462B211A
:106200002A46002301F029F981464FEA1A208DF829
:106210001300294601223846C04756468246FEF7FB
:1062200045FE83460E98294601223044461E300A18
:106230008DF813003846C047DDE902218DF8136060
:106240001144019A1144009A114401222144494405
:10625000514459440C1838462946C0474042201A38
:1062600018BF4FF0FF3005B0BDE8F08F557400083F
:106270007CB591F90D30044688680128DAB206D859
:10628000032A0DD21A4D55F82350A02305E0032A06
:1062900006D2174D55F82330A025294EC6E90053E4
:1062A000274EB060087B7273002100223073D6E95C
:1062B000003000902046FFF747FF0546B0680D49C3
:1062C0000DF1070201EBC000317B4068002908BFD7
:1062D00040F008008DF807003621012304F120006A
:1062E00001F0BBF84042281A18BF4FF0FF307CBDC8
:1062F0003879000890E80008BCB50446180240EA66
:1063000013200F4BADF806004FF0FF301D688D4293
:1063100014D95B68934211D92046FFF7A1FE10B152
:106320004FF0FF30BCBD04F120000DF10601022248
:1063300001F090F8002818BF4FF0FF30BCBD00BF3F
:10634000E000002410B51C46C368084611462246EA
:10635000BDE8104018477047FCF746B910B59CB02F
:1063600009A818210C30F9F7D4FF01A82021F9F76A
:10637000D0FF0220FCF726FA2A4C0020009020686B
:1063800020F440402060206800F4404000900098D5
:1063900020688004FCD5FCF737FA23482C222158CA
:1063A00021F0180121500C2019900024CDE91A4445
:1063B00002201890CDE91402CDE912002E21179188
:1063C0004FF480300A90012116910F910B912520F6
:1063D000099009A8FCF7ACFF18B1EFF3108072B672
:1063E000FEE740200890CDE905004FF48061079159
:1063F0000820CDE9034003213F20019003200290B3
:1064000001A8FCF7BBFD18B1EFF3108072B6FEE7F0
:1064100000204FF080714FF48012FCF739FF1CB060
:1064200010BD00BF1848025858FCFFFF10B51D48AA
:106430001D4A016841F470010160106800F00F000E
:10644000062804D81068072161F30300106017487C
:10645000174C016841F001010160002101610368EE
:106460002340036013681B0704D51368072464F3F3
:10647000030313600F4A8161C161016282620E4AA7
:10648000C2620E4A026341638263C1630264416473
:10649000026822F4802202600166094843F2D201B8
:1064A000016010BD88ED00E0002000520044025859
:1064B0007FEDF6EA000202020000FF018002010106
:1064C0000040005270B5D54A0368904228D0B0F120
:1064D000804F1CBF294CA04246D123F070034C686A
:1064E0002343B0F1804F1FD0244CA0421CBF244C4A
:1064F000A04219D0234CA0421CBF234CA04213D071
:10650000224CA0421CBFC64CA0420DD0C54CA0429C
:106510000AD0C54CA04207D0C44CA04204D007E02A
:1065200023F070034C682343CC6823F44073234367
:106530004E6923F080030C688D6833430360C562A5
:10654000846290420BD0B64A904208D0B54A90423D
:1065500005D0B54A904202D0B44A904201D10969AF
:1065600001630121416170BD054CA042B5D0AC4C26
:10657000A042B2D0034CA042AFD0B2E7000400402A
:1065800000080040000C004000E0004000E4004033
:1065900010B501F01F010423046A8B4002FA01F1D7
:1065A00024EA03030362026A1143016210BD000082
:1065B000F0B5026A994E22F0010202620A688B6805
:1065C000046A456824F0020423438469B0420BD076
:1065D000934FB84208D0934FB84205D0924FB8427B
:1065E00002D0924FB84207D1CF6823F00C0327F0B6
:1065F00004073B43B0420BD0894EB04208D0894ECD
:10660000B04205D0884EB04202D0884EB04205D18B
:1066100025F44075D1E9056735433D4345603D4D5F
:106620002C4022438261496841630362F0BD00BF90
:10663000F0B5026A794E22F01002FEF7F2FD24F066
:10664000200444EA0313846903D006F58067B84246
:1066500009D1CF686FF0400223F0C00302EA0712AD
:106660001343B0420BD06E4A904208D06D4A90421C
:1066700005D06D4A904202D06C4A904206D125F472
:106680004062D1E90556354342EA8505394A4560FD
:10669000224042EA0C228261496881630362F0BDB4
:1066A000F0B5026A5D4E22F48072FEF7BAFD24F462
:1066B000007444EA0323C46903D006F58067B84236
:1066C0000AD1CF6840F2FF4223F440633F0227EA39
:1066D00002021343B0420BD0514A904208D0514AB3
:1066E000904205D0504A904202D0504A904206D182
:1066F00025F44052D1E90556354342EA0515054ACD
:106700004560224042EA0C02C2614968C1630362EB
:10671000F0BD00BF8CFFFEFFF0B5026A3F4F22F4D0
:1067200080520262B842026A46680C688B68C5698A
:106730001CBF3B4FB84212D14F6926F4804646EA4F
:10674000871646600B4E354045EA0424C46149680B
:10675000016422F4005141EA03310162F0BD314F7E
:10676000B842E9D0304FB842E6D0304FB842E3D01B
:10677000E7E700BFFF8CFFFEF0B5026A274F22F467
:106780008032FEF746FD1CBF254FB84211D14F693C
:1067900026F4803646EA072646600B4E35402C43E9
:1067A00044654968816522F4003141EA0341016290
:1067B000F0BD1C4FB842EAD01B4FB842E7D01B4F88
:1067C000B842E4D0E8E700BF8FFFFEFFF0B5026AF1
:1067D000124F22F48012FEF71CFD1CBF104FB8426E
:1067E00012D14F6926F4802646EA87264660104E6D
:1067F000354045EA042444654968C16522F4001126
:1068000041EA03510162F0BD064FB842E9D0064F9C
:10681000B842E6D0054FB842E3D0E7E700000140B8
:106820000004014000400140004801400044014094
:10683000FF8FFFFEFEE70000FEB51D490020CDE9F9
:1068400004000A6842F004020A60096801F00401C9
:1068500000910221CDE902014FF40050019000980F
:1068600001A90248FBF734FB06B080BD00080258BE
:1068700070B586B00E4800250595704C002208269C
:10688000016841F0100101600068082100F010006B
:10689000009000982046FBF7ECFB0120CDE9016059
:1068A000CDE9035501A92046FBF712FB06B070BDE8
:1068B000E044025861480821FBF7D3BB114A104954
:1068C000527C0988052A17D8012303FA02F212F034
:1068D000340F11D0B0F5A06F05D8082202EB4000AC
:1068E000884288BF014688B240F2A241884288BFF0
:1068F000014601F1FC007047B0F5207FEDD8F2E7CA
:10690000D8000024F0050024FBF7C0BB80B5034885
:106910000421FDF77FFB002080BD00BFCC070024D1
:106920002DE9FC41454C88468DF80700444E4FF454
:10693000006100222046B04720464FF4005100225B
:10694000B047404D0DF10701012264232846FDF7B1
:10695000F1F9074620464FF400510122B04728467E
:10696000414601224FF4FA73FDF74EF905462046E1
:106970004FF400610122B0476842381A18BF4FF047
:10698000FF30BDE8FC8100BF70B52C4CFEF748FA23
:10699000AAB22C4831464FF4FA73FDF735F9054693
:1069A000FEF7DBF9002D18BF4FF0FF35284670BD0C
:1069B00070B5224CFEF734FAAAB22248314664235D
:1069C000FDF7B8F90546FEF7C8F9002D18BF4FF0DE
:1069D000FF35284670BD00BF2DE9FC41174C164617
:1069E00088468DF80700164D4FF4006100222046BE
:1069F000A84720464FF400510022A84711480DF146
:106A0000070101226423FDF795F9074620464FF45C
:106A100000510122A8473EB1B2B20A4841464FF4A4
:106A2000FA73FDF787F90744FEF797F9002F18BFAF
:106A30004FF0FF373846BDE8FC8100BF0010025818
:106A400073200008440700248AB090480168890335
:106A500012D4BFF34F8F0021BFF36F8FC0F83C12E9
:106A6000BFF34F8FBFF36F8F016841F400310160B6
:106A7000BFF34F8FBFF36F8F0168C90327D4002185
:106A8000016743F6E07CBFF34F8FC36EDA08C3F3B0
:106A90004E31C3F3C903920701330CEA4115164680
:106AA0001F4646EA050406F14046013FC0F84C4245
:106AB000F7D14C1E00292146EFD1BFF34F8F01685B
:106AC00041F480310160BFF34F8FBFF36F8F01241A
:106AD0000294FBF707FE1B200DF1080A8DF8100049
:106AE0006B4E00254FF0104705944FF480748DF8DD
:106AF00013500397ADF811405046B04705208DF86C
:106B000013000397ADF8114016208DF8100040F2E5
:106B10000110ADF808005F4805905046B0470320CB
:106B20008DF81300ADF8114012208DF810004FF0D1
:106B30001050039040F20120ADF80800564805902F
:106B40005046B0470420FBF7D7FDFBF757FDFFF792
:106B500005FCFDF77BFFFDF759FFFDF739FFFDF75A
:106B6000D1FFFDF7FBFFFEF731F8FEF75DF8FFF709
:106B700063FEFFF77DFEFDF729FE4848029003AC57
:106B80004B4E46A0031D007C0ECB8DF81800002054
:106B90000EC432883A2110231024CDE9004AFDF7B3
:106BA000E7FD44480921F9F723FC434833680021F5
:106BB0003A22CDE90045866B4048B047404EDFF8A9
:106BC00018910FF218180C274AA5394C30464FF48B
:106BD0000051FBF741FA30BBB9F80E205046414650
:106BE00000F050FC228804203A211023CDE9007ADD
:106BF000FDF7BEFD4FF4FA70FBF758F92B1D3D4829
:106C00000DF10C0C0290CDE9007A0FCBACE80F002F
:106C1000228804203A211023FDF7AAFD4FF4FA70D0
:106C2000FBF744F9D2E7284D264800214FF41653CC
:106C30004FF000092A46FAF789F8244C4FF0500B20
:106C400005F596551D4E22A74FF00C082068002828
:106C5000FCD01748C4F80090002100222B460068A1
:106C6000CDE9000B3046FEF7D1FE6268504639464A
:106C700000F008FC052005213C221023CDE9008A04
:106C8000FDF776FDFFF716FEE0E700BF14ED00E02C
:106C900099260008000001010001010143616D65B2
:106CA0007261204E6F7420466F756E6400000000A4
:106CB000E0000024CC06002418000024A0000024DA
:106CC0000008025804060024180800248800002444
:106CD0002564465053000000F005002443616D65B3
:106CE00072612069643A30782578202020202020A5
:106CF000202000004C6F6E675072657373204B311B
:106D000020746F2052756E002DE9F84F04463C4DFB
:106D10006420A8473B4EFF2001210127B0471220E5
:106D20008021B0470520A8473748DFF8E080C047FA
:106D30001E20A847424DFF2000216F742C74B047DD
:106D400005200121B0473248C0472C7CFEF715F8DA
:106D5000DFF8C0A01220D0478346FF200021B047B3
:106D60004420D0478146FF200021B0470520012163
:106D7000B047294D5A2035F82470C7F38701B04732
:106D800005EB840044885B20C4F38701B0470420EE
:106D9000C7F3812100EA142001445C20B047FDF7CD
:106DA000ECFFB5F860101E481C4A8F4288BF1046A1
:106DB000C047FDF7E2FF12200BF00204D04740EA83
:106DC00004011220B047FF200021B047442049466B
:106DD000B04705200021B047FDF7CFFF0420D04782
:106DE00040F080010420B047FDF7C7FF0420D047E2
:106DF00040F050010420B0470020BDE8F88F00BFEC
:106E0000AD1E00084553000830E90008657400080D
:106E1000D3EF000831530008B0E800089A79000861
:106E20005479000880B50A4601460548F9F748FB41
:106E3000C0B280BD0A4601460148F9F769BB00BFF0
:106E4000F00500242DE9F84F2DED0E3B044643F2EA
:106E500003101121FFF7EEFF43F208008221FFF734
:106E6000E9FF0520FBF722F8DFF8E003451C15F8E1
:106E7000010C40B115F8032B15F8021C42EA002062
:106E8000FFF7D8FFF3E74FF49670FBF70FF8F94ED2
:106E90000120EF4F612170744FF486403474B8477D
:106EA00045F21F000121B84709ACEA4D43F6210025
:106EB0002146A8479DF8240000F0DF0143F6210099
:106EC000B84743F202002146A8479DF8240040F04D
:106ED0001C0143F20200B84743F206002146A847CE
:106EE0009DF8240000F0D70143F20600B847DA4DC0
:106EF000288888B1307CD94931F82000FFF7DEFCC2
:106F00000446C0F3072143F60C00FFF793FFE1B2FC
:106F100043F60D00FFF78EFF307CD04A717C32F8CB
:106F2000204002EB800256880A1F022A05D302295C
:106F30002ED144EA0601490708D10D282AD801219B
:106F400001FA00F043F29201084223D00DF126012C
:106F500043F62100FFF766FF9DF8260000F0F901D7
:106F600043F62100FFF766FF0DF1270143F62000ED
:106F7000FFF758FF9DF8270040F0060143F6200078
:106F8000FFF758FF0120BDEC0E3B01B0BDE8F08FCC
:106F90000728DBD0B4F5226FD8D8B6F5F36FD5D873
:106FA000AF484FF0020CB0F80090A14598BFA14641
:106FB000B0F802A0A0F80090B24598BFB246A0F881
:106FC00002A0C9F52260B5F904B090FBFCF1B5F957
:106FD00002008142B8BF084649428842D8BF0846ED
:106FE000CAF5F361688091FBFCF15945B8BF8B4647
:106FF00049428B45D8BF8B46A5F804B0B4EB590F76
:1070000002D8B6EB5A0F02D90122002101E0022278
:107010000121089109F1100100B2029289B290FB9E
:10702000FCF0B1FBF2F207922A80C1F52261042242
:1070300091FBF2F202FA80F0B1EB400FC8BF4100C1
:1070400011F1080FD8BF6FF0070101F110081FFA06
:1070500088F0050A2046FFF731FC01904FF460509C
:107060002946B8475FFA88F143F60100B8470AF1AC
:1070700008000FFA8BF20223042180B292FBF3F294
:107080000090C0F5F36012B290FBF1F1891AB0EBF9
:10709000410FC8BF480010F1040FD8BF6FF00300C4
:1070A00000F1060B1FFA8BF0010A43F60200B84705
:1070B0005FFA8BF143F60300B84709EB080000F1D3
:1070C0000F05A8B2010A43F60400B847E9B243F637
:1070D0000500B8470AEB0B00C51DA8B2010A43F62C
:1070E0000600B847E9B243F60700B847210A43F65D
:1070F00008000391B847E1B243F609000691B8478A
:10710000310A43F60A000591B847F1B243F60B0085
:107110000491B847019D43F60C00C5F30721B84719
:10712000E9B243F60D00B847DDF808B00098B0FBAF
:10713000FBF84046B8F1E00F98BFE02000F11805D9
:1071400043F60E00C5F30721B847E9B243F60F0036
:10715000B84701EE106ABAFBFBF002EE104A07993D
:10716000022600EE100AB9FBFBF0B8EE418A01EEF0
:10717000100AB8EE422AB8EE400AB8EE411A80EE84
:10718000080A81EE021A81FE409A29EE020ABCEE3C
:10719000C00A10EE100A081A90FBF6F443F610002D
:1071A000C4F30721B847E1B243F61100B84729EE0E
:1071B000080ABCEEC00A10EE100AA8EB000090FB13
:1071C000F6F443F61200C4F30721B847E1B243F6E0
:1071D0001300B8476FF00E0000EB4B10C4B243F63B
:1071E00014002146B84743F615002146B8470DF173
:1071F000250443F620002146FFF714FE9DF82500E4
:10720000089D00F0FE00411943F62000B84743F600
:1072100021002146FFF706FE9DF8250000F0FE0044
:10722000411943F62100B84744F202600399B84778
:1072300044F203600699B84744F204600599B847E0
:1072400044F205600499B84780E600BFA4EA00084C
:10725000356E0008256E0008D8000024B0E800084C
:107260001000002480B50A4601468548F9F70CF95C
:10727000C0B280BDF0050024E0B503468DF80710CC
:107280007F480DF107021946F9F72EF98CBD00BFB2
:107290007CB5044612208021FFF7EEFF0220FAF7AA
:1072A00005FE2148451C15F8010C20B115F8021BFC
:1072B000FFF7E2FFF7E74FF49670FAF7F7FD704D2E
:1072C00001200DF1050168742C74184C1220A047A0
:1072D0009DF805005B4E002100F0FC0002308DF8A7
:1072E00005006720B0479DF805101220B047287CA4
:1072F00000F01EF80DF106010C20A0479DF80600D5
:1073000040F040010C20B0470DF107010C20A047D0
:107310009DF8070040F080010C20B047287C00F069
:1073200007F801207CBD00BF15EF0008657200085A
:107330002DE9F843424931F82070B7F5207F05D890
:1073400001EB80004688B6F5F07F02D94FF0FF349C
:1073500072E0C7F38701DFF8EC802920C047C6F34D
:1073600047012C20C04707F003012A2066F3820161
:10737000C0470DF103040C202146FFF773FF81463F
:107380009DF8035032202146FFF76CFF9DF8031053
:107390000446402000EA550001F0BF0101443220BC
:1073A000C047ED0944EA0904B7F5A07F98BFF02E65
:1073B00025D90DF101011220FFF754FF9DF80100BE
:1073C00000F0BF0112208DF80110C04717202321C3
:1073D000C0471820A021C04785F007011920C047E9
:1073E0001A20F021C047AC20F321C047A020002183
:1073F000C047A1204021C047A22040211BE00DF141
:1074000002011220FFF72EFF9DF8020040F040011C
:1074100012208DF80210C04717203F21C0471820C6
:107420005021C04785F003011920C0471A20782158
:10743000C047AC20FF21C0472046BDE8F88300BF0D
:10744000B0E8000879720008436800691847D0E97D
:1074500003301847836800691847D0F800C00069F6
:1074600060470000B0B5441C054D14F8011C29B15B
:1074700028462246F9F738F80234F6E7B0BD00BFD7
:10748000F00500240FB4084B10B504A902AA039814
:1074900000F01CF8044602A9002000F048FA20463B
:1074A00010BC5DF814FB00002F79000802E008C84A
:1074B000121F08C1002AFAD170477047002001E06E
:1074C00001C1121F002AFBD1704700002DE9FF4FB8
:1074D0008DB00F460546002606E025280BD0DDE9D5
:1074E0000F1290476D1C761C28780028F5D111B03A
:1074F0003046BDE8F08F0024A246A1460122EC49A7
:1075000000E0044315F8013F203B02FA03F0084273
:10751000F7D128782A2810D06FF02F022878A0F110
:107520003001092914D80AEB8A0102EB410144F029
:10753000020400EB010A6D1CF0E701CF5FEA000ACC
:1075400003D544F40054CAF1000A44F002046D1C4F
:1075500028782E2817D115F8010F44F004042A28A2
:107560000ED06FF02F022878A0F1300109290AD837
:1075700009EB890102EB410100EB01096D1CF2E707
:1075800057F8049B6D1C28786C280FD006DC4C281B
:1075900017D068280DD06A2814D104E0742810D0C0
:1075A0007A280FD10DE044F400140AE044F480146A
:1075B00001E044F440146978814202D104F580145A
:1075C0006D1C6D1C2A786E2A1FD00CDC632A31D00A
:1075D00004DC002A8BD0582A11D1A3E0642A68D099
:1075E000692A0CD165E0732A2ED004DC6F2A73D08F
:1075F000702A04D19BE0752A6FD0782A6ED010468D
:10760000DDE90F129047761C50E1C4F302500228C6
:1076100006D0032809D0042801CF09D0066045E12F
:1076200001CFF117C0E9006140E101CF06803DE1E3
:1076300006703BE117F8040B8DF8000000208DF870
:107640000100EB46012003E057F804BB4FF0FF3088
:1076500061074FF0000102D40DE008F101018846F6
:1076600049450FDA8045F8DB1BF808100029F4D1F2
:1076700008E008F1010188468142FADB1BF8081096
:107680000029F6D1DDE90F23AAEB08008146214647
:1076900000F036F9304400EB080604E0DDE90F1293
:1076A0001BF8010B9047B8F10108F7D22146484674
:1076B000F7E00A21C4F302534FF0000B0891022BAC
:1076C00004D001CFC117032B09D00AE0FF1D27F01A
:1076D0000707F7E8020108E032E01FE020E000B20F
:1076E000C117042B01D140B2C117031E71F1000371
:1076F00007DA4FF0000CD0EB0C006CEB01012D23EE
:1077000002E0230504D52B238DF82430012303E068
:10771000E30701D02023F7E7984658E00A2110E05C
:1077200010210EE010204FF0000B08900CE010210B
:107730004FF0000B44F004044FF00809089103E0F7
:1077400008214FF0000B0891C4F30253022B04D020
:1077500001CF0021032B06D006E0FF1D27F007070D
:10776000F7E8020103E080B2042B00D1C0B24FF071
:10777000000823072BD5702A07D0DDF820C08CF035
:10778000100C5CEA0B0C05D00EE040238DF8243081
:10779000012308E050EA010306D030238DF824309D
:1077A0008DF8252002239846DDF820C08CF0080CC7
:1077B0005CEA0B0C0BD150EA010301D1630706D53B
:1077C00030238DF824304FF00108A9F10109582A1F
:1077D00004D038A20B9208AA0A920BE03AA2F9E769
:1077E0005B46089AF8F7A0FD0B9B9B5C0A9A521E19
:1077F0000A92137050EA0102F2D10A98ADEB000030
:1078000000F1200B600702D524F4803401E04FF032
:107810000109D94502DDA9EB0B0000E0002000EBD7
:107820000B0141440890AAEB010AE00306D4DDE90C
:107830000F232146504600F063F806444FF000093C
:1078400008E009A911F80900DDE90F12904709F1D4
:107850000109761CC145F4DBE0030CD5DDE90F23FB
:107860002146504600F04CF8064404E0DDE90F12D2
:1078700030209047761C0899481E08900029F5DCB6
:1078800008E00A980A990078491C0A91DDE90F126C
:107890009047761CBBF10001ABF1010BF1DC2146F6
:1078A0005046DDE90F2300F019F806446D1C1BE675
:1078B00009280100303132333435363738396162C6
:1078C000636465660000000030313233343536378A
:1078D0003839414243444546000000002DE9F0415B
:1078E000044600251E461746880404D405E03946A0
:1078F0002020B0476D1C641EF9D52846BDE8F081F4
:107900002DE9F041044600251E469046C80301D5E6
:10791000302700E02027880404D505E0414638469A
:10792000B0476D1C641EF9D52846BDE8F0810A6891
:10793000531C0B6010707047800000005000000066
:1079400080000000000000000102030401020304A3
:1079500006070809FF011240030F320917111843E7
:1079600019001A4B3D3835DA221A37C334C006885D
:107970000D870E414203FF000501E004C064C14BC6
:107980008C005300540051C8529655005700863D54
:107990005080D3800500E0000000FF011200030FBB
:1079A00032361711187519011A973D343588220A95
:1079B000374034A006020DB70E014283FF000501D7
:1079C000E004C0C8C1968C00530054005190522C62
:1079D00055885700863D5080D3840500E0000000A4
:1079E000424D4864000000000000460000003800DE
:1079F0000000A00000005000000001001000030083
:107A0000000002640000120B0000120B00000000D6
:107A100000000000000000F80000E00700001F0068
:107A20000000000000000000000000000000000056
:107A30000000000000000000000000000000000046
:107A40000000000000000000000000000000000036
:107A50000000000000000000000000000000000026
:10899000000008422D6B2D6B2D6B24210000000080
:1089A00000000000000000000000000000000000C7
:1089B00000000000000000000000000000000000B7
:1089C00000000000000000000000000000000000A7
:1089D0000000000000000000000000000000000097
:1089E0000000000000000000000000000000000087
:1089F0000000000000000000000000000000000077
:108A00000000000000000000000000000000000066
:108A10000000000000000000000000000000000056
:108A20000000000000000000000000000000000046
:108A30000000000000000000000000000000000036
:108A40000000000000000000000000000000000026
:108A50000000000000000000000000000000000016
:108A60000000000000000000000000000000000006
:108A700000000000000000000000000000000000F6
:108A800000000000000000000000000000000000E6
:108A900000000000000000000000000000000000D6
:108AA00000000000000000000000000000000000C6
:108AB00000000000000000000000000000000000B6
:108AC0000000000000000000000000000842D7BDC8
:108AD000BEF7BEF79AD69AD6BEF7FFFF5CE7D7BDC2
:108AE000AA5200000000000000000000000000008A
:108AF00000003084FBDEFFFFFFFFBEF7D7BD2D6B0C
:108B0000000000000000000000000842D7BD5CE744
:108B1000FFFFFFFFBEF738C6308424210000AA52B1
:108B20009AD69AD69AD69AD69AD69AD69AD6000035
:108B300000000000000000000000242114A5FBDE5E
:108B4000FFFFFFFF5CE714A52421000075AD9AD656
:108B50009AD69AD69AD69AD69AD630840000000031
:108B600030849AD69AD69AD69AD69AD69AD675AD8F
:108B70000000000000000000000000000000CF7BAB
:108B800038C65CE7FFFFFFFFFBDED7BDAA5200003F
:108B900000000000000000000000000000000000D5
:108BA00000000000000000000000000000000000C5
:108BB00000000000000000000000000000000000B5
:108BC00000000000000000000000000000000000A5
:108BD0000000000000000000000000000000000095
:108BE0000000000000000000000000000000000085
:108BF0000000000000000000000000000000000075
:108C00000000000000000000242175ADFFFFD7BD6B
:108C1000AA520000000000002421FFFFFFFFFFFF19
:108C2000FFFF38C624210000000000000000000003
:108C3000D7BDFFFFFFFFFFFFFFFFFFFFFFFFFFFFAE
:108C400075AD000000000000CF7BFFFFFFFFFFFFBE
:108C5000FFFFFFFFFFFFFFFFFFFFBEF714A52D6B18
:108C6000FFFFFFFFFFFFFFFFFFFFFFFFFFFF000012
:108C700000000000000000003084BEF7FFFFFFFF8F
:108C8000FFFFFBDE14A5FBDE5CE7AA529AD6FFFFCE
:108C9000FFFFFFFFFFFFFFFFFFFF14A50000000025
:108CA00014A5FFFFFFFFFFFFFFFFFFFFFFFF9AD6A7
:108CB0000000000000000000000008429AD6FFFFFC
:108CC000FFFFFFFF14A500000842B2945CE738C61E
:108CD000242100000000000000000000000000004F
:108CE0000000000000000000000000000000000084
:108CF0000000000000000000000000000000000074
:108D00000000000000000000000000000000000063
:108D10000000000000000000000000000000000053
:108D20000000000000000000000000000000000043
:108D30000000000000000000000000000000000033
:108D40000000000000002421FBDEFBDEAA52000030
:108D500000000000000000002D6BFFFFFFFFFFFF81
:108D6000FFFFFFFFFBDE000000000000000030847A
:108D7000FFFFFFFFFFFFFFFFFFFFFFFFB29408426F
:108D8000FBDEB29400002421BEF7FFFFFFFFFFFFD0
:108D9000FFFFFFFFBEF72421000030845CE7BEF731
:108DA000FFFFFFFFFFFFFFFFFFFFFFFFFFFF0000D1
:108DB0000000000000003084FFFFFFFFFFFFFFFF07
:108DC000FFFF2D6B00000000B294BEF75CE7FFFFD1
:108DD000FFFFFFFFFFFFFFFFFFFF14A500000000E4
:108DE00014A5FFFFFFFFFFFFFFFFFFFFFFFF9AD666
:108DF0000000000000000000AA52BEF7FFFFFFFFC6
:108E0000FFFFFFFF14A5000000000000000014A5F4
:108E1000FBDE242100000000000000000000000034
:108E20000000000000000000000000000000000042
:108E30000000000000000000000000000000000032
:108E40000000000000000000000000000000000022
:108E50000000000000000000000000000000000012
:108E60000000000000000000000000000000000002
:108E700000000000000000000000000000000000F2
:108E8000000000000000084238C624210000000055
:108E90000000000000000842BEF7FFFFFFFFFFFFD9
:108EA000FFFFFFFFFFFF14A50000000000009AD69F
:108EB000FFFFFFFFFFFFFFFFFFFFFFFF2D6B000026
:108EC00008425CE72421CF7BFFFFFFFFFFFFFFFF8E
:108ED000FFFFFFFF9AD6000000000000000075AD04
:108EE000FFFFFFFFFFFFFFFFFFFFFFFFFFFF000090
:108EF000000000002D6BFFFFFFFFFFFFFFFFFFFFE4
:108F0000FFFF2D6B0000000000003084FFFFFFFF1B
:108F1000FFFFFFFFFFFFFFFFFFFF14A500000000A2
:108F200014A5FFFFFFFFFFFFFFFFFFFFFFFF9AD624
:108F30000000000000002421BEF7FFFFFFFFFFFF3D
:108F4000FFFFFFFF14A5000000000000000000006C
:108F5000B2949AD60000000000000000000000005B
:108F60000000000000000000000000000000000001
:108F700000000000000000000000000000000000F1
:108F800000000000000000000000000000000000E1
:108F900000000000000000000000000000000000D1
:108FA00000000000000000000000000000000000C1
:108FB00000000000000000000000000000000000B1
:108FC00000000000000000000000000000000000A1
:108FD000000000002421FBDEFFFFFFFFFFFFFFFF7B
:108FE000FFFFFFFFFFFF5CE7000000000000FFFF46
:108FF000FFFFFFFFFFFFFFFFFFFFFFFF2D6B0000E5
:109000000000D7BD2D6B14A5FFFFFFFFFFFFFFFF83
:10901000FFFFFFFF9AD600000000000000002D6B4C
:10902000FFFFFFFFFFFFFFFFFFFFFFFFFFFF00004E
:10903000000000005CE7FFFFFFFFFFFFFFFFFFFFF7
:10904000FFFF2D6B00000000000000009AD6FFFF1C
:10905000FFFFFFFFFFFFFFFFFFFF14A50000000061
:1090600014A5FFFFFFFFFFFFFFFFFFFFFFFF9AD6E3
:10907000000000000000D7BDFFFFFFFFFFFFFFFF64
:10908000FFFFFFFF14A5000000000000000000002B
:1090900000009AD6308400000000000000000000AC
:1090A00000000000000000000000000000000000C0
:1090B00000000000000000000000000000000000B0
:1090C00000000000000000000000000000000000A0
:1090D0000000000000000000000000000000000090
:1090E0000000000000000000000000000000000080
:1090F0000000000000000000000000000000000070
:10910000000000000000000000000000000000005F
:1091100000002421FBDEFFFFFFFFFFFFFFFFFFFF3B
:10912000FFFFFFFFFFFFFFFF000000000000FFFF49
:10913000FFFFFFFFFFFFFFFFFFFFFFFF2D6B0000A3
:1091400000000000000014A5FFFFFFFFFFFFFFFF6E
:10915000FFFFFFFF9AD600000000000000002D6B0B
:10916000FFFFFFFFFFFFFFFFFFFFFFFFFFFF00000D
:109170000000CF7BFFFFFFFFFFFFFFFFFFFFFFFFB1
:10918000FFFF2D6B00000000000000009AD6FFFFDB
:10919000FFFFFFFFFFFFFFFFFFFF14A50000000020
:1091A00014A5FFFFFFFFFFFFFFFFFFFFFFFF9AD6A2
:1091B000000000002421FFFFFFFFFFFFFFFFFFFF74
:1091C000FFFFFFFF14A500000000000000000000EA
:1091D00000002D6B9AD60000000000000000000087
:1091E000000000000000000000000000000000007F
:1091F000000000000000000000000000000000006F
:10920000000000000000000000000000000000005E
:10921000000000000000000000000000000000004E
:10922000000000000000000000000000000000003E
:10923000000000000000000000000000000000002E
:10924000000000000000000000000000000000001E
:109250002421FBDEFFFFFFFFFFFFFFFFFFFFFFFFFC
:10926000FFFFFFFFFFFFBEF7000000000000FFFF51
:10927000FFFFFFFFFFFFFFFFFFFFFFFF2D6B000062
:1092800000000000000014A5FFFFFFFFFFFFFFFF2D
:10929000FFFFFFFF9AD600000000000000002D6BCA
:1092A000FFFFFFFFFFFFFFFFFFFFFFFFFFFF0000CC
:1092B000000075ADFFFFFFFFFFFFFFFFFFFFFFFF98
:1092C000FFFF2D6B00000000000000009AD6FFFF9A
:1092D000FFFFFFFFFFFFFFFFFFFF14A500000000DF
:1092E00014A5FFFFFFFFFFFFFFFFFFFFFFFF9AD661
:1092F00000000000CF7BFFFFFFFFFFFFFFFFFFFF2E
:10930000FFFFFFFF14A500000000000000000000A8
:1093100000000000BEF72421000000000000000053
:10932000000000000000000000000000000000003D
:10933000000000000000000000000000000000002D
:10934000000000000000000000000000000000001D
:10935000000000000000000000000000000000000D
:1093600000000000000000000000000000000000FD
:1093700000000000000000000000000000000000ED
:109380000000000000000000000000000000242198
:10939000FBDEFFFFFFFFFFFFFFFFFFFFFFFFFFFF02
:1093A000FFFFFFFFFFFFD7BD000000000000FFFF31
:1093B000FFFFFFFFFFFFFFFFFFFFFFFF2D6B000021
:1093C00000000000000014A5FFFFFFFFFFFFFFFFEC
:1093D000FFFFFFFF9AD600000000000000002D6B89
:1093E000FFFFFFFFFFFFFFFFFFFFFFFFFFFF00008B
:1093F00000009AD6FFFFFFFFFFFFFFFFFFFFFFFF09
:10940000FFFF2D6B00000000000000009AD6FFFF58
:10941000FFFFFFFFFFFFFFFFFFFF14A5000000009D
:1094200014A5FFFFFFFFFFFFFFFFFFFFFFFF9AD61F
:109430000000000014A5FFFFFFFFFFFFFFFFFFFF7D
:10944000FFFFFFFF14A50000000000000000000067
:10945000000000009AD62D6B000000000000000004
:1094600000000000000000000000000000000000FC
:1094700000000000000000000000000000000000EC
:1094800000000000000000000000000000000000DC
:1094900000000000000000000000000000000000CC
:1094A00000000000000000000000000000000000BC
:1094B00000000000000000000000000000000000AC
:1094C0000000000000000000000000000000D7BD08
:1094D000FFFFFFFFFFFFFFFFFFFFFFFFFFFFFFFF9C
:1094E000FFFFFFFFFFFF0842000000000000FFFF3A
:1094F000FFFFFFFFFFFFFFFFFFFFFFFF2D6B0000E0
:1095000000000000000014A5FFFFFFFFFFFFFFFFAA
:10951000FFFFFFFF9AD600000000000000002D6B47
:10952000FFFFFFFFFFFFFFFFFFFFFFFFFFFF000049
:1095300000009AD6FFFFFFFFFFFFFFFFFFFFFFFFC7
:10954000FFFF2D6B00000000000000009AD6FFFF17
:10955000FFFFFFFFFFFFFFFFFFFF14A5000000005C
:1095600014A5FFFFFFFFFFFFFFFFFFFFFFFF9AD6DE
:109570000000000014A5FFFFFFFFFFFFFFFFFFFF3C
:10958000FFFFFFFF14A50000000000000000000026
:10959000000000009AD62D6B0000000000000000C3
:1095A00000000000000000000000000000000000BB
:1095B00000000000000000000000000000000000AB
:1095C000000000000000000000000000000000009B
:1095D000000000000000000000000000000000008B
:1095E000000000000000000000000000000000007B
:1095F000000000000000000000000000000000006B
:1096000000000000000000000000000075ADFFFF3A
:10961000FFFFFFFFFFFFFFFFFFFFFFFFFFFFFFFF5A
:10962000FFFFFFFF14A50000000000000000FFFF87
:10963000FFFFFFFFFFFFFFFFFFFFFFFF2D6B00009E
:1096400000000000000014A5FFFFFFFFFFFFFFFF69
:10965000FFFFFFFF9AD600000000000000002D6B06
:10966000FFFFFFFFFFFFFFFFFFFFFFFFFFFF000008
:1096700000009AD6FFFFFFFFFFFFFFFFFFFFFFFF86
:10968000FFFF2D6B00000000000000009AD6FFFFD6
:10969000FFFFFFFFFFFFFFFFFFFF14A5000000001B
:1096A00014A5FFFFFFFFFFFFFFFFFFFFFFFF9AD69D
:1096B00000000000B294FFFFFFFFFFFFFFFFFFFF6E
:1096C000FFFFFFFF14A500000000000000000000E5
:1096D000000000005CE708420000000000000000FD
:1096E000000000000000000000000000000000007A
:1096F000000000000000000000000000000000006A
:109700000000000000000000000000000000000059
:109710000000000000000000000000000000000049
:109720000000000000000000000000000000000039
:109730000000000000000000000000000000000029
:1097400000000000000000000000CF7BFFFFFFFFD3
:10975000FFFFFFFFFFFFFFFFFFFFFFFFFFFFFFFF19
:10976000FFFF38C600000000000000000000FFFFFF
:10977000FFFFFFFFFFFFFFFFFFFFFFFF2D6B00005D
:1097800000000000000014A5FFFFFFFFFFFFFFFF28
:10979000FFFFFFFF9AD600000000000000002D6BC5
:1097A000FFFFFFFFFFFFFFFFFFFFFFFFFFFF0000C7
:1097B000000014A5FFFFFFFFFFFFFFFFFFFFFFFFFC
:1097C000FFFF2D6B00000000000000009AD6FFFF95
:1097D000FFFFFFFFFFFFFFFFFFFF14A500000000DA
:1097E00014A5FFFFFFFFFFFFFFFFFFFFFFFF9AD65C
:1097F00000000000AA52FFFFFFFFFFFFFFFFFFFF77
:10980000FFFFFFFF14A500000000000000000000A3
:1098100000000842BEF70000000000000000000049
:109820000000000000000000000000000000000038
:109830000000000000000000000000000000000028
:109840000000000000000000000000000000000018
:109850000000000000000000000000000000000008
:1098600000000000000000000000000000000000F8
:1098700000000000000000000000000000000000E8
:1098800000000000000000002421BEF7FFFFFFFFE2
:10989000FFFFFFFFFFFFFFFFFFFFFFFFFFFFFFFFD8
:1098A000FBDE242100000000000000000000FFFF9C
:1098B000FFFFFFFFFFFFFFFFFFFFFFFF2D6B00001C
:1098C00000000000000014A5FFFFFFFFFFFFFFFFE7
:1098D000FFFFFFFF9AD600000000000000002D6B84
:1098E000FFFFFFFFFFFFFFFFFFFFFFFFFFFF000086
:1098F0000000AA52FFFFFFFFFFFFFFFFFFFFFFFF78
:10990000FFFF2D6B00000000000000009AD6FFFF53
:10991000FFFFFFFFFFFFFFFFFFFF14A50000000098
:1099200014A5FFFFFFFFFFFFFFFFFFFFFFFF9AD61A
:109930000000000000005CE7FFFFFFFFFFFFFFFFEC
:10994000FFFFFFFF14A50000000000000000000062
:10995000000014A575AD000000000000000000002C
:1099600000000000000000000000000000000000F7
:1099700000000000000000000000000000000000E7
:1099800000000000000000000000000000000000D7
:1099900000000000000000000000000000000000C7
:1099A00000000000000000000000000000000000B7
:1099B00000000000000000000000000000000000A7
:1099C000000000000000000014A5FFFFFFFFFFFFE4
:1099D000FFFFFFFFFFFFFFFFFFFFFFFFFFFF5CE752
:1099E0002421000000000000000000000000FFFF34
:1099F000FFFFFFFFFFFFFFFFFFFFFFFF2D6B0000DB
:109A000000000000000014A5FFFFFFFFFFFFFFFFA5
:109A1000FFFFFFFF9AD600000000000000002D6B42
:109A2000FFFFFFFFFFFFFFFFFFFFFFFFFFFF000044
:109A30000000000038C6FFFFFFFFFFFFFFFFFFFF32
:109A4000FFFF2D6B00000000000000009AD6FFFF12
:109A5000FFFFFFFFFFFFFFFFFFFF14A50000000057
:109A600014A5FFFFFFFFFFFFFFFFFFFFFFFF9AD6D9
:109A7000000000000000CF7BFFFFFFFFFFFFFFFFA4
:109A8000FFFFFFFF14A50000000000000000000021
:109A9000AA525CE724210000000000000000000042
:109AA00000000000000000000000000000000000B6
:109AB00000000000000000000000000000000000A6
:109AC0000000000000000000000000000000000096
:109AD0000000000000000000000000000000000086
:109AE0000000000000000000000000000000000076
:109AF0000000000000000000000000000000000066
:109B000000000000000000005CE7FFFFFFFFFFFF18
:109B1000FFFFFFFFFFFFFFFFFFFFFFFFBEF7AA52A0
:109B20000000000000000000000000000000FFFF37
:109B3000FFFFFFFFFFFFFFFFFFFFFFFF2D6B000099
:109B400000000000000014A5FFFFFFFFFFFFFFFF64
:109B5000FFFFFFFF9AD600000000000000002D6B01
:109B6000FFFFFFFFFFFFFFFFFFFFFFFFFFFF000003
:109B70000000000024215CE7FFFFFFFFFFFFFFFF65
:109B8000FFFF2D6B00000000000024215CE7FFFFB9
:109B9000FFFFFFFFFFFFFFFFFFFF14A50000000016
:109BA00014A5FFFFFFFFFFFFFFFFFFFFFFFF9AD698
:109BB0000000000000000000D7BDFFFFFFFFFFFF17
:109BC000FFFFFFFF14A50000000000000000AA52E4
:109BD000BEF730840000000000000000000000001C
:109BE0000000000000000000000000000000000075
:109BF0000000000000000000000000000000000065
:109C00000000000000000000000000000000000054
:109C10000000000000000000000000000000000044
:109C20000000000000000000000000000000000034
:109C30000000000000000000000000000000000024
:109C40000000000000000000FFFFFFFFFFFFFFFF1C
:109C5000FFFFFFFFFFFFFFFFFFFFBEF7AA5200005D
:109C60000000000000000000000000000000FFFFF6
:109C7000FFFFFFFFFFFFFFFFFFFFFFFF2D6B000058
:109C800000000000000014A5FFFFFFFFFFFFFFFF23
:109C9000FFFFFFFF9AD600000000000000002D6BC0
:109CA000FFFFFFFFFFFFFFFFFFFFFFFFFFFF0000C2
:109CB000000000000000AA52FBDEFFFFFFFFFFFFD5
:109CC000FFFF2D6B000000002D6BFBDE5CE7FFFF4C
:109CD000FFFFFFFFFFFFFFFFFFFF14A500000000D5
:109CE00014A5FFFFFFFFFFFFFFFFFFFFFFFF9AD657
:109CF0000000000000000000000075ADFFFFFFFF46
:109D0000FFFFFFFF14A5000000000000B2945CE715
:109D1000308400000000000000000000000000008F
:109D20000000000000000000000000000000000033
:109D30000000000000000000000000000000000023
:109D40000000000000000000000000000000000013
:109D50000000000000000000000000000000000003
:109D600000000000000000000000000000000000F3
:109D700000000000000000000000000000000000E3
:109D80000000000000000000FFFFFFFFFFFFFFFFDB
:109D9000FFFFFFFFFFFFFFFFFFFFAA5200000000D1
:109DA000000000000000000008429AD69AD6FFFF8B
:109DB000FFFFFFFFFFFFFFFFFFFFFFFFFBDE9AD666
:109DC0009AD63084000014A5FFFFFFFFFFFFFFFFBE
:109DD000FFFFFFFF9AD600000000000000002D6B7F
:109DE000FFFFFFFFFFFFFFFFFFFFFFFFFFFF000081
:109DF0000000000000000000242114A5BEF7FFFFB2
:109E0000FFFFFBDE14A5FBDE9AD608429AD6FFFFC1
:109E1000FFFFFFFFFFFFFFFFFFFF14A50000000093
:109E200014A5FFFFFFFFFFFFFFFFFFFFFFFF9AD615
:109E30000000000000000000000000002D6B9AD61A
:109E4000FFFFFFFF9AD614A5D7BDBEF7D7BD0842C6
:109E50000000000000000000000000000000000002
:109E600000000000000000000000000000000000F2
:109E700000000000000000000000000000000000E2
:109E800000000000000000000000000000000000D2
:109E900000000000000000000000000000000000C2
:109EA00000000000000000000000000000000000B2
:109EB00000000000000000000000000000000000A2
:109EC000000000000000000038C6FFFFFFFFFFFF9A
:109ED000FFFFFFFFFFFFFFFF3084000000000000D6
:109EE000000000000000000024212D6B2D6BFFFFFF
:109EF000FFFFFFFFFFFFFFFFFFFFFFFF2D6B2D6B3E
:109F00002D6B0842000008422D6B2D6B2D6B2D6BC5
:109F10002D6B2D6BAA5200000000000000002421D0
:109F20002D6B2D6B2D6B2D6B2D6B2D6B2D6B000009
:109F300000000000000000000000000000002D6B89
:109F400014A514A530840842000000009AD6FFFF33
:109F5000FFFFFFFFFFFFFFFFFFFF14A50000000052
:109F600008422D6B2D6B2D6B2D6B2D6B2D6BAA521B
:109F700000000000000000000000000000000000E1
:109F80000842308414A514A5CF7B242100000000D2
:109F900000000000000000000000000000000000C1
:109FA00000000000000000000000000000000000B1
:109FB00000000000000000000000000000000000A1
:109FC0000000000000000000000000000000000091
:109FD0000000000000000000000000000000000081
:109FE0000000000000000000000000000000000071
:109FF0000000000000000000000000000000000061
:10A000000000000000000000AA52FFFFFFFFFFFF5A
:10A01000FFFFFFFFFFFF14A500000000000000008D
:10A020000000AA52AA520000000000000000FFFF3A
:10A03000FFFFFFFFFFFFFFFFFFFFFFFF24210000E7
:10A040000000000000000000000000000000000010
:10A050000000000000000000000000000000000000
:10A0600000000000000000000000000000000000F0
:10A0700000000000000000000000000000000000E0
:10A080000000000000000000000000009AD6FFFF62
:10A09000FFFFFFFFFFFFFFFFFFFF14A50000000011
:10A0A00000002421308414A514A530840842000047
:10A0B00000000000000000000000000000000000A0
:10A0C0000000000000000000000000000000000090
:10A0D0000000000000000000000000000000000080
:10A0E0000000000000000000000000000000000070
:10A0F0000000000000000000000000000000000060
:10A10000000000000000000000000000000000004F
:10A11000000000000000000000000000000000003F
:10A12000000000000000000000000000000000002F
:10A13000000000000000000000000000000000001F
:10A14000000000000000000000003084FFFFFFFF5F
:10A15000FFFFFFFFFFFF24210000000000000000C0
:10A16000B294FFFF2D6B00000000000000000842C9
:10A1700014A55CE7FFFFFFFFFFFFFFFF2D6B000053
:10A1800000000000000000000000000000000000CF
:10A1900000000000000000000000000000000000BF
:10A1A00000000000000000000000000000000000AF
:10A1B000000000000000000000000000000000009F
:10A1C0000000000000000000000000009AD6FFFF21
:10A1D000FFFFFFFFFFFFFFFFFFFF14A500000000D0
:10A1E0000842BEF7FFFFFFFFFFFFFFFFBEF7CF7B79
:10A1F000000000000000000000000000000000005F
:10A20000000000000000000000000000000000004E
:10A21000000000000000000000000000000000003E
:10A22000000000000000000000000000000000002E
:10A23000000000000000000000000000000000001E
:10A24000000000000000000000000000000000000E
:10A2500000000000000000000000000000000000FE
:10A2600000000000000000000000000000000000EE
:10A2700000000000000000000000000000000000DE
:10A28000000000000000000000000000AA529AD662
:10A29000FFFFFFFFFFFF14A52D6B2D6B75AD5CE776
:10A2A0009AD6AA5200000000000000000000000042
:10A2B0000000000030845CE7FFFFFFFF2D6B000013
:10A2C000000000000000000000000000000000008E
:10A2D000000000000000000000000000000000007E
:10A2E000000000000000000000000000000000006E
:10A2F000000000000000000000000000000000005E
:10A300000000000000000000000000009AD6FFFFDF
:10A31000FFFFFFFFFFFFFFFFFFFF14A5000000008E
:10A3200014A5FFFFFFFFFFFFFFFFFFFFFFFF9AD610
:10A33000000000000000000000000000000000001D
:10A34000000000000000000000000000000000000D
:10A3500000000000000000000000000000000000FD
:10A3600000000000000000000000000000000000ED
:10A3700000000000000000000000000000000000DD
:10A3800000000000000000000000000000000000CD
:10A3900000000000000000000000000000000000BD
:10A3A00000000000000000000000000000000000AD
:10A3B000000000000000000000000000000000009D
:10A3C000000000000000000000000000000000008D
:10A3D0000842B294D7BD9AD69AD638C614A5AA52C6
:10A3E000000000000000000000000000000000006D
:10A3F000000000000000000030845CE72D6B0000CE
:10A40000000000000000000000000000000000004C
:10A41000000000000000000000000000000000003C
:10A42000000000000000000000000000000000002C
:10A43000000000000000000000000000000000001C
:10A44000000000000000000000000000AA522D6B78
:10A450002D6B2D6B2D6B2D6B2D6B084200000000BA
:10A460002D6BFFFFFFFFFFFFFFFFFFFFFFFF14A5A7
:10A4700000000000000000000000000000000000DC
:10A4800000000000000000000000000000000000CC
:10A4900000000000000000000000000000000000BC
:10A4A00000000000000000000000000000000000AC
:10A4B000000000000000000000000000000000009C
:10A4C000000000000000000000000000000000008C
:10A4D000000000000000000000000000000000007C
:10A4E000000000000000000000000000000000006C
:10A4F000000000000000000000000000000000005C
:10A50000000000000000000000000000000000004B
:10A51000000000000000000000000000000000003B
:10A52000000000000000000000000000000000002B
:10A530000000000000000000000024212421000091
:10A54000000000000000000000000000000000000B
:10A5500000000000000000000000000000000000FB
:10A5600000000000000000000000000000000000EB
:10A5700000000000000000000000000000000000DB
:10A5800000000000000000000000000000000000CB
:10A5900000000000000000000000000000000000BB
:10A5A00000002D6BD7BD9AD69AD638C630840000ED
:10A5B000000000000000000000000000000000009B
:10A5C000000000000000000000000000000000008B
:10A5D000000000000000000000000000000000007B
:10A5E000000000000000000000000000000000006B
:10AB00002421000000000000000000000000000000
:10AB100000000000000000000000242100000000F0
:10AB20000000000000000000000000000000000025
:10AB30000000000000000000000000000000000015
:10AB40000000000000000000000000000000000005
:10AB500000000000000000000000000000000000F5
:10AB600000000000000000000000000000000000E5
:10AB700000000000000000000000000000000000D5
:10AB800000000000000000000000000000000000C5
:10AB900000000000000000000000000000000000B5
:10ABA00000000000000000000000000000000000A5
:10ABB0000000000000000000000000000000000095
:10ABC0000000000000000000000000000000000085
:10ABD0000000000000000000000000000000000075
:10ABE0000000000000000000000000000000000065
:10ABF0000000000000000000000000000000000055
:10AC00000000000000000000000000000000000044
:10AC10000000000000000000000000000000000034
:10AC20000000000000000000000000000000000024
:10AC30000000000000000000000000000000000014
:10AC4000D7BD000000000000000000000000000070
:10AC50000000000000000000242138C600000000B1
:10AC600000000000000000000000000000000000E4
:10AC700000000000000000000000000000000000D4
:10AC800000000000000000000000000000000000C4
:10AC9000AA520000000000000000000000000000B8
:10ACA00000000000000000000000000000000000A4
:10ACB0000000000000000000000000000000000094
:10ACC0000000000000000000000000000000000084
:10ACD0000000000000000000000000000000000074
:10ACE0000000000000000000000000000000000064
:10ACF0000000000000000000000000000000000054
:10AD00000000000000000000000000000000000043
:10AD10000000000000000000000000000000000033
:10AD20000000000000000000000000000000000023
:10AD30000000000000000000000000000000000013
:10AD40000000000000000000000000000000000003
:10AD500000000000000000000000000000000000F3
:10AD600000000000000000000000000000000000E3
:10AD70000000000000000000000000000000CF7B89
:10AD8000FFFF2D6B0000000000000000000000002D
:10AD9000000000000000000014A5FFFF08420000B2
:10ADA00000000000000000000000000000000000A3
:10ADB000000000000000084275ADFBDEFFFFFFFF52
:10ADC000BEF738C6308424210000000000000000D7
:10ADD0005CE7CF7B000000000000000000000000E6
:10ADE0000000000000000000000008429AD69AD639
:10ADF0009AD69AD69AD69AD69AD69AD69AD69AD6D3
:10AE000024210000000000000000308438C65CE708
:10AE1000FFFFFFFF5CE7D7BD2D6B000000000000C7
:10AE20000000000000000000242114A55CE7FFFFE3
:10AE3000FFFF5CE775AD0842000000000000000065
:10AE40000000000000000000000000000000000002
:10AE500000000000000000000000000000000000F2
:10AE600000000000000000000000000000000000E2
:10AE700000000000000000000000000000000000D2
:10AE800000000000000000000000000000000000C2
:10AE900000000000000000000000000000000000B2
:10AEA00000000000000000000000000000000000A2
:10AEB000000000000000000000000000000038C694
:10AEC000FFFF5CE700000000000000000000000041
:10AED0000000000000000842FFFFFFFFD7BD000098
:10AEE0000000000000000000000000000000000062
:10AEF0000000000014A5FFFFFFFFBEF7AA520000EC
:10AF00002421CF7B9AD6BEF7B29400000000000047
:10AF100030845CE7242100000000000000000000F5
:10AF200000000000000000000000D7BDFFFFFFFF91
:10AF3000FFFFFFFFFFFFFFFFFFFFFFFFFFFF14A566
:10AF4000000000000000AA52FBDEFFFFFFFFFFFF32
:10AF500038C600002421CF7B9AD69AD6084200003A
:10AF60000000000000002421FBDEFFFFFFFFFFFFC9
:10AF7000FFFFFFFFFFFFBEF730840000000000006E
:10AF800000000000000000000000000000000000C1
:10AF900000000000000000000000000000000000B1
:10AFA00000000000000000000000000000000000A1
:10AFB0000000000000000000000000000000000091
:10AFC0000000000000000000000000000000000081
:10AFD0000000000000000000000000000000000071
:10AFE0000000000000000000000000000000000061
:10AFF0000000000000000000000000000842FFFF09
:10B00000FFFFFFFF30840000000000000000000090
:10B01000000000000000D7BDFFFFFFFFFFFF24215D
:10B020000000000000000000000000000000000020
:10B030000000D7BDFFFFFFFFFFFF9AD60000000012
:10B040000000000000002D6BBEF738C62421000070
:10B0500000009AD6D7BD2D6B2D6B2D6B2D6B2D6BF4
:10B060002D6B2D6B2D6B2D6B3084FFFFFFFFFFFFD2
:10B07000FFFFFFFFFFFFFFFFFFFFFFFFBEF72421E2
:10B0800000000000AA52BEF7FFFFFFFFFFFFFFFF17
:10B0900014A50000000000000000CF7B5CE7AA526E
:10B0A000000000000000D7BDFFFFFFFFFFFFFFFF14
:10B0B000FFFFFFFFAA522D6BBEF7AA52000000004F
:10B0C0000000000000000000000000000000000080
:10B0D0000000000000000000000000000000000070
:10B0E0000000000000000000000000000000000060
:10B0F0000000000000000000000000000000000050
:10B10000000000000000000000000000000000003F
:10B11000000000000000000000000000000000002F
:10B12000000000000000000000000000000000001F
:10B1300000000000000000000000000014A5FFFF58
:10B14000FFFFFFFFBEF72421000000000000000009
:10B15000000000000842FFFFFFFFFFFFFFFF14A5F4
:10B1600000000000000000000000000000000000DF
:10B1700014A5FFFFFFFFFFFFFFFF9AD600000000AE
:10B1800000000000000000002421FBDE9AD6000031
:10B1900000002D6BFFFFFBDE9AD69AD69AD69AD680
:10B1A0009AD69AD69AD69AD6BEF7FFFFFFFFFFFF30
:10B1B000FFFFFFFFFFFFFFFFFFFFFFFFB294000055
:10B1C00000002421BEF7FFFFFFFFFFFFFFFFFFFF8F
:10B1D00014A500000000000000000000AA525CE777
:10B1E000AA5200000000FFFFFFFFFFFFFFFFFFFF6D
:10B1F000FFFFFFFF00000000CF7B9AD60000000099
:10B20000000000000000000000000000000000003E
:10B21000000000000000000000000000000000002E
:10B22000000000000000000000000000000000001E
:10B23000000000000000000000000000000000000E
:10B2400000000000000000000000000000000000FE
:10B2500000000000000000000000000000000000EE
:10B2600000000000000000000000000000000000DE
:10B270000000000000000000000000005CE7FFFF8D
:10B28000FFFFFFFFFFFF14A500000000000000000B
:10B2900000000000D7BDFFFFFFFFFFFFFFFFBEF76D
:10B2A0000000000000000000000000000000084254
:10B2B000FFFFFFFFFFFFFFFFFFFF9AD60000000028
:10B2C00000000000000000000000AA52BEF7AA52D1
:10B2D00000000000D7BDD7BD000000000000000046
:10B2E000000000000000AA52FFFFFFFFFFFFFFFF6A
:10B2F000FFFFFFFFFFFFFFFFFFFF5CE70000000015
:10B300000000D7BDFFFFFFFFFFFFFFFFFFFFFFFFB5
:10B3100014A5000000000000000000000000B2942E
:10B3200038C600002D6BFFFFFFFFFFFFFFFFFFFF91
:10B33000FFFFFFFF0000000000005CE700000000CE
:10B3400000000000000000000000000000000000FD
:10B3500000000000000000000000000000000000ED
:10B3600000000000000000000000000000000000DD
:10B3700000000000000000000000000000000000CD
:10B3800000000000000000000000000000000000BD
:10B3900000000000000000000000000000000000AD
:10B3A000000000000000000000000000000000009D
:10B3B00000000000000000000000CF7BFFFFFFFF47
:10B3C000FFFFFFFFFFFFBEF7242100000000000089
:10B3D00000002D6BFFFFFFFFFFFFFFFFFFFFFFFFE1
:10B3E000308400000000000000000000000014A5F0
:10B3F000FFFFFFFFFFFFFFFFFFFF9AD600000000E7
:10B4000000000000000000000000000008420000F2
:10B41000000000002421BEF7AA5200000000000036
:10B420000000000000009AD6FFFFFFFFFFFFFFFFB4
:10B43000FFFFFFFFFFFFFFFFFFFFCF7B00000000CC
:10B440002421FFFFFFFFFFFFFFFFFFFFFFFFFFFFC5
:10B4500014A5000000000000000000000000000033
:10B46000084200002D6BFFFFFFFFFFFFFFFFFFFF04
:10B47000FFFFFFFF000000000000000000000000D0
:10B4800000000000000000000000000000000000BC
:10B4900000000000000000000000000000000000AC
:10B4A000000000000000000000000000000000009C
:10B4B000000000000000000000000000000000008C
:10B4C000000000000000000000000000000000007C
:10B4D000000000000000000000000000000000006C
:10B4E000000000000000000000000000000000005C
:10B4F000000000000000000000009AD6FFFFFFFFE0
:10B50000FFFFFFFFFFFFFFFFD7BD000000000000AF
:10B5100000009AD6FFFFFFFFFFFFFFFFFFFFFFFFC7
:10B520005CE7000000000000000000000000FBDEFF
:10B53000FFFFFFFFFFFFFFFFFFFF9AD600000000A5
:10B5400000000000000000000000000000000000FB
:10B55000000000000000B2949AD600000000000035
:10B56000000000002D6BFFFFFFFFFFFFFFFFFFFF4D
:10B57000FFFFFFFFFFFFFFFF9AD600000000000063
:10B58000CF7BFFFFFFFFFFFFFFFFFFFFFFFFFFFF7F
:10B5900014A50000000000000000000000000000F2
:10B5A000000000002D6BFFFFFFFFFFFFFFFFFFFF0D
:10B5B000FFFFFFFF0000000000000000000000008F
:10B5C000000000000000000000000000000000007B
:10B5D000000000000000000000000000000000006B
:10B5E000000000000000000000000000000000005B
:10B5F000000000000000000000000000000000004B
:10B60000000000000000000000000000000000003A
:10B61000000000000000000000000000000000002A
:10B62000000000000000000000000000000000001A
:10B6300000000000000000000842FFFFFFFFFFFFC6
:10B64000FFFFFFFFFFFFFFFFFFFF084200000000BA
:10B650002D6BFFFFFFFFFFFFFFFFFFFFFFFFFFFF60
:10B66000FFFF2D6B00000000000000000000FFFF46
:10B67000FFFFFFFFFFFFFFFFFFFFFBDE2D6B2D6BCB
:10B680002D6B2D6B2D6B2D6B2D6B2D6B2D6BAA5296
:10B6900000000000000000005CE7CF7B000000001D
:10B6A000000000009AD6FFFFFFFFFFFFFFFFFFFF34
:10B6B000FFFFFFFFFFFFFFFF2D6B000000000000FA
:10B6C00014A5FFFFFFFFFFFFFFFFFFFFFFFFFFFFCF
:10B6D00014A50000000000000000000000000000B1
:10B6E000000000002D6BFFFFFFFFFFFFFFFFFFFFCC
:10B6F000FFFFFFFF0000000000000000000000004E
:10B700000000000000000000000000000000000039
:10B710000000000000000000000000000000000029
:10B720000000000000000000000000000000000019
:10B730000000000000000000000000000000000009
:10B7400000000000000000000000000000000000F9
:10B7500000000000000000000000000000000000E9
:10B7600000000000000000000000000000000000D9
:10B77000000000000000000075ADFFFFFFFFFFFFAD
:10B78000FFFFFFFFFFFFFFFFFFFF9AD60000000053
:10B790005CE7FFFFFFFFFFFFFFFFFFFFFFFFFFFF74
:10B7A000FFFF9AD600000000000000000000FFFF2D
:10B7B000FFFFFFFFFFFFFFFFFFFFBEF79AD69AD6FE
:10B7C0009AD6FBDEFFFFFFFFFFFFFFFFFFFF9AD6CA
:10B7D00000000000000000002D6B5CE72421000049
:10B7E00000003084FFFFFFFFFFFFFFFFFFFFFFFFB1
:10B7F000FFFFFFFFFFFFD7BD0000000000000000BB
:10B8000014A5FFFFFFFFFFFFFFFFFFFFFFFFFFFF8D
:10B8100014A500000000000000000000000000006F
:10B82000000000002D6BFFFFFFFFFFFFFFFFFFFF8A
:10B83000FFFFFFFF0000000000000000000000000C
:10B8400000000000000000000000000000000000F8
:10B8500000000000000000000000000000000000E8
:10B8600000000000000000000000000000000000D8
:10B8700000000000000000000000000000000000C8
:10B8800000000000000000000000000000000000B8
:10B8900000000000000000000000000000000000A8
:10B8A0000000000000000000000000000000000098
:10B8B0000000000000000000BEF7FFFFFFFFFFFFD9
:10B8C000FFFFFFFFFFFFFFFFFFFFFFFF2D6BB294A6
:10B8D000FFFFFFFFFFFFFFFFFFFFFFFFFFFFFFFF78
:10B8E000FFFFBEF7AA5200000000000000005CE766
:10B8F000FFFFFFFFFFFFFFFFFFFF9AD600000000E2
:10B9000000002D6BFFFFFFFFFFFFFFFFFFFFD7BD15
:10B910000000000000000000000038C614A5000070
:10B9200000005CE7FFFFFFFFFFFFFFFFFFFFFFFFE0
:10B93000FFFFFFFFBEF7084200000000000000000C
:10B94000B294FFFFFFFFFFFFFFFFFFFFFFFFFFFFBF
:10B9500014A500000000000000000000000000002E
:10B96000000000002D6BFFFFFFFFFFFFFFFFFFFF49
:10B97000FFFFFFFF000000000000000000000000CB
:10B9800000000000000000000000000000000000B7
:10B9900000000000000000000000000000000000A7
:10B9A0000000000000000000000000000000000097
:10B9B0000000000000000000000000000000000087
:10B9C0000000000000000000000000000000000077
:10B9D0000000000000000000000000000000000067
:10B9E0000000000000000000000000000000000057
:10B9F0000000000000003084FFFFFFFFFFFFFFFF9B
:10BA0000FFFFFFFFFFFFFFFFD7BD14A55CE7BEF7F9
:10BA1000FFFFFFFFFFFFFFFFFFFFFFFFFFFFFFFF36
:10BA2000D7BDD7BDD7BD0000000000000000D7BDC6
:10BA3000FFFFFFFFFFFFFFFFFFFF9AD600000000A0
:10BA400000002D6BFFFFFFFFFFFFFFFFFFFFB29422
:10BA50000000000000000000000008425CE708420F
:10BA60003084FFFFFFFFFFFFFFFFFFFFFFFFFFFF30
:10BA7000FFFFFFFF14A50000000000000000000011
:10BA8000AA52FFFFFFFFFFFFFFFFFFFFFFFFFFFFC8
:10BA900014A50000000000000000000000000000ED
:10BAA000000000002D6BFFFFFFFFFFFFFFFFFFFF08
:10BAB000FFFFFFFF0000000000000000000000008A
:10BAC0000000000000000000000000000000000076
:10BAD0000000000000000000000000000000000066
:10BAE0000000000000000000000000000000000056
:10BAF0000000000000000000000000000000000046
:10BB00000000000000000000000000000000000035
:10BB10000000000000000000000000000000000025
:10BB20000000000000000000000000000000000015
:10BB30000000000000009AD6FFFFFFFFFFFFFFFF9D
:10BB4000FFFFFFFFFFFFFFFFAA522421BEF7FFFF09
:10BB5000FFFFFFFFFFFFFFFFFFFFFFFFFFFFBEF73E
:10BB600024210842FFFF08420000000000002D6B66
:10BB7000FFFFFFFFFFFFFFFFFFFF9AD6000000005F
:10BB800000002D6BFFFFFFFFFFFFFFFFFFFF0842DD
:10BB900000000000000000000000000014A538C6EE
:10BBA0005CE7FFFFFFFFFFFFFFFFFFFFFFFFFFFF60
:10BBB000FFFFBEF72421000000000000000000008D
:10BBC00000005CE7FFFFFFFFFFFFFFFFFFFFFFFF3E
:10BBD00014A50000000000000000000000000000AC
:10BBE000000000002D6BFFFFFFFFFFFFFFFFFFFFC7
:10BBF000FFFFFFFF00000000000000000000000049
:10BC00000000000000000000000000000000000034
:10BC10000000000000000000000000000000000024
:10BC20000000000000000000000000000000000014
:10BC30000000000000000000000000000000000004
:10BC400000000000000000000000000000000000F4
:10BC500000000000000000000000000000000000E4
:10BC600000000000000000000000000000000000D4
:10BC7000000000000842FFFFFFFFFFFFFFFFFFFF84
:10BC8000FFFFFFFFFFFF9AD6000000003084FFFF98
:10BC9000FFFFFFFFFFFFFFFFFFFFFFFFFFFF14A5F9
:10BCA0000000000038C614A50000000000000000DD
:10BCB0009AD6FFFFFFFFFFFFFFFF9AD600000000AC
:10BCC00000002D6BFFFFFFFFFFFFFFFF75AD0000C2
:10BCD00000000000000000000000000024215CE7DC
:10BCE000FFFFFFFFFFFFFFFFFFFFFFFFFFFFFFFF64
:10BCF000FFFF308400000000000000000000000092
:10BD00000000CF7BFFFFFFFFFFFFFFFFFFFFFFFFF5
:10BD100014A5000000000000000000002421D7BD91
:10BD2000000000002D6BFFFFFFFFFFFFFFFFFFFF85
:10BD3000FFFFFFFF00000000000000000000000007
:10BD400000000000000000000000000000000000F3
:10BD500000000000000000000000000000000000E3
:10BD600000000000000000000000000000000000D3
:10BD700000000000000000000000000000000000C3
:10BD800000000000000000000000000000000000B3
:10BD900000000000000000000000000000000000A3
:10BDA0000000000000000000000000000000000093
:10BDB0000000000075ADFFFFFFFFFFFFFFFFFFFF6B
:10BDC000FFFFFFFFFFFF30840000000000005CE782
:10BDD000FFFFFFFFFFFFFFFFFFFFFFFF5CE72421E7
:10BDE000000000002D6BBEF72421000000000000C1
:10BDF0000842BEF7FFFFFFFFFFFF9AD600000000DA
:10BE000000002D6BFFFFFFFFFFFFFBDE2421000082
:10BE10000000000000000000000000000000CF7BD8
:10BE2000FFFFFFFFFFFFFFFFFFFFFFFFFFFFFFFF22
:10BE30005CE70000000000000000000000000000BF
:10BE400000000000D7BDFFFFFFFFFFFFFFFFFFFF68
:10BE500014A500000000000000000000D7BD9AD625
:10BE6000000000002D6BFFFFFFFFFFFFFFFFFFFF44
:10BE7000FFFFFFFF000000000000000000000000C6
:10BE800000000000000000000000000000000000B2
:10BE900000000000000000000000000000000000A2
:10BEA0000000000000000000000000000000000092
:10BEB0000000000000000000000000000000000082
:10BEC0000000000000000000000000000000000072
:10BED0000000000000000000000000000000000062
:10BEE0000000000000000000000000000000000052
:10BEF00000002421BEF7FFFFFFFFFFFFFFFFFFFF52
:10BF0000FFFFFFFFBEF700000000000000002D6BE8
:10BF1000FFFFFFFFFFFFFFFFFFFFFFFF3084000079
:10BF20000000000000005CE730840000000000001A
:10BF30000000AA525CE7FFFFFFFF5CE70000000083
:10BF40000000CF7BFFFFFFFFFBDE2421000000008D
:10BF500000000000000000000000000000000000E1
:10BF60009AD6FFFFFFFFFFFFFFFFFFFFFFFFFFFF6F
:10BF70002D6B000000000000000000000000000029
:10BF800000000000000075ADFFFFFFFFFFFFFFFF97
:10BF900075AD0000000000002D6B9AD6FBDE242159
:10BFA000000000002D6BFFFFFFFFFFFFFFFFFFFF03
:10BFB000FFFFFFFF00000000000000000000000085
:10BFC0000000000000000000000000000000000071
:10BFD0000000000000000000000000000000000061
:10BFE0000000000000000000000000000000000051
:10BFF0000000000000000000000000000000000041
:10C000000000000000000000000000000000000030
:10C010000000000000000000000000000000000020
:10C020000000000000000000000000000000000010
:10C0300000003084FFFFFFFFFFFFFFFFFFFFFFFF58
:10C04000FFFFFFFF14A5000000000000000000003B
:10C050009AD6FFFFFFFFFFFFFFFF5CE70000000035
:10C06000000000000000B2945CE700000000000047
:10C0700000000000242114A5BEF7FFFF9AD614A5E6
:10C0800075ADBEF75CE714A50000000000000000DD
:10C0900000000000000000000000000000000000A0
:10C0A0000842FFFFFFFFFFFFFFFFFFFFFFFF9AD6E2
:10C0B0000000000000000000000000000000000080
:10C0C00000000000000000002D6B9AD6FFFFFFFF6C
:10C0D000BEF775AD14A5FBDE5CE714A500000000FB
:10C0E000CF7B9AD6FBDEFFFFFFFFFFFFFFFFFFFFC7
:10C0F000FFFFFFFF9AD69AD69AD6AA5200000000F8
:10C10000000000000000000000000000000000002F
:10C11000000000000000000000000000000000001F
:10C12000000000000000000000000000000000000F
:10C1300000000000000000000000000000000000FF
:10C1400000000000000000000000000000000000EF
:10C1500000000000000000000000000000000000DF
:10C1600000000000000000000000000000000000CF
:10C1700000005CE7FFFFFFFFFFFFFFFFFFFFFFFF88
:10C18000FFFFFFFF08420000000000000000000069
:10C190002D6BFFFFFFFFFFFFFFFF2D6B0000000077
:10C1A0000000000000002421BEF7308400000000E1
:10C1B000000000000000000000002D6B14A514A575
:10C1C00014A52D6B0000000000000000000000001E
:10C1D000000000000000000000000000000000005F
:10C1E000000014A5FFFFFFFFFFFFFFFFFFFFAA52A4
:10C1F000000000000000000000000000000000003F
:10C200000000000000000000000000000842308430
:10C2100014A514A5B2942D6B0000000000000000CE
:10C2200008422D6BB294FFFFFFFFFFFFFFFFFFFFF0
:10C23000FFFFFBDE2D6B2D6B2D6B2421000000001A
:10C2400000000000000000000000000000000000EE
:10C2500000000000000000000000000000000000DE
:10C2600000000000000000000000000000000000CE
:10C2700000000000000000000000000000000000BE
:10C2800000000000000000000000000000000000AE
:10C29000000000000000000000000000000000009E
:10C2A000000000000000000000000000000000008E
:10C2B0002D6BFFFFFFFFFFFFFFFFFFFFFFFFFFFFF4
:10C2C000FFFF38C600000000000000000000000072
:10C2D0000000D7BDFFFFFFFF9AD60000000000005E
:10C2E0000000000000000000D7BD9AD6000000004A
:10C2F000000000000000000000000000000000003E
:10C30000000000000000000000000000000000002D
:10C31000000000000000000000000000000000001D
:10C3200000002421BEF7FFFFFFFFFFFFD7BD000085
:10C3300000000000000000000000000000000000FD
:10C3400000000000000000000000000000000000ED
:10C3500000000000000000000000000000000000DD
:10C36000000000002D6BFFFFFFFFFFFFFFFFFFFF3F
:10C37000FFFFFBDE000000000000000000000000E6
:10C3800000000000000000000000000000000000AD
:10C39000000000000000000000000000000000009D
:10C3A000000000000000000000000000000000008D
:10C3B000000000000000000000000000000000007D
:10C3C000000000000000000000000000000000006D
:10C3D000000000000000000000000000000000005D
:10C3E000000000000000000000000000000000004D
:10C3F00038C6FFFFFFFFFFFFFFFFFFFFFFFFFFFF4D
:10C40000FFFF30840000000000000000000000007A
:10C4100000000842FFFFFFFF2D6B0000000000003E
:10C420000000000000000000AA52FFFF2D6B00007A
:10C4300000000000000000000000000000000000FC
:10C4400000000000000000000000000000000000EC
:10C4500000000000000000000000000000000000DC
:10C46000000000003084FFFFFFFFBEF72421000022
:10C4700000000000000000000000000000000000BC
:10C4800000000000000000000000000000000000AC
:10C49000000000000000000000000000000000009C
:10C4A000000000000000AA52D7BDBEF7FFFFFFFF4B
:10C4B000FFFFFFFF00000000000000000000000080
:10C4C000000000000000000000000000000000006C
:10C4D000000000000000000000000000000000005C
:10C4E000000000000000000000000000000000004C
:10C4F000000000000000000000000000000000003C
:10C50000000000000000000000000000000000002B
:10C51000000000000000000000000000000000001B
:10C5200000000000000000000000000000000842C1
:10C53000FFFFFFFFFFFFFFFFFFFFFFFFFFFFFFFF0B
:10C54000BEF7000000000000000000000000000036
:10C550000000000075AD9AD6000000000000000049
:10C5600000000000000000000000FBDED7BD00005E
:10C5700000000000000000000000000000000000BB
:10C5800000000000000000000000000000000000AB
:10C59000000000000000000000000000000000009B
:10C5A0000000000000009AD6FFFF14A50000000064
:10C5B000000000000000000000000000000000007B
:10C5C000000000000000000000000000000000006B
:10C5D000000000000000000000000000000000005B
:10C5E00000000000000000000000242114A5BEF798
:10C5F000FFFFFFFF0000000000000000000000003F
:10C60000000000000000000000000000000000002A
:10C61000000000000000000000000000000000001A
:10C62000000000000000000000000000000000000A
:10C6300000000000000000000000000000000000FA
:10C6400000000000000000000000000000000000EA
:10C6500000000000000000000000000000000000DA
:10C660000000000000000000000000000000084280
:10C670002D6B2D6B2D6B2D6B2D6B2D6B2D6B2D6BFA
:10C68000AA520000000000000000000000000000AE
:10C690000000000024212D6B0000000000000000BD
:10C6A00000000000000000000000084208420000F6
:10C6B000000000000000000000000000000000007A
:10C6C000000000000000000000000000000000006A
:10C6D000000000000000000000000000000000005A
:10C6E0000000000000002D6B5CE72421000000002A
:10C6F000000000000000000000000000000000003A
:10C700000000000000000000000000000000000029
:10C710000000000000000000000000000000000019
:10C7200000000000000000000000000000002421C4
:10C7300014A5BEF70000000000000000000000008B
:10C7400000000000000000000000000000000000E9
:10C7500000000000000000000000000000000000D9
:10C7600000000000000000000000000000000000C9
:10C7700000000000000000000000000000000000B9
:10C7800000000000000000000000000000000000A9
:10C790000000000000000000000000000000000099
:10C7A0000000000000000000000000000000000089
:10C7B0000000000000000000000000000000000079
:10C7C0000000000000000000000000000000000069
:10C7D0000000000000000000000000000000000059
:10C7E0000000000000000000000000000000000049
:10C7F0000000000000000000000000000000000039
:10C800000000000000000000000000000000000028
:10C810000000000000000000000000000000000018
:10C8200000000000000000000842000000000000BE
:10C8300000000000000000000000000000000000F8
:10C8400000000000000000000000000000000000E8
:10C8500000000000000000000000000000000000D8
:10C8600000000000000000000000000000000000C8
:10C87000000008420000000000000000000000006E
:10C8800000000000000000000000000000000000A8
:10C890000000000000000000000000000000000098
:10C8A0000000000000000000000000000000000088
:10C8B0000000000000000000000000000000000078
:10D5600000000000000000F800F800F800F800F8E3
:10D5700000F800F800F800F800F800F800F800F8EB
:10D5800000F800F800F800F800F8000000000000C3
:10D590000000E007E007E007E007E007E007E0073A
:10D5A000E007E007E007E007E007E007E007E00743
:10D5B000E007E007E00700000000000000001F0097
:10D5C0001F001F001F001F001F001F001F001F0063
:10D5D0001F001F001F001F001F001F001F001F0053
:10D5E0001F0000000000000000000000000000001C
:10D5F000000000000000000000000000000000002B
:10D60000000000000000000000000000000000001A
:10D61000000000000000000000000000000000000A
:10D6200000000000000000000000000000000000FA
:10D6300000000000000000000000000000000000EA
:10D6400000000000000000000000000000000000DA
:10D6500000000000000000000000000000000000CA
:10D6600000000000000000000000000000000000BA
:10D6700000000000000000000000000000000000AA
:10D68000000000000000000000000000000000009A
:10D69000000000000000000000000000000000008A
:10D6A00000000000000000F800F800F800F800F8A2
:10D6B00000F800F800F800F800F800F800F800F8AA
:10D6C00000F800F800F800F800F800000000000082
:10D6D0000000E007E007E007E007E007E007E007F9
:10D6E000E007E007E007E007E007E007E007E00702
:10D6F000E007E007E00700000000000000001F0056
:10D700001F001F001F001F001F001F001F001F0021
:10D710001F001F001F001F001F001F001F001F0011
:10D720001F000000000000000000000000000000DA
:10D7300000000000000000000000000000000000E9
:10D7400000000000000000000000000000000000D9
:10D7500000000000000000000000000000000000C9
:10D7600000000000000000000000000000000000B9
:10D7700000000000000000000000000000000000A9
:10D780000000000000000000000000000000000099
:10D790000000000000000000000000000000000089
:10D7A0000000000000000000000000000000000079
:10D7B0000000000000000000000000000000000069
:10D7C0000000000000000000000000000000000059
:10D7D0000000000000000000000000000000000049
:10D7E00000000000000000F800F800F800F800F861
:10D7F00000F800F800F800F800F800F800F800F869
:10D8000000F800F800F800F800F800000000000040
:10D810000000E007E007E007E007E007E007E007B7
:10D82000E007E007E007E007E007E007E007E007C0
:10D83000E007E007E00700000000000000001F0014
:10D840001F001F001F001F001F001F001F001F00E0
:10D850001F001F001F001F001F001F001F001F00D0
:10D860001F00000000000000000000000000000099
:10D8700000000000000000000000000000000000A8
:10D880000000000000000000000000000000000098
:10D890000000000000000000000000000000000088
:10D8A0000000000000000000000000000000000078
:10D8B0000000000000000000000000000000000068
:10D8C0000000000000000000000000000000000058
:10D8D0000000000000000000000000000000000048
:10D8E0000000000000000000000000000000000038
:10D8F0000000000000000000000000000000000028
:10D900000000000000000000000000000000000017
:10D910000000000000000000000000000000000007
:10D9200000000000000000F800F800F800F800F81F
:10D9300000F800F800F800F800F800F800F800F827
:10D9400000F800F800F800F800F8000000000000FF
:10D950000000E007E007E007E007E007E007E00776
:10D96000E007E007E007E007E007E007E007E0077F
:10D97000E007E007E00700000000000000001F00D3
:10D980001F001F001F001F001F001F001F001F009F
:10D990001F001F001F001F001F001F001F001F008F
:10D9A0001F00000000000000000000000000000058
:10D9B0000000000000000000000000000000000067
:10D9C0000000000000000000000000000000000057
:10D9D0000000000000000000000000000000000047
:10D9E0000000000000000000000000000000000037
:10D9F0000000000000000000000000000000000027
:10DA00000000000000000000000000000000000016
:10DA10000000000000000000000000000000000006
:10DA200000000000000000000000000000000000F6
:10DA300000000000000000000000000000000000E6
:10DA400000000000000000000000000000000000D6
:10DA500000000000000000000000000000000000C6
:10DA600000000000000000F800F800F800F800F8DE
:10DA700000F800F800F800F800F800F800F800F8E6
:10DA800000F800F800F800F800F8000000000000BE
:10DA90000000E007E007E007E007E007E007E00735
:10DAA000E007E007E007E007E007E007E007E0073E
:10DAB000E007E007E00700000000000000001F0092
:10DAC0001F001F001F001F001F001F001F001F005E
:10DAD0001F001F001F001F001F001F001F001F004E
:10DAE0001F00000000000000000000000000000017
:10DAF0000000000000000000000000000000000026
:10DB00000000000000000000000000000000000015
:10DB10000000000000000000000000000000000005
:10DB200000000000000000000000000000000000F5
:10DB300000000000000000000000000000000000E5
:10DB400000000000000000000000000000000000D5
:10DB500000000000000000000000000000000000C5
:10DB600000000000000000000000000000000000B5
:10DB700000000000000000000000000000000000A5
:10DB80000000000000000000000000000000000095
:10DB90000000000000000000000000000000000085
:10DBA00000000000000000F800F800F800F800F89D
:10DBB00000F800F800F800F800F800F800F800F8A5
:10DBC00000F800F800F800F800F80000000000007D
:10DBD0000000E007E007E007E007E007E007E007F4
:10DBE000E007E007E007E007E007E007E007E007FD
:10DBF000E007E007E00700000000000000001F0051
:10DC00001F001F001F001F001F001F001F001F001C
:10DC10001F001F001F001F001F001F001F001F000C
:10DC20001F000000000000000000000000000000D5
:10DC300000000000000000000000000000000000E4
:10DC400000000000000000000000000000000000D4
:10DC500000000000000000000000000000000000C4
:10DC600000000000000000000000000000000000B4
:10DC700000000000000000000000000000000000A4
:10DC80000000000000000000000000000000000094
:10DC90000000000000000000000000000000000084
:10DCA0000000000000000000000000000000000074
:10DCB0000000000000000000000000000000000064
:10DCC0000000000000000000000000000000000054
:10DCD0000000000000000000000000000000000044
:10DCE00000000000000000F800F800F800F800F85C
:10DCF00000F800F800F800F800F800F800F800F864
:10DD000000F800F800F800F800F80000000000003B
:10DD10000000E007E007E007E007E007E007E007B2
:10DD2000E007E007E007E007E007E007E007E007BB
:10DD3000E007E007E00700000000000000001F000F
:10DD40001F001F001F001F001F001F001F001F00DB
:10DD50001F001F001F001F001F001F001F001F00CB
:10DD60001F00000000000000000000000000000094
:10DD700000000000000000000000000000000000A3
:10DD80000000000000000000000000000000000093
:10DD90000000000000000000000000000000000083
:10DDA0000000000000000000000000000000000073
:10DDB0000000000000000000000000000000000063
:10DDC0000000000000000000000000000000000053
:10DDD0000000000000000000000000000000000043
:10DDE0000000000000000000000000000000000033
:10DDF0000000000000000000000000000000000023
:10DE00000000000000000000000000000000000012
:10DE10000000000000000000000000000000000002
:10DE200000000000000000000000000000000000F2
:10DE30000000000000000000003F40000000000063
:10DE40000000003000400030004000000009000BDE
:10DE5000C03D000BC03D00090018C024407FE022F7
:10DE60004031800000180024C01B000D80324001AA
:10DE70008003801C4027401C800740004010006049
:10DE80000000000000000000000000000000001F73
:10DE900080204040200000402020401F80000000E3
:10DEA00000090006001F80060009000000040004AD
:10DEB000003F80040004000000001000600000002B
:10DEC000000000000004000400040004000400003E
:10DED00000000000400000000000000000002001E1
:10DEE000C006003800400000001F80204020402075
:10DEF000401F800000000010403FC00040000000B4
:10DF00000018C0214022402440184000001080200A
:10DF100040244024401B80000002000D0011003FFF
:10DF2000C0014000003C8024402440244023800065
:10DF3000001F802440244034400380000030002033
:10DF40000027C03800200000001B8024402440240B
:10DF5000401B8000001C0022C0224022401F800085
:10DF60000000000000084000000000000000000069
:10DF7000000460000000000000000004000A00111E
:10DF80000020804040090009000900090009000044
:10DF90000000004040208011000A0004001800200A
:10DFA0000023402400180000001F80204027402943
:10DFB000401F400000004007C039000F0001C000B2
:10DFC0004020403FC0244024401B8000001F802090
:10DFD00040204020403080000020403FC0204020B2
:10DFE000401F80000020403FC024402E4030C00031
:10DFF0000020403FC024402E00300000000F0010E1
:10E0000080204022403380020020403FC0040004B2
:10E01000003FC02040204020403FC0204020400022
:10E02000000060202020203FC02000200020403F32
:10E03000C024400B0030C0204020403FC0204000A2
:10E0400040004000C03FC03C0003C03C003FC00057
:10E050000020403FC00C4023003FC020001F802014
:10E0600040204020401F80000020403FC02440242A
:10E0700000180000001F802140214020E01FA00068
:10E080000020403FC02440260019C0004018C02492
:10E09000402440224031800000300020403FC0201A
:10E0A000403000000020003F80004000403F8020C2
:10E0B0000020003E0001C0070038002000380007A3
:10E0C000C03C0007C038000000204039C0060039BD
:10E0D000C0204000002000384007C0384020000029
:10E0E00000304021C02640384020C0000000000021
:10E0F000007FE0402040200000000070000C000382
:10E1000080004000000000402040207FE000000030
:10E11000000000200040002000000000000010006F
:10E12000100010001000100010000000004000005F
:10E130000000000000000002800540054003C00010
:10E140004020003FC0044004400380000000000362
:10E150008004400440064000000000038004402486
:10E16000403FC000400000038005400540034000E0
:10E1700000000004401FC024402440200000000292
:10E18000E0055005500650042020403FC0044004E4
:10E190000003C000400000044027C0004000000011
:10E1A0000000100010041027E00000000020403F95
:10E1B000C00140070004C00440204020403FC00090
:10E1C000400040000007C0040007C0040003C00076
:10E1D00000044007C00440040003C00040000003E6
:10E1E000800440044003800000041007F004500441
:10E1F0004003800000000003800440045007F0004A
:10E2000010044007C00240040004000000000006A3
:10E21000400540054004C00000000004001F8004C9
:10E220004000400000040007800040044007C00098
:10E23000400400070004C00180060004000600013D
:10E24000C0070001C006000000044006C00100062F
:10E25000C0044000000410071004E0018006000420
:10E26000000000044005C00640044000000000001B
:10E270000004007BE040200000000000000000FFE0
:10E28000F000000000000040207BE00400000000DF
:10E2900000400080004000200020004000000000FE
:10E2A000000000000000000000000000000000006E
:10E2B0000000001FCC000C0000000000000000085F
:10E2C0000030006000080030006000000002200301
:10E2D000FC1E20022003FC1E200220000000000E75
:10E2E0001811043FFF10840C78000000000F00108C
:10E2F000840F3800C0077818840078000000780F79
:10E300008410C411240E9800E400840008080068FA
:10E31000007000000000000000000000000000008D
:10E3200000000007E0181820044002000000004030
:10E33000022004181807E00000000000000240025C
:10E340004001800FF0018002400240000000800088
:10E350008000800FF8008000800080000000010035
:10E360000D000E0000000000000000000000000092
:10E37000800080008000800080008000800000001D
:10E380000C000C0000000000000000000000000075
:10E390000600180060018006001800200000000739
:10E3A000F0080810041004080807F0000000000836
:10E3B0000408041FFC000400040000000000000E1C
:10E3C0000C10141024104411840E0C000000000CDA
:10E3D0001810041104110412880C700000000000D1
:10E3E000E00320042408241FFC0024000000001F78
:10E3F00098108411041104108810700000000007A8
:10E40000F008881104110418880070000000001C36
:10E4100000100010FC13001C001000000000000E93
:10E420003811441084108411440E38000000000795
:10E4300000088C10441044088807F0000000000019
:10E44000000000030C030C000000000000000000AE
:10E4500000000101060000000000000000000000B4
:10E46000800140022004100808100400000220026D
:10E4700020022002200220022002200000000010C2
:10E480000408080410022001400080000000000E73
:10E49000001200100C106C10800F00000003E00C44
:10E4A0001813E4142417C4082807D000000004003F
:10E4B0003C03C41C40074000E4001C000410041F7F
:10E4C000FC1104110411040E880070000003E00C1C
:10E4D0001810041004100410081C10000010041F71
:10E4E000FC100410041004080807F0000010041FBA
:10E4F000FC1104110417C410040818000010041FB4
:10E50000FC1104110017C010000800000003E00C0B
:10E51000181004100410441C780040000010041F60
:10E52000FC10840080008010841FFC100400001088
:10E530000410041FFC10041004000000000003007D
:10E5400001100110011FFE10001000000010041F38
:10E55000FC110403801464181C1004000010041F34
:10E56000FC1004000400040004000C000010041F50
:10E57000FC1F0000FC1F001FFC1004000010041F03
:10E58000FC0C04030000E010181FFC100007F0084A
:10E5900008100410041004080807F0000010041FFD
:10E5A000FC10841080108010800F00000007F0081D
:10E5B0001810241024101C080A07F2000010041F71
:10E5C000FC1104110011C011300E0C000400000EEB
:10E5D0001C11041084108410441C38000018001012
:10E5E0000010041FFC100410001800000010001F91
:10E5F000F810040004000410041FF8100010001E9E
:10E600000011E0001C007013801C0010001FC010DF
:10E610003C00E01F0000E0103C1FC0000010041888
:10E620000C163401C001C01634180C100410001C64
:10E6300000130400FC13041C001000000008041068
:10E640001C1064108413041C041018000000000047
:10E650000000007FFE400240024002000000003047
:10E66000000C0003800060001C000300000000405C
:10E6700002400240027FFE00000000000000000097
:10E680000020004000400040002000000000010089
:10E690000100010001000100010001000100004033
:10E6A000004000200000000000000000000000000A
:10E6B00098012401440144014400FC000410001F9F
:10E6C000FC008801040104008800700000000000C4
:10E6D00070008801040104010400880000000000AB
:10E6E0007000880104010411081FFC0004000000F0
:10E6F000F8014401440144014400C8000000000145
:10E700000401040FFC1104110411001800000000A2
:10E71000D601290129012901C90106000010041FA1
:10E72000FC008401000100010400FC000400000161
:10E7300004190419FC00040004000000000000009B
:10E740000300010101190119FE0000000010041F5F
:10E75000FC0024004001B4010C0104000000001082
:10E760000410041FFC000400040000000001040168
:10E77000FC0104010001FC0104010000FC01040192
:10E78000FC008401000100010400FC000400000002
:10E79000F8010401040104010400F8000001010172
:10E7A000FF008501040104008800700000000000E3
:10E7B00070008801040104010501FF00010104014A
:10E7C0000401FC008401040100018000000000003D
:10E7D000CC0124012401240124019800000000013F
:10E7E00000010007F801040104000000000100011D
:10E7F000F8000400040004010801FC000401000109
:10E80000800170000C001001600180010001F00126
:10E810000C003001C00030010C01F00100000001CB
:10E8200004018C00740170018C01040000010101DD
:10E83000810171000E0018016001800100000001DB
:10E8400084010C013401440184010C00000000002B
:10E85000000000000001003EFC40024002000000F9
:10E860000000000000FFFF0000000000000000406A
:10E870000240023EFC0100000000000000000060B9
:10E8800000800080004000400020002000000000C8
:10E8900040000000C00000008000000000000000F8
:10E8A0002000000060000000E0000000A000000068
:10E8B0000000000058004800B000900060012001F6
:10E8C00058003C00B00078006001F00028001E00F5
:10E8D00050003C00A00078004001F0008002E00100
:10E8E0003C00280078005000F000A000E00140014A
:10E8F0004000200040004000800040008000800078
:10E900008000A0008000A000D002E001F002E00141
:10E910002003580200040003000500044006B00470
:10E920000005D002800738040005C003200A9807BC
:10E93000FF011280FF002CFF2EDFFF013C3211008F
:10E94000090204D813E514482C0C33783A333BFB06
:10E950003E0043111610399235DA221A37C32300CC
:10E9600034C0361A068807C00D870E414C00480097
:10E970005B0042034A8121992440253826825C00AD
:10E98000630046220C3C617062807C052080283048
:10E990006C006D806E007002719473C13D345A57E3
:10E9A00012401711184319001A4B320937C04FCAC9
:10E9B00050A85A236D003D38FF00E57FF9C041247F
:10E9C000E01476FF33A0422043184C0087D5883FDF
:10E9D000D703D910D382C808C9807C007D007C038E
:10E9E0007D487D487C087D207D107D0E9000910E35
:10E9F000911A9131915A91699175917E9188918F77
:10EA0000919691A391AF91C491D791E891209200F2
:10EA1000930693E393059305930093049300930067
:10EA20009300930093009300930096009708971922
:10EA30009702970C972497309728972697029798D4
:10EA4000978097009700C3EDA400A800C511C65198
:10EA5000BF80C710B666B8A5B764B97CB3AFB4972A
:10EA6000B5FFB0C5B194B20FC45CC064C14B8C009B
:10EA7000863D500051C852965300540055005AC864
:10EA80005B965C00D302C3ED7F00DA08E51FE16707
:10EA9000E000DD7F0500FF00E0045A505B3C5C00B5
:10EAA000E000000047402140506E40518F30084246
:10EAB0003103033017FF3018FF302C0231080136C4
:10EAC000302E3632E23633233621E03704A03703C6
:10EAD0005A371578371701370B6037051A39050291
:10EAE00039061039010A3731123600083601333041
:10EAF0002D60362052371B20471C503A18003A1917
:10EB0000F836351C3634403622013C04283C059842
:10EB10003C06003C07083C08003C091C3C0A9C3CA5
:10EB20000B403820473821013800003801003802F6
:10EB30000038030438040A38053F38060738079BB5
:10EB4000380805380900380A03380BC03810003877
:10EB5000111038120038130638143138153130349A
:10EB60001A30351130366430371330380030390000
:10EB7000380C07380D68380E03380FD83C01B43C08
:10EB800000043A08003A09933A0E063A0A003A0B92
:10EB90007B3A0D083A00383A02053A03C43A1405A4
:10EBA0003A15C43618003612293708643709523727
:10EBB0000C0340010240040230000030021C30040B
:10EBC000FF3006C3300E58302E00430030501F0077
:10EBD000471304440704460B35460C2238240250E0
:10EBE00001A33406013400063401803402043403E6
:10EBF000003404063405005180FF5181F251820037
:10EC000051831451842551852451861651871651FC
:10EC10008816518962518A62518BF0518CB2518DA4
:10EC200050518E30518F305190505191F851920483
:10EC30005193705194F05195F051960351970151B1
:10EC40009804519912519A04519B00519C06519D70
:10EC500082519E3853811E53825B53831453840622
:10EC600053858253868853877C53886053891C530D
:10EC70008A01538B9853000853013053023F5303CA
:10EC80001053040853053053061853072853090836
:10EC9000530A30530B04530C06548001548106541C
:10ECA000821254832454844A548558548665548768
:10ECB0007254887D548988548A92548BA3548CB2A0
:10ECC000548DC8548EDD548FF054901555800655E0
:10ECD0008340558420558910558A00558BF8500083
:10ECE000A75800205801195802175803165804183D
:10ECF00058052158060F58070A5808075809075899
:10ED00000A0A580B0C580C0A580D03580E01580FDC
:10ED10000158100358110958120A581303581401C6
:10ED200058150158160358170858181058190A583A
:10ED30001A06581B06581C08581D0E581E22581F2C
:10ED40001858201358211258221658231E5824648C
:10ED500058252A58262C58272A58284658292A58F0
:10ED60002A26582B24582C26582D2A582E28582F1E
:10ED700042583040583142583208583328583426C7
:10ED800058352458362658372A58384458394A585E
:10ED90003A2C583B2A583C46583DCE568822568934
:10EDA00022568A42568B24568C42568D24568E22E9
:10EDB000568F225025003A0F303A10283A1B303A2D
:10EDC0001E283A11613A1F1040051A340600350317
:10EDD000003008023A02073A03AE3A08013A09271E
:10EDE0003A0A003A0BF63A0E063A0D083A14073A78
:10EDF00015AE44010D4723030000003A041200172A
:10EE000013180132B619021A7A030A0C003E0015D3
:10EE1000027A207B107C1E7D357E5A7F6980768148
:10EE2000808288838F849685A386AF87C488D7899C
:10EE3000E813E0000010000D401418A505AB0724EE
:10EE400095253326E39F78A068A103A6D8A7D8A864
:10EE5000F0A990AA9413E5300031000E610F4B1613
:10EE6000021E30210222912907330B350B371D3842
:10EE700071392A3C784D404E20690074108D4F8EB8
:10EE8000008F009000910096009A00B084B10CB2FF
:10EE90000EB382B80A430A44F0453446584728481E
:10EEA0003A59885A885B445C675D495E0E6C0A6D0E
:10EEB000556E116F9F6A400140024013E74F80502A
:10EEC0008051005222535E5480589E34113B12A44C
:10EED0008296009730982099309A849B299C039DB4
:10EEE0004C9E3F78047901C8F0790FC8007910C8AA
:10EEF0007E790AC880790BC801790CC80F790DC8D2
:10EF0000207909C8807902C8C07903C8407905C84A
:10EF1000307926FFFF3D03172218A419071AF03293
:10EF20000029A02CF02A001181427F4D0963E06482
:10EF3000FF652F66006748150213F00D400FC514DA
:10EF400011227F23032440253026A12B006BAA1316
:10EF5000FF900591019203930094B0959D961397AD
:10EF600016987B99919A1E9B089C209E81A6067EEE
:10EF70000C7F16802A814E8261836F847B85868612
:10EF80008E879788A489AF8AC58BD78CE88D20336C
:10EF900000227F23034A1049104B144C1746010EE0
:10EFA000F5120400003E1A722273F217161804328A
:10EFB000A419021A7A030AFFFF12048C000400400D
:10EFC000D0146A4FB350B35100523D53A754E43D9F
:10EFD00040FFFFFF00E004DA08D703E177E000001C
:10EFE0000000000008F00008000000248800000075
:10EFF000AC74000890F000088800002498A100007C
:10F00000BC740008000000000100000010000000B7
:10F010000090D0030090D003200A9807FFFF000063
:10F02000995B0008D5570008A95F00082958000817
:10F03000D95700085B600008E15A000871620008B7
:10F04000E95A0008616000087D5800080D5A000860
:10F0500079590008CD590008A95A0008F55A000846
:10F06000F9620008655B0008715B00080D69000823
:10F070000000000000000000D969000821690008B4
:10F08000B1690008896900080969000800000000EA
:04000005080002CD20
:00000001FF
