:020000040000FA
:1000000083B00F48016841F010010160016801F000
:10001000100102910299016841F00201016001683A
:1000200001F0020101910199016841F008010160AC
:10003000006800F008000090009803B0704700BF0F
:1000400040450258B0B586B06846182105F0DCFC82
:10005000184C1948082200214FF08043022549F826
:10006000040009EB0400C0E90D21C0E9012100F101
:100070000C02C0E90953C0E90B11C1630125172324
:10008000C0E9061101622AC200F016FA08B105F0B3
:1000900045FC4FF00110CDE90250694641F288322B
:1000A000009509EB040001F03FF808B105F036FCBB
:1000B00006B0B0BD2C200000005000522DE9F04DDC
:1000C000B6B004466846B821083005F09DFC2068AB
:1000D0003A4988426FD14FF000700090002401949B
:1000E000684602F01BF908B105F018FC34484FF0DF
:1000F000090B4FF0030A02264FF00408016841F48F
:1001000000110160016801F4001131913199016819
:1001100041F480410160016801F4804131913199DD
:10012000C16841F01001C160C16801F01001319156
:100130003199C16841F00201C160C16801F002015A
:1001400031913199C16841F00801C160C06800F087
:10015000080031903198CDE9334A1A4CCDF8D4B02B
:100160003296CDF8C48031AD174F04F540607F441E
:100170002946B847002033902946CDE934ABCDE974
:1001800031862046B847002033902946CDE934AB6C
:100190004FF0000832964FF46050319004F5006043
:1001A000B8470A203590294632A880E8400540200B
:1001B00031902046B84736B0BDE8F08D005000526F
:1001C000344502580004025877340000B0B5006886
:1001D0000F49884218BFB0BD0E480F4C016821F48A
:1001E00000110160016821F48041016004F5406064
:1001F0000A4D04217D44A84720464421A84704F520
:1002000000604FF460512A46BDE8B040104700BF7F
:10021000005000523445025800040258793500005D
:1002200081B00648016841F002010160006800F0F9
:1002300002000090009801B0704700BF544502587A
:1002400005494FF6FF030A681A4060F30A22034883
:1002500010430860704700BF0CED00E00000FA0595
:10026000F0B5114B4FF0FF361C68C4F30224E51EB5
:1002700084F0070438BF002506FA05F7BA43042CBA
:1002800028BF042406FA04F4A14300F00F04A94097
:10029000043C1143054A234409010244002848BF95
:1002A00003F10C021170F0BD0CED00E000E400E081
:1002B000002808D400F01F010122400902FA01F1D0
:1002C000014A42F82010704700E100E000280CD4F9
:1002D00000F01F010122400902FA01F1034A42F82D
:1002E0002010BFF34F8FBFF36F8F704780E100E0A6
:1002F00000F000F80648BFF34F8F064A016801F48A
:10030000E06111430160BFF34F8F00BFFDE700BF05
:100310000CED00E00400FA05411E0020B0EB116F67
:1003200001D001207047044AF023516003490B704B
:10033000906007211160704710E000E023ED00E0BD
:100340000448BFF35F8F016821F480310160002110
:100350000167704724ED00E0064940F0010008679E
:10036000086840F480300860BFF34F8FBFF36F8F91
:10037000704700BF24ED00E00278114943780B601C
:10038000D2B143684B60037B42EA0372C37A42EA0C
:100390000362837A42EAC342437B42EA8342837B1D
:1003A00042EA4342C37B42EA0342437A007A42EA8A
:1003B000032242EA400001E0002048608860704764
:1003C00098ED00E002480068C0F30220704700BFCB
:1003D0000CED00E0F0B5114D01F0070100F00F0643
:1003E0000F4FCC1E054481F0070138BF00240028C0
:1003F00048BFF51928784FF0FF360509E540042974
:1004000028BF042106FA01F125EA0101116006FA6C
:1004100004F1C94301EA10101860F0BD00E400E0E7
:1004200014ED00E0002808D400F01F01012240096B
:1004300002FA01F1014A42F82010704700E200E0A0
:10044000002802D44109024A2DE00020704700BF75
:1004500000E200E0002808D400F01F01012240095A
:1004600002FA01F1014A42F82010704780E200E0F0
:10047000002802D44109024A15E00020704700BF5D
:1004800000E300E0044904280A6822F0040208BFDF
:1004900004320A60704700BF10E000E0AFF3008054
:1004A00070470320704700F01F0052F8211021FA16
:1004B00000F000F001007047F8B501F093F82CB19E
:1004C000054600206065216D11B1F8BD0120F8BD21
:1004D0002046FFF7F3FD04F10C0320682F4E304F48
:1004E0000ECB06EB024286683E4031431143626BFD
:1004F00011436FF0FF0202EB03231943E369194331
:100500008160216AC36823F4E0231943C160216B31
:10051000A36B43EA01410161E16B416141F2883122
:10052000A1650368666823F4F85302EB06221A43B8
:1005300002600091204620212B46002200F036F870
:100540000028C2D12068636AA168A269013BC5681E
:1005500025F0FF052B43C360036823F040031943D4
:100560000160A16AD0F8083123F0A0431943E36A7F
:100570001943C0F808110168022A41F00101016025
:1005800003D1816841F002018160E0680221B0F18D
:10059000806F08BF012121650020F8BD0000FFFF2A
:1005A000F4F8E0F870478165002070472DE9F845C0
:1005B000DDF820A0984616460F4604460AF10105CC
:1005C0002068006A384018BF0120B04214D0002DC6
:1005D000F6D005F05DF9A0EB0800504502D8BAF15D
:1005E000000FEDD14FF400702065606D40F0010008
:1005F00060650120BDE8F8850020BDE8F88580B180
:1006000010B504460068016821F0010101608168AD
:1006100021F0020181602046FFF7D8FD002020650F
:1006200010BD012070477047B0B501680446086AE4
:100630000B68226D450701D55D0316D4850701D5EA
:100640009D031BD4020701D51A0326D4C20701D08B
:10065000DA0332D4C0066FD5D8026DD510204862B7
:100660002046BDE8B04000F0A2B8282A50D0182A91
:1006700054D1206C007881F850004DE0282A34D104
:10068000A26C002A56D010F47C5F53D091F8500031
:10069000216C087000F0E4FFB0BD082048620868D3
:1006A000400205D5086820F410200860022020656B
:1006B0002046BDE8B04000F061B8012048620868FB
:1006C00020F4F8100860022060650A68520706D519
:1006D000E06C264A7A4400F0ACFF68B30220206543
:1006E0002046BDE8B04000F048B8022048620B68E0
:1006F000082A23F4E0230B6020651ED0B2F5807F2A
:1007000020D0182A18D12046BDE8B04000F032B8F9
:1007100091F85000216C087000F0A2FFA06C20B985
:100720002068016821F4802101602046BDE8B040C6
:1007300000F01EB8A06C68B1B0BD2046BDE8B04066
:1007400000F019B8606D0028CAD12046BDE8B0405D
:1007500000F012B8022048620A6822F4E0220A601F
:1007600020652046BDE8B04000F003B8A7000000B7
:100770007047704770477047704770477047406CCC
:1007800000218164016DB1F5807F07D101680A6A9B
:10079000920607D402210165FFF7EEBF0221016531
:1007A000FFF7EBBF724600F029FF9646704770478F
:1007B0002DE9FC4116460F4600F014FF0546206D5A
:1007C000242808D014281ED0022821D1E068B0F1D6
:1007D000806F05D11CE0386840F00200032817D173
:1007E0002046202100222B4600964FF00008FFF7FC
:1007F000DDFE78B920463946C4F8548000F032F85E
:1008000058B1BDE8FC81386820F001000228E7D02B
:10081000102060650120BDE8FC81B86B30B13868FC
:10082000022814D001280DD0A0B117E020460221E3
:1008300001222B4600960226FFF7B8FE21684E6281
:10084000BDE8FC81206D242804D0142005E0206D33
:10085000142801D1042000E0242020650020BDE8F8
:10086000FC8100BF2DE9F04D02688368146824F014
:10087000405414602BB94B68146824F0800423435F
:1008800013600B68032B0AD0022B11D102F5D0762E
:1008900002F5C87C02F5C47502F5C07810E002F5D7
:1008A000B07602F5A87C02F5A47502F5A07807E001
:1008B00002F5907602F5887C02F5847502F5807861
:1008C000D1E912342343C8F80030CB6A6BB18B6A8C
:1008D000336001F12C07D8F80030D0CF23F47C131B
:1008E00023433B433343C8F800302B684C6C23F060
:1008F0001F0323432B608D6B25B10B6813B9CB6BA2
:10090000013B1364CF68CE69C7B1D8F80030D1E994
:1009100004E426B3D1E908ABA5B33C4818400B6CFE
:100920001843204340EA0E0040EA0B0040EA0A0068
:10093000284338433043C8F800003DE0002E3FD044
:10094000D8F80040D1E90803002D3ED02F4F3F37A3
:100950003C400F6C3C4323431843284339E0002DAF
:100960003FD02A480A6C00F57C50184010432043C1
:1009700040EA0E0028433843C8F800008868CCF8E5
:1009800000002BE043F63F75AB43234343EA0E03DD
:1009900043EA0B0343EA0A033B433343C8F80030FE
:1009A000C06AB0F1805F07D14869082804D1D8F83F
:1009B000000040F00060BEE78868CCF800000BE063
:1009C000082141650120BDE8F08D24F47C542343C7
:1009D00018433043C8F80000886990640020BDE8DF
:1009E000F08D23F03F02224342EA0E023A43C8F858
:1009F0000020C06AB0F1805FC0D148690828BDD12D
:100A0000D8F8000040F00060B6E700BFC0C0FFF0BB
:100A10007CB50D4600F0E6FD0346206D022807D1A7
:100A2000286828B9A86B18B9E068B0F1806F03D1C5
:100A30001020606501207CBDA06D00902021002267
:100A400000262046FFF7B2FD0028F3D1666503219A
:100A50002068416220462946FFF704FF0028E9D1BB
:100A6000082020652068016841F4403101600020C1
:100A70007CBD7CB516460D4600F0B4FD0346206DE6
:100A8000013801280FD800F0DBFD70B90FCD090245
:100A900041EA0040216810431843C1F800020220D7
:100AA000206500207CBD1020606501207CBDF8B56C
:100AB00016460D4600F096FD0346206D022821D112
:100AC000E068B0F1806F1DD100F0BAFDE0B9206898
:100AD000016821F04051016095E84E00876827F0D9
:100AE0008077394381602969194341F00C21C0F8AE
:100AF0000011C0F88011711E016482640420206519
:100B00000020F8BD102060650120F8BD2DE9FC41F2
:100B100016460F4600F066FD1FB380462568206D1F
:100B2000042820D1286C0130A064A06C6064276484
:100B30000127286820F0405028602046042100F05A
:100B40008AFD98B9206C007885F8500000F068FDA7
:100B5000F3D100F04AFD48B92068002745622565B9
:100B600004E0082000E01020012760653846BDE859
:100B7000FC812DE9FC4116460F4600F033FD256847
:100B80008046A86CD5F8101167B3226D042A2BD1CA
:100B90002A6C01230132A264A26C626427642A6871
:100BA00063F31D722A60E268B2F1806F04D0D5F859
:100BB000002112F4E06F1DD0A86401272046062111
:100BC00000F049FD98B995F85000216C087000F0CC
:100BD00027FDF3D100F009FD48B9206800274562E0
:100BE000256504E0082000E01020012760653846F4
:100BF000BDE8FC81C5F81011DFE7B9B1026D042A28
:100C000016D10268136C01338364836C43641368E8
:100C100023F04053136003235362182303650164D8
:100C2000106840F4E020106000207047082100E0C8
:100C3000102141650120704770B50268936CD2F8AD
:100C4000104109B3056D042D20D1156C0126013525
:100C50008564856C4564156866F31D75156003250C
:100C60005562282505650164116841F4E021116091
:100C7000C068B0F1806F04D0D2F8000110F4E06FCA
:100C800008D00020936470BD082100E01021416568
:100C9000012070BD0020C2F8104170BDF8B5026897
:100CA0000446106C41B3236D042B27D10130A0649E
:100CB000002340F60C47A06C6064106820F04050A0
:100CC000106003205062182020652164E06C1F4DE5
:100CD0007D44C0E916531E4BC5697B448364036899
:100CE0001E69BE431E61202D0BD0102D0ED0A5B95C
:100CF00000F0BDFC02350DE0082000E0102060652A
:100D00001BE000F0B4FC05F2022503E000F0AFFCAC
:100D100005F581751D61002504E0636D012543F033
:100D200004036365636C50320126009603F006F9F4
:100D300030B1042060650220206501252846F8BDF9
:100D40002068016841F480310160F7E7A5000000E8
:100D5000770000000168406C00228264006802682D
:100D600022F004020260CA6822F00102CA6001682F
:100D700041F400310160704710B5446C0020A0645C
:100D8000042060652068016821F0040101602046AC
:100D900000F082F958B12068016821F4E021016077
:100DA000022020652046BDE81040FFF7E6BC10BDDC
:100DB0002DE9F8450A4601680446086CD1F848A0B8
:100DC000D1F8108152B3236D042B29D10130A064D6
:100DD000012340F20336A06C6064086863F31D7061
:100DE0000860002303204862282020652264E06C0C
:100DF000264D7D44C0E91653254B056A7B44836428
:100E0000802D03681F6927EA06061E610BD0402D5E
:100E10000ED0A5B900F030FC08350DE0082000E048
:100E2000102060651BE000F027FC05F6080503E0D4
:100E300000F022FC05F581651D61002504E0636D6D
:100E4000012543F004036365636C5031012600966D
:100E500003F074F838B10420606502202065012594
:100E60002846BDE8F8852068E168B1F1806F026826
:100E700042F48032026002D000F0E8FB02D0C0F8F9
:100E800048A0EDE7C0F81081EAE700BF83FFFFFF4D
:100E900055FFFFFF2DE9F84516460F4600F0A2FB6F
:100EA00005462068D0F84880D0F810A1206D0428AD
:100EB0002BD1F868B0F5800F27D1204620210022E1
:100EC0002B460096FFF772FB08BB2068D4F80CC0D5
:100ED000D7E90023D7E9021EC0F88820C0F8803087
:100EE0003A69C0F89020026822F04352114341EA67
:100EF0000E01BCF1806F41F00051016002D000F0A2
:100F0000A5FB08D0C0F8488007E0102060650126E6
:100F10003046BDE8F885C0F810A12046082101221E
:100F20002B46009608270126FFF740FB0028EFD14B
:100F300020680026476202202065E9E7F8B50D46E3
:100F400000F050FB03462068866CD0F81071206DCD
:100F5000042829D100F05DFB40BB2068D4F80CC008
:100F6000D5E90023D5E9021EC0F88820C0F88030FA
:100F70002A69C0F89020026822F04352114341EAE6
:100F80000E0141F0005101600921416248212165B3
:100F90000168BCF1806F41F41021016002D000F0C3
:100FA00055FB05D0866405E0102060650120F8BD82
:100FB000C0F810710020F8BDBCB50D4600F012FB62
:100FC0000346206D04281BD100F023FBD0B98820F4
:100FD000206528682168082801BF6A68C1F83021A7
:100FE00010224A6202BF0A6842F480120A600A684C
:100FF00022F00802104340F0405008600020BCBDC1
:10100000102060650120BCBD70477047F8B500F046
:10101000E9FA0546206D10F00C0F17D02068016822
:1010200049070BD5016821F004010160E06C02F072
:10103000C9FF18B106460420606500E0002620685C
:10104000016A890606D40220206512E0102060653E
:1010500001260EE0016801222B460227012641F0FD
:1010600002010160A06D009002212046FFF79EFA68
:1010700008B13046F8BD2068A16D00222B464762BA
:10108000009120462021FFF791FA0028E0D10220AC
:1010900020650026EDE700BF10B50446006D10F096
:1010A0000C0F10D02168086820F4F81008604FF485
:1010B000807020650868400709D4086A80060CD54E
:1010C00000F09CFA0EE010206065012010BDE06C7D
:1010D000054A7A4400F0ADFA20B10220206520468E
:1010E000FFF74AFB002010BDA9F6FFFF026D1207B3
:1010F0000CD4416000686FF0FF0202EB012102682E
:1011000022F4F8521143016000207047102141651C
:101110000120704700680068C0F304200130704768
:10112000406D7047006D70472DE9F04D90B000683C
:101130009F4F029003914FF0000AC01B18BF01207F
:10114000019004AE9B48B3468046BAF1020F65D0C9
:101150000AEB4A00142106EBC005284604F054FCB3
:101160000AF1010ABAF1020F0BD158F8040C4246F9
:10117000C0074FF4007004BF40F22220C0F20440C8
:1011800001E00020424605F1100C05F10C0E05F1BE
:1011900008032E1D0027022F3DD052F82740E107FB
:1011A00005D084EA0001890701D4791C2960E10691
:1011B00005D584EA0001890601D4791C3160E10576
:1011C00005D584EA0001890501D4791C1960E10381
:1011D0000ED584EA000149030AD4A1034FF08071BF
:1011E00058BF4FF480317A1C11434246CEF80010AC
:1011F000E1010ED584EA000149010AD4A1014FF0B2
:10120000807158BF4FF480317A1C11434246CCF8AC
:1012100000100137BFE7664F5E4696E7DDF808E04D
:101220003868AEEB0701C00702D14FF0000C05E0B3
:1012300038684FF0010C20F001003860B1FA81F2FB
:101240005D4903980B68DB0701D18A4606E00B680D
:101250008A460CF1020C23F001030B6001994FEA5E
:10126000521B324601EB410406EBC4039D6808EBB8
:10127000850555F8046C26F4807645F8046C58F81A
:10128000045CED072FD152F834401646002C60D094
:1012900008EB840454F8045C25F0010544F8045C70
:1012A0005C6844B108EB8404414654F8045C25F0C2
:1012B000100544F8045CDC684CB10125414625EA80
:1012C000040458F8245025F4803548F824501B694C
:1012D000002B3ED00124414624EA030358F8234062
:1012E00024F0807433E058F8043C1646414623F05D
:1012F000010348F8043CBE452BD1DDE90A4308EB65
:10130000840454F8045C45F0020544F8045C43B1DD
:1013100008EB8303414653F8044C44F0200443F89F
:10132000044C0D9B4BB10124414624EA030358F8B9
:10133000234044F4802448F823400E9B4BB1012401
:10134000414624EA030358F8234044F0806448F8F7
:1013500023400BEB4B0256F8323006EBC202D0E9C9
:1013600000569D42546813D1A64225462BD1D4681D
:10137000C568A54219D114690569A542354622D12F
:1013800058F8042C414642F0010248F8042C4CE085
:10139000A642354617D095688668AE4203D0D56818
:1013A000C668AE420AD125460DE035460BE000BFC7
:1013B0000050005204B4005200A0005215690669A2
:1013C000AE42254631D108EB8303464653F8044C20
:1013D00024F0010443F8044C3DB106EB850353F8B7
:1013E000044C24F0100443F8044CD2E9024306EB09
:1013F000840454F8045C25F4807544F8045C43B11B
:10140000012424EA030356F8234024F4803446F8E8
:10141000234012694AB10123414623EA020258F8E7
:10142000223023F0807348F822304FF44072BE45DA
:10143000454608BF4FF48072836808EB830353F876
:10144000044C24F44074224443F8042C58F8042C2F
:10145000C2F307434269541E9C4209D9604B03EB17
:10146000024255F8043C23F47F031A4345F8042C48
:1014700055F8044C0268013AE40755F8223023F08D
:10148000030328D10324BE4508BF0124234345F8A4
:101490002230426862B105EB82023023BE4508BFAC
:1014A000102352F8044C24F02004234342F8043C57
:1014B000C268D30327D4BAB34FF0A063BE454146F8
:1014C00008BF4FF08073012424EA020258F822403A
:1014D00024F0E06425E043F0010345F8223042683F
:1014E00042B105EB8202012452F8043C64F3051377
:1014F00042F8043CC268D30329D4B2B34FF08073DE
:101500006FF0E06427E04FF4A023BE45414608BFDA
:101510004FF48033012424EA020258F8224024F4D4
:10152000E024234448F822300269D3032AD4002A55
:1015300041D04FF0E063BE4508BF4FF04073012437
:1015400024EA020258F8224024F0E06427E04FF435
:1015500080336FF4E0240125414625EA020258F861
:1015600022502C40234348F822300269D30318D478
:101570000AB30123032423EA020258F8223064F359
:101580001A6316E04FF4E023BE4508BF4FF4403322
:10159000012424EA020258F8224024F4E0242344DF
:1015A00007E00123032423EA020258F8223064F3FF
:1015B000124348F822305FEACC7203D03A6842F016
:1015C00001023A605FEA8C7005D5DAF8000040F05D
:1015D0000100CAF80000002010B0BDE8F08D00BF87
:1015E0000000FFFF044604F053B920460221012207
:1015F0004346009602250127FEF7D8BF0220486225
:10160000086840F400300860086840F00200086094
:101610007047A06D0090202100222046FEF7C6BF33
:10162000206CA16C0139A16401302064A06C0028F9
:101630007047C2650A6822F004020A6002F0F3BC37
:101640002046202100220096FEF7B0BFD0F80011FE
:1016500011F4E06F7047012243460096FEF7A6BFE3
:10166000206CA16C01302064481EA06470471D6985
:1016700040F20336B54370471D6940F60C46B5434A
:10168000704700002DE9F8455E4D286800F00F0016
:10169000022809D82868032161F30300286028681C
:1016A00000F00F00032825D104F0F2F8564F04464D
:1016B000386840F0010038603868400707D404F00B
:1016C000E7F8001B0228F7D90320BDE8F885786801
:1016D0004F4940F080407860002038614B4849F81D
:1016E00000104C4849F800104B4859F8000004F02D
:1016F000CDF810B10120BDE8F885AA4604F0C8F87D
:10170000044641F288383E6904F0C2F8054616F0F6
:10171000380F03D0281B4045F5D9D5E738683F4935
:10172000084038603868860304F0B2F80446002E9A
:1017300003D5601B6428F5D9C6E7386820F08070AF
:1017400038603868860104F0A3F80546002E04D5F9
:10175000291B03200229F4D952E0386820F0806068
:1017600038603868060104F093F80446002E04D56A
:10177000611B03200229F4D942E0386820F0805030
:1017800038603868800006D504F082F8011B032019
:101790000229F6D934E022490020B861F8613862A4
:1017A000B9622049F962204939637863B963F86303
:1017B00039647864396821F480113960396821F41A
:1017C0008021396038664FF0FF30B866D7F83001B5
:1017D00040F48030C7F83001DAF8000010F00C0F48
:1017E0000DD0DAF80000032161F30300CAF800000D
:1017F000DAF8000000F00F0003287FF47BAF002030
:10180000BDE8F88500200052004402581000000096
:101810000090D0030C0000000400000045EDF6FF2E
:10182000000202020000FF0180020101F8B5002859
:1018300000F0E78004460078DC4EC0071FD1207816
:10184000800767D5306910F03801B06A44D0182994
:1018500001D1800740D03068E168002900F02F8175
:1018600020F01900084300F03EFD054630684007AF
:1018700049D404F00DF8401B0228F7D9B5E13069CE
:1018800000F03801B06A102905D018290AD100F0FB
:101890000300022806D130688003D0D56068002894
:1018A000CDD1AEE06068002800F06981B0F5A81FD6
:1018B00000F07E81B0F5A02F00F08281B0F5803F6E
:1018C00000F08481306820F480303060306820F48B
:1018D000802000F01DFD7CE1E0683168490702D5F9
:1018E000002800F08E80316821F01901084300F0D3
:1018F000FAFC05463068400705D403F0C9FF00F044
:10190000F5FCF7D9F8BD2069716821F0FE4141EA84
:10191000006070602078C0061AD5306900F0380188
:10192000B06A082907D0182940F0938000F003001E
:10193000012840F08E803068C00502D5E06980281B
:101940005FD1206AF16821F07C5141EA0060F060CB
:101950002078000757D42078800667D42078400785
:1019600000F18A80676A002F49D0306900F03800A2
:10197000182840F0E880B16A306B012F41D0A26A8C
:1019800001F0030393423CD1E26AC1F30511914295
:1019900037D10146226B6FF35F21013A914230D17A
:1019A000626BC0F34621013A91422AD1A26BC0F387
:1019B0000641013A914224D1E16BC0F3066001393E
:1019C00088421ED1A06C716BC1F3CC01884216D045
:1019D000F06A20F00100F06203F05AFF054603F0C0
:1019E00057FFA842FBD0706B4FF6F8718843A16C8B
:1019F00040EAC1007063F06A40F00100F06200202C
:101A0000F8BD0120F8BD706F6169002947D040F032
:101A10000100706703F03CFF0546706F80079AD4A1
:101A200003F036FF401B0228F7D9DEE03068A169D9
:101A300000296AD040F4805000F055FC054630681B
:101A400080043FF58BAF03F023FF401B0228F6D93B
:101A5000CBE03068E169002966D040F0800000F0FA
:101A600042FC05463068C0053FF56BAF03F010FF40
:101A700000F03CFCF6D945E7D6F8000440F480704D
:101A8000C6F8000403F004FF0546D6F80004C005BC
:101A900024D403F0FDFE401B6428F6D9A5E020F015
:101AA0000100706703F0F4FE0546706F80077FF554
:101AB00052AF03F0EDFE00F019FCF6D922E720F05A
:101AC000010000F010FC0546306840077FF522AFAA
:101AD00003F0DEFE00F00AFCF6D913E7A068002848
:101AE00000F08580852800F09C80052800F0A1800A
:101AF000012800F0A480306F20F001003067306FC3
:101B000020F0040000F0FFFB9CE020F4805000F087
:101B1000EAFB0546306880047FF520AF03F0B8FE8D
:101B200000F0E4FBF6D9EDE620F0800000F0DBFBEE
:101B300005463068C0057FF50BAF03F0A9FE00F045
:101B4000D5FBF6D9DEE6306820F0807000F0CBFBE4
:101B50000546022F09D13068800140F1848003F0EE
:101B600097FE00F0C3FBF6D9CCE6306880017FF524
:101B700046AF03F08DFE00F0B9FBF6D9C2E630683F
:101B800020F4803000F0C4FB3060306820F4802006
:101B900000F0A9FB0546306880037FF550AE03F0E6
:101BA00077FE411B03206429F5D9ABE600440258B7
:101BB000306840F480203060306840F4801004E0E9
:101BC000306840F4802000F0A3FB3060306840F4BF
:101BD000803000F088FB0546306880033FF52FAE6B
:101BE00003F056FE401B6428F6D90320F8BD306F81
:101BF00020F0010000F087FB3067306F20F0040018
:101C0000306703F045FE054641F28837306F8007A4
:101C10007FF5A8AE03F03CFE411B0320B942F5D985
:101C200070E6306F40F004003067306F40F08000A5
:101C300004E0306F40F0040000F065FB3067306F67
:101C400040F00100306703F023FE054641F288377B
:101C5000306F80073FF586AE03F01AFE411B03206C
:101C6000B942F5D94EE604F12805B06A40F2F331E5
:101C700088432ECD0843591E40EA0210B0626FF32C
:101C80005F214FF4FE024FF47E4000EB452080B20E
:101C90000844A16B02EB01414FF0FE4201F4FE014A
:101CA0000844E16B02EB016101F0FE41084430633E
:101CB0004FF6F871F06A20F00100F062706B884313
:101CC000A16C40EAC1007063206CF16A21F00C0144
:101CD0000843F062F06A616C20F002000843F06291
:101CE000F06A40F48030F062F06A40F40030F06254
:101CF000F06A40F48020F062F06A40F00100F06287
:101D0000306840F0807000F0EEFA044630688001E0
:101D10003FF575AE03F0BCFD011B03200229F5D988
:101D2000F0E500BF2DE9F845002800F0FF80814D67
:101D300004468846286800F00F0088420BD22868C5
:101D400020F00F0040EA08002860286800F00F002B
:101D5000404540F0EB802068774F410709D5216965
:101D6000BA6900F0C7FA04D9BA6922F070021143C7
:101D7000B961010709D56169FA6900F0BBFA04D9B4
:101D8000FA6922F070021143F961C1060AD5A1690E
:101D9000FA6902F4E062914204D9FA6922F4E0623D
:101DA0001143F961810609D5E1693A6A00F0A2FAA6
:101DB00004D93A6A22F070021143396210F002012C
:101DC0000AD0E268BB6903F00F039A4204D9BB69E9
:101DD00023F00F031A43BA61C2073AD0D4E90101D4
:101DE000BA6922F470621143B961012807D003284F
:101DF00009D002280BD1396889030CD496E03968E0
:101E0000C90508D492E03968890104D48EE03968A4
:101E1000490740F18B803969AA4621F00701084340
:101E2000386103F035FD064641F28835606839694E
:101E300001F03801B1EBC00F07D003F029FD801B82
:101E4000A842F3D90320BDE8F8852068554600F084
:101E5000020151B1E168BA6902F00F02914204D265
:101E6000BA6922F00F021143B961296801F00F012C
:101E700041450AD9296821F00F0141EA080129608A
:101E8000296801F00F01414550D1410709D5216969
:101E9000BA6900F02FFA04D2BA6922F07002114335
:101EA000B961010709D56169FA6900F023FA04D222
:101EB000FA6922F070021143F961C1060AD5A169DD
:101EC000FA6902F4E062914204D2FA6922F4E06213
:101ED0001143F96180060AD5E069396A01F07001A1
:101EE000884204D2396A21F070010843386200F058
:101EF0002DF8B969144A114B7A44C1F30321515C9E
:101F000001F01F01C840B96949F8030001F00F0151
:101F1000515C01F01F01C840094949F80100094816
:101F200059F80000BDE8F84503F0B0BC0120BDE859
:101F3000F88500BF00200052004402580C00000049
:101F400010000000040000005A3B000010B53549A5
:101F50000869C0F3C20003280FD0022804BF334829
:101F600010BD40B90868800634485AD50968C1F3E5
:101F7000C101C84010BD2C4810BD8A6A886ACC6A6D
:101F80004B6BC0F3051000B304F0010402F0030230
:101F9000644204EAD303022A6FF35F3300EE103A7F
:101FA000B8EE400A13D0AAB90A68920651BF9FED55
:101FB000221A0A68C2F3C102204B42BF23FA02F27E
:101FC00001EE102AB8EE411A06E0002010BD9FED88
:101FD000191A01E09FED161A0A6B9FED193A6FF37B
:101FE0005F2202EE102AB8EE422A00EE032AB7EE74
:101FF000000A32EE000A02EE100A086BC0F3462017
:10200000B8EE422A013081EE021A21EE000A01EEFA
:10201000100AB8EE411A80EE010ABCEEC00A10EEBA
:10202000100A10BD0044025800093D0040787D01AF
:102030000024744A20BCBE4B0024744C0090D00392
:102040000000003970B586B00D460146144621489F
:10205000214EF9B1316800F5006041F004013160B2
:10206000316801F0040100910321049102210291E1
:102070004FF400710191002105910391009901A98C
:1020800001F0B2FA1548305820F07E4040EAC41002
:1020900028431BE0316841F001013160316801F0F3
:1020A0000101009103210491022102914FF48071FA
:1020B0000191002105910391009901A901F094FA81
:1020C0000648305820F0FE702843204303497050E2
:1020D00006B070BD0000025840450258D0FEFFFF18
:1020E0000248016841F40021016070470044025831
:1020F0000248016821F40021016070470044025841
:1021000080B5FFF723FF0C490A680E4B09687B4432
:1021100001F00F01C2F30322595C9A5C01F01F0128
:1021200002F01F02D040054A49F80200C8400449A5
:1021300049F8010080BD00BF184402580C0000009F
:10214000100000004439000080B5FFF7D9FF0349B3
:102150000968034A7A44C1F30211CFE01C440258D3
:10216000FE38000080B5FFF7CBFF03490968034A3A
:102170007A44C1F30221C1E01C440258E238000055
:102180003F2101603A490A6802F4A012B2F5802F9B
:1021900002D14FF4A0220EE00A6802F4A012B2F5B8
:1021A000A01F02D14FF4A81205E00A68D20354BF61
:1021B00000224FF4803242600A6802F08002C2615D
:1021C000CA680B6803F00103C360C2F305620262D0
:1021D0004A68C2F3066202610A6F02F08402042AAE
:1021E00001D105220BE00A6F02F08402842A01D19A
:1021F000852204E00A6FD2070CBF00220122826010
:102200004A6F02F0010242610A68C2F30032826141
:102210000A68D2014FF0020258BF012242628A6A64
:1022200002F0030282628A6AC2F30512C2620A6B7A
:102230006FF35F22013202630A6BC2F3066201325E
:10224000C2630A6BC2F34622013242630A6BC2F3D5
:10225000064201328263CA6A02F00C020264CA6A50
:10226000C2F340024264496BC1F3CC018164704700
:10227000004402583F220260114A52F8083C03F021
:1022800007034360136803F470638360136803F00B
:102290000F03C360136803F070030361536803F016
:1022A00070034361536803F4E0638361926802F052
:1022B0007002C2610348006800F00F0008607047B8
:1022C000184402580020005210B5054C2068400503
:1022D00004D500F007F84FF48060606010BD00BFC7
:1022E000644402587047306003F0D2BA411B0320A7
:1022F0000229704702F0700291427047515C01F070
:102300001F01C84080BD3067306F20F080007047EB
:102310003060306820F48010704700002DE9F04DE7
:102320000446C078A54F00071CD5E06E4FEA305137
:10233000032908D8DFE801F002090C11F96941F41A
:102340000031F96109E001260DE001F01AF901E020
:1023500001F0BAF8064630B9E06E396C21F440114C
:102360000843386400266078BB46C00701D1354673
:1023700020E0A06D04280BD83546DFE800F0030C00
:102380000F121200F869354640F40030F86108E099
:10239000012501270FE001F09CF801E001F0ECF8C5
:1023A00005462F463DB9A06D01F0F8F821F0070170
:1023B00001F00AF93746607880071ED5E06D4FEAD4
:1023C000B010052807D8DFE800F003090C0F0F0F45
:1023D00001F072F808E0012501260FE001F079F81C
:1023E00001E001F0C9F805462E463DB9E06D01F067
:1023F000D5F821F4E07101F0E7F83E466078400737
:102400001ED5206E4FEA7020052807D8DFE800F0BF
:1024100003090C0F0F0F01F04FF808E00125012709
:102420000FE001F056F801E001F0A6F805462F464E
:102430003DB9206E01F0B2F821F4606101F0C4F8FA
:102440003746E07880071DD5E06C4FEA301003284E
:1024500006D8DFE800F00B02080B01F02DF805E0CC
:10246000012501260FE001F08CF805462E4655B9EE
:10247000E06CDBF83C1000255A4621F0300108439F
:10248000CBF83C003E466078C0061ED5606E4FEA31
:102490003030042807D8DFE800F003090C0F0F00E4
:1024A00001F00AF808E0012501270FE001F011F81A
:1024B00001E001F061F805462F463DB9606E01F07C
:1024C0006DF821F4E04101F07FF83746607880062E
:1024D0001BD5A06E4FEA3040052807D8DFE800F092
:1024E0000C03090C0C0C01F042F804E00125012654
:1024F0000CE001F037F805462E463DB9A06E01F01C
:102500004DF821F4E02101F05FF83E466078400686
:102510001ED5D4F8B0004FEA3070062808D8DFE89E
:1025200000F00D040A0D0D0D0D0001F020F804E07F
:10253000012501270DE001F015F805462F4645B9A4
:10254000D4F8B00001F02FF821F0E04101F040F89C
:1025500037466078000616D5A06F58B1B0F1005F1D
:1025600005D0B0F1805F22D100F0A6FF02E000F0BC
:10257000FEFF05462E463DB9A06F01F00FF821F091
:10258000405101F021F83E46E078C00702D1B04644
:102590005F4622E0A06C5F4603280BD8DFE800F01E
:1025A00013021013F86940F40030F8610BE00125C4
:1025B0000126E9E701254FF001080EE0104402581A
:1025C00000F0DFFF0546A8463DB9A06CF96B002579
:1025D000B04621F003010843F863A078400601D417
:1025E000474616E0D7F8F00340F48070C7F8F003D0
:1025F00003F04EF90646D7F8F003C00507D403F000
:1026000047F9801B6428F6D90325032701E02F46EC
:1026100085B12078C00748D0D4F884004FEAF00094
:10262000052832D8DFE800F037033437373700F0B9
:102630009EFF2FE0DBF86010D4F8B4005D46414007
:1026400011F4407F0BD0296E2A6E42F480322A6644
:1026500021F440712A6E22F480322A662966B0F590
:10266000807F40F0FE8103F013F9064641F2883A7C
:102670000327DBF86000800700F1F08103F008F920
:10268000801B03255045F4D9C3E7012501260DE041
:1026900000F068FF05462E4645B9D4F8840000F0E6
:1026A0008EFF21F0380100F097FF3E46207880072A
:1026B0001BD5D4F88000052807D8DFE800F00C030C
:1026C000090C0C0C00F053FF04E0012501270DE07C
:1026D00000F048FF05462F4645B9D4F8800000F0C9
:1026E0006EFF21F0070100F077FF374620784007A2
:1026F0001BD5D4F89C00052807D8DFE800F00C03B0
:10270000090C0C0C00F033FF04E0012501260DE05C
:1027100000F028FF05462E4645B9D4F89C0000F08D
:1027200042FF21F0070100F053FF3E46207880066B
:102730001DD5D4F898004FEA3070052807D8DFE897
:1027400000F00C03090C0C0C00F0C3FE04E00125A2
:1027500001270DE000F0B8FE05462F4645B9D4F834
:10276000980000F02CFF21F0E04100F035FF3746E3
:10277000207840061DD5D4F8A4004FEAB0200528E3
:1027800007D8DFE800F00C03090C0C0C00F0A1FEE8
:1027900004E0012501260DE000F096FE05462E46D8
:1027A00045B9D4F8A40000F0FEFE21F4E05100F099
:1027B0000FFF3E46207800061DD5D4F8A8004FEA4A
:1027C0007030052807D8DFE800F00C03090C0C0C6A
:1027D00000F07FFE04E0012501270DE000F074FE0B
:1027E00005462F4645B9D4F8A80000F0DCFE21F4D8
:1027F000604100F0EDFE37462068010713D5D4F89C
:102800008C00B0F5805F06D100F05EFE002818BF96
:102810000127D4F88C00DBF844105A4621F44051CB
:1028200000F0DAFE2068C10613D5D4F8A000B0F598
:10283000807F06D100F048FE002818BF0127D4F899
:10284000A000DBF848105A4621F4407100F0C0FEA9
:102850002068000318D5D4F8AC00B0F5003F09D0CB
:10286000B0F5803F03D010BB00F033FE01E000F074
:102870002BFE05462E4645B9D4F8AC0000F093FE79
:1028800021F4403100F0A4FE3E46A07840071ED55A
:10289000D4F89000B0F5401F0FD0B0F5001F09D05C
:1028A000B0F5801F40F0D58000F006FE05E0012560
:1028B0000126EAE700F056FE05462F4645B9D4F852
:1028C000900000F07CFE21F4401100F085FE3746B8
:1028D000A078C00701D13E4619E0206DB0F5803FD9
:1028E00003D090B900F0E8FD02E000F04AFE054692
:1028F0002E4665B9206DDBF83C1000255A4621F4C0
:1029000080310843CBF83C00E5E70125012621682A
:10291000880001D4606806E000F0D6FD002818BFEA
:102920000126D4E900108A031BD5D4F888206FF063
:10293000010303EB3223022B0BD34FEA322343B1C3
:10294000012B40F08980DBF81C3043F40033CBF8D6
:102950001C303DB9DBF8443023F440731A43CBF804
:1029600044203546CA0207D5E26FDBF8403023F039
:1029700000431A43CBF840208A0207D5226FDBF8C8
:10298000403023F080731A43CBF840200A0507D566
:10299000626FDBF8483023F000631A43CBF848201D
:1029A0004A000CD5DBF8002022F40042CBF80020CE
:1029B000D4F8B820DBF800301A43CBF80020CA0F57
:1029C00007D0626DDBF83C3023F040531A43CBF85C
:1029D0003C20090208D5D4F89410DBF8442022F4F6
:1029E00040021143CBF84410C10705D000F071FD3F
:1029F000002818BF05466068810705D500F0B7FDBF
:102A0000002818BF05466068410705D500F0B9FDEC
:102A1000002818BF05466068010705D500F0ACFD29
:102A2000002818BF05466068C10605D500F09AFD6C
:102A3000002818BF05466068800604D500F044FDF4
:102A4000002818BF0125002D18BF01252846BDE824
:102A5000F08D012501273BE7012583E75D46D4F88A
:102A6000B4002A68094900F4407322F47C5201EA58
:102A70001011B3F5407F6FF31F3008BF0A432A607F
:102A8000296E084328660025AAE500BFCFFFFF0096
:102A9000F8B52F4F0546B86A00F00300032804BFBD
:102AA0000120F8BD38680C4620F0806000F098FDE9
:102AB00006463868000105D502F0EAFE801B0228B0
:102AC000F7D941E095E80F00BE6A26F47C3601395B
:102AD00046EA003000F020FDB8636869F96A21F029
:102AE000C0010843F862A869F96A21F0200108438F
:102AF000F8624FF6F871F86A20F01000F862F86B8F
:102B00008843E969012C40EAC100F863F86A40F0A3
:102B10001000F8624FF4001008BF4FF48010002C32
:102B200008BF4FF40020F96A0843F862386840F0A3
:102B3000806000F055FD04463868000106D402F0BC
:102B4000A7FE001B0328F7D30320F8BD0020F8BD23
:102B500000440258F8B52F4F0546B86A00F003004C
:102B6000032804BF0120F8BD38680C4620F08050CF
:102B700000F036FD06463868800005D502F088FE74
:102B8000801B0228F7D941E095E80F00BE6A26F0C5
:102B90007C76013946EA005000F0BEFC3864686972
:102BA000F96A21F440610843F862A869F96A21F4DE
:102BB00000710843F8624FF6F871F86A20F48070EB
:102BC000F862786C8843E969012C40EAC1007864B6
:102BD000F86A40F48070F8624FF0807008BF4FF4DC
:102BE0000000002C08BF4FF48000F96A0843F86227
:102BF000386840F0805000F0F3FC044638688000EC
:102C000006D402F045FE001B0328F7D30320F8BDCD
:102C10000020F8BD00440258002141606FF0A0512F
:102C2000016060498A69C2F3055282620A6B6FF3E0
:102C30005F220132C2620A6BC2F306620132826312
:102C40000A6BC2F34622013202630A6BC2F30642E8
:102C500001324263CA69C2F38122C263CA69C2F304
:102C6000402202648A69C2F3053282608A6A6FF385
:102C70005F220132C2608A6AC2F306620132826157
:102C80008A6AC2F34622013202618A6AC2F30642AC
:102C900001324261CA69C2F38112C261CA69C2F3D8
:102CA000401202624A6C02F03802C0F884204A6C7A
:102CB00002F00702C0F880208A6C02F00702C0F818
:102CC0009C204A6C02F44052C0F88C204A6C02F0FE
:102CD000E042C0F898208A6C02F4E052C0F8A420C8
:102CE0008A6C02F46042C0F8A8200A6C02F0070265
:102CF00082650A6C02F4E072C2650A6C02F46062DA
:102D000002660A6E02F44072C0F8B4204A6C02F403
:102D10004012C0F89020CA6B02F4803202654A6CFF
:102D200002F44072C0F888208A6C02F44032C0F885
:102D3000AC200A6C02F00042C2670A6C02F080729A
:102D400002678A6C02F0006242670A6C02F4401269
:102D5000C2660A6C02F4E04242660A6C02F4E022A7
:102D600082668A6C02F0E042C0F8B0200A6C02F081
:102D7000405282674A6C02F44002C0F89420CA6B49
:102D800002F003028264CA6B02F03002C264CA6BB2
:102D9000096801F40041C0F8B81002F040514165E3
:102DA000704700BF10440258F8B580F400220A436F
:102DB0005FD080F400720A4300F06C8080F480627F
:102DC0000A4300F0748080F480520A4325D080F4D6
:102DD00000520A4330D080F480420A4300F07680EB
:102DE00080F400420A4300F0838080F480320A437A
:102DF00032D080F48070084340F0E8808749086D45
:102E000000F00702042A00F2E1808648DFE812F0B1
:102E10005C007E008500DF008D008049086DC0F3F6
:102E20000232042A00F2D2807E48DFE812F04D0020
:102E30006F007600D0007E007848016DC1F302413A
:102E4000052900F2C380DFE801F00387A4A6AB5F89
:102E5000BDE88F40FFF778B97048C16C0068C903BE
:102E600040F19180000140F1B18001A800F02CF9FF
:102E700086E06A48816D01F44031B1F5003F00F011
:102E80006D80B1F5803F00F07580002940F09E8094
:102E900000683CE06149086DC0F38212042A00F228
:102EA00095806048DFE802F01032399341005B49B9
:102EB000086DC0F34222042A00F288805948DFE8F6
:102EC00002F003252C86340008685CE05349886DC5
:102ED000C0F30272062A00F279805248DFE802F05D
:102EE000046C73627E827700BDE88F4000F080B989
:102EF0004A48016D01F04051B1F1005F2CD0B1F1B1
:102F0000805F3FD0002961D100686CE00868000153
:102F10005CD501A800F0D8F805E00868800055D518
:102F200001A800F01BF9019851E0C86C0B680A6811
:102F300000F040505B0700D5C8B1D20502D5B0F112
:102F4000805F5AD00022B0F1005F04BF47F6400214
:102F5000C0F27D1208685BE000682EE0C16C036877
:102F6000026801F040515B0742D5002940D1C2F30D
:102F7000C1001DE00068800028D501A800F0EEF82F
:102F8000039824E00068800120D501A800F050F8E3
:102F900022E0006818E00168490717D5006805E0DD
:102FA00000681CE00868400710D50868C0F3C1003D
:102FB0001E4921FA00F00AE00868000106D501A8C0
:102FC00000F082F808E00868800002D4002004B015
:102FD00080BD01A800F0C2F80298F8E70868C005B3
:102FE000114902E0086880030D4901EAE070EEE74C
:102FF000D20504D5B1F1805F01D10B48E7E700228B
:10300000B1F1005F04BF47F64002C0F27D120068D4
:1030100010F4003018BF1046D9E700BF0044025832
:1030200040787D010080BB0000093D000090D00386
:10303000B0B51F498B6A8A6ACD6A4C6BC2F3051220
:1030400092B105F0010503F003036D4205EAD404D3
:1030500000F09CFA0CD0012B0DD013B90B689B0625
:103060000CD49FED161A13E00021C0E900111DE0F9
:103070009FED111A0CE09FED0F1A09E00B68104C40
:10308000C3F3C10324FA03F301EE103AB8EE411A78
:103090000B6B9FED0C3A00F058FA0A6B00F0F5F953
:1030A0000A6B00F02AFA096B00F018FA8160B0BDD3
:1030B000004402580024744A20BCBE4B0024744CC7
:1030C0000090D00300000039B0B51E498B6A8A6AAF
:1030D000CC6ACD6BC2F30532D2B1E406ED0803F041
:1030E000030305EAE47400F051FA15D0BBB90B688C
:1030F0009B0651BF9FED161A0B68C3F3C103154C15
:1031000042BF24FA03F301EE103AB8EE411A08E088
:103110000021C0E9001112E09FED0C1A01E09FEDC3
:103120000A1A8B6B9FED0C3A00F00FFA8A6B00F0D5
:10313000ACF98A6B00F0E1F9896B00F0CFF981609E
:10314000B0BD00BF004402580024744A20BCBE4BEE
:103150000024744C0090D00300000039B0B51E4923
:103160008B6A8A6ACC6A4D6CC2F30552D2B1E4050F
:10317000ED0803F0030305EAE47400F007FA15D044
:10318000BBB90B689B0651BF9FED161A0B68C3F3C2
:10319000C103154C42BF24FA03F301EE103AB8EE16
:1031A000411A08E00021C0E9001112E09FED0C1A5D
:1031B00001E09FED0A1A0B6C9FED0C3A00F0C5F987
:1031C0000A6C00F062F90A6C00F097F9096C00F0E3
:1031D00085F98160B0BD00BF004402580024744AE4
:1031E00020BCBE4B0024744C0090D003000000397A
:1031F00080B5FEF785FF02490968024A7A44D7E1A3
:10320000204402585628000080B5FEF779FF024995
:103210000968024A7A44CBE1184402583E2800006B
:1032200080B5FEF793FE0C490A680E4B09687B4493
:1032300001F00F01C2F30322595C9A5C01F01F01F7
:1032400002F01F02D040054A20FA01F149F80200BD
:10325000034A49F8021080BD184402580C000000CF
:1032600010000000242800000248016841F02001FD
:1032700001607047704402580448016921F0200140
:103280000161016821F400710160704760440258D7
:103290000A48016941F020010161016841F40071AF
:1032A00001600748016841F4802101604FF0B0409F
:1032B000016841F480210160704700BF60440258FA
:1032C0008000005803490A6822F040021043086059
:1032D000704700BF1044025803490A6822F0800278
:1032E00010430860704700BF1044025810B50446F0
:1032F0001648016841F002010160016821F00201F5
:10330000016001F067FC41F20303D4E90012984226
:1033100004D8B2F1405F01D1A06802E042EA0100A6
:10332000A16804F10C0308430ECB0843084940EAA6
:1033300002404860086820F47C5040EA032008609E
:10334000086840F06000086010BD00BF9444025857
:10335000008400400248016841F08001016070472C
:103360000084004007494A6892B202600A688B688C
:103370001B0C8360C2F305224260896801F400419E
:10338000C1607047008400402DE9F04D0446204E96
:1033900002F07EFA8246671C04254FF0020B4FF0C4
:1033A00001086FB102F074FAA0EB0A00B4FA84F1DC
:1033B000A0424FF0000088BF01204909084300E007
:1033C00000203168C90702D00230C6F80480316895
:1033D000890702D50430C6F804B03168490501D523
:1033E000203075603168C90502D540F0080075606D
:1033F0003168890502D540F0100075603168090711
:1034000001D5082171600028CBD0BDE8F08D00BF48
:1034100008840040134881680268CB0701D0D307B5
:103420000CD18B0701D593070CD40B0701D51307DB
:103430000CD44B0701D552070CD470470121C16051
:1034400000F012B80221C16000F00FB80821C1607D
:1034500000F00CB80422C260382000EA511000F0DD
:1034600006B800BF0084004070477047704770473F
:1034700004480168890558BF70474FF400714160E6
:1034800000F002B8644402587047C2F34622B8EE16
:10349000433A32EE002A81EE031A21EE021A02EEBE
:1034A000102AB8EE422A32EE002A81EE022ABCEE41
:1034B000C22A80ED002A7047DBF81C00594640F410
:1034C0000030CBF81C00704704F128000221FFF700
:1034D00041BB04F108000021FFF7DABAC1F306612D
:1034E00002EE101AB8EE422A32EE000A81EE000A0D
:1034F000BCEEC00A10EE101A7047C2F3064202EE8C
:10350000102AB8EE422A32EE002A81EE022ABCEEE0
:10351000C22A80ED012A7047B8626FF35F214FF431
:103520007E4000EB42204FF0FE4280B208444FF450
:10353000FE0101EB034101F4FE010844296902EB9D
:10354000016101F0FE41084470476FF35F2302EE12
:10355000103AB8EE422A00EE032A03EE102AB7EE24
:10356000000A704704F128000121FFF7F3BA04F1C3
:1035700008000121FFF78CBA04F128000021FFF7B1
:10358000E9BA04F108000221FFF782BA022B6FF3B7
:103590005F3400EE104AB8EE400A7047DBF8401086
:1035A00000255A467047DBF8481000255A467047F8
:1035B000C1F30211515C01F01F01C84080BDDBF86E
:1035C000441000255A4670470843CBF84000704726
:1035D0000843CBF8480070470843CBF844007047D5
:1035E000386002F055B900002DE9FE4D5B4A0A240F
:1035F0004FF0000C90425A4A08BF092402444FEA97
:10360000B223092B38BF4FEAB2240A4600940027A0
:103610000021166836FA0CF500F09E80012303FAAB
:103620000CFB16EA0B0E00F092800323D2F8048004
:10363000019703FA01F508F0030AEF43AAF1010527
:10364000012D0FD88568D6683D408E403543856092
:10365000C8F30015466805FA0CF526EA0B06354353
:10366000456005E0BAF1030F02D14FF0030A1EE0F6
:10367000C56896683D408E403543C560BAF1020F7B
:1036800015D1019B03F01C050F2303FA05F66FF01B
:10369000030303EA5C040444236AB343166906FA8D
:1036A00005F52B432362D2F8048008F0030A04686E
:1036B0000AFA01F33C402343036018F4403F019FA2
:1036C00045D0294C294EB046236843F002032360BD
:1036D00023680F2403F002030293029D07F00C03FA
:1036E0002CF003059C40AE5926EA0404009E06FA1D
:1036F00003F3234345F808304FF0B048D8F80030C2
:10370000556843EA0E04EE0258BF23EA0E04154B37
:10371000C8F800409046AE021A461B6843EA0E0401
:1037200058BF23EA0E041460AE03D2F8803043EA97
:103730000E0458BF23EA0E04C2F88040ED03D36F95
:1037400043EA0E0458BF23EA0E04D4674246043706
:1037500002310CF1010C5CE7BDE8FE8D002402583B
:103760000000FEA704000058544502580804005801
:103770002DE9F84D364B0A224FF0000B9842354B9D
:1037800008BF092203444FEAB324092C38BF4FEA8B
:10379000B322009200230F25002631FA06F755D0F8
:1037A000012202FA06FC1CEA010E4AD026F0030AA6
:1037B0002A4A03F00C0705FA07F85AF80220009C81
:1037C00002EA080204FA07F7BA421CD1224CB208F6
:1037D000E76F27EA0E07E767D4F8807027EA0E073D
:1037E000C4F88070276827EA0E0727604FF0B044BE
:1037F000276827EA0E072760184C54F8227027EA3A
:10380000080744F8227003226FF00304076804EAF3
:10381000560402FA0BF217430444076003F01C0736
:1038200005FA07F7256ABD432562C4680F2594434E
:10383000C460446824EA0C044460846824EA0202F8
:10384000826004330BF1020B0136A6E7BDE8F88D68
:10385000002402580000FEA7040000580804005885
:103860000069084018BF01207047002A08BF0904FA
:1038700081617047426902EA0103914341EA0341D1
:103880008161704781B04FF480320092009A0A4300
:103890000092009AC261C1610099C161C169009141
:1038A000C069012121EA104001B0704703490A684C
:1038B000024208BF7047086000F002B88800005854
:1038C00070470000054A1143054A42F8201052F89B
:1038D0002000401A18BF0120704700BF000100807F
:1038E00000080248034951F820000349401A18BF54
:1038F000012070478008024800010080024951F809
:103900002000C00F704700BF00080248024A41F47F
:10391000807142F82010704700080248090241EA0D
:1039200000400149086070474009024802490A689E
:10393000C2EA004008607047440902480148006834
:10394000000C70474409024802490A6810430860A5
:10395000704700BF0009024802490A6822EA0000D5
:1039600008607047000902480349C8680A68824332
:103970000A60486000F002B8000902487047000081
:10398000F8B5044601F084FFB4B105460220206476
:103990000020E0632068C16821F00101C160206857
:1039A000C168C9070AD001F073FF401B0528F6D98A
:1039B00001200322402149E00120F8BDD4E903356C
:1039C00004F12407D4E901CE22492B43C360E8CF98
:1039D00001EB8541D4E905522A43E5692A43256A6A
:1039E0002A431A4332433A4342EA0E021143016129
:1039F000BCF1804F03D1016941F0404101610021D8
:103A00004161626BB2F1FF3F04DC4169524241F413
:103A10008021416191B20162A26BB2F1FF3F01DDF1
:103A2000120406E0416941F4002141610021A1EB4B
:103A30000242016A1143016201225FFA8CF1816244
:103A40000021C4E91811A16641620020E1662264E8
:103A5000F8BD00BF0000FCFFC8B1026801461F238B
:103A6000D06820F00100D0600020D060106150616B
:103A70009061D06110625062906210635063536035
:103A8000C866C1E9180088660864C86370470120E9
:103A9000704710B520B1C36B012B03D1022117E091
:103AA000012115E0036C012B0FD103681C69640030
:103AB0000BD419635A6300291A6922F0004218BF17
:103AC00002F1004200211A6100E001210022C263DC
:103AD000084610BD20B1C36B012B03D1022122E0A7
:103AE000012120E0036C012B09D1052918D8DFE85A
:103AF00001F003080B0E111400F148010FE0012141
:103B00000FE000F14C010AE000F1500107E000F184
:103B1000540104E000F1580101E000F15C010A6089
:103B200000210022C2630846704700BF10B598B15B
:103B30000446C06B012804BF022010BD206C012880
:103B40000CD106290AD8DFE801F0040D101316196C
:103B50001C000020A06402E0012010BD0120002113
:103B6000E16310BD0020E064F9E700202065F6E77E
:103B700000206065F3E70020A065F0E70020E06525
:103B8000EDE704F14800182101F03EFF0020E6E7D0
:103B90002DE9F04D38B331B30022426182610262F7
:103BA0004262C2613A4DD1E904CED1E9068BD1E936
:103BB0000872D1E90A344EEA0C0646EA080605EB1B
:103BC0008245D1E900A246EA0B063E433343234334
:103BD0001A432A430260BAF1804F07D1026842F0CB
:103BE0008042026004E00120BDE8F08D8A6C1AB1C9
:103BF000026842F0004202600B6B4A6C254CB3F144
:103C0000FF3F04EB0252426004DC42685B4242F434
:103C1000802242609AB202614B6BB3F1FF3F01DD3B
:103C20001B0406E0426842F4002242600022A2EB3C
:103C3000034302691A430261D1E90E430A6C4568E5
:103C40002A434260C3608460BAF1804F06D05FFAB5
:103C50008AF28261D1E912210262416244F000518C
:103C600001F07F41B1F1005F02BF816941F4803111
:103C7000816143F0005101F07F41B1F1005F02BF6B
:103C8000816941F4003181610020BDE8F08D00BF01
:103C90000000FCFF0000F0FFF0B5D8B1D1B1C36B5C
:103CA000012B1BD0036C012B16D102230364046E7D
:103CB000CCB18C4215D0836E0025264600277FB9F3
:103CC0009D420DD27769013576697F1AB7FA87F779
:103CD0007F09F4E7012338E00021C163022334E0C7
:103CE0005FB101232DE001235ABB02685162836654
:103CF000C0E9181100234B6123E0456E954218BFBF
:103D0000002A07D16A694A615A1CC0E9191269611F
:103D1000002316E001260025F70710D09D420ED2A1
:103D2000944203D0013564690126F5E754694C617A
:103D3000013383665161013500261446ECE706F035
:103D40000103012101640021C1631846F0BDF0B5F3
:103D500050B349B3C26B012A2AD0026C012A25D183
:103D6000022202644FF0010C046E1CB3456E0DB3C9
:103D7000836EFBB18C4227D001270026FA0720D0A2
:103D80009E421ED262698A4203D0013664690127CD
:103D9000F4E78D4201D125464466013B8366013636
:103DA00000274A696261E9E7012108E00021C16357
:103DB000022104E00121C0F840C00022C26308468D
:103DC000F0BD07F00101F6E78D420DD06E69A64205
:103DD00001D14C696C61496904686162591E816650
:103DE000616A01660021E6E703680021C0E9181155
:103DF00081665962DFE710B520B1C16B012903D19B
:103E0000022116E0012114E0016C002201294FF08B
:103E100000010BD102210164016E31B1436E23B167
:103E2000846E14B15961002100E001210123036473
:103E3000C263084610BD20B1C16B012903D1022124
:103E400016E0012114E0016C002201294FF000016D
:103E50000BD102210164016E31B1436E23B1816E39
:103E600011B10021596100E0012101230364C26303
:103E700008467047F8B528B30546C06B012825D021
:103E80000120E863286C01281ED102242C640698C6
:103E90000024EC662E68F76827F00107F7600090B1
:103EA000284600F017F8D5E90001B1F1804FC2684B
:103EB00042F00102C2600AD1C168002441F480319D
:103EC000C16004E0012402E00020E86302242046EF
:103ED000F8BD00BFB0B50468656963F3100565619E
:103EE000154B03F5602365692B40049D43EA055398
:103EF000A3F5801363611F236360E261A16141F058
:103F0000005101F07F41B1F1005FA16A14BF21F4BB
:103F1000803141F48031A16242F0005101F07F41D3
:103F2000B1F1005FA16A14BF21F4003141F4003106
:103F3000A162006E6062B0BDFFFF01007CB5D8B326
:103F40000446C06B01283BD00120E063206C0128AF
:103F500034D10225256406980025E5662568EE68BB
:103F600026F00106EE6000902046FFF7B3FF2068C0
:103F7000216DC26842F00602C26019B1C16841F009
:103F80001001C160616D19B1C16841F00801C160E3
:103F9000E16C19B1C16841F02001C160C16841F014
:103FA0000101C1606168B1F1804F03D1C16841F482
:103FB0008031C16000207CBD01207CBD0020E06319
:103FC00002207CBDB0B5044601F062FC14B3054686
:103FD000206C02281AD12068C16821F03E01C1601E
:103FE000C16821F00101C1602068C168C90713D010
:103FF00001F04EFC401B0628F6D3E06E40F0400076
:10400000E0660020E0630320206403E00020E0631A
:104010008020E0660120B0BD1F2141600020E063E8
:1040200001212164B0BD68B1016C022908D10421CD
:1040300001640068C16821F00101C160002070477F
:104040008021C166012070472DE9F84500285DD028
:104050000446006C022807D11646884639B1B8F1EB
:10406000010F06D1102509E08020E0664EE0022510
:1040700004E00425B8F1020F08BF082501F008FC90
:104080008246771C21680868284210D10868C0075A
:1040900018D1002FF6D001F0FBFBA0EB0A00B042D4
:1040A00001D8002EEED1E06E40F040002AE0B8F1D9
:1040B000030F2ED0B8F1020F2DD0B8F1010F2FD180
:1040C000102029E0886801064FF0020158BF012145
:1040D000E26E1143E166810503D5E16E41F0040112
:1040E000E166C10503D5E16E41F00801E1664105D5
:1040F00003D5E16E41F01001E166000503D5E06EE5
:1041000040F02000E0662046FFF75CFF0120BDE89C
:10411000F8851C2000E0182048600020BDE8F885E4
:104120000120B8F1000FF9D11E224A600021E1639D
:104130002064F2E778B101680A69CB68DB0701D136
:10414000802107E00B68DB0302D412F0804204D127
:104150004FF48071C16601207047C86840F4803018
:10416000C8600020704700BFBCB504460020019025
:10417000524859F800504FF0A4400168206800F5FB
:10418000F862C2F38412D140C90700F0958001683B
:10419000C90729D0C168890726D5C16821F0020165
:1041A000C16081680A064FF0020258BF0122E36E27
:1041B0001A43E2668A0503D5E26E42F00402E26623
:1041C000CA0503D5E26E42F00802E2664A0503D54D
:1041D000E26E42F01002E266090503D5E16E41F09D
:1041E0002001E166012141600168C90609D5C16865
:1041F000890606D510214160E16C11B1204688473F
:1042000020680168090709D5C168C90606D50821D3
:104210004160216D11B12046884720680168490737
:1042200009D5C168090706D504214160616D11B146
:104230002046884720680168890719D5C168490761
:1042400016D5C16821F03E01C160216C042905D159
:10425000012020640020E063E16D28E0022141603C
:104260000020E06301202064A16C09B1204688474A
:10427000E06E08B34FF41650B5FBF0F10420206453
:104280002068C26822F00102C260019A01320192E4
:104290008A4202D8C268D207F7D10021E163C06820
:1042A000C0074FF0030008BF01202064A16D19B1C1
:1042B0002046BDE8BC400847BCBD00BF0C00000064
:1042C000006C7047C06E7047704700BF02480168BD
:1042D00041F480710160704700480258024801684B
:1042E00021F480710160704700480258C0B3D0E9E2
:1042F00000211C48036823F0E0031A4302601A48B7
:10430000D0F8802022F48032C0F88020C26F22F4DE
:104310008032C2674FF0B042136823F480331360D9
:10432000026822F480320260CA0303D5C26F42F4ED
:104330008032C2678A0305D5D0F8802042F48032EB
:10434000C0F88020CA0705D04FF0B042136843F48C
:1043500080331360890703D5016841F4803101601F
:10436000704700BF0048025804000058004889E028
:1043700000480258004880E0004802580349044BB6
:104380000A681A4010430860704700BF2848025866
:10439000C0C000F06FF03F0161EA000002490A6806
:1043A00010400860704700BF28480258044801299F
:1043B000026822F00402026014BF20BF30BF7047C1
:1043C00010ED00E00D4A136823F00103184310605C
:1043D0001069012920F0050010610948026842F0C7
:1043E00004020260BFF34F8FBFF36F8F14BF20BF73
:1043F00030BF016821F00401016070470048025895
:1044000010ED00E00748016841F005010160064831
:10441000016841F004010160BFF34F8FBFF36F8F5C
:1044200030BF70471048025810ED00E002480168A4
:1044300041F002010160704710ED00E002480168A0
:1044400021F002010160704710ED00E0004819E022
:1044500010ED00E0004810E010ED00E005480168B4
:10446000C90358BF7047016841F48031016000F012
:1044700003B800BF880000587047016821F01001A0
:1044800001607047016841F0100101607047000051
:10449000B0B50F4D2A682968520705D401F007010D
:1044A000081A18BF0120B0BD21F00701084300F031
:1044B000A2FA044655F8080C800406D401F0E8F985
:1044C00000F095FAF6D90120B0BD0020B0BD00BFC4
:1044D0000C4802580248006800F00700704700BF0F
:1044E0000C480258B0B50D4D296801F44041814295
:1044F00001D10020B0BD696921F4404108436861E1
:1045000001F0C6F9044628688004F2D401F0C0F92D
:1045100000F06DFAF7D90120B0BD00BF0448025881
:104520000248006800F44040704700BF0448025849
:1045300003490A6822F44042104308600020704793
:10454000004802580248006800F44040704700BF2D
:10455000004802580F4A136823F001031843106003
:104560001069012940F001001061106920F0040079
:1045700010610948026842F004020260BFF36F8FC5
:10458000BFF34F8F14BF20BF30BF016821F004017B
:10459000016070470048025810ED00E010B5104C63
:1045A000236823F0010318432060236912B104F14A
:1045B000100010E023F00100206101290948026881
:1045C00042F004020260BFF34F8FBFF36F8F14BF3E
:1045D00020BF30BF036823F00401016010BD00BF9D
:1045E0000048025810ED00E020BF704708490A68F3
:1045F00018B142F004000860704742F00100086002
:104600000448016841F00401016030BF704700BFF9
:104610001048025810ED00E003490A6822F40062D5
:1046200010430860704700BF1048025802480168F4
:1046300041F4007101607047004802580248016867
:1046400021F40071016070470048025802490A686D
:1046500010430860704700BF004802580049CDE190
:104660000048025810B5D0E900121024806891FA71
:10467000A1F3B3FA83F304EB430404F01E04A04057
:1046800003F1080404F01F04A2404FF44034104327
:104690001E2202EA430203F01F0304FA02F24FF45F
:1046A000807404FA03F31A43074B0A431C6824EA94
:1046B00002021043084318600448026822F0FC52CA
:1046C00042EAC151016010BD2848025890000058CC
:1046D000004993E128480258014909680840704799
:1046E0002448025804490A6802430A60496808409D
:1046F00018BF0120704700BF204802581948416880
:10470000C90711D14168890714D44168490717D4F2
:10471000416809071AD442680168D2061CD441F0E6
:104720002001016000F025B8016841F0010101603D
:1047300000F01AB8016841F00201016000F015B8FC
:10474000016841F00401016000F010B8016841F017
:104750000801016000F00BB841F01001016000F0A9
:1047600007B800BF2048025870477047704770472D
:1047700070477047B0B5094D286840F0010000F05F
:104780003AF904462868C00306D401F081F800F025
:104790002EF9F7D90120B0BD0020B0BD084802585D
:1047A000B0B5094D286820F0010000F024F9044656
:1047B0002868C00306D501F06BF800F018F9F7D9A6
:1047C0000120B0BD0020B0BD08480258B0B5094D69
:1047D000286840F0007000F00EF904462868400197
:1047E00006D401F055F800F002F9F7D90120B0BD68
:1047F0000020B0BD0C480258B0B5094D286820F023
:10480000007000F0F8F804462868400106D501F071
:104810003FF800F0ECF8F7D90120B0BD0020B0BDA2
:104820000C4802580248016841F0807101607047ED
:104830000C4802580248016821F0807101607047FD
:104840000C48025805490A6822F4007210430860B7
:10485000086840F480700860704700BF0C48025838
:104860000248016821F48071016070470C480258C9
:104870000448016841F400510160016841F480512D
:1048800001607047004802580448016821F48051D3
:104890000160016821F4005101607047004802582E
:1048A0000248016841F01001016070470848025851
:1048B0000248016821F01001016070470848025861
:1048C0000648006800F44000A0F50001B1FA81F14B
:1048D0004909B0F5800F18BFC8057047084802584D
:1048E0000648006800F44010A0F50011B1FA81F10B
:1048F0004909B0F5801F18BF48057047084802589D
:1049000002480068C0F34040704700BF04480258A6
:10491000D0E900211B48036823F4C0231A43026036
:104920001948D0F8802022F48032C0F88020C26F6D
:1049300022F48032C2674FF0B042136823F4803310
:104940001360026822F480320260CA0303D5C26F8A
:1049500042F48032C2678A0305D5D0F8802042F441
:104960008032C0F88020CA0705D04FF0B0421368EB
:1049700043F480331360890703D5016841F4803123
:10498000016070470048025804000058024801685E
:1049900041F48031016070470048025802480168C4
:1049A00021F480310160704700480258B0B50D4DC8
:1049B0000D4C2868C00608D52068C00305D5FFF750
:1049C0005BFD206840F4803020602868C00308D573
:1049D0002068C00305D500F009F8206840F4803055
:1049E0002060B0BD00480258880000587047001B86
:1049F000B0F57A7F7047286000F04ABF0A6822EA63
:104A0000000008607047000080B50320FBF718FC29
:104A1000FDF79CFA10490A68124B09687B4401F0C3
:104A20000F01C2F30322595C9A5C01F01F0102F0EE
:104A30001F02D040094A49F80200C840084949F815
:104A400001000F2000F022FF08B1012080BDFBF71C
:104A5000E7FB002080BD00BF184402580C00000096
:104A6000100000003610000070B5114E044609EB2E
:104A700006004068C0B14FF47A71B1FBF0F00D4907
:104A800059F80110B1FBF0F0FBF746FC01250F2CA3
:104A90000BD850B94FF0FF30214600220025FBF71C
:104AA000DFFB49F8064000E00125284670BD00BF45
:104AB000040000000C000000704700BF80B51148E2
:104AC0001149124A016000210160426040F67522DE
:104AD0004160826081600E4AC260C160082202614A
:104AE00001610C4A426141614FF49B7282618161B4
:104AF000094AC261C161094A0262016200F010F80C
:104B0000002080BD7C4402583150E901230200029C
:104B1000FF072000FFC3FFE8F330D740AAE6000CF0
:104B2000704700BF054A04484A4459F800105268CB
:104B3000114449F8001070478C3000000400000058
:104B4000014859F8000070478C300000014859F8BE
:104B50000000704704000000B0B50A4C09EB0401E6
:104B60004D6885420BD009EB0401486059F80400F8
:104B700000F08CFE18B109EB04014D60B0BD0020BF
:104B8000B0BD00BF040000000148484440687047C1
:104B90000400000070B50446074809EB000600F069
:104BA00077FE05467068611C18BF044400F070FE73
:104BB000401BA042FAD370BD0400000000488CE105
:104BC00010E000E000488DE110E000E00048704790
:104BD00000010B0101480068000C70470010005CE8
:104BE000024800686FF31F30704700BF0010005C80
:104BF00001480068704700BF00F8FF0801480068DE
:104C0000704700BF04F8FF0801480068704700BF04
:104C100008F8FF0802490A6822F0700250E100BF5C
:104C2000003C005802490A6822F0020248E100BF35
:104C3000003C005802490A6822F03F0240E100BFF0
:104C4000043C0058B0B50A4D286840F001002860C7
:104C500000F01EFE04462868000706D400F018FE87
:104C6000001B0B28F7D30320B0BD0020B0BD00BF50
:104C7000003C0058004826E1003C0058034A1368F5
:104C800023EA000008431060704700BF0404005886
:104C900000481DE120040058004814E12004005899
:104CA0000248016841F470210160704720040058F7
:104CB0000248016821F47021016070472004005807
:104CC00002490A6822F00202FAE000BF20040058FC
:104CD00041EA001002490A6822F0FF02F0E000BF3A
:104CE0002804005841EA001002490A6822F47F4271
:104CF000E6E000BF280400580048E9E00410005C2A
:104D00000048E0E00410005C0048EBE00410005CA8
:104D10000048E2E00410005C0248016841F0040130
:104D2000016070470410005C0248016821F0040132
:104D3000016070470410005C0248016841F0800186
:104D4000016070470410005C0248016821F0800196
:104D5000016070470410005C0248016841F48071F2
:104D6000016070470410005C0248016821F4807102
:104D7000016070470410005C02490A6822F040722A
:104D80009EE000BF004000520248006800F0407002
:104D9000704700BF00400052B0B500F01F02012371
:104DA00020F01F0003FA02F2094BC4589443C45088
:104DB0004FF0B044055995430551CD0202D5055930
:104DC00015430551890202D5C1581143C150B0BDE8
:104DD0000400005800F01F01012220F01F0002FA19
:104DE00001F1024A83581943815070470800005866
:104DF0006FF00F01012201EA500100F01F0002FADA
:104E000000F0014A885070478800005870B5CB0305
:104E10000DD5012400F01F0304FA03F3BAB16FF0BB
:104E20000F04144D04EA5004665933436351890357
:104E30001FD5012300F01F0103FA01F10E4B03EA15
:104E4000500082B10B4A10444268114310E06FF0E9
:104E50000F0202EA5000074A84589C438450890399
:104E600007D5D94300E0C943024A104442681140C3
:104E7000416070BD80000058F0FFFF7FB0B500F0CA
:104E80001F0301249C400D4B002920F01F01CD5829
:104E900014BF2C4325EA0404CC50C40603F10804D3
:104EA00058BF1C1D1E25635805EA40000325854098
:104EB00002FA00F0AB4318436050B0BD0C0000583C
:104EC000104308607047016821F0010101607047DC
:104ED000016841F0010101607047016821F00201A1
:104EE00001607047016841F00201016070470000F5
:104EF00010B51E481E4A016841F470010160106837
:104F000000F00F00022804D81068032161F30300A9
:104F100010601848184C016841F00101016000213F
:104F20000161036823400360136813F00C0F04D081
:104F30001368032464F303031360104A8161C161A1
:104F4000016282620E4AC2620E4A02634163826358
:104F5000C16302644164026822F480220260016637
:104F6000094843F2D201016010BD00BF88ED00E0A6
:104F700000200052004402587FEDF6EA00020202CF
:104F80000000FF01800201010040005210B53D48C1
:104F90000169C1F3C202032A04D83B49DFE802F0E9
:104FA000025B090B01683B4AC1F3C10122FA01F11E
:104FB00051E03A494FE0826A816AC46A436BC1F3A7
:104FC0000511E1B104F0010402F00302644204EAB5
:104FD000D303022A6FF35F3300EE103AB8EE400AB3
:104FE0000FD0012A10D0002A02682A4BC2F3C10256
:104FF00023FA02F201EE102AB8EE411A06E000216F
:1050000029E09FED231A01E09FED201A026B9FED2E
:10501000223A6FF35F2202EE102AB8EE422A00EE27
:10502000032AB7EE000A32EE000A02EE101A016BF4
:10503000C1F34621B8EE422A013181EE021A21EE77
:10504000000A01EE101AB8EE411A80EE010ABCEE19
:10505000C00A10EE101A8269124B80697B4400F07E
:105060000F00C2F30322185C9A5C00F01F00D140CD
:105070000B4A21FA00F049F8021009EB02014860DE
:1050800010BD00BF0044025800093D000024744ACE
:1050900020BCBE4B0090D0030000003940787D0159
:1050A0000C000000F609000080B5012000F00CF8AB
:1050B000012000F023F8002000F006F8002000F0A6
:1050C0001DF8002080BD00BFB0B594B06D4600F063
:1050D000A8FB00F0D4FB08BF01211390CDE911001B
:1050E0000B90039166200290294603484844FBF741
:1050F0005FFB14B0B0BD00BF2C200000B0B594B071
:105100006D4600F08EFB00F0BAFB08BF0121139042
:10511000CDE911000B900391992002902946034894
:105120004844FBF745FB14B0B0BD00BF2C20000085
:1051300070B596B004461E48382159F8006002AD9B
:10514000284600F061FC00204FF04071129041F2BF
:105150008832002E08BF4FF0807110911590CDE974
:1051600013009F21032004911190002E08BF0120FD
:10517000104E0590294609EB0600FBF719FB30B9E4
:1051800009EB06000DF1050100F068FB18B14FF0C6
:10519000FF3016B070BD9DF806109DF805009DF813
:1051A0000720090241EA0040104420600020F0E797
:1051B000240000002C200000B0B50F4D044605214E
:1051C000224659F8050000F019F830B959F80500E1
:1051D000621C352100F012F810B14FF0FF30B0BD65
:1051E00059F80500A21C152100F008F8002818BF86
:1051F0004FF0FF30B0BD00BF24000000F0B595B007
:1052000001AD0E46074638211446284600F0FCFB47
:1052100000200321059041F28832002F08BF0121B0
:10522000CDE903610A901190124E4FF04071002FAA
:1052300008BF4FF080710F910C901490CDE91200CF
:10524000012010904FF40051099109EB0600294606
:10525000FBF7AEFA10B14FF0FF3008E009EB0600A3
:10526000214600F0FBFA002818BF4FF0FF3015B0C0
:10527000F0BD00BF2C200000014859F8000001E0FB
:1052800024000000B0B594B06D4600F0CAFA0020CA
:105290001390CDE91100294641F288320620029090
:1052A0000320002C08BF0120039009484844FBF765
:1052B0007FFA10B14FF0FF3007E06D4600F0D2FAF0
:1052C0009DF800008007F9D5002014B0B0BD00BFE4
:1052D0002C200000B0B596B02A4859F80040012CA7
:1052E00006D00DF1030220463521FFF787FF18B1E4
:1052F0004FF0FF3016B0B0BD9DF8030080073FD4DB
:1053000000F0A4FA0028F3D19DF80300382140F002
:1053100002008DF803008DF8570001AD284600F01B
:1053200073FB00204FF04071119041F28832002C45
:1053300008BF4FF080710F914FF400510991312156
:1053400003910321002C08BF01211490CDE9120024
:105350000D4C049101201090294609EB0400FBF745
:1053600027FA0028C4D109EB04000DF1570141F2DE
:105370008832FBF7CBFB002818BF4FF0FF30B9E7AE
:105380000020B7E7240000002C2000000020704718
:10539000B0B594B004462248032559F800300020E7
:1053A000CDE900000590002B08BF0125CDE9035091
:1053B00009904FF4407507950B25002B08BFEB258E
:1053C000029506910D904FF40055082108954FF471
:1053D0004035CDE90B50002B08BF042111911090EE
:1053E000CDE91200FF210A910E4D4FF04071CDE939
:1053F0000E1209EB050041F288326946FBF7D8F935
:1054000010B14FF0FF3008E009EB0500214600F035
:1054100025FA002818BF4FF0FF3014B0B0BD00BF10
:10542000240000002C20000070B594B006460F4800
:105430006D4600F004FA00F009FA00F0E3F908BF45
:10544000012100F0F3F908BF4FF4807100F010FA69
:1054500007480696202100F0DCF910B14FF0FF302C
:1054600002E000F003FA002014B070BD2400000038
:105470002C20000070B594B006460F486D4600F031
:10548000DEF900F0E3F900F0BDF908BF012100F0FA
:10549000CDF908BF4FF4807100F0EAF9074806968D
:1054A000D82100F0B6F910B14FF0FF3002E000F063
:1054B000DDF9002014B070BD240000002C20000095
:1054C000B0B594B014486D462C2159F8004005F150
:1054D000180000F099FA00F0B9F900F093F908BF4C
:1054E0000121CDE90310CDE9000011900B90079048
:1054F000CDE912000E900948C7210291484429467F
:10550000FBF756F910B14FF0FF3002E000F0AEF9B2
:10551000002014B0B0BD00BF240000002C2000000B
:105520002DE9F04194B080462448002516460F46E8
:10553000CDE90C55CDE90A5559F8004000F086F93F
:1055400003200595694641F28832002C08BF0120EE
:10555000CDE90305CDE9005509954FF44070002CC5
:1055600008BF4FF4807007904FF0020008BF322050
:1055700002900B95CDE91055CDE91255104D0697C7
:105580004FF4005008904FF04070CDE90E0609EB43
:105590000500FBF70DF938B909EB0500414641F26A
:1055A0008832FBF7B3FA20B14FF0FF3014B0BDE8FA
:1055B000F08100F05BF90020F8E700BF2400000054
:1055C0002C200000F8B50646C8B214460D46C0F5BA
:1055D0008070904228BF104687B2304629463A462E
:1055E000FFF79EFF58B9BC420CD0E41B3D443E443B
:1055F0002046B4F5807F28BF4FF48070ECE74FF071
:10560000FF30F8BD0020F8BD2DE9F04196B03148DB
:10561000282159F8005002AC04F1180000F0F4F908
:105620000026032007964FF44077DFF8AC80214630
:1056300041F28832002D08BF01200590039606969E
:105640000B960997012002900B20002D08BFEB203C
:1056500004900F960E964FF440300D904FF400508A
:105660000A900820002D08BF04201390CDE914668D
:105670001296CDE90066FF200C904FF0407010901C
:1056800009EB0800FBF794F898B9022013960D96E1
:10569000002D08BF4FF480770997029041F28832BD
:1056A00008BF3220049002A909EB0800FBF780F83C
:1056B00020B14FF0FF3016B0BDE8F081002000901F
:1056C000694609EB0800FBF777FC002818BF4FF08C
:1056D000FF30F0E7240000002C20000080B50448D3
:1056E0004844FBF793FC002818BF4FF0FF3080BD03
:1056F0002C20000010B54FF4FA6010B100BF013843
:10570000FBE7FFF7D1FC4FF4FA6010B100BF01389E
:10571000FBE70B4C09EB04000430FFF709FD20B94F
:1057200009EB0400FFF748FD10B14FF0FF3010BD4A
:10573000FFF7D0FD002818BF4FF0FF3010BD00BFAD
:10574000140000002DE9F041DFF8848009EB080423
:10575000FFF7D0FFE16800250844E0600020FFF774
:1057600063FE00F075F8E1681A4E00F042F8E16857
:10577000194F0844E06009EB0700B5F5805F02D0DF
:1057800045550135F7E700214FF480520025FFF71A
:1057900019FF09EB080400F05BF8E16800F029F854
:1057A000D4E902121044E060B5F5805F0DD009EB3A
:1057B000060009EB0702405D525D824203D009EB0F
:1057C0000800013181600135EEE7BDE8F08100BFDE
:1057D000140000002800000028100000BCB504469A
:1057E0000DF1070500F03EF89DF80700C007F9D15C
:1057F000BCBD4FF480520844E060002109EB060074
:10580000FFF7C6BD00200321059041F28832002C2D
:105810007047029148444FF4005108912946FAF725
:10582000C7BF04464421284600F0EEB8CDE9031076
:10583000CDE9000009904FF44071002C70471C2105
:1058400059F8004005F1280000F0DEB8204619E5BF
:10585000E1680844E0602046FFF7AEBC41F28832C0
:10586000FBF787B9204605212A46C7E42046B5E75D
:1058700007910B901390CDE911000E907047002016
:105880000321049041F28832002C704700207047B9
:1058900001207047B0B59CB009A84821043000F041
:1058A000B3F8022000240894CDE90644FEF7F0FD89
:1058B00019480094016821F440410160016801F435
:1058C00040410091009901688904FCD501200C90A9
:1058D0000024402512940D950220099009A8FBF799
:1058E000A5FF18B1EFF3108072B6FEE74FF48060A9
:1058F000CDE906500895CDE90445CDE902440221E1
:105900003F20019001A8FCF70DFA18B1EFF31080C9
:1059100072B6FEE71CB0B0BD18480258EFF3108015
:1059200072B6FEE710B50446EFF3108072B60021A0
:105930000F48012A49F8001010D1FFF7D9FAFFF7F4
:1059400063F8FFF7A7FFFAF75BFB0A480A4949F833
:1059500000104844FAF753FEFAF774FBFFF7CAFE4B
:1059600008B1012010BD054849F80040002010BDD5
:10597000240000002C2000000050005228200000CD
:105980000020704780B5FFF79BFD002080BD00BF61
:1059900080B5044959F80110401AFFF745FD002071
:1059A00080BD00BF282000000120704780B50B4655
:1059B000044959F80110411A10461A46FFF702FE31
:1059C000002080BD28200000F8B50D460D49044692
:1059D0000B4F164609EB07002A4659F80110611AC9
:1059E000FFF7D6FC0020854208D009EB0702315CA6
:1059F000125C8A4201D10130F5E705462819F8BD4D
:105A000089200000282000004FF0000200B5134656
:105A100094469646203922BFA0E80C50A0E80C50CE
:105A2000B1F12001BFF4F7AF090728BFA0E80C507F
:105A300048BF0CC05DF804EB890028BF40F8042B78
:105A400008BF704748BF20F8022B11F0804F18BFE5
:105A500000F8012B7047000000000102030401025E
:105A60000304060708090000000000001000000001
:0C5A7000010000000090D0030090D00363
:020000040000FA
:105A7C00010153544D333248373233567854365F24
:105A8C005732355136340000000000000000000091
:105A9C0000000000000000000000000000000000FA
:105AAC0000000000000000000000000000000000EA
:105ABC0000000000000000000000000000000000DA
:105ACC0000000000000000000000000000000000CA
:105ADC0000000000000000000000000000000000BA
:105AEC0000000000000000000000000000000000AA
:105AFC000000050000000090000080000010000075
:105B0C0000000000FF000000E8030000B80B0000DC
:105B1C000008000000000000FFFFFFFFFFFFFFFF79
:105B2C000000000000000000000000000000000069
:105B3C000000000000000000000000000000000059
:105B4C000000000000000000000000000000000049
:105B5C000000000000000000000000000000000039
:0400000500000000F7
:00000001FF
