:020000040800F2
:1000000068430024E1020008B1640008D1500008F0
:10001000A964000861040008D1B5000800000000D0
:10002000000000000000000000000000118F000828
:100030006904000800000000B16D0008198F000875
:10004000FB020008FB020008FB020008FB0200089C
:10005000FB020008FB020008FB020008FB0200088C
:10006000FB020008FB020008FB020008FB0200087C
:10007000FB020008FB020008FB020008FB0200086C
:10008000FB020008FB020008FB020008FB0200085C
:10009000FB020008FB020008FB020008FB0200084C
:1000A000FB020008FB020008FB020008FB0200083C
:1000B000FB020008FB020008FB020008FB0200082C
:1000C000FB020008FB020008FB020008FB0200081C
:1000D000FB020008FB020008FB020008FB0200080C
:1000E000FB020008FB02000800000000FB02000801
:1000F000FB020008FB020008FB020008FB020008EC
:10010000FB020008FB020008FB020008FB020008DB
:10011000FB020008FB020008FB020008FB020008CB
:10012000FB020008FB020008FB020008FB020008BB
:10013000FB020008FB020008FB020008FB020008AB
:1001400000000000000000000000000000000000AF
:10015000FB020008FB020008FB020008FB0200088B
:10016000FB020008FB020008FB020008FB0200087B
:10017000FB020008A16D0008FB020008000000005F
:10018000FB020008FB020008FB020008FB0200085B
:10019000FB020008FB020008FB020008FB0200084B
:1001A000FB020008FB020008FB0200080000000040
:1001B000FB020008FB020008FB020008FB0200082B
:1001C000FB020008FB020008000000000000000025
:1001D0000000000000000000FB020008000000001A
:1001E000000000000000000000000000000000000F
:1001F0000000000000000000FB020008FB020008F5
:10020000FB020008FB02000800000000FB020008DF
:10021000FB020008FB020008FB020008FB020008CA
:10022000FB02000800000000FB02000800000000C4
:10023000FB020008FB02000800000000FB020008AF
:10024000FB020008FB020008FB020008FB0200089A
:10025000FB020008FB020008FB020008FB0200088A
:10026000FB020008FB020008FB020008FB0200087A
:10027000FB020008FB020008FB020008000000006F
:10028000FB020008FB020008FB020008FB0200085A
:1002900000000000FB020008FB0200080000000054
:1002A00000000000FB020008FB020008FB0200083F
:1002B000FB020008FB020008FB020008FB0200082A
:1002C000FB020008FB020008FB020008DFF80CD06C
:1002D00000F068F800480047B9BD000868430024F2
:1002E0000648804706480047FEE7FEE7FEE7FEE7D0
:1002F000FEE7FEE7FEE7FEE7FEE7FEE7F98F000810
:10030000CD020008D2B201E000F8012B491EFBD259
:1003100070470022F6E710B513460A460446194610
:10032000FFF7F0FF204610BD2DE9F05F05460020E5
:1003300092469B4688460646814640241BE0284656
:1003400041464746224600F04EF853465A46C01AE8
:10035000914110D311461846224600F035F82D1A67
:1003600067EB01084F4622460120002100F02CF8DF
:1003700017EB00094E41201EA4F10104DFDC4846C2
:1003800031462A464346BDE8F09F420005D0C0F3FF
:10039000C7525242914201DC0020704700EBC1502D
:1003A00070470000064C074D06E0E06840F001038E
:1003B00094E8070098471034AC42F6D3FFF78AFF61
:1003C000BC340108DC340108202A04DB203A00FA9E
:1003D00002F1002070479140C2F1200320FA03F39C
:1003E000194390407047202A04DB203A21FA02F09A
:1003F0000021704721FA02F3D040C2F1200291405F
:1004000008431946704770B58C1810F8015B15F059
:10041000070301D110F8013B2A1106D110F8012B76
:1004200003E010F8016B01F8016B5B1EF9D12B079B
:1004300005D40023521E0DD401F8013BFAE710F851
:10044000013BCB1A921C03E013F8015B01F8015B3E
:10045000521EF9D5A142D8D3002070BD0000000083
:10046000FEE70000000000007047000000000000F0
:10047000EFF3108072B600BFFEE70000000000003E
:10048000B0B5044600F008F940F204010546C2F296
:100490000041621C097818BF0C4400BF00F0FCF852
:1004A000401BA042FAD3B0BD2DE9F04F82B00D68D9
:1004B000002D00F0CB8000F1264242F2004302F111
:1004C000FF72C5F602030A2698424FEAB22444F2AC
:1004D000F44E08BF0926082C40F2040C38BF4FEA3E
:1004E000B226C5F6020EC5F6000C009600220027C3
:1004F000002609E001360D6835FA06F307F1040716
:1005000002F1020200F0A280012303FA06F415EAC8
:100510000408EFD0D1F804A003230AF0030B9340A2
:10052000ABF101056FEA0309012D0FD88368CD688F
:1005300003EA090395402B438360CAF3001543681F
:10054000A34305FA06F42343436005E0BBF1030F20
:1005500002D14FF0030B21E0C3688C6803EA090362
:100560009440BBF1020F43EA0403C36016D16FF05D
:10057000030307F01C0503EA56030F24034404FA9F
:1005800005FBD3F820A00C692AEA0B0AAC4044EA28
:100590000A041C62D1F804A00AF0030B03680BFAEA
:1005A00002F403EA09031AF4403F43EA0403036038
:1005B000A0D0DEF8003040F2084A43F00203CEF843
:1005C0000030DEF80030C5F6000A03F002030193A4
:1005D00026F00303019C07F00C040F2553F80A9042
:1005E000A54029EA0509009D05FA04F444EA090436
:1005F00043F80A404FF0B04ADAF800904C6849EAF4
:100600000805E30258BF29EA0805A302CAF800500A
:10061000DCF8009049EA080558BF29EA0805A30359
:10062000CCF80050DCF8809049EA080558BF29EA68
:100630000805E403CCF88050DCF87C3043EA080578
:1006400058BF23EA0805CCF87C5053E702B0BDE858
:10065000F08F0000000000000069084018BF012072
:100660007047000000000000426902EA0103914364
:1006700041EA034181617047002A08BF0904816192
:10068000704700000000000041F20000C5F6004085
:1006900000686FF31F30704742F26030C2F20040D2
:1006A000006870470000000040F2040042F2603130
:1006B000C2F20040C2F2004100780A6810440860AB
:1006C000704700000000000080B5032000F0FCF837
:1006D00002F036FF44F218414CF29453C5F6020181
:1006E000C0F600030A68096801F00F01C2F3032293
:1006F000595C9A5C01F01F0102F01F02D04040F2E9
:100700001002C2F2004220FA01F1116040F20C0125
:10071000C2F2004108600F2000F00AF800281CBF58
:10072000012080BD00F07CF8002080BD00000000AA
:1007300070B540F20406C2F200463178E1B10446D9
:1007400040F20C00C2F200404FF47A72B2FBF1F1B9
:100750000068B0FBF1F004F08BF80F2C4FF00105AE
:1007600008D838B94FF0FF3000222146002500F0AC
:100770007BF87460284670BD012070BD0000000049
:10078000B0B502784EF69C5CCEF2000C43784CF883
:10079000043CFAB14368CCF80030037BC17A90F88E
:1007A0000AE0457B447A42EA0372837B42EA0161B4
:1007B000C27B41EACE41007A41EA854141EA4341A8
:1007C00041EA024141EA042141EA4000CCF8040038
:1007D000B0BD00BF0020CCF80000CCF80400B0BDD4
:1007E0004EF62450CEF20000BFF35F8F016821F473
:1007F00080310160002101677047000000000000A7
:100800004EF6245140F00100CEF20001086708685E
:1008100040F480300860BFF34F8FBFF36F8F704795
:1008200081B044F2F440C5F60200016841F00201D3
:100830000160006800F002000090009801B070476D
:10084000002848BF704781B200F01F00012249090B
:1008500002FA00F04EF20012CEF2000242F821003D
:10086000704700000000000070B54EF60C5C4FF0C1
:10087000FF36CEF2000C00F1604505F56445DCF86A
:100880000030C3F3022E8EF00703042B28BF04238D
:10089000BEF1030406FA03F321EA030100F00F039B
:1008A00038BF0024043B0028634406FA04F048BF24
:1008B00003F10C05A14022EA000008430001287062
:1008C00070BD0000000000004EF60C514FF6FF0313
:1008D000CEF200010A681A4060F30A2242F08060FA
:1008E00040F0FD70086070472DE9F04F8DB04BF27D
:1008F00004480022C5F200280392CDE901220492A7
:1009000045F200030592C5F20023D0F80090D8F814
:100910000000B9EB030A00F0030218BF4FF0010A10
:10092000012A6DD10122019200F03002102A6BD011
:1009300000F44072B2F5807F01D10122039200F4ED
:10094000A0220127B2F5803FC0F2001764D18203D4
:100950003A4658BF4FF00112049200F0A062B2F183
:10096000807F5ED0D8F8040000F00302012A64D131
:100970000222019200F03002102A62D000F440728C
:10098000B2F5807F01D10222039200F4A02240F24E
:10099000020EB2F5803FC0F2010E0AD13A4687033B
:1009A0001746724645F2000348BF7A1CC5F2002381
:1009B000049200F0A062B2F1807F04D18001704601
:1009C00048BF781C059000250B95CDE90955CDE968
:1009D000075558F8040CD8F80060C0074FF40070B1
:1009E00004BF40F22220C0F20440F20705D086EA9C
:1009F000000292072ED401250795F2062DD43BE084
:100A000000F03002102A93D10122029200F44072C9
:100A1000B2F5807F91D092E700F0A062B2F1807FC2
:100A2000A0D18001384658BF4FF001100590D8F88A
:100A3000040000F00302012A9AD000F03002102ACC
:100A40009CD10222029200F44072B2F5807F9AD0CB
:100A50009BE700BF0025F2060ED586EA000292064B
:100A60000AD4012401220092089406F44072B2F5DF
:100A7000407F0AD107E000BF0022009206F44072D6
:100A8000B2F5407F01D101220992F2030ED586EA28
:100A9000000252030AD4BC46B20358BF4FF0011CF7
:100AA000CDF828C0F20115D504E000BF4FF0000CCE
:100AB000F2010FD586EA000252010BD4BB46B20107
:100AC00058BF4FF0011BCDF82CB0D8F80440E20716
:100AD0000CD005E04FF0000BD8F80440E20705D039
:100AE00084EA0002920701D402250795E20607D5A1
:100AF00084EA0002920603D402260222009208969B
:100B000004F44072B2F5407F01D102220992E2035F
:100B10000AD584EA0002520306D4F446A20348BF71
:100B200007F1010CCDF828C0E20109D56040400171
:100B300006D4A00148BF07F1010EF346CDF82CE022
:100B40001868C007A9EB030002D14FF0000E05E0C2
:100B50001A684FF0010E22F001021A60B0FA80F418
:100B60004AF20003C5F200231A68D20705D01868BC
:100B70000EF1020E20F0010018600AEB4A0601A8EF
:100B8000640900EBC602976808EB870757F8043C36
:100B900023F4807347F8043C58F8043CDB072BD15E
:100BA00050F83670002F5DD008EB870353F8047CB3
:100BB00027F0010743F8047C57683FB108EB87032F
:100BC00053F8047C27F0100743F8047CD7683FB142
:100BD0000123BB4358F8237027F4803748F823706B
:100BE0001269002A3ED0012323EA020258F822307B
:100BF00023F0807334E000BF45F2000358F8042C62
:100C0000C5F2002322F00102994548F8042C29D1AD
:100C100008EB850252F8043C009D43F0020342F8C1
:100C2000043C3DB108EB850252F8043C43F020033C
:100C300042F8043CBCF1000F08D0012222EA0C0269
:100C400058F8223043F4802348F82230BBF1000FDB
:100C500008D0012222EA0B0258F8223043F08063C8
:100C600048F8223004EB44024E6800EBC20450F80E
:100C700032000A688242656816D145F20007AE422A
:100C80002A46C5F2002728D1CA68E3689A421DD1D6
:100C90000A6923699A4232461FD158F8040C40F081
:100CA000010048F8040C48E045F20007AE42324625
:100CB000C5F2002711D08A68A3689A4203D0CA6897
:100CC000E3689A4204D12A4607E000BF324604E0B6
:100CD0000A6923699A422A462FD108EB800050F80E
:100CE000043C23F0010340F8043C3AB108EB8200D5
:100CF00050F8042C22F0100240F8042CA06808EBF5
:100D00008002E06852F8043C23F4807342F8043C0B
:100D100040B1012222EA000058F8202022F480325B
:100D200048F82020206940B1012222EA000058F84A
:100D3000202022F0807248F8202088684FF440720A
:100D4000B94508EB800050F8043C08BF4FF48072AE
:100D500023F440731A4440F8042C486958F8042CD2
:100D6000431EC2F3074293420BD9002358F8042CC8
:100D7000CFF6FF7322F47F0203EB0040104348F8E4
:100D8000040C58F8042C08680138D20758F82030B1
:100D900023F0030228D10323B94508BF01231A43D6
:100DA00048F82020486860B108EB80003022B9453F
:100DB00050F8043C08BF102223F020031A4340F8E7
:100DC000042CC868C20327D4B0B30122B94522EA73
:100DD00000004FF0A06258F8203023F0E06308BF15
:100DE0004FF0807225E000BF42F0010248F8202059
:100DF000486840B108EB8000012350F8042C63F3ED
:100E0000051240F8042CC868C20329D4A8B34FF0D7
:100E100080726FF0E06427E00122B94522EA000009
:100E20004FF4A02258F8203008BF4FF4803223F44A
:100E3000E0231A4448F820200869C1032AD4002876
:100E400042D00121B94521EA00004FF0E06158F895
:100E5000202022F0E06208BF4FF0407127E000BF81
:100E60004FF480326FF4E024012323EA000058F8A5
:100E7000203023401A4348F820200869C10319D4C0
:100E800010B30121032221EA000058F8201062F378
:100E90001A6117E00121B94521EA00004FF4E02171
:100EA00058F8202008BF4FF4403122F4E0221144CA
:100EB00008E000BF0121032221EA000058F82010B9
:100EC00062F3124148F820105FEACE7006D15FEA63
:100ED0008E700AD400200DB0BDE8F08F386840F065
:100EE000010038605FEA8E70F4D54AF20001C5F265
:100EF0000021086840F00100086000200DB0BDE846
:100F0000F08F0000000000002DE9F04381B015468D
:100F10000F460446FFF7C0FB2168D1F84880D1F89E
:100F20001091226D042A39D10646F868B0F5800F79
:100F300034D1086A800641D497E80D10C1F88800C2
:100F4000C1F880203869C1F89000086820F043504B
:100F5000184340EA0C0040F000500860E068B0F12F
:100F6000806F04D0D1F8000110F4E06F50D0C1F8C8
:100F70004880086A000750D4002D3BD0681C13D16C
:100F8000086A000749D4086A00075CBF086A5FEA7C
:100F9000007042D4086A0007F2D53EE01020606578
:100FA000012001B0BDE8F083FFF776FB801BA8426B
:100FB00022D82168086A0007F6D52EE0D5B1681C52
:100FC00012D1086A8006B7D5086A800644BF086A4D
:100FD0005FEA8060B0D5086A8006F2D4ACE700BF53
:100FE0002168086A8006A7D5FFF756FB801BA84238
:100FF000F6D901E0FFF750FB4FF400702065606DFB
:1010000040F001006065012001B0BDE8F08300BF41
:10101000C1F81091086A0007AED508204862022086
:101020002065002001B0BDE8F08300000000000052
:10103000F0B581B015460F460446FFF72DFB216D34
:101040000646242908D0142918D002291BD1E068AB
:10105000B0F1806F17D004E0386840F00200032838
:1010600011D12068016A890612D4002060652046EB
:10107000394605F021FA38B301B0F0BD386820F0E8
:1010800001000228EDD010206065012001B0F0BD04
:1010900025B3691C12D1016A8906E6D5016A890661
:1010A00044BF016A5FEA8161DFD5016A8906F2D433
:1010B000DBE700BF2068006A8006D6D5FFF7ECFAB0
:1010C000801BA842F6D90BE0B86B98B138680228AB
:1010D00034D0012838D0E0BB39E000BFFFF7DCFA9C
:1010E0004FF400702065606D40F0010060650120E4
:1010F00001B0F0BD2168086A80071AD475B3681C76
:101100000ED1086A800714D4086A80075CBF086A99
:101110005FEA80700DD4086A8007F2D509E000BF4D
:10112000FFF7BAFA801BA8421AD82168086A80071C
:10113000F6D5002002224A6201B0F0BD206D1428CD
:1011400005D0242004E000BF206D242804D1042011
:101150002065002001B0F0BD1420F9E7FFF79CFAEC
:101160004FF400702065606D40F0010060652168FB
:10117000012002224A6201B0F0BD00000000000020
:10118000F0B581B00446FFF787FA002C00F08980A3
:10119000054600206065216D11B101B0F0BD00BFB2
:1011A000204600F081F8206841F28836A6654FF6A7
:1011B000F40ED4E903C263698168CFF6E00E00271C
:1011C000CFF6FF7701EA0E0107EB024241EA0C017C
:1011D0006FF0FF0E676B11430EEB03223943E36997
:1011E000114319438160C168226A21F4E02111434F
:1011F000C160216BA26B42EA01410161E16B416177
:101200000168626821F4F8510EEB0222114301607B
:10121000016A890609D500BFFFF73EFA401BB042BC
:1012200038D82068016A8906F6D4C168A268D4E972
:10123000097621F0FF01013FA3693943C160022B08
:10124000016821F0400141EA02010160D0F8081173
:10125000E26A21F0A04141EA060141EA0201C0F838
:101260000811016841F00101016003D1816841F07A
:1012700002018160E068B0F1806F05D10120206536
:10128000002001B0F0BD00BF02202065002001B0A9
:10129000F0BD00BF4FF400702065606D40F00100AC
:1012A0006065012001B0F0BD2DE9F047B4B069469A
:1012B000044601F10800B021FFF72BF845F20001C8
:1012C0002068C5F20021884202D034B0BDE8F08722
:1012D0004FF0007000901020139068464FF0000807
:1012E000CDF8048001F07CFA08B1FFF7C1F844F2B0
:1012F000E04040F20044C5F60200C5F602042FADFE
:101300004FF0040950F80C1C4FF0020A41F4001190
:1013100040F80C1C50F80C1C032601F400112F910E
:101320002F9950F80C1C41F4804140F80C1C50F8E7
:101330000C1C092701F480412F912F99016841F07D
:1013400010010160016801F010012F912F990168CF
:1013500041F002010160016801F002012F912F9913
:10136000016841F0080101600068294600F00800AA
:101370002F902F9804F54060CDF8BC90CDE930A8AF
:1013800032963397FFF790F820462946CDE92F9AF9
:10139000CDE931863397FFF787F84FF4605029463F
:1013A000CDE92F0A04F500603397CDE93186FFF7C8
:1013B0007BF840202946CDE92F0A0A2033902046A9
:1013C000CDE93186FFF770F834B0BDE8F087000052
:1013D0002DE9F04381B015460F460446FFF75CF94E
:1013E00026688046002FB06CD6F8101178D0226D98
:1013F000042A7BD1326C01230132A264A26C6264A4
:101400002764326863F31D723260E268B2F1806F64
:1014100004D0D6F8002112F4E06F7BD0B06415F14F
:10142000010900F08C80002D46D100BF2068006AC1
:1014300010F0060F60D096F850003870206CA16C48
:10144000471C2764481EA064A06C0028EED12068C9
:10145000016A89071CD4002D4ED0B9F1000F0DD1BF
:10146000016A890714D4016A89075CBF016A5FEACF
:1014700081710DD4016A8907F2D509E0FFF70CF9F3
:10148000A0EB0800A84239D82068016A8907F5D581
:10149000022141622165002001B0BDE8F08300BF58
:1014A00096F850003870206CA16C471C2764481EC9
:1014B000A064A06C0028CAD02068006A10F0060F53
:1014C000EED100BFFFF7E8F8A0EB0800A84215D85E
:1014D0002068006A10F0060FF4D0276CE0E700BF28
:1014E00008206065012001B0BDE8F0831020606530
:1014F000012001B0BDE8F083FFF7CEF84FF4007093
:101500002065606D40F001006065012001B0BDE81C
:10151000F08300BFC6F8101115F101097FF483AF05
:101520000DE000BF96F850003870206CA16C471C8D
:101530002764481EA064A06C00283FF488AF206890
:10154000016A11F0060FEDD1016A11F0060F04BF18
:10155000016A11F0060FE5D1016A11F0060FEFD014
:10156000E0E70000000000002DE9F04381B01546DF
:101570000F460446FFF790F8002F6BD08046266890
:10158000206D04286CD1306C15F1010900F10100C7
:10159000A064A06C60642764306820F04050306024
:1015A00036D0002D6ED100BF2068006A400779D583
:1015B000387886F85000206CA16C471C2764481EC0
:1015C000A064A06C0028EFD12068016A890739D493
:1015D000002D67D0B9F1000F2AD1016A890731D4F3
:1015E000016A89075CBF016A5FEA81712AD4016AD6
:1015F0008907F2D526E000BF387886F85000206CC5
:10160000A16C471C2764481EA064A06C0028DBD096
:101610002068016A4907EFD4016A49075CBF016A83
:101620005FEA4171E8D4016A4907F2D5E4E700BFF7
:10163000FFF732F8A0EB0800A84235D82068016A0D
:101640008907F5D5022141622165002001B0BDE87E
:10165000F08300BF08206065012001B0BDE8F08381
:1016600010206065012001B0BDE8F083387886F86D
:101670005000206CA16C471C2764481EA064A06C1D
:101680000028A1D02068006A4007EFD4FFF704F8D3
:10169000A0EB0800A84207D82068006A4007F5D5EB
:1016A000276CE3E7FEF7F8FF4FF400702065606DEC
:1016B00040F001006065012001B0BDE8F08300004A
:1016C00001680122C0F80025002280F8F42488690E
:1016D00040F000608861486D40F08052002042F088
:1016E00003024A65704700007047000000000000D8
:1016F00002680020516270472DE9F04F81B0D0F8A8
:101700000080D8F8240099B1D8F82830B1F1010E42
:1017100000EB134375D0AEF101000EF00307C0B229
:1017200003280DD201214FF0000A002F50D168E0AC
:1017300040EA0240C8F82800002001B0BDE8F08F60
:1017400008F1F4050021009741F0010408F5827CBE
:1017500055F8100FE4B241F00207FFB203EB104B53
:101760005CF8244041F00303D8B25CF827600B1DFD
:101770000EF0FC095FFA83FA0BEB1444CA4504EB44
:1017800016445CF820001ED0194643F00103DBB27A
:1017900004EB104A41F0020455F8106FE4B241F036
:1017A0000307FFB25CF823000B1D0AEB16465FFA35
:1017B00083FA5CF8244006EB1046CA455CF8270023
:1017C00006EB1444E0D104EB10430531009FC7B190
:1017D00008EB8A00012FD0F8040103EB104310D06E
:1017E000C8B2022F08EB8000D0F8040103EB1043CD
:1017F00007D0481CC0B208EB8000D0F8040103EB0E
:10180000104308EB8E0043EA0241C0F804110020A7
:1018100001B0BDE8F08F0000D0F8080507F0FCBF6C
:1018200001EBC10200EB8202D0F80805926C07F0D0
:1018300057BF00000000000001EBC10200EB820274
:10184000D0F80805D2F8882207F0AABF00000000EF
:10185000D0F8080507F0E4BF10B54AB2044601F01D
:101860000F00B2F1FF3F00EBC00104EB81020BDD82
:1018700002F51F71002382F87D3294F8BC240870B1
:10188000012A0BD1022010BD02F13C01012382F894
:101890003D3094F8BC240870012AF3D0012084F86C
:1018A000BC04206808F060FF002084F8BC0410BD70
:1018B000B0B5044601F00F006268824202D20120F6
:1018C000B0BD00BF49B2B1F1FF3F09DD00EBC0017F
:1018D000002304EB810202F51F7182F87D3208E0DB
:1018E00000EBC001012304EB810202F13C0182F80C
:1018F0003D3094F8BC2400258D70012A087001D178
:101900000220B0BD012084F8BC04206809F014FA5C
:10191000284684F8BC54B0BD10B5044690F8BC0409
:10192000012801D1022010BD48B20122B0F1FF3FD1
:10193000206884F8BC2405DD09F0E2FB002084F86F
:10194000BC0410BD01F00F0109F036FC002084F842
:10195000BC0410BD0000000001F00F0101EBC1014B
:1019600000EB8100D0F890027047000000000000FA
:1019700070B54CB2064601F00F00B4F1FF3F00EB2A
:10198000C00107DD06EB8104002504F51F7184F812
:101990007D5206E006EB810C01240CF13C018CF831
:1019A0003D404D7808708A60002D0B7118BF488348
:1019B000022B01D10020487196F8BC04012801D106
:1019C000022070BD012086F8BC04306808F074FD68
:1019D000002086F8BC0470BD80B501F00F0E0EEB40
:1019E000CE0100EB810C0021CCE9A331C368CCF817
:1019F00088228CF87D12012B8CF87CE20CF51F718B
:101A000008BFCCF89822DAB2006809F0E1F90020AA
:101A100080BD000000000000B0B5044601F00F05D5
:101A20004068854202D90120B0BD00BF48B2B0F184
:101A3000FF3F09DD01EBC100002204EB800000F54F
:101A40001F7180F87D2208E005EBC500012204EB40
:101A5000800000F13C0180F83D2094F8BC24012076
:101A60008870012A0D7001D10220B0BD84F8BC0439
:101A7000206809F08DF91DB1002084F8BC04B0BDC8
:101A8000217B206804F2C44209F026F9002084F882
:101A9000BC04B0BD0000000080B501F00F0E0EEBDD
:101AA000CE0100EB810C614601F83CEF4FF0000ED7
:101AB000C1F814E04FF0010E81F801E0D0F80CE01D
:101AC000CA60BEF1010F0B6108BFCCF858205FFA65
:101AD0008EF2006809F07CF9002080BD0000000053
:101AE0002DE9F04F89B005688246284609F0D0FB01
:101AF00010B109B0BDE8F08FDAF8000009F0F8FB8A
:101B00000028F6D0D5F80808C0F30D20CAF8FC0468
:101B1000DAF8000009F0ECFB8007DAF8000003D5E2
:101B2000416901F00201416105F50061049109F08C
:101B3000DFFBC006DAF8000005953BD5816921F08E
:101B4000100181612C6A04F00F05C4F3434006289C
:101B500018D0022827D147F6F07014EA000622D0E8
:101B600005EBC50034090AEB800705982246D7F833
:101B7000881209F0C1FBD7F8880200EB1610C7F8ED
:101B8000880207E00AF2C4410822059809F0B4FB74
:101B9000C4F30A1405EBC5000AEB8000D0F89012DC
:101BA0002144C0F89012DAF80000816941F0100178
:101BB0008161059D09F09CFB0003CDF820A040F158
:101BC0000381DAF8000009F06FFB002800F0FC80C8
:101BD00006460AF527784FF430644FF0000B0AF2FE
:101BE000C440079009E000BF0BF1010B760804F137
:101BF000200408F1240800F0E780F007F4D05FFA31
:101C00008BF9DAF80000494609F06AFB8246C00702
:101C10006DD0281901218160089F38682118036C54
:101C20008A68FF68012F29D117073BD497065BD438
:101C300012F0280F059D5AD143F20B07C4F65477D2
:101C4000BB4202D312F400424AD1D8F800200969FD
:101C50006FF3DF41BBF1000FA2EB0101059D48F8D6
:101C60000C1C19D1089BD3F88C22002A00F0A68006
:101C7000D3F888020844C3F888020DE043F20B074A
:101C8000C4F65477FF37BB421AD1100428D490060B
:101C9000059D01D52020886008984946FFF7CCFDB6
:101CA00025E000BF43F20B00059DC4F6547083424B
:101CB0001DD312F400401AD04FF40040886016E0A3
:101CC000BBF1000F07D10899D1F88C1219B9002186
:101CD000079A09F001F808984946FFF7ADFD05E0BD
:101CE0004FF4004001E000BF20208860059D5FEABE
:101CF0000A7025D528190821816043F20B01089844
:101D0000C4F654714F1E0068056C2044BD428168C2
:101D100005D911F400411CBF4FF4004181600898BF
:101D200000F0E6FCBD42059D0AD90898C06801286C
:101D300006D108980121079A006808F0CDFF00BF7E
:101D40005FEACA600CD45FEA8A700FD45FEA8A60E7
:101D500025D45FEA8A40DDF820A07FF545AF27E073
:101D60002819102181605FEA8A70EFD56869000642
:101D700004D50499486840F48060486018F81D0C48
:101D8000012806D1002008F81D0C0898494600F0EB
:101D900097FB2819022181605FEA8A60D9D528194A
:101DA000202181605FEA8A40DDF820A07FF51CAF2A
:101DB00028194FF40051816016E700BF0121079AEE
:101DC00008F08AFF68E700BFDAF80000AB4609F0C8
:101DD0008FFA400340F1E080DAF8000009F05CFA85
:101DE000002800F0D980064600270BF5106003900C
:101DF0000AF2C440029004E0760807F1010700F0FF
:101E0000CB80F007F8D0F9B2DAF80000079109F0BA
:101E100053FA0446C007039D0AD1200734D4E006D4
:101E200038D460063CD4A00740D42006E4D556E060
:101E3000049B07F00F004FF0010C05EB47120CFA62
:101E400000F0596B21EA00005863C2F808C0DAF8C4
:101E50000C00012812D107EBC7000AEB8000D0E983
:101E60001112114481644FB9DAF84C0030B9DAF834
:101E700000000121029A08F02FFF00BF5046079989
:101E8000FFF7CEFC2007CAD505EB4710082181607B
:101E9000E006C6D505EB4710102181606006C2D56B
:101EA00005EB471040218160A007BED55846394652
:101EB00009F082F907EBC7000AEB800010F83F1F1A
:101EC000012905D1002101705046079900F0F4FA6C
:101ED00005EB47100221816020067FF58DAF07EBEF
:101EE000C7000AEB8002914659F84C1FC84658F8C3
:101EF000040F8142FFF480AF9346DAF800400B1ADA
:101F00005BF8445FAB4238BF1D4604EB47130694B1
:101F100005F1030CD3F81859ADB2B5EB9C0F29D3DA
:101F200003F5106A02F14805D9F8001081421FD963
:101F3000081A0899DBF80040A0420A7B38BF044623
:101F400029680092A3B2DDE9060209F005FB2868C2
:101F5000E11C20442860D8F800002044C8F80000A4
:101F6000DAF8182092B2B2EB910FDDD2D9F8001056
:101F7000DDF820A0DDF814B081423FF63DAF069AAF
:101F800007F00F00012101FA00F0D2F8341821EA1D
:101F90000000C2F834082FE7DAF8000009F0A8F9C9
:101FA00000281DD4DAF8000009F0A2F9000536D4A3
:101FB000DAF8000009F09CF9000141D4DAF80000D9
:101FC00009F096F9C0044DD4DAF80000DDF810806D
:101FD00009F08EF98004DAF8000000F164817DE1F7
:101FE0000499486820F0010048609AF8F404012838
:101FF00008D100208AF8F40400215046FFF774FB52
:1020000003E000BF504600F057FBDAF800004169DA
:1020100001F00041416109F06BF90005C8D5049851
:102020008068C00702D0504600F08AFBDAF8000052
:10203000416901F40061416109F05AF90001BDD51F
:10204000DAF80000416901F0006141619AF8F41486
:10205000F1B1504600F074FBDAF8000009F048F9DD
:10206000C004B1D50499486820F001004860DAF84E
:102070000000102109F0A0F8DAF80400002800F0B0
:10208000D780411E00F0030C032915D2002181E006
:1020900001218AF8F414406D0121C0F38300CAF8CD
:1020A000F8045046FFF720FBDAF8000009F020F9A9
:1020B000C0047FF589AFD5E720F0030E4FF6A05896
:1020C0004FF6C0554FF6E0544FF600600BF53663FF
:1020D00000214FF67F37CFF6FF78CFF6FF75CFF6AA
:1020E000FF74CFF6FF7000BFA3F51872A3F510764A
:1020F000043197608E4553F8082022F4001243F80B
:10210000082043F8587C53F8602C22F4001243F85E
:10211000602C53F8602C42F0006243F8602CB760EA
:10212000A3F508765A5922F400125A5143F8387C24
:1021300053F8402C22F4001243F8402C53F8402C62
:1021400042F0006243F8402CB760A3F500761A59BC
:1021500022F400121A5143F8187C53F8202C22F470
:10216000001243F8202C53F8202C42F0006243F870
:10217000202CB7601A5822F400121A509F601A6877
:1021800022F400121A601A6842F000621A6003F129
:102190008003A9D1BCF1000F059849D000F5106269
:1021A00000F5306002EB41174FF67F334E01BCF172
:1021B000010FBB6000EB4115975927F400179751A9
:1021C000AB60875927F400178751875947F000679C
:1021D00087512DD04F1CBCF1020F4FEA471502EB7F
:1021E000471600EB4717B360565926F400165651B0
:1021F000BB60435923F400134351435943F0006338
:10220000435115D002314FF67F364F0102EB411397
:1022100000EB41119E60D35923F40013D3518E601B
:10222000C15921F40011C151C15941F00061C1519E
:10223000DDF81080D8F81C0040F00110C8F81C0030
:10224000DAF8300040B1D8F8840040F00B00C8F84C
:10225000840008F1440008E0D8F8140042F22B0191
:102260000843C8F8140008F1100001680AF2C442DB
:1022700041F00B010160D8F8000020F4FE60C8F8BE
:1022800000009AF80C10DAF8000008F025FDDAF8E2
:102290000000416901F48051416109F029F880048E
:1022A000DAF800001AD508F04FF9DAF8000008F063
:1022B000DFFFCAF81000DAF8004001F019F99AF8C7
:1022C00010200146204609F0B7F8504600F0DCF92E
:1022D000DAF80000416901F40051416109F008F8A1
:1022E000000707D4DAF8000009F002F800060ED45F
:1022F00036E000BF504600F0E3F9DAF8000041692B
:1023000001F00801416108F0F3FF000628D50599A6
:10231000886920F080008861DAF8040002281FD361
:10232000012440F2A32503E001342435844217D26E
:102330001AF805100129F7D104F00F00220600EB6E
:10234000C0000AEB800000F13C0158BF00F51F718E
:10235000DAF8000008F044FEDAF80400E4E700BF11
:10236000DAF8000008F0C4FFC00251D4DAF8000027
:1023700008F0BEFF8002059D40F18080DAF804106D
:1023800002292BD305F5326001390AF529720123A0
:1023900006E000BF013900F1200002F124021DD047
:1023A00007681678012EF5D1B7F1FF3FF2DCDAF8B5
:1023B000FC6407F4803706F00106B742EAD102F860
:1023C000013CAF6947F08007AF616F693F06E1D418
:1023D000D8F8040040F40070C8F80400DAF80000EF
:1023E000416901F40011416108F082FF40004BD5C2
:1023F0005046FFF711FADAF80000416901F0804118
:10240000416108F075FF400745D4FFF772BB00BF7C
:10241000DAF80400022825D305990AF1640501F5CC
:1024200012640126012705E001372034874205F1B7
:10243000240517D221682A78012AF5D1B1F1FF3F8E
:10244000F2DC07F00F0005F8016C00EBC0000AEBAE
:10245000800000F13C01DAF8000008F0C1FDDAF874
:102460000400E1E7DAF80000416901F480114161FC
:1024700008F03EFF8002059D3FF580AFDAF80000CE
:1024800008F036FF4000B3D4DAF8000008F030FF5F
:1024900040077FF52EABDAF800004468610704D5E9
:1024A0005046FFF7D5F9DAF8000041682143416052
:1024B00009B0BDE8F08F0000D0F8080507F028BA91
:1024C000D0F8080507F038BA2DE9F04F8BB0002896
:1024D00000F085800446056890F8BD0428B9002006
:1024E00084F8BC04204600F093F8032084F8BD046F
:1024F000E86BC00501D40020E060206808F0E4FB30
:1025000020680A9004F1040E04F11C0AD4E90C506E
:102510009EE80E589AE8C007CDE9085003A88DE858
:10252000005880E8C0070A9808F01EF8002853D128
:1025300020680021002508F037FF616871B3012091
:102540000023002203EBC30304EB8307D3B287F815
:102550003C200132A7F85630D3B287F83D009942AB
:1025600087F840507D64BD64FD64EBD800200023F3
:10257000002200BF03EBC30304EB830787F87C2230
:102580000132D3B287F87D02994287F88002C7F8FA
:102590008402C7F88802C7F88C02EBD804F1140E45
:1025A00004F1240A2268A0680A90D4E903379EE85F
:1025B00040589AE80007D4E90C50CDE9085002A829
:1025C000CDE9007680E8005805A880E800071046AD
:1025D0000A9A08F02DF938B1022084F8BD040120D0
:1025E0000BB0BDE8F08F00BF002084F83800012058
:1025F00084F8BD04606A012802D12046FFF760F824
:10260000206808F005F900200BB0BDE8F08F00004D
:1026100010B5B0B002A9044601F10800B021FDF7E1
:1026200078FE00212068C4F20401884202D030B054
:1026300010BD00BF002003904FF4802002904FF4A3
:102640004010239002A800F0CBF808B1FDF710FF6E
:1026500000F0BAF844F2D8400022C5F60200016842
:1026600041F0007101600068002100F000700190ED
:1026700001984D20FEF7F8F84D20FEF7E1F830B054
:1026800010BD00000000000010B50446006918B13C
:10269000022803D1012104E0002102E0FDF7E8FE59
:1026A0000121D4F8080507F0D3F9D4F80805BDE8EE
:1026B000104007F07DB90000D0F8080507F0ACB96C
:1026C000D0F8080507F0B4B910B5044690F8BC047A
:1026D000012801D1022010BD012084F8BC0484F837
:1026E0003810206808F094FE002084F8BC0410BD67
:1026F000D0F8082500F2C441104607F0C1B9000027
:1027000010B5044690F8BC04012801D1022010BD88
:102710002068012184F8BC14C16BC90506D4A16AE4
:10272000012903D1816B41F48031816308F0E0FC21
:10273000206808F05DF8002084F8BC0410BD00009B
:1027400010B50446D0F8080507F0F6F92068D0F86F
:10275000001E41F00101C0F8001E206A002808BFD9
:1027600010BD4EF61050CEF20000016841F0060197
:10277000016010BD00000000B0B544F60C05C5F6C0
:10278000020529684907296806D401F00701081ADB
:1027900018BF0120B0BD00BF21F007010843286029
:1027A000FDF77AFF044600BF55F8080C800407D4F3
:1027B000FDF772FF001BB0F57A7FF5D90120B0BD9F
:1027C0000020B0BD0000000044F60C00C5F6020079
:1027D000016841F080710160704700000000000056
:1027E0002DE9F0470446C07844F22C480007C5F6AE
:1027F000020833D5606E4FEA305103290CD8DFE868
:1028000001F003111D2600BFD8F8001041F400317B
:10281000C8F800101BE000BF01266078C0070BD08D
:1028200020E000BF04F10800022104F0C5FA0646CA
:1028300060B16078C00715D1354646E004F1280044
:10284000022104F04DFB06460028F2D1606ED8F854
:10285000241021F440110843C8F8240000266078B1
:10286000C007E9D0A06D04280ED83546DFE800F097
:102870000412181E1E0000BFD8F80000354640F4B0
:102880000030C8F8000011E00125012760784007FA
:102890001FD453E004F10800002104F08DFA04E095
:1028A00004F12800002104F01BFB05462F461DB152
:1028B000607840070DD441E0D8F82400A16D20F0E5
:1028C000070000250843C8F8240037466078400711
:1028D00034D5D4F8A4004FEA705005280CD8DFE8AE
:1028E00000F00311171D1D1DD8F8000040F4003042
:1028F000C8F8000012E000BF01250126607800073B
:1029000020D455E004F10800002104F055FA04E059
:1029100004F12800002104F0E3FA05462E461DB11B
:10292000607800070ED443E0D8F82C00D4F8A41047
:1029300020F4600000250843C8F82C003E4660786B
:10294000000735D5D4F8A8004FEA306005280DD827
:10295000DFE800F00412181E1E1E00BFD8F80000A9
:1029600040F40030C8F8000012E000BF0125012744
:10297000E078800720D44EE004F10800002104F044
:102980001BFA04E004F12800002104F0A9FA05462E
:102990002F461DB1E07880070ED43CE0D8F82C001B
:1029A000D4F8A81020F0E06000250843C8F82C00F7
:1029B0003746E07880072ED5E06C4FEA30100328C8
:1029C0000ED8DFE800F00903130900BFD8F80000B3
:1029D00040F40030C8F800002E467DB912E000BF78
:1029E000012501266078C00619D44CE004F10800E6
:1029F000022104F0E1F905462E461DB16078C006BB
:102A00000DD440E0D8F82000E16C20F03000002523
:102A10000843C8F820003E466078C00633D5E06D14
:102A20004FEA303004280DD8DFE800F00412181EF9
:102A30001E0000BFD8F8000040F40030C8F80000C5
:102A400012E000BF01250127607880061FD44EE008
:102A500004F10800002104F0AFF904E004F12800BB
:102A6000002104F03DFA05462F461DB1607880062E
:102A70000DD43CE0D8F82400E16D20F4E0400025BE
:102A80000843C8F824003746607880062FD5206EAA
:102A90004FEA3040052809D8DFE800F0040E14049E
:102AA000040400BF2E46ADB918E000BF0125012681
:102AB000607840061FD44FE004F10800012104F0C3
:102AC0007BF904E004F12800012104F009FA05462D
:102AD0002E461DB1607840060DD43DE0D8F82400A4
:102AE000216E20F4E02000250843C8F824003E466B
:102AF0006078400630D5D4F8AC004FEA3070052835
:102B000008D8DFE800F0030D130303032F46ADB927
:102B100018E000BF012501276078000620D442E0BC
:102B200004F10800012104F047F904E004F1280051
:102B3000012104F0D5F905462F461DB16078000645
:102B40000ED430E0D8F82C00D4F8AC1020F0E040DF
:102B500000250843C8F82C0037466078000622D5C7
:102B6000E06E58B1B0F1005F0CD0B0F1805F2FD1B2
:102B7000D8F8000040F40030C8F800002E469DB997
:102B800008E000BF04F10800012104F015F9054632
:102B90002E464DB9D8F82400E16E20F040500025B3
:102BA0000843C8F824003E46E078C00733D0A06C44
:102BB000032813D8DFE800F008021A08D8F800004C
:102BC00040F40030C8F80000A946BDB91AE000BFC3
:102BD00001250126E078C007E9D11CE001254FF06E
:102BE0000109A07840061AD51CE000BF04F10800D6
:102BF000022104F0E1F80546A9461DB1A07840067F
:102C00000DD50FE0D8F82000A16C20F003000025BE
:102C10000843C8F82000B146A078400602D44F46C9
:102C200018E000BFD8F8D40340F48070C8F8D4038B
:102C3000FDF732FD064600BFD8F8D403C00507D41F
:102C4000FDF72AFD801B6428F6D90325032701E040
:102C50002F468DB12078C00761D0A06F4FEAF000F9
:102C600005283BD8DFE800F004404604040400BF18
:102C7000002D2E4646D149E0D8F84410D4F8B000D3
:102C8000414011F4407F11D0D8F84410D8F84420C6
:102C900042F48032C8F84420D8F8442021F440712E
:102CA00022F48032C8F84420C8F84410B0F5807F80
:102CB00040F0CE82FDF7F0FC064641F2883A03254B
:102CC000032700BFD8F84400800700F1BF82FDF75A
:102CD000E3FC801B5045F5D9BCE700BF0125012668
:102CE000207880071FD44CE004F10800012104F093
:102CF00063F804E004F12800012104F0F1F805462E
:102D00002E461DB1207880070DD43AE0D8F828006F
:102D1000A16F20F0380000250843C8F828003E467F
:102D2000207880072DD5606F052809D8DFE800F0EE
:102D3000040E1404040400BF2F46ADB918E000BF10
:102D400001250127207840071FD44DE004F1080039
:102D5000012104F031F804E004F12800012104F01D
:102D6000BFF805462F461DB1207840070DD43BE043
:102D7000D8F82800616F20F0070000250843C8F844
:102D800028003746207840072ED5D4F89000052833
:102D900008D8DFE800F0030D130303032E46ADB996
:102DA00018E000BF012601252078800620D451E0DC
:102DB00004F10800012103F0FFFF04E004F1280002
:102DC000012104F08DF805462E461DB120788006BD
:102DD0000ED43FE0D8F82C00D4F8901020F0070073
:102DE00000250843C8F82C003E462078800631D5DF
:102DF000D4F88C004FEA3070052809D8DFE800F0DD
:102E0000040E1404040400BF2F46ADB918E000BF3F
:102E1000012701252078400620D451E004F1080064
:102E2000002103F0C9FF04E004F12800022104F0AE
:102E300057F805462F461DB1207840060ED43FE0D6
:102E4000D8F82800D4F88C1020F0E0400025084382
:102E5000C8F8280037462078400631D5D4F89800C5
:102E60004FEAB020052809D8DFE800F0040E14046A
:102E7000040400BF2E46ADB918E000BF01260125AD
:102E80002078000620D454E004F10800002103F06B
:102E900093FF04E004F12800022104F021F8054624
:102EA0002E461DB1207800060ED442E0D8F82C0042
:102EB000D4F8981020F4E05000250843C8F82C00FE
:102EC0003E462078000634D5D4F89C004FEA703096
:102ED00005280FD8DFE800F004141A04040400BF2A
:102EE0002F46E5B12068010727D4C1063ED4000370
:102EF00055D475E00127012520680107F5D51CE0B0
:102F000004F10800002103F057FF04E004F1280059
:102F1000022103F0E5FF0546002D2F46E2D1D8F847
:102F20002C00D4F89C1020F4604000250843C8F819
:102F30002C00374620680107D7D5D4F88000B0F5BB
:102F4000805F09D104F12800022103F0C9FF0028A5
:102F500018BF0127D4F88000D8F8281021F4405178
:102F60000843C8F828002068C106C0D5D4F89400EA
:102F7000B0F5807F09D104F12800022103F0B0FFF1
:102F8000002818BF0127D4F89400D8F82C1021F499
:102F900040710843C8F82C002068000320D5D4F8FD
:102FA000A000B0F5003F0FD0B0F5803F06D078BB51
:102FB00004F10800002103F0FFFE04E004F1280002
:102FC000022103F08DFF05462E4655B9D8F82C0096
:102FD000D4F8A01020F4403000250843C8F82C0095
:102FE0003E46A07840072BD5D4F88400B0F5401FAA
:102FF0000BD0B0F5001F11D0B0F5801F2AD1D8F842
:10300000000040F40030C8F800002F46CDB90DE0B4
:1030100001260125A0784007E6D411E004F128003C
:10302000012103F05DFF05462F4655B9D8F8280069
:10303000D4F8841020F4401000250843C8F8280074
:103040003746A078C0070AD13E462168880016D5C9
:1030500033E000BF01270125A078C007F4D0206D20
:10306000B0F5803F10D018BBD8F8000040F4003015
:10307000C8F800002E4685B1216888001DD460681C
:103080008A0326D465E000BF04F10800022103F0A2
:1030900093FE0546002D2E46EED1D8F82000216D76
:1030A00020F4803000250843C8F82000CCE700BF9A
:1030B0000126012521688800E1D504F128000221BC
:1030C00003F00EFF002818BF0126D4E900108A0380
:1030D0003FD5E26F6FF0010303EB3223022B0BD3DA
:1030E0004FEA322343B1012B40F0AA80D8F80030D8
:1030F00043F40033C8F8003025B3CA022CD48A0246
:1031000034D44A003CD4CA0F49D1090251D4C10772
:103110005AD1810763D441076CD4010776D4C10624
:1031200000F18080800607D504F12800022103F019
:10313000D7FE002818BF0125002D18BF01252846FD
:10314000BDE8F087D8F8283023F440731A43C8F854
:1031500028203546CA02D2D5D8F82420236F22F081
:1031600000421A43C8F824208A02CAD5D8F824207D
:10317000A36E22F080721A43C8F824204A00C2D5F8
:1031800058F81C2C22F4004248F81C2CD4F8B42027
:1031900058F81C3C1A4348F81C2CCA0FB5D0D8F874
:1031A0002020636D22F040521A43C8F82020090203
:1031B000ADD5D8F82810D4F8882021F44001114367
:1031C000C8F82810C107A4D004F10800002103F0BA
:1031D000F3FD002818BF0546606881079BD504F100
:1031E0000800012103F0E8FD002818BF05466068CB
:1031F000410792D504F10800022103F0DDFD00280B
:1032000018BF0546606801077FF589AF04F1280003
:10321000002103F065FE002818BF05466068C1065E
:103220007FF580AF04F12800012103F059FE00284A
:1032300018BF0546606880067FF57EAF74E700BF63
:103240000125CA027FF55BAF86E700BFD4F8B00066
:103250004FF6CF7358F81C2CC0F2FF0300F44071F6
:1032600022F47C5203EA10136FF31F30B1F5407F54
:1032700008BF1A43002548F81C2CD8F8441008430E
:10328000C8F84400FFF7CBBC2DE9F04381B000281B
:1032900000F02A8142F200080446C5F2002889465F
:1032A000D8F8000000F00F0088420ED2D8F80000D5
:1032B00020F00F0040EA0900C8F80000D8F800002C
:1032C00000F00F00484540F00F81206844F2184795
:1032D0004107C5F602070AD521693A6802F0700273
:1032E000914204D93A6822F0700211433960010713
:1032F0000AD561697A6802F07002914204D97A684D
:1033000022F0700211437960C1060AD5A1697A687A
:1033100002F4E062914204D97A6822F4E062114337
:10332000796081060AD5E169BA6802F070029142BB
:1033300004D9BA6822F070021143B96010F002019A
:103340000AD0E2683B6803F00F039A4204D93B6855
:1033500023F00F031A433A60C20746D0386820F4BE
:103360007061D4E90102012841EA0201396009D003
:1033700003280DD0022811D157F8181C890340F1F9
:10338000B38010E057F8181CC90540F1AD800AE081
:1033900057F8181C890140F1A78004E057F8181C61
:1033A000490740F1A18057F8081C21F007010843A4
:1033B00047F8080CFDF770F9064641F2883500BF62
:1033C00057F8080C616800F03800B0EBC10F09D065
:1033D000FDF762F9801BA842F2D9032001B0BDE8D5
:1033E000F08300BF206800F0020151B1E1683A6843
:1033F00002F00F02914204D23A6822F00F02114308
:103400003960D8F8001001F00F0149450DD9D8F8FE
:10341000001021F00F0141EA0901C8F80010D8F8A6
:10342000001001F00F0149455ED141070AD521691D
:103430003A6802F07002914204D23A6822F07002B7
:103440001143396001070AD561697A6802F0700298
:10345000914204D27A6822F0700211437960C10669
:103460000AD5A1697A6802F4E062914204D27A68CE
:1034700022F4E0621143796080060AD5E069B968F8
:1034800001F07001884204D2B96821F0700108434C
:10349000B86000F055F839684CF294533A68C0F6B9
:1034A0000003C1F3032102F00F02595C9A5C01F0A2
:1034B0001F0120FA01F102F01F0040F2100221FA70
:1034C00000F0C2F20042106040F2080040F20C022C
:1034D000C2F20040C2F200420068116001B0BDE8D3
:1034E000F043FDF725B900BF012001B0BDE8F0832E
:1034F00080B500F025F844F218414CF29453C5F61B
:103500000201C0F600030A68096801F00F01C2F366
:103510000322595C9A5C02F01F0220FA02F201F0C9
:103520001F0040F2100122FA00F0C2F200410860D0
:1035300040F20C01C2F200410A6080BD00000000B0
:1035400044F20041C5F602010869C0F3C200032835
:1035500010D002282ED098BB0868800649F20000DF
:10356000C0F2D03058BF70470968C1F3C101C840EC
:10357000704700BF8A6A886AC0F3051CC86ABCF13C
:10358000000F4B6B22D000F0010002F0030240421A
:10359000022A00EAD3006FF35F3000EE100AB8EEA3
:1035A000400A15D0C2B90868800619D49FED281AC0
:1035B00023E000BF47F64000C0F27D10704700BF17
:1035C00040F60010C0F23D00704700BF0020704779
:1035D0009FED1E1A11E000BF9FED1B1A0DE000BF0A
:1035E000086849F20002C0F2D032C0F3C10022FAEA
:1035F00000F001EE100AB8EE411A086B9FED153A83
:103600006FF35F2002EE100A086BC0F34620B8EE9D
:10361000422A013000EE032A00EE10CAB7EE003A4B
:10362000B8EE400A81EE000A32EE031A20EE010ADB
:1036300001EE100AB8EE411A80EE010ABCEEC00A93
:1036400010EE100A704700BF0024744A20BCBE4B25
:103650000024744C00000039F0B581B0002800F05F
:10366000D5800446007844F20046C007C5F602063D
:1036700022D12078800768D5306910F03801B06A0F
:1036800042D0182908BF5FEA80703DD0E0683168F9
:10369000002800F0258121F0190108433060FCF773
:1036A000FBFF05463068400748D4FCF7F5FF401B98
:1036B0000228F7D977E100BF306900F03801B06A1D
:1036C000102905D018290BD100F00300022807D1DA
:1036D00030688003CDD560680028CAD196E000BF6D
:1036E0006068002800F03281B0F5A02F00F046811C
:1036F000B0F5803F00F04681306820F480303060C3
:10370000306820F4802040E130684007E06801D54F
:1037100000287BD0316821F0190108433060FCF7A4
:10372000BBFF05463068400708D4FCF7B5FF401BD7
:1037300002284FF00300F5D901B0F0BD706821698F
:1037400020F0FE4040EA016070602078C00619D584
:10375000306900F03801B06A082906D0182940F015
:10376000818000F0030001287CD13068C00502D5BB
:10377000E06980284AD1F068216A20F07C5040EA54
:103780000160F0602078000744D42078800655D48A
:103790002078400700F17E80656A9DB3306900F0B3
:1037A0003800182840F01481012DB16A306B2DD0FB
:1037B00001F00302A36A9A4228D1C1F30511E26A1B
:1037C000914223D10146226B6FF35F21013A91426E
:1037D0001CD1C0F34622616B01398A4216D1C0F375
:1037E0000642A16B01398A4210D1C0F30660E16B39
:1037F000013988420AD1706BA16CC0F3CC008142C0
:1038000040F09C81002001B0F0BD00BF012001B05C
:10381000F0BD00BF60690028706F4FD040F001001C
:103820007067FCF739FF0546706F8007ADD4FCF771
:1038300033FF401B0228F7D9B5E000BFA06900287C
:10384000306871D040F480503060FCF725FF0546A9
:10385000306880049CD4FCF71FFF401B0228F7D976
:10386000A1E000BFE0690028306800F09F8040F0D0
:1038700080003060FCF710FF054600BF3068C005CF
:103880003FF579AFFCF708FF401B02284FF003001B
:10389000F4D951E7D6F8000440F48070C6F800046B
:1038A000FCF7FAFE054600BFD6F80004C00529D48F
:1038B000FCF7F2FE401B6428F6D974E020F001000A
:1038C0007067FCF7E9FE0546706F80077FF55DAF16
:1038D000FCF7E2FE401B02284FF00300F4D92BE76F
:1038E00021F001003060FCF7D7FE05463068400744
:1038F0007FF52BAFFCF7D0FE401B02284FF00300F2
:10390000F4D919E7A068002800F08480052800F0A9
:103910009B80012800F09C80306F20F00100306710
:10392000306F20F0040096E020F480503060FCF707
:10393000B3FE0546306880047FF52AAFFCF7ACFE85
:10394000401B02284FF00300F4D9F5E6306820F45C
:1039500080303060306820F480203060FCF79CFEBE
:10396000054600BF306880037FF583AEFCF794FE08
:10397000401B64284FF00300F4D9DDE6306840F4C2
:1039800080203060306840F480303060FCF784FE86
:10399000054600BF306880033FF56BAEFCF77CFE48
:1039A000401B6428F6D9032001B0F0BD20F0800050
:1039B0003060FCF771FE05463068C0057FF5E2AE69
:1039C000FCF76AFE401B02284FF00300F4D9B3E66F
:1039D000306820F080703060FCF75EFE022D0546F6
:1039E0000CD100BF3068800148D5FCF755FE401B64
:1039F00002284FF00300F5D99EE600BF3068800131
:103A00007FF500AFFCF748FE401B02284FF0030093
:103A1000F4D991E6306F20F001003067306F20F06C
:103A200004003067FCF738FE054641F28837306FF6
:103A300080077FF5B1AEFCF72FFE401BB8424FF078
:103A40000300F4D978E600BF306F40F0040030671F
:103A5000306F40F001003067FCF71EFE054641F272
:103A6000883700BF306F80073FF596AEFCF714FE35
:103A7000401BB8424FF00300F4D95DE604F128077B
:103A8000B06A40F2F33188438ECF0843591E40EAB2
:103A900002104FF47E426FF35F21B06202EB4720C9
:103AA0004FF4FE0280B2E36B0844A16B02EB0141CC
:103AB0004FF0FE4201F4FE0102EB0362084402F003
:103AC000FE4108443063F06A4FF6F87120F00100BF
:103AD000F062706BA26C884340EAC2007063F06AC7
:103AE000216C20F00C000843F062F06A616C20F059
:103AF00002000843F062F06A40F48030F062F06A3D
:103B000040F40030F062F06A40F48020F062F06A25
:103B100040F00100F062306840F080703060FCF7E7
:103B2000BBFD0446306880013FF56CAEFCF7B4FD88
:103B3000001B02284FF00300F4D9FDE5F06A20F0E5
:103B40000100F062FCF7A8FD0546FCF7A5FDA842C0
:103B5000FBD0706B4FF6F871A26C884340EAC2004C
:103B60007063F06A40F00100F062002001B0F0BD27
:103B7000B0B50068002A40684FEA104300F03F0CDF
:103B8000C0F3042ECB70C0F3423281F801E081F81B
:103B900002C00A7002D00020B0BD00BFDAB24FEA06
:103BA0001E14120903F00F03050A00F00F0002EBC8
:103BB000820205F00F0503EB4202CA7044EA840357
:103BC0004FEA1C1405EB43034B7044EA840200EBFC
:103BD000420088700020B0BDB0B50068002A836A3A
:103BE0004B6003696FF3DF338B60006800F07F0C7C
:103BF00081F802C0C0F305430B70C0F3062E81F8B4
:103C000001E0C0F38052CA7002D00020B0BD00BFF6
:103C10001B09020C43EA830302F00F024FEA1E1451
:103C200002EB43020A7004EB84034FEA1C14050AFA
:103C300000F00F0004EB840205F00F0505EB4303D1
:103C40004B7000EB420088700020B0BD0000000007
:103C5000B0B5002846D0044690F8210028B90020CD
:103C600084F82000204600F05BF8022084F8210050
:103C70002168C868C00643D4CA20486253204862FD
:103C8000C868400614D44FF0FF30C860FCF704FD4C
:103C90002168CA6852060BD4054600BFFCF7FCFC3D
:103CA000401BB0F57A7F31D82168C8684006F5D549
:103CB0004FF6BF728868CFF68F72251D104088605E
:103CC0002DCD2843A56928438D682843886043EAA1
:103CD00002400861204603F097F9216820B1FF22D5
:103CE0004A62B0BD0120B0BDC86C20F00300C864BA
:103CF0006069E2691043CA6C1043C864FF204862DF
:103D0000012084F821000020B0BD00BF032084F80A
:103D100021002168CA68FF224A62B0BD000000008D
:103D200010B5AEB06946044601F10800B021FCF7B9
:103D3000F0FA44F200012068C5F60001884201D083
:103D40002EB010BD002001904FF4800000904FF481
:103D500000702C906846FEF743FD08B1FCF788FB25
:103D600044F27040C5F60200016841F40041016070
:103D70002EB010BD000000002DE9F041044690F87F
:103D8000200001284FF0020008BFBDE8F0814FF08D
:103D9000010384F8203084F821003AB14878CA78C9
:103DA0008E78000240EA024845E000BF4878C2062B
:103DB00003D500F0EF000A304870CA784FF0CD0C00
:103DC000A0F10A054FF0010EA2F10A03092ADFB2A1
:103DD00007FB0CF74FEAD72606EB8606A3EB46084F
:103DE000EEB206FB0CF30EEBD72688BF48EA0612AC
:103DF000DF0A8E780EEBD3230928D2B207EB8707B0
:103E0000A5EB470588BF45EA0310A6F10A03092E72
:103E1000DDB2C0B205FB0CF74FEA00204FEAD72510
:103E200040EA024805EB85000EEBD722A3EB4000E9
:103E300088BF40EA021622680F78CA2050625320D9
:103E40005062D068400613D44FF0FF30D060FCF7CA
:103E500023FC2268D16849060AD40546FCF71CFCFD
:103E6000401BB0F57A7F23D82268D0684006F5D58C
:103E7000F0B2790340EA080020F0C0000843506027
:103E8000204603F0C1F821684FF0FF024A6228B1D2
:103E9000002184F82010BDE8F08100BF012084F8E3
:103EA00021000020002184F82010BDE8F08100BF2F
:103EB000032084F821002168CA68FF224A62002199
:103EC00084F82010BDE8F0812DE9F047044690F811
:103ED000200001284FF0020008BFBDE8F0870D4622
:103EE000012184F82010164684F82100CA20216898
:103EF000486253204862C868400614D44FF0FF302F
:103F0000C860FCF7C9FB2168CA6852060BD4074693
:103F1000FCF7C2FBC01BB0F57A7F00F28D802168F0
:103F2000C8684006F4D5886800F0400036B158B93A
:103F30004FF0000E85F803E009E000BF70B94FF0C4
:103F4000000E85F803E00CE0E8784FEA805E287800
:103F50006B78AA781B0243EA004341E0E8784FEA15
:103F6000805E2B784FF0CD0C68784FF00109A3F1FB
:103F70000A02092BD7B207FB0CFA4FEADA2609EB43
:103F8000DA2A06EB8606A2EB4608A0F10A06F2B290
:103F900002FB0CF788BF48EA0A13FA0A0928DBB2C9
:103FA00009EBD72702EB8208AA78A6EB480688BF60
:103FB00046EA0710A2F10A06092AF7B2C0B207FBC7
:103FC0000CF74FEA00204FEAD72C40EA03430CEBF2
:103FD0008C0009EBD727A6EB400088BF40EA071208
:103FE000D0B247F67F721843C0F27F0240EA0E005B
:103FF00010400860886820F480208860D5E90302BA
:1040000010438A6810438860204602F0FDFF216853
:104010004FF0FF024A6228B1002184F82010BDE869
:10402000F08700BF012084F821000020002184F8DF
:104030002010BDE8F08700BF032084F8210021682C
:10404000CA68FF224A62002184F82010BDE8F08788
:104050002DE9F04381B000285BD043F6000104460F
:104060000068C4F2000143F2000E43F6004C88429F
:10407000C4F2010EC4F2000C4FF00002A26203D0A1
:10408000604518BF704541D1E36B0125E268884265
:1040900002F1080205EB53134FEAD20202FB03F3CD
:1040A00018BF704526D1102B33D894F8810028B959
:1040B000002084F88000204600F0AAF8022084F84E
:1040C0008100D4E90009D4F818800368B8F1806F42
:1040D00023F001030360836803F4F81E26D1B9F1CD
:1040E000000F1BD0B9F5800F20D1A36BD3B14FF4D3
:1040F000800921E0604518BF082B0AD80CF57441EF
:10410000884218BF6045CED0CFE700BFE3680F2BD1
:10411000BAD9012001B0BDE8F08300BFA36BB3F1B1
:10412000805F71D1036843F4805303605FEA4923E1
:1041300002D44FF0010C0FE0E368072B0AD30568A7
:1041400025F4807C256D45EA0C0505604FF0000CD8
:1041500007E000BF4FF0000C036823F48073036096
:10416000E368E769A26A47EA0E07E16B3A43A5688C
:1041700011432669676919438160B9F1000F626ACA
:10418000D4E90D1341EA0201226A41EA0301E36C1A
:1041900041EA060141EA070141EA0201A26C41EA53
:1041A0000301A36D41EA050141EA020141EA03016D
:1041B00041EA080141EA0901C1600DD0016DBCF17D
:1041C000000F21F00101016514D1C168626D21F079
:1041D00000411143C1600DE08168012262F3CC21EE
:1041E00081608168022262F34A218160016D21F0C1
:1041F000010101650020C4F88400012184F88110C8
:1042000001B0BDE8F08300BF4FF0000991E7000066
:1042100070B5B6B0044602A8B8210025CDE93455E2
:10422000CDE932553195FCF774F843F2004120682E
:10423000C4F20101884247D043F20001C4F20101F7
:10424000884275D14FF48050029002A80025039552
:10425000FEF7C6FA08B1FCF70BF944F2E04040F271
:104260000044C5F60200C5F602040226016941F4C5
:1042700080510161016901F4805101910199016846
:1042800041F008010160016801F008010191019904
:10429000016841F002010160006831A900F00200EC
:1042A00001900198802031900520359004F5006040
:1042B000CDE932653495FCF7F7F81820CDE93106E1
:1042C000CDE933552EE000BF4FF40050029002A814
:1042D0000395FEF785FA08B1FCF7CAF844F2E0400E
:1042E000C5F60200016941F400510161016901F460
:1042F000005101910199016841F01001016040F203
:1043000000410068C5F6020100F01000019001F5BF
:10431000406401984FF4A040319002203290002078
:10432000339034900520359031A92046FCF7BCF835
:1043300036B070BD000000002DE9F04381B00446A6
:1043400090F8800001281CD01D4617460E46D4F870
:104350000090012084F88000FCF79EF994F8811009
:1043600001290BD1002E18BF002F0FD1002084F897
:104370008000012001B0BDE8F08300BF002084F878
:104380008000022001B0BDE8F08300BF8046042019
:1043900084F881000020C4F884006666A4F8687080
:1043A000A4F86A70E065A4F86000A4F86200A1684F
:1043B0002067B1F5C02F6067206805D1016821F43E
:1043C0000061016005E000BFC168022262F3524152
:1043D000C16041684FF6FF72914339444160016802
:1043E00041F0010101606168B1F5800F03D10168FE
:1043F00041F400710160E168102925D3B4F86A0026
:10440000002800F0CA80681C00F0AC8048F2080662
:104410000FE000BF006B616E41F8040B6166B4F8F9
:104420006A000138A4F86A00B4F86A00002800F0B5
:10443000B480206841693142ECD1FCF72DF9A0EB42
:104440000800A842F0D35FE0B4F86A0007293BD91E
:10445000002800F0A280681C10D121E0B9F83000DB
:10446000616E21F8020B6166B4F86A000138A4F8A5
:104470006A00B4F86A00002800F08F802068406964
:10448000C007EBD1FCF708F9A0EB0800A842F0D375
:104490003AE000BFFCF700F9B4F86A0000287CD0CD
:1044A00020684069C007F5D0B9F83000616E21F886
:1044B000020B6166B4F86A000138A4F86A00B4F827
:1044C0006A000028ECD168E0002866D0681C11D191
:1044D00033E000BF90F83000616E0870606E01300C
:1044E0006066B4F86A000138A4F86A00B4F86A009B
:1044F000002852D020684169C907EBD1FCF7CCF8FD
:10450000A0EB0800A842F1D3204603F0D9FB00201D
:1045100084F88000D4F8840040F48070C4F88400EB
:10452000012084F88100032001B0BDE8F08300BFC2
:10453000FCF7B2F8B4F86A0078B320684169C9079B
:10454000F6D090F83000616E0870606E01306066E1
:10455000B4F86A000138A4F86A00B4F86A000028C8
:10456000EBD11AE048F2080505E000BFFCF794F82B
:10457000B4F86A0088B1206841692942F6D0006B1E
:10458000616E41F8040B6166B4F86A000138A4F862
:104590006A00B4F86A000028EDD1204603F090FBD1
:1045A000002084F88000012084F88100D4F8840081
:1045B000002818BF012001B0BDE8F0830000000012
:1045C0002DE9F047044690F88000012802D102202E
:1045D000BDE8F0871D4617460E46D4F8009001202E
:1045E00084F88000FCF758F894F88110012909D16B
:1045F000002E18BF002F0BD1002084F8800001206E
:10460000BDE8F087002084F880000220BDE8F08734
:104610008046032084F881000020C4F88400E66509
:10462000A4F86070A4F862706066A4F86800A4F84A
:104630006A00A1682067B1F5C02F6067206805D1C6
:10464000016841F40061016005E000BFC16801221A
:1046500062F35241C16041684FF6FF7291433944A1
:104660004160016841F0010101606168B1F5800FAE
:1046700003D1016841F400710160E16810294DD354
:10468000B4F86200002800F0C780681C0FD132E047
:10469000E16D51F8042B0262E165B4F86200013863
:1046A000A4F86200B4F86200002800F0B580206829
:1046B00041698907ECD4FBF7EFFFA0EB0800A842A3
:1046C000F0D3204603F0FCFA002084F88000D4F8F0
:1046D000840040F48070C4F88400012084F88100D4
:1046E0000320BDE8F08700BFFBF7D6FFB4F86200F7
:1046F000002800F09180206841698907F4D5E16DB8
:1047000051F8042B0262E165B4F862000138A4F8A4
:104710006200B4F862000028EDD17DE0B4F86200D8
:10472000072933D9002877D04FF6FE706E1C471C3E
:1047300010E000BFE16D31F8020BA9F82000384607
:10474000E165B4F862100844A4F86200B4F86200AD
:10475000002861D020684169890709D4FBF79CFFD4
:10476000002EF3D0A0EB0800A842EFD3A9E700BFCA
:10477000B4F862100229DDD3E16B0029DAD0E16DD3
:1047800051F8042B02624FF6FE70D9E7002843D09F
:104790004FF6FE706E1CA0F1020A471C10E000BF2D
:1047A000E16D097880F82010E06D411C3846E16524
:1047B000B4F862100844A4F86200B4F8620058B378
:1047C00020684169890709D4FBF766FF002EF4D001
:1047D000A0EB0800A842F0D373E700BFB4F8621062
:1047E000042909D3E16B412906D3E16D51F8042B6B
:1047F00002625046DBE700BFB4F862100229CFD353
:10480000E16B0029CCD0E16D31F8020BA9F8200052
:104810004FF6FE70CBE700BF681C13D020684069DC
:10482000000713D4FBF738FFA0EB0800A842F5D32C
:10483000D4F8840040F02000C4F8840006E000BFF3
:10484000FBF72AFF206840690007F9D5204603F0EE
:1048500037FA002084F88000012084F88100D4F821
:104860008400002818BF0120BDE8F0870000000088
:10487000411E0020B0EB116F02D00120704700BF35
:104880004EF21002F023CEF2000251604EF6235198
:10489000CEF200010B70072190601160704700009C
:1048A000F0B590F83C20012A02D10220F0BD00BFF3
:1048B000CB6848F2FF7ED1E901C223F47C5322F495
:1048C0007052CFF6F07E1A430CEA0E03D1F800C006
:1048D00042EA030E2CF477230A6943EA0E0322F41A
:1048E00076228D691A434B691A430B6B22F47422AA
:1048F00023F47024D0F800C040F2004E22434CF460
:104900008063C4F2010E42EA0542734502BF22F001
:104910008052CC692243734514D100268D6ACFF6AC
:10492000F04622F07C720C6A06EA05552A4324F010
:1049300000744F6A22433A43734502BF22F000528B
:10494000C96A0A430021CCF8442080F83C1008468C
:10495000F0BD000000000000B0B590F83C20012A36
:104960004FF0020263D080F83D2040F2004C026814
:10497000C4F2010C42F4806363455368D2F808E046
:1049800002BF23F470034C6823434DF6FF740D6897
:10499000C4F2000423F07003A24243EA050353600B
:1049A00014DC40F2FF73C4F200039A4222DD40F6A9
:1049B0000003C4F200039A422ED040F60043C4F232
:1049C00000039A4228D041F6000321E04FF6FF731E
:1049D000C4F200039A4213DD0023C4F201039A4299
:1049E0001AD044F20003C4F201039A4214D0624583
:1049F00012D016E0B2F1804F0ED040F2004307E033
:104A00004EF20003C4F200039A4205D04EF2004376
:104A1000C4F200039A4204D12EF08003896819433E
:104A200091600022012180F83D1080F83C20104662
:104A3000B0BD00000000000051B1082910D00429C9
:104A400016D100F145021278012A0ED115E000BFFF
:104A500090F84420012A08D1022280F844201BE06B
:104A600000F146021278012A07D00120704700BFEA
:104A700000F147021278012AF7D10222082905D055
:104A8000042907D180F8452006E000BF80F84620C1
:104A900002E000BF80F84720026801F01F000421F7
:104AA00001FA00F0116A81431162116A0843106231
:104AB0004DF6FF70516CC4F20000824241F4004098
:104AC000506419DC40F2FF70C4F2000082422BDD1A
:104AD00040F60000C4F2000082423BD040F60040A5
:104AE000C4F20000824235D041F60000C4F200005A
:104AF00082422FD03AE000BF4FF6FF70C4F20000B0
:104B000082421BDD0020C4F20100824222D044F226
:104B10000000C4F2010082421CD040F20040C4F206
:104B20000100824216D021E0B2F1804F12D040F253
:104B30000040C4F2000082420CD017E04EF20000A8
:104B4000C4F20000824205D04EF20040C4F20000E0
:104B500082420BD107219068C0F201010140002080
:104B6000062918BFB1F5803F00D17047106840F0AA
:104B700001001060002070472DE9F04190F83C30B2
:104B8000012B03D10220BDE8F08100BF4FEAB20241
:104B9000052A31D8DFE812F0060038007600B400AC
:104BA000DA000001036843F6FF76C4F201061A6AD0
:104BB000B34222F001021A621A461C6AD3F804E0DA
:104BC00024F0020452F818CF8D6844EA0504D1F8A5
:104BD000008040F3078144F20007C4F20107BB42A2
:104BE00000F00B8144F60007C4F20107BB4200F05D
:104BF000048144F20047FCE00121002280F83C20BF
:104C00000846BDE8F08100BF036840F2004E43F45F
:104C10008067C4F2010E1A6A774522F010021A6208
:104C20001A461C6A5D6824F0200452F818CF8E687A
:104C300044EA061407D1CE686FF0400724F0C004A0
:104C400007EA0616344343F6FF76D1F80080C4F233
:104C50000106B34240F3EC8044F20007C4F20107BE
:104C6000BB4200F0EC8044F60007C4F20107BB42EF
:104C700000F0E58044F20047C4F20107BB4200F0B7
:104C8000DE80E3E0036840F2004E43F48067C4F244
:104C9000010E1A6A774522F480721A621A461C6A5B
:104CA0005D6824F4007452F81CCF8E6844EA062430
:104CB00007D1CE6840F2FF47360224F44064BE4379
:104CC000344343F6FF76D1F80080C4F20106B342C4
:104CD00040F3D48044F20007C4F20107BB4200F065
:104CE000D48044F60007C4F20107BB4200F0CD8037
:104CF00044F20047C4F20107BB4200F0C680CBE09B
:104D0000036843F6FF77C4F201071A6ABB4222F434
:104D100080521A621A46D3F820C05C6852F81C6FA1
:104D20000D68D1F808E040F3CF8044F20007C4F2E8
:104D30000107BB4200F0D38044F60007C4F201072C
:104D4000BB4200F0CC8044F20047C4E0036843F665
:104D5000FF77C4F201071A6ABB4222F480321A625A
:104D60001A46D3F820C05C6852F8546F0D68D1F829
:104D700008E040F3D38044F20007C4F20107BB42CD
:104D800000F0D78044F60007C4F20107BB4200F0F0
:104D9000D08044F20047C8E0036843F6FF77C4F2CE
:104DA00001071A6ABB4222F480121A621A46D3F82B
:104DB00020C05C6852F8546F0D68D1F808E040F3E9
:104DC000D98044F20007C4F20107BB4200F0DD8045
:104DD00044F60007C4F20107BB4200F0D68044F25B
:104DE0000047CEE00027C4F20107BB4205D040F2E5
:104DF0000047C4F20107BB4205D1CF6824F00C0480
:104E000027F004073C43B34240F3E28044F200063B
:104E1000C4F20106B34200F0E68044F60006C4F294
:104E20000106B34200F0DF8044F20046D7E000BF45
:104E30000027C4F20107BB4201D0734506D1D1E976
:104E40000576374325F4406646EA870548F6FF476E
:104E50005D60CFF6FF6707EA0C0747EA08279F6106
:104E60004F6809699F631C629F6947F400679F61EF
:104E70009F6927F480679F61A7E000BF0027C4F205
:104E80000107BB4201D0734506D1D1E9057637430E
:104E900025F4405646EA07154FF68C775D60CFF64D
:104EA000FE7707EA0C0747EA0807DF614F680969E0
:104EB000DF631C62DF6947F00807DF61DF6927F005
:104EC0000407DF61ADE000BF0027C4F20107BB4269
:104ED00005D040F20047C4F20107BB4204D14F693C
:104EE00024F4804444EA871448F6FF475C60CFF618
:104EF000FF673E402CF4005746EA0524DC614E680B
:104F000009691E6447EA0E371F62DF6947F40067CC
:104F1000DF61DF6927F48067DF6156E00027C4F2B4
:104F20000107BB4205D040F20047C4F20107BB4273
:104F300004D14F6924F4803444EA07244FF68C7777
:104F40005C60CFF6FE7703373E402CF4003746EA2C
:104F500005045C654E6809699E6547EA0E471F6255
:104F60005F6D47F008075F655F6D27F004075F65B9
:104F700057E000BF0027C4F20107BB4205D040F252
:104F80000047C4F20107BB4204D14F6924F48024D6
:104F900044EA872448F6FF475C60CFF6FF6707F5D1
:104FA00040773E402CF4001746EA05245C654E68C5
:104FB0000969DE6547EA0E571F625F6D47F40067B7
:104FC0005F655F6D27F480675F65090229E000BFB8
:104FD0000026C4F20106B34205D040F20046C4F2F6
:104FE0000106B34206D12EF44077D1E90565374377
:104FF00047EA050E4FF68C75C3F804E0CFF6FE7550
:105000000CEA050747EA08079F614F6809695F6373
:105010001C629F6947F008079F619F6927F004079A
:105020009F611368194311600021002280F83C2021
:105030000846BDE8F081000060B310B5044690F862
:105040003D0028B9002084F83C00204600F024F8F8
:10505000022084F83D002068211D04F025F801207D
:1050600084F8480084F83E0084F83F0084F840004B
:1050700084F8410084F8420084F8430084F8440036
:1050800084F8450084F8460084F8470084F83D0021
:10509000002010BD0120704781B000210068C4F2DB
:1050A0000101884202D001B0704700BF44F2F040D5
:1050B000C5F60200016841F001010160006800F0DE
:1050C00001000090009801B070470000000000004F
:1050D000FEE70000000000002DE9F04F03AF8FB0A5
:1050E0004FF008080C2B08BF4FF006081C468A46F4
:1050F00008FB03F347F8380C40F274010720C2F2B2
:105100000041164600EB430047F840DC20F0070062
:105110000988ADEB000047F8301CD7F8189047F825
:105120001C0C854640F2A01BA7F11801C2F2004BEF
:105130000BF10805284603F0C3F9A7F1140128462E
:1051400047F8445C03F0C4F9B9F1000FA6F120035D
:1051500000F03881002C00F0AF82D9B240F2740028
:10516000C2F2004057F814BC57F838CC55460088B6
:1051700002BA100C47F82C0C4A0057F8180C47F8E4
:10518000280C52FA83F042F6A962C0F6010247F8F1
:10519000200C02EB01100021002247F8240C00BF74
:1051A00042F635260C2C57E90930C0F601064FEAC5
:1051B000510E08BF06EB80035B56B3F1FF3F0ADCDC
:1051C00096B257F81C0C08FB06F600EB460657F89B
:1051D0002C0C26F81E000132002096B2A64205F1E2
:1051E0000106B6B228BF0246B34540F27182A6EB73
:1051F0000A06A64200F0D6805FFA83F95FEA4963A7
:105200000AD593B257F81C0C08FB03F300EB4303D9
:1052100057F82C0C23F81E000132002093B2A34251
:1052200005F102039BB228BF02469B4540F2508223
:10523000A3EB0A03A34200F0B5805FEA89630AD5B5
:1052400093B257F81C0C08FB03F300EB430357F829
:105250002C0C23F81E000132002093B2A34205F16A
:1052600003039BB228BF02469B4540F23182A3EB69
:105270000A03A34200F096805FEAC9630AD593B29D
:1052800057F81C0C08FB03F300EB430357F82C0CF6
:1052900023F81E000132002093B2A34205F104035B
:1052A0009BB228BF02469B4540F21282A3EB0A0341
:1052B000A34277D05FEA09730AD593B257F81C0C62
:1052C00008FB03F300EB430357F82C0C23F81E00F4
:1052D0000132002093B2A34205F105039BB228BF1F
:1052E00002469B4540F2F481A3EB0A03A34259D046
:1052F0005FEA49730AD593B257F81C0C08FB03F315
:1053000000EB430357F82C0C23F81E000132002059
:1053100093B2A34205F106039BB228BF02469B4508
:1053200040F2D681A3EB0A03A3423BD05FEA897324
:105330000AD593B257F81C0C08FB03F300EB4303A8
:1053400057F82C0C23F81E000132002093B2A34220
:1053500005F107039BB228BF02469B4540F2B88186
:10536000A3EB0A03A3421DD05FEAC9730AD093B22C
:1053700057F81C0C08FB03F300EB430357F82C0C05
:1053800023F81E000835ABB29B4540F2A1810132E3
:10539000A3EB0A0396B20020A64228BF0246A3420E
:1053A0000AD100BF0CF1010C57F8280C1FFA8CF33E
:1053B0005546984240F28C8101318C427FF4F0AE28
:1053C0007AE100BF002C00F07781DAB2BBF8000070
:1053D0004FF0000B4FF0000957F838CC554600BA93
:1053E000000C47F8200C57F8300C40BA47F8240C52
:1053F00057F8140C47F8280C57F8180C47F83C0CD1
:10540000500050FA83F047F82C0C42F6A960C0F621
:10541000010000EB021047F8340C00BF42F63522C1
:1054200057F8340C57F82C1CC0F601020C2C2BF04A
:10543000010E08BF02EB81001FFA89F209F1010990
:1054400010F90B3008FB02F257E909101FFA89F630
:10545000002B48BF084657F81C1CA64205F1010660
:10546000B6B201EB42024FF0000128BF894657F85F
:10547000281C22F80E00B14240F22A81A6EB0A0154
:10548000A14200F0FB801FFA89F009F10109DBB2AB
:1054900008FB00F258064FF0000657E9091048BF14
:1054A000084657F81C1C4FEA5B0E01EB42011FFA3D
:1054B00089F2A24205F1020292B228BFB14657F822
:1054C000286C21F81E00964240F20281A2EB0A01EC
:1054D000A14200F0D3801FFA89F009F1010908FB0D
:1054E00000F1980657E9092048BF104657F81C2CD0
:1054F000002602EB41011FFA89F2A24205F10302E4
:1055000092B228BFB14657F8286C21F81E00964287
:1055100040F2DE80A2EB0A01A14200F0AF801FFA48
:1055200089F009F1010908FB00F1D80657E90920C3
:1055300048BF104657F81C2C002602EB41011FFA09
:1055400089F2A24205F1040292B228BFB14657F88F
:10555000286C21F81E00964240F2BA80A2EB0A01A4
:10556000A14200F08B801FFA89F009F1010908FBC4
:1055700000F1180757E9092048BF104657F81C2CBE
:10558000002602EB41011FFA89F2A24205F1050251
:1055900092B228BFB14657F8286C21F81E009642F7
:1055A00040F29680A2EB0A01A14267D01FFA89F06F
:1055B00009F1010908FB00F1580757E9092048BF24
:1055C000104657F81C2C002602EB41011FFA89F205
:1055D000A24205F1060292B228BFB14657F8286CE4
:1055E00021F81E00964273D9A2EB0A01A14245D0D0
:1055F0001FFA89F009F1010908FB00F1980757E942
:10560000092048BF104657F81C2C002602EB410128
:105610001FFA89F2A24205F1070292B228BFB146F1
:1056200057F8286C21F81E00964251D9A2EB0A01C6
:10563000A14223D01FFA89F1D80757F8240C08FBA0
:1056400001F157F8202C09F1010908BF10461FFA93
:1056500089F257F81C3C0835A2424FF0000203EBD8
:105660004101ABB228BF914657F8282C21F81E0003
:105670009A422DD9A3EB0A01A14213D10CF1010CDE
:1056800057F83C2C1FFA8CF155468A4240F27401BF
:10569000C2F2004108801BD90BF1010B5C457FF47D
:1056A000BDAE09E040F27401C2F2004108800BF186
:1056B000010B5C457FF4B2AE6DE9028457F8440CEF
:1056C00057F8381C524657F81C3C02F049FD02B00E
:1056D00040F2740057F8301CC2F20040018057F8C5
:1056E00040DCA7F10C04A546BDE8F08F00000000E7
:1056F0002DE9F04F83B00D9F3E78A6F12005EDB265
:105700005E2D2AD80C468046104419440C9D013762
:105710001FFA80F9C2461FFA81FB6A08029200BF95
:105720001FFA8AF0484528BF2C44A1B2594514D22B
:10573000F2B2484528BF5FFA88FA002300931FFAA7
:105740008AF02B46FFF7C8FC17F8016BA6F1200082
:10575000C0B25F2802988244E2D303B0BDE8F08F64
:105760002DE9F04F81B02DED048B8AB040F2F0149A
:1057700040F2A018C2F20044C2F2004808F1080644
:1057800040F27C1140F600050320A0604FF48070C9
:10579000A081C2F200413046C5F6020503F050F97F
:1057A00040F278070521C2F20047304622463B68A6
:1057B0009847BA6808F104013046904742F2143B1A
:1057C0004FF00008C2F2004B4CF2EC53C0F600035D
:1057D0000021DBF800000022C0F838803046BF6AA4
:1057E0000496B847FAF758FF07464FF40051284689
:1057F000FAF732FF012800F0AA804FF6184044F66D
:10580000D356CFF6FF7005A9A0EB070A4FF0640945
:10581000C1F26206481C0290CDF80CA010E000BF57
:1058200004FB09F0A0FB0601DBF800008909816395
:105830004FF400512846FAF70FFF012800F0878047
:105840000A20FAF71DFEFAF727FFC41BFAF724FF18
:10585000B4F57A7FA0EB0704E2D9FAF71DFF40F612
:10586000B8318C426AD84CF6CD415044CCF6CC418C
:10587000A0FB010105A8CA08C1A106F0CDFB9DF857
:105880001420A2F12000C0B25E2829D840F2F01006
:105890000125C2F20040DDF808900088A0F11E0B3F
:1058A0000BEB000A5C4600BF1FFA8AF0A3B28342EA
:1058B00028BF1035A9B2102912D8D2B2834228BF0E
:1058C0005FFA8BF41023CDF80080A0B2FFF704FC40
:1058D00019F8012B0834A2F12000C0B25F28E3D3ED
:1058E00040F2F01640F27801C2F20046C2F20041E6
:1058F00070688D6BC41EFAF7CFFE3168DDF80CA01E
:10590000504444F6D3564843C1F262062246A0FBF7
:105910000601032000904FF6FF70CB090021019093
:105920000498A84742F2143B40F60005C2F2004B2F
:10593000C5F602054FF064097AE700BFC01B884234
:105940007FF676AF03E000BF0A20FAF799FD4FF427
:1059500000512846FAF780FE0128F5D0DBF8000058
:10596000806B10B300EE100AB8EE408A9FED860AF5
:1059700088EE009AFAF790FE064600BF0120FAF77B
:105980007FFDFAF789FE801BB0EE481A00EE100A80
:10599000DBF80010B0F5967FB8EE400AA0EE091AC9
:1059A000BCEEC10A81ED0E0AE8D340F2780040F265
:1059B000F014C2F20040C2F2004400210022876BC2
:1059C0004FF00008D4E9003000900498CDF804802E
:1059D000B84746F257504FF00409C6F241300590DF
:1059E00042F274005722C7F25340069046F27540C7
:1059F0000127C6F66970079020880DF1140A042665
:105A0000042404308DF8208085B200BFB0B2A842D3
:105A100028BF1034A1B2132912D8D2B2A84228BF8D
:105A20004E461023CDF80080B0B2FFF755FB1AF8B0
:105A3000072008360137A2F12000C0B25F28E5D365
:105A4000FAF722FE05AC024650A1204606F0E4FA21
:105A50009DF81420A2F12000C0B25E2827D840F2A1
:105A6000F0100134C2F2004016264FF004084FF047
:105A7000000900880427043085B200BFB8B2A842EC
:105A800028BF1036B1B2252911D8D2B2A84228BFFA
:105A900047461023CDF80090B8B2FFF71DFB14F86D
:105AA000012B0837A2F12000C0B25F28E6D340F2F4
:105AB000A01005ACC2F2004038A14268204606F0B2
:105AC000ABFA9DF81420A2F12000C0B25E2826D8BF
:105AD00040F2F0100134C2F2004028264FF00408D2
:105AE0004FF0000900880427043085B2B8B2A842FC
:105AF00028BF1036B1B2372911D8D2B2A84228BF78
:105B000047461023CDF80090B8B2FFF7E5FA14F835
:105B1000012B0837A2F12000C0B25F28E6D3DBF8E2
:105B20000000806B642825D000EE100A9FED1F1A3C
:105B3000B8EE408A9FED1C0A38EE000A80EE019A0A
:105B4000FAF7AAFD044600BF0120FAF799FCFAF71C
:105B5000A3FD001BB0EE481A00EE100ADBF800109F
:105B6000C828B8EE400AA0EE091ABCEEC10A81EDC1
:105B70000E0AE9D30AB0BDEC048B01B0BDE8F08F8A
:105B80002530336400000000000096C353544D33A9
:105B90003248377878203078255800004C4344202C
:105BA00049443A30782558000000C8C2000048C374
:105BB00070B50446D0F8D40204EB8000D0F8C0528F
:105BC000002D08BF70BD41F2180028440179D9B1F9
:105BD00040F214062046C2F20046317803F084FFFA
:105BE000687A02280ED13178204603F07DFF40F21A
:105BF0001500C2F2004001782046BDE8704003F075
:105C000073BF00BF70BD00BF00680028E0D0687A95
:105C10000028DDD140F21500C2F200400178204694
:105C200003F062FFD4E70000B0B50446D0F8D40218
:105C300004EB8000D0F8C052002D08BFB0BD687AD8
:105C4000022811D140F21400C2F20040017820462F
:105C500003F04AFF40F21500C2F2004001782046EE
:105C6000BDE8B04003F040BF49B2B1F1FF3F25DCD1
:105C7000012823D041F230000D232A1845F2553077
:105C8000C5F2423010600120107340F21400C2F2DD
:105C90000040017800202872204603F05DFF40F2AA
:105CA00015001F23C2F20040017841F210002A18AB
:105CB0002046BDE8B04003F067BE00BFB0BD0000A5
:105CC000B0B50446D0F8D40204EB8000D0F8C0523E
:105CD000ADB3287AC11E022922D241F230002A181F
:105CE00045F25530C5F2423010600020107340F28A
:105CF00014000D23C2F200400178002028722046D3
:105D000003F02AFF40F215001F23C2F20040017881
:105D100041F210002A182046BDE8B04003F034BE1E
:105D200002280CD141F21D002844017841F21F00E5
:105D30002A18204601F0DCF9B0F1FF3F00DDB0BDCC
:105D4000D4F8D40204EB8000D0F8C052002D08BF74
:105D5000B0BD41F230002A1845F25530C5F242304C
:105D6000106001201073C2E7F0B581B00446D0F88E
:105D7000D40204EB8000D0F8C052002D5AD0287A0B
:105D800041F210016F1801284AD0002852D140F288
:105D90001506C2F20046D7E90101C7E909013178C9
:105DA000204603F061FD1F280ED145F255313868B9
:105DB000C4F24231884207D1797B012904D8B87BEB
:105DC000113810F1110F71D8797B0522202320465C
:105DD00001F052FFD4F8D40204EB8000D0F8C07276
:105DE0000220687237B341F2180038440179002963
:105DF00050D040F214052046C2F20045297803F045
:105E000073FE787A022815D12978204603F06CFEBB
:105E10003178204601B0BDE8F04003F065BE00BF18
:105E2000797B41F21F002A18204601F061F9B0F198
:105E3000FF3F01DD01B0F0BDD4F8D40204EB8000D7
:105E4000D0F8C052002DF5D041F230000D232A18B1
:105E500045F25530C4F2423000F18050106001200C
:105E6000107340F21400C2F2004001780020287242
:105E7000204603F071FE40F215001F23C2F20040DD
:105E8000017841F210002A18204601B0BDE8F04028
:105E900003F07ABD00680028ABD0787A0028A8D13A
:105EA0003178204603F020FEA3E700BF41F21F0037
:105EB0002A18204601F01CF9297AB0F1FF3F0DDDC8
:105EC000481E0328B6D3EA6892B105F110012046B6
:105ED00001B0BDE8F04000F0A7B800BF052901D12E
:105EE000012106E0204601B0BDE8F040FFF760BEAA
:105EF0000021204601B0BDE8F04000F065B8000088
:105F0000D0F8D41200EB8100D0F8C00200281CBFEA
:105F1000002101727047000070B50446D0F8D40229
:105F200004EB8000D0F8C052002D08BF70BD05F50D
:105F3000835100222A810A80D0F8C4028A70016845
:105F40000020884740F215062046C2F2004631780C
:105F500003F076FC40F21400C2F2004001782046C3
:105F600003F06EFC317841F210002A181F232046FE
:105F7000BDE8704003F008BD70B50446D0F8D40207
:105F800004EB8000D0F8C052002D08BF70BD40F275
:105F90001400C2F2004001784FF48070288120463E
:105FA00003F076FB40F215062046C2F20046317837
:105FB00003F06EFB317841F210002A181F232046AF
:105FC000BDE8704003F0E0BCB0B50446D0F8D402A0
:105FD00004EB8000D0F8C052002D08BFB0BD41F2E4
:105FE00030000D232A1845F25530C5F242301060BA
:105FF00040F21400C2F200401173017800202872B0
:10600000204603F0A9FD40F215001F23C2F2004014
:10601000017841F210002A182046BDE8B04003F094
:10602000B3BC00000000000010B5D0F8D43200EB83
:106030008303D3F8C0E2BEF1000F08BF10BD8C4649
:1060400041F2180171440C6A0B68A41A0C62002416
:1060500081F8244040F21401C2F20041934228BF6B
:106060001346097804228EF808206246BDE81040E5
:1060700003F072BD000000002DE9F04387B044F248
:10608000E0404FF00009C5F60200CDF8189040F648
:10609000004400220168C5F6020441F010010160CD
:1060A000016804F5806501F0100101910199016812
:1060B00041F00401016001684FF4205601F0040131
:1060C00001910199016841F080010160016801F0CE
:1060D000800101910199016841F0020101600168AC
:1060E00001F0020101910199016841F0080101608C
:1060F000016801F0080101910199016841F0010175
:10610000016000684FF4205100F0010001900198F7
:106110002846FAF7B1FA4021002220464FF0400805
:10612000FAF7AAFA029602AE284631460127CDF8C0
:106130001490CDE90379FAF7B7F920463146CDE955
:106140000287CDE90499FAF7AFF907B0BDE8F0830B
:1061500010B586B041F6784045F20002C2F2004028
:106160000021CDE90411CDE90211CDE90011C5F2FC
:10617000002202600124C160C0E9014117220261CE
:1061800002224262C0E90521C0E907414FF0804286
:106190000163C0E90A210822C163C0E90D21FAF7B1
:1061A000EFFF08B1FAF764F94FF00110039041F6E0
:1061B00078406946C2F2004041F28832009402946D
:1061C000FAF792FB08B1FAF753F906B010BD0000D8
:1061D00010B586B042F2E01044F20001C2F2004075
:1061E0000024CDE90244CDE90044C5F60001C461B4
:1061F000C0E900147F218160FF21C0E90314C0E9D8
:106200000544FDF725FD08B1FAF732F942F2E01036
:1062100001A9C2F200400122ADF804408DF8064009
:10622000CDE90444FDF750FE08B1FAF721F940F238
:1062300001106946C2F20130009042F2E0100122E2
:10624000C2F20040FDF798FD08B1FAF711F906B067
:1062500010BD00000000000010B542F2042443F21B
:106260000000C2F20044C4F20100072120604FF494
:10627000800060600020A060C4E9031060614FF0FE
:106280008061A1614FF08051C4E90710C4E90900A1
:10629000E0624FF08040606304F138002421FAF797
:1062A00038F82046FDF7D4FE002808BF10BDBDE831
:1062B0001040FAF7DDB8000010B542F28C2443F22A
:1062C0000040C2F20044C4F201004FF0806120603F
:1062D0004FF4800060604FF4C020A0600720E060B1
:1062E0000020C4E90400A1614FF00051C4E9071087
:1062F000C4E90900E0624FF08040606304F13800B7
:106300002421FAF706F82046FDF7A2FE002808BF70
:1063100010BDBDE81040FAF7ABB800000000000067
:10632000B0B59CB00025684634210024CDE9124464
:10633000CDE91044CDE90E44C4F201050D94F9F7FE
:10634000E8FF42F214300D21C2F200400560C0E9BE
:10635000011440F2E731C0E90314C0E90544FEF737
:106360006BFE08B1FAF784F842F2143014A9C2F2B5
:1063700000401694CDE91444FEF7EEFA08B1FAF79E
:1063800077F860200D9000240820CDE9100442F237
:1063900014300DA9C2F200400422CDE90E44CDE92B
:1063A0001244FEF7E9FB08B1FAF762F804944FF4DF
:1063B0000050CDE90244CDE90044CDE9050408943C
:1063C0004FF00070CDE909040C9442F21434C2F28B
:1063D000004469462046FEF763FA08B1FAF748F828
:1063E0002068A84202D01CB0B0BD00BF44F2E0401B
:1063F000C5F60200016841F010010160006817A9AC
:1064000000F01000179017984FF48060179002204A
:1064100018900020CDE9190001201B9041F20000E6
:10642000C5F60200FAF740F81CB0B0BD000000004D
:1064300080B505F0B5F900F02FF941F69C1040F257
:106440001801C2F20040C2F20041012203F00CF92F
:1064500008B1FAF70DF841F69C1040F2DC01C2F2E7
:106460000040C2F2004103F01FFD08B1FAF700F846
:1064700041F69C1040F24011C2F20040C2F20041CD
:1064800003F07AFC08B1F9F7F3FF41F69C10C2F271
:10649000004003F035FD08B1F9F7EAFFBDE88040A0
:1064A000FCF792B900000000FEE7000000000000C9
:1064B000FEE70000000000002DE9F0470368826855
:1064C0001F68002A27F040521A600DD00A68032A7C
:1064D00013D0022A1AD103F5C07E03F5C47203F566
:1064E000C87C03F5D07419E01A684F6822F0800266
:1064F0003A431A600A68032AEBD103F5A07E03F53C
:10650000A47203F5A87C03F5B07407E003F5807E60
:1065100003F5847203F5887C03F59074D1E9125673
:106520003543CEF80050CD6A6DB18D6A2560DEF836
:106530000040CD6A24F47C144E6B2C430D6B344325
:106540002C43CEF8004014684D6C24F01F042C43FB
:1065500014608A6B0AB10C6804B3CD68CC6925B3AA
:10656000DEF80060D1E90487A4B3002AD1E9089AD3
:1065700048D04CF2C000CFF2FF0030400E6C3043E8
:10658000384340EA080040EA0A0040EA09001043A4
:1065900028432043CEF8000050E000BFCC6B013C04
:1065A0001C64CD68002DCC69DAD1002C4ED0DEF809
:1065B0000060002AD1E908074ED04CF2C005CFF2A6
:1065C000FF053F352E400D6C2E43374338431043B3
:1065D00046E000BF002A4BD04CF2C0000B6CCFF25B
:1065E000FF0000F57C5030401843384340EA080073
:1065F00010432843CEF800008868CCF80000002043
:10660000BDE8F08743F63F7226EA02023A4342EAC7
:10661000080242EA0A0242EA09022A432243CEF869
:106620000020C06AB0F1805F08D14869082805D110
:10663000DEF8000040F00060ACE700BF8868CCF8EE
:106640000000886998640020BDE8F0870821416552
:106650000120BDE8F08700BF26F47C523A43104386
:106660002043CEF80000886998640020BDE8F087D8
:1066700026F03F023A4342EA08022A43CEF80020BD
:10668000C06AB0F1805FB7D148690828B4D1DEF89C
:10669000000040F00060ADE72DE9F04F95B0052017
:1066A000F9F7EEFE01AD44212846F9F732FE41F636
:1066B000784B41F28832C2F2004B294658464FF0DF
:1066C0000309CDF810904FF06608CDF80C80002734
:1066D000CDE912771497FAF7ABFC01AD44212846B7
:1066E000F9F717FE41F2883258462946CDF8109046
:1066F0004FF0990ACDF80CA0CDE912771497FAF76C
:1067000097FC01AD44212846F9F703FE41F2883297
:10671000584629460126CDE90386CDE9127714971C
:10672000FAF786FC01AD44212846F9F7F2FD41F263
:106730008832584629461497CDE903A6CDE9127749
:10674000FAF776FC0520F9F79BFE40F2E01801AD60
:10675000C2F2004803243821284698F80060002E31
:1067600008BF0124F9F7D5FD4FF0407104949F2034
:10677000002E039041F2883208BF4FF080715846D6
:10678000CDE90F192946CDE91177CDE91377FAF74D
:106790004FFCD8B941F678400DF10101C2F200403A
:1067A00041F28832FAF714FE80B99DF801009DF895
:1067B00002109DF80320090241EA00401044C8F885
:1067C000040008F1010000F02FF928B14FF0FF306C
:1067D00015B0BDE8F08F00BF00F0A2F8002818BF88
:1067E0004FF0FF3015B0BDE8F08F00000000000052
:1067F0002DE9F043ADB040F2E0138046C2F2004311
:1068000000260D9691461C780C960B960F46204656
:106810000A9605F02DF903250096002C019608BF75
:1068200001250220002C03956946059641F2883225
:1068300008BF3220049602904FF4407008BF4FF416
:106840008070099607904FF4005008904FF0407008
:10685000CDE90E0941F678400697C2F200400B964A
:1068600011961096CDE91266FAF7E2FBB8BB41F635
:10687000784041F28832C2F200404146FAF774FE95
:1068800068BB05201B904FF4005021904FF04070E2
:106890000026CDE92566CDE92366CDE91666CDE96A
:1068A0001466CDE918661A96002C1E9619A9CDE932
:1068B0001C56CDE91F66229641F2883208BF4FF080
:1068C000807029960124279041F67840C2F200405A
:1068D0002894CDE92A662C96FAF7AAFB20B14FF04E
:1068E000FF302DB0BDE8F0830A2018904FF48000EF
:1068F000179041F6784014A9C2F2004041F2883264
:10690000CDE914641696FAF7FFFAC0B2002818BF52
:106910004FF0FF302DB0BDE8F08300000000000014
:10692000F0B597B040F2E010C2F200400478012CBC
:1069300032D002AD032638212846002C08BF01269C
:10694000F9F7E7FC4FF040770596352004904FF4B7
:106950000050002C0A904FF0000008BF4FF08077E5
:1069600012900121CDE91300159041F67840119164
:10697000C2F2004041F2883229461097FAF758FBDC
:1069800050B941F678400DF10701C2F2004041F2E2
:106990008832FAF71DFD18B14FF0FF3017B0F0BD87
:1069A0009DF8070080073BD4204605F061F80028D9
:1069B000F2D19DF8070002AC382140F002008DF8BA
:1069C00007008DF85B002046F9F7A3FC3120049006
:1069D0004FF400500A9000201290CDE9130015905A
:1069E00041F6784001211191C2F2004041F2883213
:1069F000214605961097FAF71BFB0028CCD141F6EB
:106A000078400DF15B01C2F2004041F28832FAF7A2
:106A1000ABFDC0B2002818BF4FF0FF3017B0F0BD7B
:106A2000002017B0F0BD00002DE9F04194B040F215
:106A3000E0186D46C2F2004803260446382198F853
:106A400000702846002F08BF0126F9F762FC4FF0BE
:106A500040710396052002904FF40050002F0890DB
:106A60004FF0000008BF4FF08071109041F2883263
:106A7000CDE91100139041F678400E9101210F915C
:106A8000C2F200402946FAF7D3FA002868D141F64D
:106A9000784041F28832C2F200402146FAF798FC71
:106AA00000285DD198F800606D46032738212846FC
:106AB000002E08BF0127F9F72CFC4FF04071039717
:106AC000352002904FF40050002E08904FF0000047
:106AD00008BF4FF08071109041F28832CDE911006B
:106AE000139041F678400E9101210F91C2F20040BF
:106AF0002946FAF79DFA98BB41F67840611CC2F22C
:106B0000004041F28832FAF763FC48BB98F8006015
:106B10006D46032738212846002E08BF0127F9F7C4
:106B2000F8FB4FF040710397152002904FF400508E
:106B3000002E08904FF0000008BF4FF080711090B9
:106B400041F28832CDE91100139041F678400E9160
:106B500001210F91C2F200402946FAF769FA28B1E3
:106B60004FF0FF3014B0BDE8F08100BF41F678402F
:106B7000A11CC2F2004041F28832FAF729FCC0B2EF
:106B8000002818BF4FF0FF3014B0BDE8F0810000BE
:106B900010B594B040F2E0130324C2F2004393F81E
:106BA00000C00B23BCF1000F08BF0124BCF1000F93
:106BB00003944FF0080408BFEB23BCF1000F0293CD
:106BC0004FF4407307934FF4005308934FF440334E
:106BD0000B934FF0FF030A934FF0407308BF042458
:106BE0000E9300231194044641F678400691CDE9B6
:106BF0000F23C2F20040694641F288320993CDE981
:106C00000033CDE90433CDE90C3312931393FAF733
:106C10000FFA18B14FF0FF3014B010BD41F67840B4
:106C200041F28832C2F200402146FAF7D1FB002837
:106C300018BF4FF0FF3014B010BD0000000000007E
:106C40002DE9F041AEB040F2E0110546C2F200413C
:106C50000026CDE910660C780D96CDE90E6620462B
:106C60000C960B9604F004FF03270196002C029665
:106C700008BF0127202003904FF440700497069628
:106C8000002C059601A908BF4FF4807041F28832AC
:106C90000A96089041F67840C2F200404FF400583E
:106CA000CDF8248007950C960F96CDE912661496C0
:106CB000FAF7BEF958BB05201C904FF040701B96A8
:106CC000CDE92666CDE92466CDE91766CDE91566DE
:106CD000CDE919661F96002CCDE91D76CDE9206619
:106CE000CDF888801AA9239641F2883208BF4FF068
:106CF00080702A960124289041F67840C2F2004024
:106D00002994CDE92B662D96FAF792F920B14FF030
:106D1000FF302EB0BDE8F08100201790CDE91504BA
:106D20000A2019904FF48000189041F6784015A978
:106D3000C2F2004041F28832FAF7E6F8C0B2002809
:106D400018BF4FF0FF302EB0BDE8F081000000000A
:106D5000F0B581B00C461546C9B20646C1F5807142
:106D6000914228BF11468FB221463A46FFF740FDB7
:106D700060B9BD420ED0ED1B3E443C442F46B5F5F4
:106D8000807F304628BF4FF48077EDE74FF0FF302B
:106D900001B0F0BD002001B0F0BD00000000000017
:106DA00041F6D440C2F20040FAF79ABE000000005B
:106DB0007047000000000000F0B581B044F22C479D
:106DC000C5F6020757F8042C02F00302032A03D188
:106DD000012001B0F0BD00BF054657F82C0C0C4651
:106DE00020F0806047F82C0CF9F756FC064600BFEF
:106DF00057F82C0C000105D5F9F74EFC801B022832
:106E0000F6D964E057F8040CEE6895E80E0020F41B
:106E10007C30012C40EA0130A2F101016FF35F21C7
:106E20004FF47E4202EB432247F8040C92B24FF03B
:106E3000FE4302EB01004FF4FE012A6901EB06411B
:106E400001F4FE0103EB0262084402F0FE41084433
:106E5000F8603868696920F0C00040EA01003860D5
:106E60003868A96920F0200040EA010038603868DD
:106E70004FF6F87120F0100038603869EA6920EAAE
:106E800001004FF4001140EAC2003861386808BFC1
:106E90004FF4801140F01000002C386008BF4FF410
:106EA000002138680843386057F82C0C40F08060A7
:106EB00047F82C0CF9F7F0FB044600BF57F82C0CF0
:106EC000000107D4F9F7E8FB001B0328F6D30320E1
:106ED00001B0F0BD002001B0F0BD000000000000D6
:106EE000F0B581B044F22C47C5F6020757F8042CE0
:106EF00002F00302032A03D1012001B0F0BD00BF5C
:106F0000054657F82C0C0C4620F0805047F82C0C06
:106F1000F9F7C2FB064600BF57F82C0C800005D5D8
:106F2000F9F7BAFB801B0228F6D964E057F8040C85
:106F3000EE6895E80E0020F07C70012C40EA0150CC
:106F4000A2F101016FF35F214FF47E4202EB432275
:106F500047F8040C92B24FF0FE4302EB01004FF4ED
:106F6000FE012A6901EB064101F4FE0103EB026216
:106F7000084402F0FE41084478613868696920F4E9
:106F8000406040EA010038603868A96920F4007068
:106F900040EA0100386038684FF6F87120F48070DC
:106FA0003860B869EA6920EA01004FF0807140EA70
:106FB000C200B861386808BF4FF4000140F4807027
:106FC000002C386008BF4FF48001386808433860EF
:106FD00057F82C0C40F0805047F82C0CF9F75CFB6C
:106FE000044600BF57F82C0C800007D4F9F754FB77
:106FF000001B0328F6D3032001B0F0BD002001B030
:10700000F0BD00000000000070B544F20806044620
:10701000C5F600064FF65F70C0F20300716821F0FC
:10702000400171603168890612D42168C860F9F79F
:1070300033FB05462068C068800625D4F9F72CFB91
:10704000401BB0F57A7FF5D9032084F8210070BD8C
:10705000316821F0200131602168C860F9F71CFB1C
:10706000054600BF2068C06880060FD4F9F714FBFE
:10707000401BB0F57A7FF5D9032084F821003168F0
:1070800041F02001316070BD002070BD00203168EA
:1070900041F02001316070BD80B5D0F8D41200EB12
:1070A0008100D0F8C012D1B141F261001A44084405
:1070B000D0F807309A4215D902784FF4825C052344
:1070C00001EBC20101F5825E01F80C30511CCAB21D
:1070D0002123043AAEF8043018BF0A460270FF209C
:1070E00040B280BD002040B280BD00000000000022
:1070F0002DE9F04782B00446D0F8D40204EB8000BA
:10710000D0F8C072002F00F0CD840E4611781546DD
:1071100041F218029D2907EB020A00F37B805A29ED
:1071200000F27E82DFE811F05C007C027C02B40099
:107130007C027C027C027C027C027C027C027C025F
:107140007C027C027C027C027C027C02E8007C02E5
:107150007C027C027C027C027C027C0220014601D3
:107160007C027C025A017C027C027C027C02660169
:107170007C0292017C027C02BC017C02F0017C0258
:107180007C027C027C02FC017C027C027C027C0290
:107190007C027C027C027C027C027C027C027C02FF
:1071A0007C027C027C027C027C027C027C027C02EF
:1071B0007C027C027C027C027C027C027C027C02DF
:1071C0007C027C027C027C027C027C027C027C02CF
:1071D0007C027C027C027C027C027C02160200BFE4
:1071E000DAF80010002900F035829AF849004FF4CF
:1071F000825207EBC001013001F5825305278F54FD
:107200002022C1B29A80043918BF0146FF208AF8B3
:10721000491083E39E2900F0C381A82900F0F28180
:10722000AA2940F0FD81397A002940F07181DAF80D
:107230000010002900F047829AF90410B1F1FF3FD5
:1072400040F34182D0F8C402816830468847002864
:10725000D4F8D40200F08C8304EB8000D0F8C00294
:10726000002800F0A88341F261014FF48256022405
:10727000425C00EBC203013203F582559C553A266D
:10728000D3B2AE80043B18BF1346435493E300BF10
:10729000DAF80000002800F016829AF84800002171
:1072A0009AF84920C7F8151087F821109042C7F8BE
:1072B0001D10C7F81910C7F811104FF0700139747C
:1072C0004FF00C01F97510D007EBC0014FF482525A
:1072D00001F582530130895CB9749A88C1B2BA83CE
:1072E000043918BF01468AF848101220F86028793E
:1072F000122800F2F6826DE2DAF80010002900F0A0
:10730000E2816978C90740F0EB81D0F8C40206EB4E
:10731000C6022D79C06900EB820319790531A942B3
:1073200038BF0D46002DFD6000F0DB8215F0030C28
:10733000A5F1010600F0D282B9199C5DBCF1010FE4
:107340000C74314600F0CB82A91EBCF1020F07EB92
:10735000010E5C5C8EF8104000F0C182E91E7D18C1
:107360005B5C2B74BBE200BF2B79172B28BF172364
:10737000002BFB6000F0B58240F24F0013F00306D3
:10738000A3F10102C2F2004000F0D881B918855C77
:10739000012E0D74114600F0D281991E022E07EBCA
:1073A0000105445C2C7400F0CA81D91E7B18465C30
:1073B0001E74C4E19AF84A10287900F003000129EC
:1073C00002D1022800F09C810021012818BF032867
:1073D00040F0AE818AF84A1006E000BF2879002804
:1073E00018BF01208AF84A000020F86040B202B0BD
:1073F000BDE8F087D0F8C40269460DF10602436883
:107400003046984720B99AF84A00022840F0CE81C9
:10741000D4F8D40204EB8000D0F8C002002800F0B9
:10742000418341F261014FF482570225425C00EB37
:10743000C203013203F58256DD553A27D3B2B78035
:10744000043B18BF134643542CE300BFD0F8C402DA
:107450000AF150050AF14C08294643683046424675
:107460009847002840F0AD809AF84A00022800F0C2
:10747000A88028680138F874010E3974010C7974F9
:10748000010AB974B8F800100020B88209BA090CD2
:10749000F9820821F96040B202B0BDE8F08700BF70
:1074A000397A002940F0B1809AF90410002940F19E
:1074B0000A819AF84A10022900F0F281D0F8C40239
:1074C00081683046884700287BD1D5F802003146D4
:1074D00002BACAF85420B5F8070043BA2046CAF8E1
:1074E0005830FFF7D9FD002800F1DC82DAF85800A7
:1074F000BAF84C104843DAF80010814240F0BC82E0
:107500000220387281E000BF397A002900F0BC8087
:107510002046314602B0BDE8F04700F03DBB00BF59
:107520006878800700F1EC80DAF85810DAE9142066
:10753000084490427FF658AF9AF849004FF48252BF
:1075400007EBC001013001F5825305278F5421223A
:10755000E2E000BF2B7A1B2B28BF1B23002BFB6014
:1075600000F0BF8140F2340013F00306A3F10102E2
:10757000C2F2004000F0FE80B918855C012E0D7447
:10758000114600F0F880991E022E07EB0105445CBD
:107590002C7400F0F080D91E7B18465C1E74EAE063
:1075A000D0F8C4020AF150090AF14C084946436870
:1075B00030464246984720B99AF84A00022840F0DF
:1075C0003581D4F8D40204EB8000D0F8C002002842
:1075D00000F0688241F261014FF482570225425C5B
:1075E00000EBC203013203F58256DD553A27D3B2D0
:1075F000B780043B18BF13464354FF2040B202B08B
:10760000BDE8F087397A002958D04FF48050F860EF
:107610002046314602B0BDE8F04700F049BA00BF4D
:107620009AF849004FF48252052607EBC001013059
:1076300001F582538E542022C1B29A80043918BFBA
:107640000146022078728AF84910FF2040B202B049
:10765000BDE8F0879AF84A10022940F0C1809AF8F4
:1076600049004FF48252022607EBC001013001F5B8
:1076700082538E543A22C1B29A80043918BF01460F
:1076800005203872DFE700BFDAF80010D9B19AF9A7
:107690000410B1F1FF3F16DDD0F8C4028168304616
:1076A00088470028D4F8D40200F08C8104EB8000D5
:1076B000D0F8C00200288DD1F4E100BF9AF904107F
:1076C000002900F1E9809AF849004FF4825207EB53
:1076D000C001013001F5825305278F5420221BE0A1
:1076E000A878802800F0EA8050B940F266010620B0
:1076F000C2F20041F8608888B8820868E7E000BFFD
:107700009AF849004FF4825207EBC001013001F5AD
:10771000825305278F542422C1B29A80043918BF9E
:107720000146FF208AF8491040B202B0BDE8F08758
:1077300002287FF459AE02214CE600BF1946032A05
:10774000C0F0CF80821E002350187E180433043FFF
:1077500045789942F573555CA2F10402B57310F8AF
:10776000015C757310F8020C30734FF00000EBD120
:10777000D4E000BF1946032AC0F0B380821E002364
:1077800050187E180433043F45789942F573555CD0
:10779000A2F10402B57310F8015C757310F8020CC5
:1077A00030734FF00000EBD1B8E000BF4FF0006045
:1077B000386100980138F875010E3975010C79753A
:1077C000BDF80610020ABA750220388309BA080CFF
:1077D00078830C20F860002040B202B0BDE8F0874A
:1077E000D0F8C40281683046884700283FF4FCADD9
:1077F000D4F8D40204EB8000D0F8C002002800F0D6
:10780000DA8041F261014FF482560224425C00EBBF
:10781000C203013203F582559C553A26D3B2AE809D
:10782000043B18BF13464354C5E000BFD5F80A0017
:1078300000BAF860B0B1002000217A184B1C107417
:10784000FE68B3420ED250748B1CFE68B3423FBF39
:107850009074CB1CFE68B34204D2D0740431FA6831
:107860009142EAD3D9F800000138F875010E397554
:10787000010C7975010AB975B8F800100020388339
:1078800009BA090C7983D5F80A1009BAF96040B22F
:1078900002B0BDE8F08700BF9AF84A10022941D132
:1078A0009AF849004FF4825207EBC001013001F50C
:1078B000825302278F543A222EE700BF40F26C0118
:1078C0000820C2F20041F8600868496879613861AF
:1078D000002040B202B0BDE8F08700BF2946032E69
:1078E00004D2002040B202B0BDE8F087920000232D
:1078F0001044821E50187E180433043F4578994284
:10790000F573555CA2F10402B57310F8015C757350
:1079100010F8020C30734FF00000EBD140B202B00F
:10792000BDE8F087D0F8C402816830468847002857
:107930007FF447AED5F80200314602BACAF85420A7
:10794000D5F8060003BA2046CAF85830FFF7A4FB62
:10795000002800F1A780DAF85800BAF84C10484324
:10796000DAF80010814240F08780022038724CE63D
:1079700004EB8000D0F8C402C16830468847002874
:107980003ED0D4F8D40204EB8000D0F8C00290B10D
:1079900041F261014FF482560224425C00EBC203C3
:1079A000013203F582559C552726D3B2AE80043BA5
:1079B00018BF1346435405203872FF2040B202B06E
:1079C000BDE8F08704EB8000D0F8C402C1683046FF
:1079D0008847F8B1D4F8D40204EB8000D0F8C00294
:1079E00000285FD041F261014FF482570225425CCA
:1079F00000EBC203013203F58256DD552727F6E579
:107A0000D5F80200314602BACAF85420D5F806006B
:107A100003BA08E0D5F80200314602BACAF8542089
:107A2000B5F8070043BA2046CAF85830FFF734FBD0
:107A3000002837D4DAF85800BAF84C1000FB01F3EC
:107A4000DAF80000984217D140F21500B3F5805FD4
:107A5000C2F200404FF0010228BF4FF4805301787A
:107A60003A7207F11002204601F08EFF002040B26A
:107A700002B0BDE8F08700BFD4F8D40204EB800068
:107A8000D0F8C00270B141F261014FF48257052570
:107A9000425C00EBC203013203F58256DD5520271C
:107AA000A5E500BFFF2040B202B0BDE8F0870000AE
:107AB0002DE9F04381B00446D0F8D40204EB8000F5
:107AC000D0F8C072002F5BD041F2380207F11008E5
:107AD000BE18B26BB38D02FB03F5B5F5805F28BF0E
:107AE0004FF48055D0F8C402726BB5FBF3F3D0F8B5
:107AF00010C008464146E047B0F1FF3F20DD40F2AC
:107B000014004246C2F200402B461FFA85F9017864
:107B1000204602F021F8B08D3168D6E90D23B9FB7B
:107B2000F0F00244181A7263B063A1EB05003060F4
:107B30002CD103203872002040B201B0BDE8F083A0
:107B4000D4F8D40204EB8000D0F8C002C0B141F2F6
:107B500061014FF482570425425C00EBC2030132FD
:107B600003F58256DD551127D3B2B780043B18BF09
:107B700013464354FF2040B201B0BDE8F08300BF7C
:107B8000FF2040B201B0BDE8F08300BF002040B24A
:107B900001B0BDE8F08300002DE9F0410446D0F8C3
:107BA000D40204EB8002D2F8C00200284AD041F28D
:107BB000380300F11008C61808464146B36BB58D6E
:107BC00003FB05F7B7F5805F28BF4FF48057B7FB7D
:107BD000F5F3D2F8C452726B6D69A847B0F1FF3F5C
:107BE00016DDB9B2B08DD6E90D35B1FBF0F13268D2
:107BF0000B44691A7363B163A2EB0702326025D1AB
:107C0000002120460025FEF7DFF968B2BDE8F081CB
:107C1000D4F8D40204EB8000D0F8C00290B141F255
:107C200061014FF482570425425C00EBC20301322C
:107C300003F58256DD550327D3B2B780043B18BF46
:107C400013464354FF2568B2BDE8F08101FB00F301
:107C500040F21500C2F200404246B3F5805F017861
:107C6000204628BF4FF4805301F08EFE002568B2F5
:107C7000BDE8F08100000000B0B5D0F8D41200EBF0
:107C80008100D0F8C002002808BFB0BD41F2610CED
:107C90004FF4825410F80CE000EBCE0101F5825550
:107CA0000A550EF10101CAB22B71043A4FF00003DC
:107CB0006B7118BF0A4600F80C20B0BD0000000030
:107CC000016840F26F32D1F814C08B6943F00803A9
:107CD0008B618B6943F010038B610B6823F0010308
:107CE0000B600B6923EA02020A618A6822F44042AF
:107CF0008A6090F88120042A18BF1CF0200209D065
:107D0000D0F8842042F08002C0F884208A6942F0D2
:107D100020028A6190F88120032A18BF1CF04002DB
:107D20000CD15FEA8C5216D45FEACC5220D40021E9
:107D3000A0F86210A0F86A10704700BFD0F8842045
:107D400042F00402C0F884208A6942F040028A614D
:107D50005FEA8C52E8D5D0F8842042F00102C0F8E6
:107D600084208A6942F400728A615FEACC52DED5CF
:107D7000D0F8842042F00802C0F884208A6942F4D6
:107D800080728A610021A0F86210A0F86A10704722
:107D900000207047000000002DE9F04182B0064647
:107DA000002006F120048DF807000DF107021321D1
:107DB0000023204604F02CF98046F06980470746EE
:107DC000F0698047C01B0A28FAD30DF10702282169
:107DD0000023204604F01CF90746F0698047054659
:107DE000F0698047401B0A28FAD30DF107053621B8
:107DF000002320462A4604F00BF940F2F01143F22A
:107E00009C43C2F20041C0F601038A68097B03EB80
:107E1000C202002907EB0801526801EB000608BF07
:107E200042F00802204629468DF80720012204F07E
:107E3000EBF84042301A18BF4FF0FF3002B0BDE8F7
:107E4000F0810000000000002DE9F04182B00646FC
:107E5000002006F120048DF807000DF10702132120
:107E60000023204604F0D4F88046F0698047074696
:107E7000F0698047C01B0A28FAD30DF107022921B7
:107E80000023204604F0C4F80746F0698047054601
:107E9000F0698047401B0A28FAD30DF10705362107
:107EA000002320462A4604F0B3F840F2F01143F2D2
:107EB0009C43C2F20041C0F601038A68097B03EBD0
:107EC000C202002907EB0801526801EB000608BF57
:107ED00042F00802204629468DF80720012204F0CE
:107EE00093F84042301A18BF4FF0FF3002B0BDE89F
:107EF000F0810000000000002DE9F04F83B040F257
:107F0000F0190446C2F20049D3F816000F460244A5
:107F1000D9F804101E468D1AD3F802B0D3F80AA07F
:107F20003946D3F81230009020462A4600F03CFE35
:107F300030B14FF0FF35284603B0BDE8F08F00BFE9
:107F4000D9F8080043F29C42C0F6010299F80C10DF
:107F500004F12008012352F83000002908BF40F046
:107F600008000DF1090236218DF80900404604F0A1
:107F70004FF828B14FF0FF35284603B0BDE8F08F29
:107F8000204639462A4600F093FD28B14FF0FF35D0
:107F9000284603B0BDE8F08FABEB0A075644002536
:107FA0000DF10A0A70190222514640788DF80A0034
:107FB000705D8DF80B00404604F026F820B90235BC
:107FC000BD42EFD3002601E04FF0FF3643F29C4262
:107FD000D9F80800C0F6010299F80C1002EBC000B5
:107FE0000DF1090200294FF0360140684FF00103FE
:107FF00008BF40F008008DF80900404604F008F87A
:1080000000284FF0FF3596D1D9E900300021002239
:108010000090204600F0C8FD002808BF35462846DD
:1080200003B0BDE8F08F0000F0B581B01C4640F20F
:10803000F013C2F2004366181B689E4203D807463D
:1080400000F036FD20B14FF0FF3001B0F0BD00BFB1
:10805000B4B3621E0698032A40F200224FEA1021B0
:1080600004F0030CC2F2004202D2002311E000BF70
:1080700024F00305002300BFD618D154043D03F1BA
:1080800008037070B170F07031717071B171F0717E
:10809000F2D1BCF1000F13D043F00106BCF1010F87
:1080A000D15490550CD09E1CBCF1020F46F0010536
:1080B0009155505504D0043343F00106D1549055E6
:1080C00040F2002107F120006200C2F2004103F0FB
:1080D0009BFF002818BF4FF0FF3001B0F0BD00003B
:1080E0002DE9F04F81B040F2F01A1C46C2F2004A6E
:1080F00015461A44DAF804309A4205D94FF0FF3099
:1081000001B0BDE8F08F00BF2CB307460A980E46B9
:10811000010241EA102B07F120080DF10209DAF8FB
:108120000000ADF802B0B04284BFDAF80400A84203
:10813000E4D9384631462A4600F0BAFC0028DDD1A1
:1081400002224046494603F05FFF0028D6D1013C99
:1081500005F10105E3D1002001B0BDE8F08F00007A
:108160002DE9F04F87B040F2F017109CC2F20047A3
:10817000661802913D680390AE4207D8DDF844804E
:10818000934608EB02007A68904205D94FF0FF3021
:1081900007B0BDE8F08F00BFB8F1000F7CD0002C15
:1081A000039F07F1200005904FEA4400049077D028
:1081B000601E04F0030124F0030940F280441E46CF
:1081C00001904FF0000AC2F200440020029D00918D
:1081D0000FE000BF023605982146049A03F014FF11
:1081E0000028069818BF4FF0FF300AF1010AC24577
:1081F0007CD006900AEB0B023846294600F058FC6A
:1082000030B14FF0FF300AF1010AC245F1D16DE003
:108210000198032804D20020009B2BBBDBE700BFA2
:108220000021002006EB400216F8103004F8103050
:108230006318577804EB40055F70043097788145E8
:10824000AF7001F10801D778DF7017792F71577976
:108250005F719779AF71D279DA71E3D10E44DDE9BC
:108260000257009B002BB6D0327804EB400104F893
:108270001020012B70784870ACD0B078022B887039
:10828000F078C87002D10436A5E700BF30790871D4
:108290007079063648719EE7002007B0BDE8F08F80
:1082A00040F280440020C2F20044029D0FE000BF73
:1082B00005982146049A03F0A7FE0028304618BF0F
:1082C0004FF0FF30B8F101080BF1010B0ED006465C
:1082D000384629465A4600F0EBFB0028E8D04FF01C
:1082E000FF30B8F101080BF1010BF0D107B0BDE888
:1082F000F08F0000000000002DE9F04F87B0109DC6
:10830000002D00F0908014460F460646002B03EB2C
:108310000100069006F1200005904FEA430004900A
:1083200064D0CDE90267DDF8448040F200274FEACF
:10833000182903F0030B23F0030A0026C2F20047BA
:10834000581E019040F2F0100699C2F200400068F9
:1083500081426DD8DDE90201224600F0A9FB002828
:1083600066D10198032801D200201BE000206FF0A5
:10837000040100BF7A1807EB400307F8109004309F
:10838000824501F1080182F8068083F8029082F8A4
:10839000088083F8049082F80A8083F8069082F8B7
:1083A0000C80E7D1BBF1000F14D007EB4001BBF10B
:1083B000010F07F8109081F801800BD0BBF1020F7C
:1083C00081F8029081F8038004D081F8049081F84C
:1083D000058000BF05983946049A03F015FE38BBA6
:1083E00001360134AE42ADD11DE000BF40F2F019BC
:1083F00040F20028C2F20049C2F20048D9F8000059
:108400000699814214D830463946224600F050FB86
:1084100070B905984146049A03F0F6FD40B9013D54
:1084200004F10104EAD1002007B0BDE8F08F00BFDD
:108430004FF0FF3007B0BDE8F08F000000000000F3
:108440004FF0FF307047000040F2F0120020C2F2FF
:10845000004292680A607047F0B581B01C4605463C
:1084600000F026FB20350DF1010706462E21284697
:108470003A4603F0C1FD064401222846394603F07E
:10848000BFFD06440DF103010122284603F0B8FDAB
:1084900006440DF102010122284603F0B1FD9DF8CA
:1084A000021040429DF80320301A18BF4FF0FF30F1
:1084B00042EA0121216001B0F0BD0000000000008F
:1084C00040F2F0120020C2F2004212680A607047C7
:1084D00040F2F0120020C2F2004252680A60704777
:1084E0002DE9F04F83B00028029100F06D82044620
:1084F000914604F1200600208DF807000DF10702D7
:1085000001210023304603F083FDE06980470546E2
:10851000E0698047401B7828FAD300208DF80700D7
:108520000DF1070201210023304603F071FD0546DD
:10853000E0698047074600BFE0698047C01B782894
:10854000FAD30DF1070700208DF807001121012350
:1085500030463A464FF0010B03F05AFD0544B12175
:10856000002330463A4603F053FD054401223046CD
:1085700039468DF807B003F047FD05442C208DF8EF
:1085800007000122304639464FF02C0803F03CFD2D
:1085900005440122304639464FF02D0A8DF807A0D8
:1085A00003F032FD0544B221012330463A468DF8EE
:1085B00007B003F02DFD05440122304639468DF801
:1085C00007804FF02C0803F01FFD054401223046C0
:1085D00039468DF807A003F017FD0544B3210123A8
:1085E00030463A468DF807B003F012FD05440122EB
:1085F000304639468DF807804FF02C0803F004FD13
:1086000005440122304639468DF807A003F0FCFCF2
:1086100005440122304639468DF807B003F0F4FCDA
:1086200005440122304639468DF8078003F0ECFC02
:1086300005440122304639468DF807A003F0E4FCDA
:10864000054407208DF80700B421012330463A463F
:1086500003F0DEFC0544A2208DF80700C0210123B1
:1086600030463A4603F0D4FC054402208DF807005A
:1086700001223046394603F0C7FC054484208DF8BA
:10868000070001223046394603F0BEFC0544C520F0
:108690008DF80700C121012330463A4603F0B8FCAB
:1086A00005440A208DF80700C221012330463A46CE
:1086B00003F0AEFC054400208DF80700012230468F
:1086C000394603F0A1FC0544C321012330463A4654
:1086D0004FF08A088DF8078003F09AFC05442A20A1
:1086E0008DF8070001223046394603F08DFC054421
:1086F000C421012330463A468DF8078003F088FCF8
:108700000544EE208DF8070001223046394603F07B
:108710007BFC05440E208DF80700C521012330465F
:108720003A4603F075FC99F80C20202105440023FB
:10873000002A30463A4608BF212103F069FC05446F
:1087400002AA3A210123304603F062FC05440220CC
:108750008DF80700E021012330463A4603F058FC2B
:1087600005441C208DF8070001223046394603F0ED
:108770004BFC054407208DF807000122304639469E
:1087800003F042FC054412208DF807000122304618
:10879000394603F039FC054437208DF807000122E3
:1087A0003046394603F030FC054432208DF807008E
:1087B00001223046394603F027FC054401223046A9
:1087C0003946CDF800904FF029098DF8079003F055
:1087D0001BFC05440122304639468DF807A003F002
:1087E00013FC05440122304639468DF8079003F00A
:1087F0000BFC054425208DF8070001223046394640
:1088000003F002FC05442B208DF8070001223046BE
:10881000394603F0F9FB054439208DF807000122A1
:108820003046394603F0F0FB054400208DF8070080
:1088300001223046394603F0E7FB05440122304669
:1088400039468DF807B003F0DFFB054401223046BE
:1088500039464FF003088DF8078003F0D5FB054437
:108860000122304639464FF0100B8DF807B003F067
:10887000CBFB0544E121012330463A468DF80780C1
:1088800003F0C6FB05441D208DF807000122304689
:10889000394603F0B9FB054407208DF80700012293
:1088A0003046394603F0B0FB054406208DF807003A
:1088B00001223046394603F0A7FB05440122304629
:1088C00039464FF02E088DF8078003F09DFB0544D4
:1088D0002C208DF8070001223046394603F094FB26
:1088E00005440122304639468DF8079003F08CFB91
:1088F00005440122304639468DF807A003F084FB79
:1089000005440122304639468DF8078003F07CFB90
:1089100005440122304639468DF8078003F074FB88
:10892000054437208DF8070001223046394603F010
:108930006BFB05443F208DF8070001223046394685
:1089400003F062FB05440122304639464FF000082F
:108950008DF8078003F058FB054401223046394664
:108960008DF807804FF0000803F04EFB054402200D
:108970008DF8070001223046394603F045FB0544D7
:108980000122304639468DF807B003F03DFB05441F
:108990001321012330463A468DF8078003F038FB57
:1089A00005442921012330463A4603F031FB0544B2
:1089B0002046009900F094F92844B0FA80F040096C
:1089C000013803B0BDE8F08F4FF0FF3003B0BDE8D1
:1089D000F08F00000000000070B582B000F12005AB
:1089E0000DF105060C46DA212846324603F004FB59
:1089F00058B9721CDB21284603F0FEFA28B9B21CD4
:108A0000DC21284603F0F8FA20B14FF0FF3002B025
:108A100070BD00BFBDF806009DF8051040BA40EAE1
:108A200001402060002002B070BD00000000000086
:108A300003690846114618478369084611461847D6
:108A400040B3D1E900C3C0E900C30B89CA68038100
:108A50000B69C0E903234A6942618A69C969C16136
:108A600048F63121C0F60001416248F6D151BCF10F
:108A7000000FC0F60001016248F6A1218261C0F634
:108A80000001816248F639210063C0F60001C1622D
:108A900000D060474FF0FF3070470000000000003A
:108AA00043690846114618474FF0FF3070470000F1
:108AB0002DE9F04182B040F2F0139046C2F200433B
:108AC0000D469E685F7B012E06D8012F0CD1197BC5
:108AD000F1B1183523E000BF012F0FD1197BD9B1B7
:108AE00008F118081BE000BF022F18D1197B0129DB
:108AF00004BF023508F1010811E000BF022F0ED1BA
:108B0000197B012904BF013508F1020807E000BF05
:108B10001A3508F1010802E0013508F11A0800F1E0
:108B200020060DF107072A21002330463A4603F0BC
:108B30006FFA0446280A8DF80700012230463946AC
:108B400003F062FA04440122304639468DF807509A
:108B500003F05AFA04442B21002330463A4603F02E
:108B600057FA04444FEA18208DF8070001223046D6
:108B7000394603F049FA04440122304639468DF85B
:108B8000078003F041FA04442C21002330463A4682
:108B900003F03EFA4042201A18BF4FF0FF3002B0F7
:108BA000BDE8F081000000002DE9F04782B040F2FE
:108BB000F0179846C2F200479146DDF828A0BE683B
:108BC0007D7B012E0E4605D8012D0BD1397BE9B1F5
:108BD000183621E0012D0FD1397B0136D1B109F1D1
:108BE000180919E0022D17D1397B012904BF02367B
:108BF00009F1010910E000BF022D0DD1397B0129D7
:108C000004BF013609F1020906E000BF1A3609F176
:108C1000010901E009F11A0900F120070DF107052A
:108C20002A21002338462A4603F0F2F90446300A86
:108C30008DF8070001223846294603F0E5F904447F
:108C40000122384629468DF8076003F0DDF908EB6C
:108C5000060104444E1E0122300A8DF807003846F2
:108C6000294603F0D1F904440122384629468DF8FB
:108C7000076003F0C9F904442B21002338462A4633
:108C800003F0C6F904444FEA19208DF807000122C9
:108C90003846294603F0B8F90444012238462946EB
:108CA0008DF8079003F0B0F90AEB090104444E1E59
:108CB0000122300A8DF807003846294603F0A4F94E
:108CC00004440122384629468DF8076003F09CF9D8
:108CD0004042201A18BF4FF0FF3002B0BDE8F087C5
:108CE000B0B582B08B684A7B40F2F015012B044688
:108CF000C2F200450AD8032A13D24CF288504FF032
:108D0000A00CC0F6000050F8220008E0032A08D2A8
:108D10004CF28850C0F6000050F822C0A020C5E9EF
:108D2000000C087BAB60287300216A730022D5E930
:108D3000003000902046FFF737FFA96843F29C42BD
:108D4000C0F601022B7B02EBC1010546002B04F1AA
:108D5000200049680DF1070208BF41F00801012316
:108D60008DF80710362103F053F94042281A18BF36
:108D70004FF0FF3002B0B0BD70B582B040F2F014D9
:108D80000646C2F20044180240EA1320ADF806007D
:108D900025684FF0FF308D4215D96368934212D990
:108DA0003046FFF785FE18B14FF0FF3002B070BDBE
:108DB00006F120000DF10601022203F025F900283A
:108DC00018BF4FF0FF3002B070BD0000000000007F
:108DD000D0F80CC0084611461A4660470000000053
:108DE00041F67C13C2F2004358690860002099697B
:108DF0001180704700000000012070470000000053
:108E000000207047000000000020704700000000B4
:108E100000207047000000002DE9F0411C46154677
:108E20000E46B8B101282AD14CB341F67C18002770
:108E3000C2F20048D8F8182002FB05F13046FDF7D1
:108E4000A7FE0137D8F81820A74205F101051644FE
:108E5000F2D314E09CB141F67C180027C2F200481E
:108E6000D8F8182002FB05F1304602F0C5FC0137A6
:108E7000D8F81820A74205F101051644F2D30020C6
:108E8000BDE8F081000000002DE9F0411C461546C8
:108E90000E46E8B1012835D1A4B341F67C1800276D
:108EA000C2F20048D8F818006843FDF7C9FED8F8A8
:108EB0001820304602FB05F1FDF74AFF0137D8F8CC
:108EC0001800A74205F101050644EDD31AE000BFE2
:108ED000C4B141F67C180027C2F20048D8F8180047
:108EE000684302F079FBD8F81820304602FB05F100
:108EF00002F0BAFC0137D8F81800A74205F10105C5
:108F00000644EDD30020BDE8F08100000000000021
:108F10007047000000000000F7F7C6BB000000002B
:108F2000B0B59CB044F61804022000251195CDE997
:108F30000F55CDE90D55CDE90B550895C5F6020441
:108F4000CDE90655CDE90455CDE902550195F9F76E
:108F500013FC0095206820F440402060206800F455
:108F60004040009000982068800409D42068800464
:108F70005CBF20685FEA804002D420688004F2D59C
:108F8000292009904FF480300A9001200221CDE978
:108F90000E00052214926E220824CDE9152004202B
:108FA0001994CDE9170109A80025CDE91211CDE9E1
:108FB0001A55FAF751FB28B1EFF3108072B600BFD3
:108FC000FEE700BF3F20019003204FF48061CDE910
:108FD000020540200494CDE90500CDE9071001A861
:108FE0000321FAF751F928B1EFF3108072B600BFF0
:108FF000FEE700BF1CB0B0BD4EF6885042F2000C38
:10900000CEF20000C5F2002C026842F47002026049
:10901000DCF8000000F00F00062806D8DCF800009D
:10902000072262F30300CCF8000044F200404EF641
:109030007F51C5F60200CEF6F621026842F0010229
:10904000026000220261036819400160DCF8001030
:10905000090706D5DCF80010072363F30301CCF8F9
:10906000001040F200218261C261C0F2022102625E
:1090700081620021C0F2FF11C16240F28021C0F282
:109080000111016342638163C26301644264016848
:1090900021F480210160026644F20000C5F2002044
:1090A00043F2D2010160704710B540F6FF32C4F2BE
:1090B0000002904202680FDCB0F1804F1DD040F2F8
:1090C0000043C4F20003984217D040F60003C4F2F4
:1090D0000003984211D014E040F60043C4F20003AC
:1090E00098420AD040F20043C4F20103984204D0EF
:1090F0000023C4F20103984203D122F070024B68AE
:109100001A434EF2FF3343F6FF7CC4F20003C4F26D
:10911000010C984214DD60452CDC4EF20043C4F291
:109120000003984243D00023C4F2010398423ED08A
:1091300040F20043C4F20103984238D03BE000BF44
:1091400040F2FF73C4F20003984227DD40F60003AB
:10915000C4F2000398422AD040F60043C4F2000350
:10916000984224D04EF20003C4F2000398421ED06D
:1091700021E000BF44F20003C4F20103984216D07C
:1091800044F60003C4F20103984210D044F20043B5
:10919000C4F2010398420AD00DE000BFB0F1804F45
:1091A00005D040F20043C4F20003984203D122F4F8
:1091B0004072CB681A4322F080024C696045D1F8B6
:1091C00000E08B6842EA04020260C362C0F828E053
:1091D00014DD44F20002C4F20102904219D044F6B8
:1091E0000002C4F20102904213D044F20042C4F2E1
:1091F000010290420DD00121416110BD0022C4F254
:109200000102904205D040F20042C4F201029042B5
:10921000F1D1096901630121416110BD0000000025
:1092200080B5D0F8B82252689047002818BF0320B4
:1092300080BD00000000000000207047000000001A
:10924000002070470000000080B513460A46002148
:1092500000F09AFB002080BD80B513460A4600212D
:1092600000F07AFC002080BD10B58021044600F09B
:109270003BFC00212046BDE8104000F035BC00005A
:1092800080B50521C0F8941200210022002300F0CF
:109290007BFB002080BD000080B50223C0F8943223
:1092A000134682610A460021C36100F055FC00208C
:1092B00080BD00000000000080B50421C0F89412B9
:1092C00000210022002300F047FC002080BD0000A8
:1092D00080B5B0F802C003789C4505D8002080BD59
:1092E00073449AB26245F9D290F800E07044427833
:1092F000052A02D182788A4226D073449AB2624506
:10930000ECD290F800E070444278052A02D18278CD
:109310008A4219D073449AB26245DFD290F800E0D5
:1093200070444278052A02D182788A420CD0734474
:109330009AB26245D2D290F800E070444278052A91
:10934000CED182788A42CBD180BD000000000000DF
:1093500010B5002866D00378B3B100F1020E4FF0CB
:10936000000C00BF1EF8013C93B19EF800309BB189
:109370009EF80130A3B19EF802300CF1040C0EF1FE
:10938000040E002BEED10DE04FF0000C0AE000BF00
:109390004CF0010C06E000BF4CF0020C02E000BFF4
:1093A0004CF0030C5FFA8CFC022303EB4C0313809C
:1093B0000B7003224A7090F800E0BEF1000F08BF66
:1093C00010BD023002224FF0000CD3B243F0010472
:1093D00001F803E001F804C010F8013C13B3941C39
:1093E000E4B244F0010E0B5501F80EC00378002BD7
:1093F0001FBF141DE4B244F0010E0B551EBF01F84F
:109400000EC04378002B0DD0941D0832E4B244F016
:10941000010E0B5501F80EC090F802E00430BEF1C9
:10942000000FD2D110BD000010B540F204740A46FE
:10943000C2F2004402A02146FFF78AFF204610BD79
:109440004D534320436F6E666967000000000000C3
:1094500040F2C4001222C2F200400A8070470000AD
:1094600010B540F204740A46C2F2004402A021463C
:10947000FFF76EFF204610BD4D534320496E7465C3
:10948000726661636500000040F2D8000422C2F2F7
:1094900000400A807047000010B540F204740A468C
:1094A000C2F2004402A02146FFF752FF204610BD41
:1094B00053544D6963726F656C656374726F6E6946
:1094C000637300000000000010B540F204740A4607
:1094D000C2F2004402A02146FFF73AFF204610BD29
:1094E00053544D3332204D6173732053746F726146
:1094F0006765000000000000B0B54EF6000EC1F632
:10950000F17EDEF80000DEF80830C0184FF01A03D4
:109510000B8000F0A3804FF0370C010F0CEB1072A2
:10952000B0F1204F38BF01F1300240F26011DEF897
:109530000430C0F30364C2F200414FF0000E8A70A1
:109540000201B2F1204F81F803E00CEB127538BF35
:1095500004F13005020281F805E0C0F303540D71F7
:109560000CEB1275B2F1204F38BF04F13005020345
:1095700081F807E0C0F303448D710CEB1275B2F172
:10958000204F38BF04F13005020481F809E0C0F330
:1095900003340D720CEB1275B2F1204F38BF04F199
:1095A0003005020581F80BE0C0F303248D720CEB4B
:1095B0001275B2F1204F38BF04F13005020681F870
:1095C0000DE0C0F303140D730CEB1275B2F1204FD4
:1095D00038BF04F13005020700F00F0000F1370436
:1095E0008D73B2F1204F81F80FE038BF00F13004E5
:1095F000180FB3F1204F0CEB13720C7481F811E0CB
:1096000038BF00F13002180181F813E08A74B0F11C
:10961000204FC3F303620CEB107438BF02F1300427
:10962000180281F815E0C3F303520C750CEB1074AB
:10963000B0F1204F4FEA033038BF02F13004C3F3DA
:109640000342B0F1204F0CEB10738C7581F817E0DA
:1096500038BF02F1300381F819E00B7640F2601058
:10966000C2F20040B0BD000080B10023C0F8B832A3
:10967000C0F8C4320029C0F8D03218BFC0F8B41204
:10968000012180F89C12027000F0F2B803207047AC
:1096900080B5D0F8C802F8F70BF940F20032C100EB
:1096A000C0F20132032822FA01F188BF0321C8B2B7
:1096B00080BD00000000000080B5D0F8C802F8F7B7
:1096C000CBF840F20032C100C0F20132032822FA86
:1096D00001F188BF0321C8B280BD00000000000076
:1096E000B0B5044681B194F89C02032827D1D4F880
:1096F000B80242691AB30020C4F8D4022046904749
:10970000002808BF0020B0BDD4F89402022810D170
:10971000D4E90701884215D9431A204611461A4652
:10972000E361FFF799FD002100220023204600F0AD
:109730002BF994F8A00210B1002084F8A0020020B8
:10974000B0BD00BF10D1A16981420DD3D4F89802F9
:10975000814209D20021002220460025FFF77CFD2E
:10976000C4F89852DFE700BF94F89C02032808D1A0
:10977000D4F8B802C16821B10020C4F8D402204650
:1097800088478021204600F0AFF92046FFF778FD9A
:1097900094F8A0020028CFD1D1E70000000000001B
:1097A00010B5044681B194F89C0203281FD1D4F867
:1097B000B8028269DAB10020C4F8D402204690478A
:1097C000002808BF002010BDD4F8940203280ED151
:1097D000D4E9570398420DD9C01AC4F85C019842E5
:1097E000114638BF034620461A46FFF72DFD0020DC
:1097F00010BD00BF94F89C02032808D1D4F8B80229
:10980000016921B10020C4F8D402204688472046CF
:10981000FFF752FD002010BD00207047000000003F
:1098200080B5012180F89C12D0F8B82232B10179BC
:1098300052689047002818BF032080BD002080BDDB
:1098400080B5D0F8C802F8F767F840F20032C100DE
:10985000C0F20132032822FA01F188BF0321C8B205
:1098600080BD000000000000D0F8C802F8F774B80E
:1098700010B50178012932D141F6D4410222C2F259
:109880000041C0F8C812C1F808050020C4F2040065
:109890000860092048600020C860C1E90620C1E9CD
:1098A0000800C1E90B00486308460A61F8F70CFE9E
:1098B00008B1F6F7DDFD41F6D4444FF40071C2F271
:1098C00000442046F7F714FF002180222046F7F7D6
:1098D00013FF01214FF4BA722046F7F70DFF002065
:1098E00010BD00000000000001F07F02D0F8C802A7
:1098F00049B202EBC202002900EB820000F27E2294
:1099000048BF00F13E0210787047000000000000E0
:1099100080B5D0F8D42200EB8202D2F8B8224AB146
:1099200090F89C32032B02D1126A02B190470020BA
:1099300080BD00BF032080BD80B5D0F8D42200EBED
:109940008202D2F8B8224AB190F89C32032B02D19D
:10995000526A02B19047002080BD00BF032080BD45
:1099600080B59446D0F8C8021A466346F8F700F866
:1099700040F20032C100C0F20132032822FA01F1A4
:1099800088BF0321C8B280BD80B5D0F8C802F8F7FF
:1099900023F840F20032C100C0F20132032822FA5B
:1099A00001F188BF0321C8B280BD000000000000A3
:1099B000F0B581B0012680F89C620025C0F8945271
:1099C00004464560D0F8B802C4F8A45284F8A05206
:1099D00058B1426842B10021204690470546002810
:1099E00018BF032501E000BF00250021002240230D
:1099F00020464027FFF7B4FF802100224023204665
:109A0000A4F86461C4F86071FFF7AAFFA684284631
:109A1000276201B0F0BD000090F89C12042903D128
:109A200090F89D1280F89C12002070470000000002
:109A300080B590F89C12032905D1D0F8B81211B165
:109A4000C96901B18847002080BD00000000000006
:109A5000024600201174704780B5D0F8C802F8F7AC
:109A600033FE40F20032C100C0F20132032822FA74
:109A700001F188BF0321C8B280BD000000000000D2
:109A8000B0B500F2AA250446284600F001FA0120EC
:109A9000C4F8940294F8AA02B4F8B02200F01F01AE
:109AA000C4F89822022909D001290DD091B9204685
:109AB0002946BDE8B04000F027BA00BF204629463D
:109AC000BDE8B04000F0E0BB20462946BDE8B0400C
:109AD00000F09ABC00F080012046BDE8B04000F0E4
:109AE00003B800000000000080B5D0F8C802F7F706
:109AF00093FF40F20032C100C0F20132032822FA83
:109B000001F188BF0321C8B280BD00000000000041
:109B100080B5D0F8C802F8F7F3FD40F20032C1007A
:109B2000C0F20132032822FA01F188BF0321C8B232
:109B300080BD000000000000014690F89C0204284F
:109B400003D091F89C0281F89D020020042281F844
:109B50009C2270470000000080B5D0F8C802F7F7DB
:109B60009BFF40F20032C100C0F20132032822FA0A
:109B700001F188BF0321C8B280BD000000000000D1
:109B800080B5FCF79DF8002080BD000000000000BB
:109B900080B5FCF7E9F8002080BD0000000000005F
:109BA00070B540F214060446C2F200467178FFF721
:109BB00083FD7078002500F00F0000EB800004EBBF
:109BC0008000A0F8645120463178FFF775FD3078A9
:109BD000D4F8D41200F00F0004EB810100EB8000F8
:109BE000D1F8C01204EB8000858481B12046FCF7D7
:109BF00087F9D4F8D40204F5307656F8200000F046
:109C00004FFCD4F8D40246F82050C4F8BC520020CF
:109C100070BD00000000000040F234110A22C2F2C0
:109C2000004102800846704770B540F214160446A1
:109C3000C2F2004681213046FFF74AFB054601216A
:109C40003046FFF745FB002D1CBF4021A9800028AE
:109C50001CBF4021818040F214102021C2F200403C
:109C6000218070BD0000000070B540F2141604465B
:109C7000C2F2004681213046FFF72AFB054601214A
:109C80003046FFF725FB002D1CBF4FF40071A98063
:109C900000281CBF4FF40071818040F21410202175
:109CA000C2F20040218070BD70B540F21416044627
:109CB000C2F2004681213046FFF70AFB054601212A
:109CC0003046FFF705FB002D1CBF4021A98000286E
:109CD0001CBF4021818040F214102021C2F20040BC
:109CE000218070BD00000000F0B581B0044641F253
:109CF000740000F0D9FBD4F8D41204EB810101F513
:109D0000307188B340F21406227CC2F2004640252E
:109D10000860002A7178C4F8BC0208BF4FF40075CF
:109D2000022220462B46FFF71BFE707801270222F5
:109D30002B4600F00F0000EB800004EB8000A0F841
:109D4000647120463178FFF70BFE307800F00F0089
:109D500000EB800004EB800087842046FCF7DCF8F1
:109D6000002001B0F0BD00BF00200860022001B05B
:109D7000F0BD00000000000041B1D0F8D42200EB9B
:109D80008200C0F8C4120020704700BF0320704753
:109D900070B582B00446D0F8D4020D46002104EB21
:109DA0008000ADF80610D0F8C062002E00F06A8086
:109DB000297811F0600219D0202A5FD149B26A785F
:109DC000FF2A27D0FE2A59D16A88002A56D1EA886C
:109DD000012A53D1B1F1FF3F50DCD0F8C4028069B1
:109DE0008047306001222046314638E068780B28F1
:109DF00044D8DFE800F0071B434343434343434356
:109E00002D3900BF94F89C02032837D10DF10601CB
:109E1000022223E0688888BBE88878BB00292DD41B
:109E20002046FCF7A9F8002002B070BD94F89C020F
:109E3000032816D16888A0B929792046FFF700FDCC
:109E400029792046FBF7F0FE002002B070BD00BF6C
:109E500094F89C02032811D1311D01222046FFF7FE
:109E60001BFA002002B070BD94F89C02032805D1B3
:109E7000A8787060002002B070BD00BF204629465F
:109E8000FFF7F2F9032002B070BD000000000000EF
:109E90000A7802704A7842704A8842808A888280B2
:109EA000C988C1807047000010B582B004464FF0E9
:109EB0000000ADF80600B9B1D4F8D40204F52E7252
:109EC000C4F8B81252F82000C16A21B10DF10600A1
:109ED0008847C4F8D002D4F8D8020130C4F8D802B8
:109EE000002002B010BD00BF032002B010BD000072
:109EF000D0F8B82212B11268104700BF0020704796
:109F0000FFF706BE00000000B0B582B00D4609782C
:109F1000044611F0600111D0402918BF20292FD12B
:109F2000D4F8D402294604EB8000D0F8B802826845
:109F3000204602B0BDE8B040104700BF687809284D
:109F400000F2D280DFE800F00628D03AD04666D092
:109F5000809400BF94F89C020138022800F2C4806B
:109F6000E888022840F0C080D4F8A4020322002828
:109F7000214608BF0122204641F80C2F022261E150
:109F800080212046FFF7B0FD002120460025FFF785
:109F9000ABFD284602B0B0BD94F89C0201380228FF
:109FA00000F2A280688800250128F2D12046C4F87A
:109FB000A452FFF781F9284602B0B0BD6888022894
:109FC00000F08880012840F08F800120C4F8A402AE
:109FD0003EE100BFA888002840F08680E88800287D
:109FE00040F0828068887F2800F27E8094F89C127E
:109FF000032900F07980C5B284F89E0220462946E4
:10A00000FFF72AFD2046FFF757F9002D00F03481B5
:10A01000022032E168884FF0FF310022ADF80620BF
:10A0200001EB1021062900F21B81DFE811F0070087
:10A03000690077001901190185009100D4F8B41264
:10A04000207C0A68EFE000BFE88801284CD194F832
:10A050009C02411E022941D22146012220460025B0
:10A0600041F8085FFFF718F9284602B0B0BD00BFFD
:10A07000688840F20075C2F2004510F0FE0F2870AB
:10A080000CD080212046FFF72FFD00212046FFF74E
:10A090002BFD0325284602B0B0BD00BFC1B294F825
:10A0A0009C22032A62D0022A40F08280002900F01C
:10A0B000CF8020466160FFF71BFF002800F09880EA
:10A0C000054680212046FFF70FFD00212046FFF7BF
:10A0D0000BFD67E0687984F8A002B9E0032803D19A
:10A0E000211D01222046ADE080212046FFF7FCFC27
:10A0F000002120460025FFF7F7FC284602B0B0BD3E
:10A10000207C0028D4F8B8020CBF816AC16A0DF126
:10A11000060088470146022026E000BFC0B205289D
:10A1200000F29E80DFE800F0046A6E72767A00BF6B
:10A13000D4F8B402426874E0207C002840F090809B
:10A14000D4F8B802416B0DF1060088476EE000BFFD
:10A15000207C002840F08480D4F8B802016B0DF117
:10A160000600884701460720487060E081B36068B8
:10A1700088426DD0C1B22046FFF752F829782046B8
:10A180006160FFF7B5FE002862D0054680212046B9
:10A19000FFF7AAFC00212046FFF7A6FC2179204604
:10A1A000FFF73EF8022084F89C02284602B0B0BDBA
:10A1B00080212046FFF798FC00212046FFF794FC01
:10A1C00029782046FFF72CF80325284602B0B0BDB9
:10A1D000022084F89C026160002120460025FFF7E0
:10A1E0001FF82046FFF768F8284602B0B0BD00BF50
:10A1F0002046FFF761F803203FE000BFD4F8B40227
:10A2000082680EE0D4F8B402C2680AE0D4F8B4025E
:10A21000026906E0D4F8B402426902E0D4F8B4025C
:10A220008269EAB1207C0DF1060190470146EA8877
:10A2300072B1BDF8060098B1904238BF0246204680
:10A24000ADF80620FFF728F80025284602B0B0BD7B
:10A250002046FFF731F80025284602B0B0BD00BF08
:10A2600080212046FFF740FC00212046FFF73CFC00
:10A270000025284602B0B0BD012084F89C020025CC
:10A28000284602B0B0BD000070B50E4609780446FD
:10A29000357911F060010BD0402918BF202940F01A
:10A2A0009F8020462946FEF7C7FFE8B1002070BD19
:10A2B000707838B3012841D0032840F0918094F899
:10A2C0009C0203283ED1708840B915F07F0005D06C
:10A2D000F08818B920462946FFF706FC2046FEF70D
:10A2E000EBFF002070BD00BFD4F8B80282680020E8
:10A2F000002AC4F8D402D9D020463146BDE87040C7
:10A30000104700BF94F89C02032829D0022808BFF8
:10A310005FEA456064D115F080004FF0140008BF7B
:10A320004FF4AA7004F114014FF0000208BF04F5C5
:10A33000AA7122500222204661E000BF94F89C02DC
:10A34000032819D002284BD1680649D02046294657
:10A35000FFF7CAFB80212046FFF7C6FB002070BD37
:10A3600005F00F00802D00EB800004EB80001FD271
:10A37000B0F864011DE000BF7088002896D168061F
:10A3800003D020462946FFF783F92046FEF794FFC5
:10A3900020462946FEF750FF00287FF487AFD4F807
:10A3A000B80282680020002AC4F8D402A4D17DE754
:10A3B000808CA8B105F07F00802D00EB800004EBBD
:10A3C000800000F1140638BF00F5AA76680611D0A7
:10A3D00020462946FFF788FA002818BF01200AE026
:10A3E00080212046FFF780FB00212046FFF77CFB01
:10A3F000002070BD00203060022220463146FEF76A
:10A400004BFF002070BD0000B0B50D460978044632
:10A4100011F0600118BF402914D194F89C02013852
:10A42000022803D8A88810F0FE0F19D080212046FA
:10A43000FFF75AFB002120460025FFF755FB284671
:10A44000B0BD00BF2029E8D080212046FFF74CFB9B
:10A45000002120460025FFF747FB2846B0BD00BF7E
:10A46000C1B22046FEF7ECFE10B10320B0BD00BF24
:10A47000D4F8B8028268002AF7D00020C4F8D402C9
:10A48000204629469047E9880546002908BF002D47
:10A49000E3D12046FEF710FF0020B0BD0000000011
:10A4A000704700000000000040F60410C2F20040B7
:10A4B000704700000000000010B50A784B78D0F813
:10A4C0001CC802F00F044FEA421E012B1AD10123CF
:10A4D00003FA04F400EB0E0344EA0C04C0F81C4831
:10A4E000D3F8000900042AD403F510600B798968B9
:10A4F0006FF3DF21046841EA834144EA8252114349
:10A5000018E000BF4FF4803202FA04F300EB0E02B1
:10A5100043EA0C03C0F81C38D2F8000B00040ED438
:10A520000B7902F5306089686FF3DF21026841EA38
:10A530008341114341F0805141F40041016000200A
:10A5400010BD0000000000000146D0F8000940F2F4
:10A55000FF729043C1F80009D1F80428002042F4AA
:10A560008072C1F80428704780B582B0069901292D
:10A5700040F64051C0F2030174D1826BDDF834C063
:10A5800022F4803282634FF6BF72D0F80CE0CFF62F
:10A59000BD72BCF1010F02EA0E02C260C26822F471
:10A5A0004012C26003D1C26842F48012C26000222D
:10A5B0000092009A01320092009A8A4200F2B28020
:10A5C0000269002A1ED4009A01320092009A8A423F
:10A5D00000F2A8800269002A14D4009A0132009285
:10A5E000009A8A4200F29E800269002A0AD4009AE8
:10A5F00001320092009A8A4200F294800269B2F11C
:10A60000FF3FD6DC00220092026942F001020261A3
:10A61000009A01320092009A8A4200F28380026915
:10A62000D2071AD0009A01320092009A8A4279D851
:10A630000269D20711D0009A01320092009A8A4230
:10A6400070D80269D20708D0009A01320092009AAD
:10A650008A4267D80269D207DAD10021012B40F083
:10A6600080806DE0DDF828C0C26842F04002C26020
:10A6700000220192019A01320192019A8A4255D830
:10A680000269002A1BD4019A01320192019A8A427E
:10A690004CD80269002A12D4019A01320192019A1F
:10A6A0008A4243D80269002A09D4019A01320192F0
:10A6B000019A8A423AD80269B2F1FF3FDADC0022FD
:10A6C0000192026942F001020261019A0132019293
:10A6D000019A8A422AD80269D2071AD0019A013215
:10A6E0000192019A8A4221D80269D20711D0019AB7
:10A6F00001320192019A8A4218D80269D20708D021
:10A70000019A01320192019A8A420FD80269D20756
:10A71000DBD10021BCF1000F826B0CD142F48032FE
:10A720000BE000BF0321012B1BD109E00321BCF189
:10A73000000F826BF2D022F480328263012B10D1A1
:10A74000C26D92B2C265C26D42F0007242F0F77201
:10A75000C265826842F006028260826842F020028E
:10A760008260084602B080BD80B54A780978012A27
:10A770004FEA41122AD1024447F6000CCEF6334C80
:10A780004FF0010ED2F8003902F51062002B07D508
:10A79000136843F000631360136843F08043136051
:10A7A00001F00F01D0F83C380EFA01F18B43C0F8EC
:10A7B0003C38D0F81C3823EA0101C0F81C18116895
:10A7C000002001EA0C01116080BD00BF831847F62C
:10A7D000000C03F53062CEF6334CD3F8003B0CF19D
:10A7E000707CB3F1FF3F4FF4803ED9DCD0E700002E
:10A7F0000146D0F8000E20F00300C1F8000E002042
:10A80000D1F8042822F00202C1F8042870470000A1
:10A810000146D0F8000E20F00300C1F8000E002021
:10A82000D1F8042842F00202C1F804287047000061
:10A830002DE9F04F83B0DDF84C809946B8F1000F58
:10A840000E9B4FF00002C0F80421C0F80821C0F8A8
:10A850000C21C0F81021C0F81421C0F81821C0F84C
:10A860001C21C0F82021C0F82421C0F82821C0F8FC
:10A870002C21C0F83021C0F83421C0F83821C0F8AC
:10A880003C2107D0826B00F5006E42F40012826317
:10A8900014E000BFD0F8042800F5006E42F0020278
:10A8A000C0F80428826B22F400128263026842F02E
:10A8B00040020260076847F0800707600027C0F881
:10A8C000007E012BD0F80038C0F8003808D10C9F6A
:10A8D000DEF80030002F18BF43F0010304E000BF92
:10A8E000DEF8003043F0030340F64055DDF83CB09D
:10A8F000C0F20305C0F8003800230193019B013327
:10A900000193019BAB4249D80369002B1BD4019BE7
:10A9100001330193019BAB4240D80369002B12D451
:10A92000019B01330193019BAB4237D80369002B94
:10A9300009D4019B01330193019BAB422ED80369DB
:10A94000B3F1FF3FDADC002301934FF4846303612A
:10A95000019B01330193019BAB421FD803699B0606
:10A960001AD5019B01330193019BAB4216D80369B1
:10A970009B0611D5019B01330193019BAB420DD87E
:10A9800003699B0608D5019B01330193019BAB42F0
:10A9900004D803699B06DBD4002700E001270023CD
:10A9A0000293029B01330293029BAB4248D8036996
:10A9B000002B1BD4029B01330293029BAB423FD876
:10A9C0000369002B12D4029B01330293029BAB421A
:10A9D00036D80369002B09D4029B01330293029BF2
:10A9E000AB422DD80369B3F1FF3FDADC00230293B9
:10A9F00010230361029B01330293029BAB421FD8D9
:10AA00000369DB061DD5029B01330293029BAB4217
:10AA100016D80369DB0614D5029B01330293029B0F
:10AA2000AB420DD80369DB060BD5029B01330293C1
:10AA3000029BAB4204D80369DB06DBD401E000BF14
:10AA400001274FF0000A0029CEF810A0CEF814A07C
:10AA5000CEF81CA000F00881D0F800394FF0006259
:10AA60004E1E4FF67F3502EA1313C0F80039C0F8C6
:10AA700010A9C0F808597DD08B1E3A46032B06F06A
:10AA8000030B05D22024BBF1000F44D169E000BFC5
:10AA9000CDF8009026F0030400274FF090484FF6C1
:10AAA0007F3C4FF0000900BF00EB0903043C09F1B3
:10AAB0008009D3F8205908EAE575C3F82059C3F88E
:10AAC0003079C3F828C9D3F8405908EAE575C3F8C6
:10AAD0004059C3F85079C3F848C9D3F8605908EA17
:10AAE000E575C3F86059C3F87079C3F868C9D3F83D
:10AAF000805908EAE575C3F88059C3F89079C3F81E
:10AB000088C9D1D109F12004DDF84C80DDF800902E
:10AB1000BBF1000F25D000F510634FF0904C1F19CA
:10AB2000BBF1010F1D590CEAE5751D514FF00004F2
:10AB30004FF67F333C61BB6013D03D6ABBF1020F1F
:10AB40000CEAE5753D623C63BB620AD03B6C4FF09A
:10AB5000904505EAE3733B6400233B654FF67F3382
:10AB6000BB640029DDF83CB017464FF000624FF699
:10AB70007F3579D0D0F8003B002E02EA1313C0F8DD
:10AB8000003B4FF00003C0F8103BC0F8085B6BD0EF
:10AB9000023906F0030C032904D22023BCF1000F74
:10ABA0003CD161E0009726F0030400264FF0904767
:10ABB0004FF67F31002300BFC518043C03F180032A
:10ABC000D5F8202B07EAE272C5F8202BC5F8306BC8
:10ABD000C5F8281BD5F8402B07EAE272C5F8402BD0
:10ABE000C5F8506BC5F8481BD5F8602B07EAE27230
:10ABF000C5F8602BC5F8706BC5F8681BD5F8802BBD
:10AC000007EAE272C5F8802BC5F8906BC5F8881B7F
:10AC1000D2D12033009FBCF1000F25D000F5306267
:10AC20004FF09044D118BCF1010FD5584FF67F3644
:10AC300004EAE575D5504FF000030B618E6013D028
:10AC40000A6ABCF1020F04EAE2720A620B638E62C6
:10AC50000AD00A6C4FF0904303EAE2720A640022C1
:10AC60000A654FF67F328A64DEF81010B9F1000FE2
:10AC700021F48071CEF81010C0F818A06FF0804158
:10AC8000416103D1816941F01001816143F6000205
:10AC90008169C8F23C02BBF1000F41EA0201816107
:10ACA00003D0816941F008018161B8F1010F05D13C
:10ACB000816941F0804141F004018161384603B06F
:10ACC000BDE8F08F0000000001468268002022F0FD
:10ACD00001028A607047000043F20B03D0F840C0C5
:10ACE000C4F654739C4503D3D0F8003B002B1ED40C
:10ACF0000023C0F8103BD0F8103B012943F4002397
:10AD0000C0F8103BD0F8103B43F01803C0F8103BDC
:10AD1000D0F8103B43F0C041C0F8101B07D1C0F879
:10AD2000142BD0F8001B41F08021C0F8001B00203C
:10AD300070470000000000004A780B78012A4FEAB3
:10AD4000431210440ED1D0F8002922F40012C0F8AA
:10AD50000029097901F0FE01022914D100F51060E3
:10AD60000DE000BFD0F8002B22F40012C0F8002B39
:10AD7000097901F0FE01022905D100F53060016872
:10AD800041F0805101600020704700000000000089
:10AD90000A784B785101012B084407D1D0F80019EB
:10ADA000002900F5106107D50CE000BFD0F8001BAA
:10ADB000002900F5306105D4002A1EBF086820F084
:10ADC000804008600A68002042F400120A60704760
:10ADD00070B54B7891F800C0012B1FD100EB4C1ED1
:10ADE0000D69002D0EF51063DEF810493ED06FF3AB
:10ADF00012041C611C69BCF1000F6FF3DC441C6180
:10AE00008C6863D02E19013EB6FBF4F40026C1F61F
:10AE1000F87606EAC4441E695FE000BF00EB4C16FA
:10AE2000BCF1000FD6F8103B6FF31203C6F8103BCD
:10AE3000D6F8105B06F530636FF3DC45C6F8105B9F
:10AE40008C680E691ED00EB32644013EB6FBF4F6A4
:10AE5000B5B26C4300250C62C1F6F87505EAC6462A
:10AE60001D696FF3DF442E431E6116E06FF3DC446F
:10AE70001C611C69002544F400241C611C696FF3EB
:10AE800012043CE0002E18BF0C610C626FF3DF442B
:10AE90001E6926431E614FF400241E69012A46EAFA
:10AEA00004021A6103D1CA68002A18BF5A610979DD
:10AEB000012940F08E80D0F80808C0054FF080507E
:10AEC00058BF4FF000501968084381E0A54201D9EE
:10AED00025460C611C694FF4002634431C612C4646
:10AEE0001E696FF3DF4434431C610C79012C07D1D8
:10AEF0001C6924F0C0441C611C6944F000541C61AE
:10AF0000012A11D1CA69002A18BFCEF8142909797B
:10AF100001295ED1D0F80808C005DEF8000955D433
:10AF200040F0005054E000BF00F510634FEA4C14AD
:10AF30001E5946F004461E510E79012E3CD1D0F820
:10AF40000868F6054FF0805658BF4FF0005654F889
:10AF500003E0002A4EEA0602E2503FD1AAB2EAB369
:10AF6000D61C4FF0FF32C96800F5805002EB960303
:10AF70004FEA0C32032BC6F381030FD3B60826F039
:10AF8000030400BF0E6816504E6816508E681650A7
:10AF9000CE68043C01F110011650F3D1F3B1012B3E
:10AFA0000E6816501AD0022B4B68135016D08968C1
:10AFB0001150002070BD00BF85B10CF00F010122BF
:10AFC00002FA01F100F6340305E000BF40F08050C2
:10AFD00018604FF00441186808431860002070BDE5
:10AFE00081B0002200924A780978012A4FEA411183
:10AFF0003AD100F510625058B0F1FF3F3ADC885862
:10B0000042F2107340F000608850885840F0804051
:10B0100088500098013000900098984264D8885871
:10B02000B0F1FF3F26DC0098013000900098984274
:10B030005AD88858B0F1FF3F1CDC009801300090CE
:10B040000098984250D88858B0F1FF3F12DC009821
:10B05000013000900098984246D8885800284FF058
:10B060000000D6D43DE000BF00F530625058B0F18A
:10B07000FF3F03DD002001B0704700BF885842F257
:10B08000107340F000608850885840F0804088502D
:10B090000098013000900098984225D88858B0F167
:10B0A000FF3FE7DC009801300090009898421BD8E1
:10B0B0008858B0F1FF3FDDDC009801300090009827
:10B0C000984211D88858B0F1FF3FD3DC0098013086
:10B0D00000900098984207D8885800284FF0000048
:10B0E000D6D401B0704700BF012001B07047000006
:10B0F00001468268002042F001028A607047000029
:10B1000081B040F640510022C0F203010092009A43
:10B1100001320092009A8A424AD80269002A1BD45E
:10B12000009A01320092009A8A4241D80269002AAC
:10B1300012D4009A01320092009A8A4238D80269E9
:10B14000002A09D4009A01320092009A8A422FD82C
:10B150000269B2F1FF3FDADC0022009210220261A4
:10B16000009A01320092009A8A4221D80269D206DE
:10B170001AD5009A01320092009A8A4218D80269C0
:10B18000D20611D5009A01320092009A8A420FD855
:10B190000269D20608D5009A01320092009A8A42CA
:10B1A00006D80269D206DBD4002001B0704700BF88
:10B1B000032001B07047000081B040F640520023E8
:10B1C000C0F203020093009B01330093009B934263
:10B1D0004AD80369002B1BD4009B01330093009BCA
:10B1E000934241D80369002B12D4009B0133009392
:10B1F000009B934238D80369002B09D4009B01338C
:10B200000093009B93422FD80369B3F1FF3FDADC30
:10B2100089010023009320310161009901310091DF
:10B220000099914220D8016989061AD50099013107
:10B2300000910099914217D80169890611D50099AA
:10B2400001310091009991420ED80169890608D513
:10B250000099013100910099914205D80169890650
:10B26000DBD4002001B07047032001B0704700001C
:10B27000D0F8081888074FF0020001F0060158BF07
:10B280000F20002908BF084670470000000000009A
:10B29000406900F001007047D0F81818D0F81C0879
:10B2A000084080B270470000D0F81818D0F81C0889
:10B2B0000840000C70470000D0F810C8D0F83438AF
:10B2C00001F00F0200EB411023FA02F2D201D0F894
:10B2D0000809D1B241EA0C010840704700000000A3
:10B2E00000EB4111D1F8081BD0F814080840704752
:10B2F000416980690840704710B5930802F0030E59
:10B300002CD05A1E03F0030C032A0FD323F003039F
:10B310004FF4805284580C6084584C6084588C6080
:10B320008458043BCC6001F11001F3D1BCF1000F53
:10B3300014D04FF480520B46BCF1010F845843F8EF
:10B34000044B05D11946BEF1000F0AD128E000BF19
:10B35000BCF1020F82584A601AD10831BEF1000FC9
:10B360001ED04FF48052BEF1010F80580A4602F8F9
:10B37000010B01D1104610BDBEF1020F4FEA1022A1
:10B380004A7001D1881C10BD000C8870033107E0A1
:10B390004FF4805282588A600C31BEF1000FE0D128
:10B3A000084610BD00000000B0B50446C06820F09B
:10B3B000C040E06091B1012926D1E068002540F04D
:10B3C0000050E0600120F5F75BF86069C00705F107
:10B3D000010014D1312D0546F4D310E0E0680025BA
:10B3E00040F08040E06000BF0120F5F749F8606957
:10B3F000C00705F1010002D0312D0546F4D33238E3
:10B40000B0FA80F04009B0BD0120B0BD00000000DE
:10B410000246D0F8000820F4FE6001F07F01C2F877
:10B4200000080020D2F8003843EA0111C2F80018E1
:10B430007047000000000000022A02460ED145F2CB
:10B44000403043F20053CFF62770C0F20C0308449B
:10B4500098420FD24FF4705102E000BF4FF41051E8
:10B46000D06820F47050D060D36800201943D160B8
:10B47000704700BF41F6406044F24023CFF61B7096
:10B48000C0F20F030844984202D24FF46051E7E73C
:10B49000A1F5740044F68073A0F51050C0F21203B9
:10B4A000984203D24FF45051DAE700BFA1F1837004
:10B4B0004DF22063A0F5E740C0F21303984203D297
:10B4C0004FF44051CCE700BF4BF260604EF2603366
:10B4D000CFF6E560C0F216030844984202D24FF45A
:10B4E0003051BDE74DF2003047F24073CFF6CE60E9
:10B4F000C0F21B030844984202D24FF42051AFE738
:10B5000045F6C03049F2C013CFF6B360C0F2210354
:10B510000844984202D24FF41051A1E7A1F1B7704C
:10B5200047F22053A0F55850C0F23803984203D296
:10B530004FF4005194E700BF45F2E04049F6E04384
:10B54000CFF65960C0F2410308444FF4C05198420D
:10B5500038BF4FF4E05183E780B5DDF808C0BCF197
:10B56000000F33D193B303334FF0FF3C00F5805EFF
:10B5700012030CEB930CBCF1030FC3F3810C13D338
:10B580009B0823F0030300BF086842F80E004868D8
:10B5900042F80E00886842F80E00C868043B01F1CA
:10B5A000100142F80E00EFD1BCF1000F0ED0BCF13B
:10B5B000010F086842F80E0008D0BCF1020F48687D
:10B5C00042F80E0002D0886842F80E00002080BDCC
:10B5D000FEE70000000000002DE9F04F83B040F6C8
:10B5E00000440646C5F60204F5F756F820218DF80A
:10B5F0000610310C8DF80710310A8DF80810054639
:10B600008DF8096000F0DCF9402100222046F5F7B2
:10B6100033F842F204260DF10601C2F2004604227C
:10B620004FF47A733046F8F7CBFF402101222046D1
:10B63000F5F722F84FF0050A0DF10B080DF10A0994
:10B6400040F6B93B002700BF4021002220468DF87C
:10B650000BA0F5F711F801224FF47A7330464146FA
:10B66000F8F7AEFF01224FF47A7330464946F8F7F7
:10B6700063FE402101222046F4F7FEFF9DF80A00F8
:10B68000C00705D0F5F708F8401B5845DCD3032761
:10B69000384603B0BDE8F08F2DE9F04184B0044690
:10B6A00040F60048C5F602084FF48050A0614FF400
:10B6B0008070E0614FF48030206190200190402143
:10B6C00000224046F4F7D8FF42F2042601A9C2F254
:10B6D000004604224FF47A733046F8F771FF0DF1FB
:10B6E0000A0102224FF47A733046F8F725FEBDF8BE
:10B6F0000A0040210122012605BA4046F4F7BCFFAA
:10B7000041F2E8004FF6FB7100EB154080B2884231
:10B7100042D39F208DF80C004021002240462D0C82
:10B720000026F4F7A9FF42F2042703A9C2F200475A
:10B7300001224FF47A733846F8F742FF0DF10D01FC
:10B7400003224FF47A733846F8F7F6FD9DF80D00A2
:10B750009DF80E109DF80F20090241EA004040219B
:10B760001044206001224046F4F786FFB7EE000A3D
:10B770004EF61370281A00F063FCBCEEC00AA169F3
:10B78000226910EE100A0005B0FBF1F16161B0FB17
:10B79000F2F1C4E90150E160304604B0BDE8F08147
:10B7A00010B582B040F6004449F66610C5F60204B2
:10B7B000ADF80600402100222046F4F75DFF42F27A
:10B7C00004200DF10601C2F2004002224FF47A7308
:10B7D000F8F7F6FE402101222046F4F74DFF042041
:10B7E000F4F74EFE41F67C10C2F20040FFF754FF22
:10B7F00002B010BD00000000F0B581B040F600447A
:10B800001646C5F60204054603208DF80000080C14
:10B810008DF80100080A8DF802008DF80310402110
:10B8200000222046F4F728FF42F204276946C2F2BC
:10B83000004704224FF47A733846F8F7C1FEB2B2DB
:10B840004FF47A7338462946F8F776FD10B1012097
:10B8500001B0F0BD402101222046F4F70DFF002089
:10B8600001B0F0BD000000002DE9F04F85B0154695
:10B870000C4602904FF40077F4F70EFF0646A7F54A
:10B880000070A0429CBFA7F58070A0420CD8A742D0
:10B890000BD807F5807107F58060A1420746EED905
:10B8A000A0F5407701E000BF0746381B40F600478F
:10B8B000A842C5F6020728BF28460DF10E094FF031
:10B8C00005080190281942F2042500900220C2F2D6
:10B8D00000450DF1130A0DF1120B8DF80E00200C2E
:10B8E0008DF80F00200A8DF810008DF8114000F03F
:10B8F00067F8402100223846F4F7BEFE04224FF4D8
:10B900007A7328464946F8F75BFE002852D1DDF8E5
:10B9100004904FF47A731FFA89F228460299F8F7D7
:10B920004FFE002846D1402101223846F4F7A4FEFC
:10B930004021002238468DF81380F4F79DFE012245
:10B940004FF47A7328465146F8F73AFE01224FF435
:10B950007A7328465946F8F7EFFC40210122384611
:10B96000F4F78AFE9DF81200C00707D0F4F794FEA2
:10B97000801BB0F57A7FDBD918E000BF4C440298F9
:10B980004844029004F58070009988424FF480701A
:10B9900088BF081BA1420DF10E0901904FF0020073
:10B9A0009BD8002005B0BDE8F08F00BF032005B094
:10B9B000BDE8F08F012005B0BDE8F08F0000000069
:10B9C0002DE9F04782B040F600440620C5F6020497
:10B9D0008DF80500F4F760FE054640210022204660
:10B9E000F4F74AFE42F204260DF10501C2F20046C8
:10B9F00001224FF47A733046F8F7E2FD402101222C
:10BA00002046F4F739FE4FF0050A0DF107080DF155
:10BA1000060900274021002220468DF807A0F4F7F0
:10BA20002BFE01224FF47A7330464146F8F7C8FDE9
:10BA300001224FF47A7330464946F8F77DFC4021E5
:10BA400001222046F4F718FE9DF80600C0070AD030
:10BA5000F4F722FE401BB0F57A7F03D80020F4F7FC
:10BA60000FFDD7E70327384602B0BDE8F087000096
:10BA7000F0B599B005AD0446032700284FF0440106
:10BA8000284608BF0127F4F744FC0620079041F63A
:10BA9000784041F28832C2F20040294608970026D9
:10BAA000CDE916661896F5F7C3FA60BB0520079036
:10BAB0004FF400500D904FF040700696CDE911669E
:10BAC000CDE90F66CDE90266CDE90066CDE90466F1
:10BAD0000A96002CCDE90876CDE90B660E9605A9ED
:10BAE00008BF4FF0807041F2883215961390012004
:10BAF000149041F67840C2F200401896CDE91666DF
:10BB0000F5F796FA20B14FF0FF3019B0F0BD00BF45
:10BB100002206946CDE90000002002900A2004902E
:10BB20004FF48000039041F6784041F28832C2F22F
:10BB30000040F5F7E9F9C0B2002818BF4FF0FF3018
:10BB400019B0F0BD0000000080B540F600004FF4D1
:10BB50000051C5F60200F4F77FFD0138B0FA80F01D
:10BB6000400980BD0000000080B586B044F2E0418D
:10BB70000020C5F60201CDE904000A6842F0040283
:10BB80000A60096801F00401009100994FF4005126
:10BB9000CDE901100220039040F6000001A9C5F68E
:10BBA0000200F4F781FC06B080BD00000000000038
:10BBB00070B586B044F2E0400025C5F60200059558
:10BBC00041F2000400220168C5F6020441F01001B0
:10BBD00001600068082100F01000009000982046E5
:10BBE0000826F4F749FD012001A9CDE90205204608
:10BBF00001960495F4F758FC06B070BD00000000F3
:10BC000041F200000821C5F60200F4F72DBD000046
:10BC1000F4F742BD0000000080B542F21430042168
:10BC2000C2F20040F8F708FF002080BD00000000CD
:10BC3000F0B581B041F200040D46C5F602048DF85E
:10BC400003004FF4006100222046F4F715FD4FF485
:10BC5000005100222046F4F70FFD42F28C260DF130
:10BC60000301C2F20046012264233046F8F7A8FC23
:10BC700007464FF4005101222046F4F7FDFC012253
:10BC80004FF4FA7330462946F8F756FB05464FF451
:10BC9000006101222046F4F7EFFC6842381A18BF11
:10BCA0004FF0FF3001B0F0BD70B541F200060C4618
:10BCB000C5F6020605464FF4006100223046F4F74F
:10BCC000DBFCA2B242F28C20C2F200404FF4FA73C5
:10BCD0002946F8F731FB04464FF400610122304653
:10BCE000F4F7CAFC002C18BF4FF0FF34204670BD9B
:10BCF00070B541F200060C46C5F6020605464FF443
:10BD0000006100223046F4F7B7FCA2B242F28C2068
:10BD1000C2F2004064232946F8F752FC04464FF46F
:10BD2000006101223046F4F7A7FC002C18BF4FF049
:10BD3000FF34204670BD0000F0B581B041F2000430
:10BD40001646C5F602040D468DF803004FF4006157
:10BD500000222046F4F790FC4FF4005100222046C8
:10BD6000F4F78AFC42F28C200DF10301C2F200408C
:10BD700001226423F8F724FC07464FF40051012206
:10BD80002046F4F779FC56B1B2B242F28C20C2F2EE
:10BD900000404FF4FA732946F8F712FC07444FF4B9
:10BDA000006101222046F4F767FC002F18BF4FF016
:10BDB000FF37384601B0F0BD90B04EF660704FF6D8
:10BDC000B452CEF20000CFF6FF728158890312D42C
:10BDD000BFF34F8FBFF36F8F002140F8101CBFF3EC
:10BDE0004F8FBFF36F8F815841F400318150BFF303
:10BDF0004F8FBFF36F8F8158C90361D44FF6246111
:10BE00000022CFF6FF71012743F6E07B42504FF648
:10BE10002061CFF6FF71BFF34F8F4158CB08C1F3BC
:10BE2000C905C1F34E326E1E07EBD101A5F1020A1E
:10BE30009F0701F003014FEA86794FEA8A73049362
:10BE4000EB1E039304E000BF002AA2F1010229D0F7
:10BE50000BEA42142B4679B1012947EA0403036037
:10BE6000334609D0022949EA04030360534603D04C
:10BE7000049B23430360039B032DE5D344EA8374AF
:10BE8000013304F1404C84F0004E04F1804800BFBF
:10BE9000043B0460C0F800C0C0F800E0C0F80080B7
:10BEA000F6D1D1E74FF6B452CFF6FF72BFF34F8F02
:10BEB000815841F480318150BFF34F8FBFF36F8FB2
:10BEC00001200B90F4F78CFC0BAC00200C9048F296
:10BED0001F700D9040F201100E902046F4F750FCB8
:10BEE0000420F4F78DFCF4F7EFFBFDF719F8FAF7EF
:10BEF000C3F8FAF76DF9FAF7AFF9FAF711FAFAF7AA
:10BF000027F9FAF7D9F9FAF793FAFFF72DFEFFF7B9
:10BF10004FFEF9F725FCF4F7BFFB00F1C807F4F773
:10BF2000BBFB42F2E01545F2204946F26C1B45F29C
:10BF3000530AC2F200454FF00C08C7F26539C6F645
:10BF4000730BC4F2496A01E0BE420DD2F4F7A4FBC0
:10BF50000646FFF7F9FD0028F6D0BE42F6D306F1FB
:10BF6000C807FFF74DFEF1E706F5FA77FFF748FE41
:10BF70000022284605A9F7F72FFE002228460AA925
:10BF8000F7F7F6FD9DF8160016A19DF814209DF810
:10BF90001530C0070FA008BF0146204600F03CF84E
:10BFA00004203E21A0221023CDF800800194F9F74F
:10BFB0009FFB7420ADF8380050203E21A0221023B2
:10BFC000CDF83490CDE90BABCDF800800194F9F7B2
:10BFD0008FFBBBE754696D653A202530326420251C
:10BFE0003032640054696D653A20253032643A2558
:10BFF0003032640000000000436800691847000008
:10C00000D0E9033018470000836800691847000032
:10C01000D0F800C0006960470FB4084B10B504A900
:10C0200002AA039800F07AF8044602A9002000F062
:10C03000A6FA204610BC5DF814FB00007FC500087E
:10C0400010EE102A6FEAD25212F0FF0F1ABFB5EEAF
:10C05000C00AF1EE10FA704710B501462DED028BC3
:10C0600010EE100AF4F791F908EE100A18EE100A13
:10C070006FEAD05010F0FF0F19D0B5EEC08AF1EE84
:10C0800010FA1EBFB0EE480ABDEC028B10BD0220B4
:10C0900000F03EF800F024F810EE101A18EE100A26
:10C0A000BDEC028B61F31E0000EE100A10BD0220F1
:10C0B00000F02EF800F00CF810EE101A18EE100A2E
:10C0C000BDEC028B61F31E0000EE100A10BD0000F3
:10C0D0009FED020A20EE000A704700000000007089
:10C0E0009FED020A20EE000A7047000000000010D9
:10C0F00002E008C8121F08C1002AFAD17047704731
:10C10000002001E001C1121F002AFBD1704700008E
:10C110000149086070470000000000242DE9FF4F2E
:10C120008DB00F460546002606E025280BD0DDE938
:10C130000F1290476D1C761C28780028F5D111B09D
:10C140003046BDE8F08F0024A246A1460122EC490A
:10C1500000E0044315F8013F203B02FA03F00842D7
:10C16000F7D128782A2810D06FF02F022878A0F174
:10C170003001092914D80AEB8A0102EB410144F08D
:10C18000020400EB010A6D1CF0E701CF5FEA000A30
:10C1900003D544F40054CAF1000A44F002046D1CB3
:10C1A00028782E2817D115F8010F44F004042A2806
:10C1B0000ED06FF02F022878A0F1300109290AD89B
:10C1C00009EB890102EB410100EB01096D1CF2E76B
:10C1D00057F8049B6D1C28786C280FD006DC4C287F
:10C1E00017D068280DD06A2814D104E0742810D024
:10C1F0007A280FD10DE044F400140AE044F48014CE
:10C2000001E044F440146978814202D104F58014BD
:10C210006D1C6D1C2A786E2A1FD00CDC632A31D06D
:10C2200004DC002A8BD0582A11D1A3E0642A68D0FC
:10C23000692A0CD165E0732A2ED004DC6F2A73D0F2
:10C24000702A04D19BE0752A6FD0782A6ED01046F0
:10C25000DDE90F129047761C50E1C4F3025002282A
:10C2600006D0032809D0042801CF09D0066045E193
:10C2700001CFF117C0E9006140E101CF06803DE147
:10C2800006703BE117F8040B8DF8000000208DF8D4
:10C290000100EB46012003E057F804BB4FF0FF30EC
:10C2A00061074FF0000102D40DE008F1010188465A
:10C2B00049450FDA8045F8DB1BF808100029F4D156
:10C2C00008E008F1010188468142FADB1BF80810FA
:10C2D0000029F6D1DDE90F23AAEB080081462146AB
:10C2E00000F036F9304400EB080604E0DDE90F12F7
:10C2F0001BF8010B9047B8F10108F7D221464846D8
:10C30000F7E00A21C4F302534FF0000B0891022B0F
:10C3100004D001CFC117032B09D00AE0FF1D27F07D
:10C320000707F7E8020108E032E01FE020E000B272
:10C33000C117042B01D140B2C117031E71F10003D4
:10C3400007DA4FF0000CD0EB0C006CEB01012D2351
:10C3500002E0230504D52B238DF82430012303E0CC
:10C36000E30701D02023F7E7984658E00A2110E0C0
:10C3700010210EE010204FF0000B08900CE010216F
:10C380004FF0000B44F004044FF00809089103E05B
:10C3900008214FF0000B0891C4F30253022B04D084
:10C3A00001CF0021032B06D006E0FF1D27F0070771
:10C3B000F7E8020103E080B2042B00D1C0B24FF0D5
:10C3C000000823072BD5702A07D0DDF820C08CF099
:10C3D000100C5CEA0B0C05D00EE040238DF82430E5
:10C3E000012308E050EA010306D030238DF8243001
:10C3F0008DF8252002239846DDF820C08CF0080C2B
:10C400005CEA0B0C0BD150EA010301D1630706D59E
:10C4100030238DF824304FF00108A9F10109582A82
:10C4200004D038A20B9208AA0A920BE03AA2F9E7CC
:10C430005B46089AF3F778FF0B9B9B5C0A9A521EA7
:10C440000A92137050EA0102F2D10A98ADEB000093
:10C4500000F1200B600702D524F4803401E04FF096
:10C460000109D94502DDA9EB0B0000E0002000EB3B
:10C470000B0141440890AAEB010AE00306D4DDE970
:10C480000F232146504600F063F806444FF00009A0
:10C4900008E009A911F80900DDE90F12904709F138
:10C4A0000109761CC145F4DBE0030CD5DDE90F235F
:10C4B0002146504600F04CF8064404E0DDE90F1236
:10C4C00030209047761C0899481E08900029F5DC1A
:10C4D00008E00A980A990078491C0A91DDE90F12D0
:10C4E0009047761CBBF10001ABF1010BF1DC21465A
:10C4F0005046DDE90F2300F019F806446D1C1BE6D9
:10C500000928010030313233343536373839616229
:10C5100063646566000000003031323334353637ED
:10C520003839414243444546000000002DE9F041BE
:10C53000044600251E461746880404D405E0394603
:10C540002020B0476D1C641EF9D52846BDE8F08157
:10C550002DE9F041044600251E469046C80301D54A
:10C56000302700E02027880404D505E041463846FE
:10C57000B0476D1C641EF9D52846BDE8F0810A68F5
:10C58000531C0B60107070478000000050000000CA
:10C590008000000000000000010203040102030407
:10C5A00006070809008002021F00000053544D20B6
:10C5B0002020202050726F6475637420202020207A
:10C5C00020202020302E3031008002021F00000089
:10C5D000576541637420202051535049204D5343E7
:10C5E0002020202020202020302E3031424D486451
:10C5F0000000000000004600000038000000A0001D
:10C600000000500000000100100003000000026460
:10C610000000120B0000120B0000000000000000E0
:10C62000000000F80000E00700001F00000000000C
:10C6300000000000000000000000000000000000FA
:10C6400000000000000000000000000000000000EA
:10C6500000000000000000000000000000000000DA
:10C6600000000000000000000000000000000000CA
:10D590000000000000000000000000000000084241
:10D5A0002D6B2D6B2D6B242100000000000000006E
:10D5B000000000000000000000000000000000006B
:10D5C000000000000000000000000000000000005B
:10D5D000000000000000000000000000000000004B
:10D5E000000000000000000000000000000000003B
:10D5F000000000000000000000000000000000002B
:10D60000000000000000000000000000000000001A
:10D61000000000000000000000000000000000000A
:10D6200000000000000000000000000000000000FA
:10D6300000000000000000000000000000000000EA
:10D6400000000000000000000000000000000000DA
:10D6500000000000000000000000000000000000CA
:10D6600000000000000000000000000000000000BA
:10D6700000000000000000000000000000000000AA
:10D68000000000000000000000000000000000009A
:10D69000000000000000000000000000000000008A
:10D6A000000000000000000000000000000000007A
:10D6B000000000000000000000000000000000006A
:10D6C000000000000000000000000000000000005A
:10D6D00000000000000000000842D7BDBEF7BEF702
:10D6E0009AD69AD6BEF7FFFF5CE7D7BDAA520000D4
:10D6F0000000000000000000000000000000308476
:10D70000FBDEFFFFFFFFBEF7D7BD2D6B0000000063
:10D710000000000000000842D7BD5CE7FFFFFFFFEC
:10D72000BEF738C6308424210000AA529AD69AD671
:10D730009AD69AD69AD69AD69AD6000000000000B9
:10D74000000000000000242114A5FBDEFFFFFFFF06
:10D750005CE714A52421000075AD9AD69AD69AD616
:10D760009AD69AD69AD630840000000030849AD691
:10D770009AD69AD69AD69AD69AD675AD0000000057
:10D7800000000000000000000000CF7B38C65CE70E
:10D79000FFFFFFFFFBDED7BDAA5200000000000024
:10D7A0000000000000000000000000000000000079
:10D7B0000000000000000000000000000000000069
:10D7C0000000000000000000000000000000000059
:10D7D0000000000000000000000000000000000049
:10D7E0000000000000000000000000000000000039
:10D7F0000000000000000000000000000000000029
:10D800000000000000000000000000000000000018
:10D8100000000000242175ADFFFFD7BDAA52000013
:10D82000000000002421FFFFFFFFFFFFFFFF38C6BD
:10D83000242100000000000000000000D7BDFFFF11
:10D84000FFFFFFFFFFFFFFFFFFFFFFFF75AD0000C2
:10D8500000000000CF7BFFFFFFFFFFFFFFFFFFFF88
:10D86000FFFFFFFFFFFFBEF714A52D6BFFFFFFFFBC
:10D87000FFFFFFFFFFFFFFFFFFFF000000000000B2
:10D88000000000003084BEF7FFFFFFFFFFFFFBDE5C
:10D8900014A5FBDE5CE7AA529AD6FFFFFFFFFFFF4D
:10D8A000FFFFFFFFFFFF14A50000000014A5FFFF0E
:10D8B000FFFFFFFFFFFFFFFFFFFF9AD60000000002
:10D8C00000000000000008429AD6FFFFFFFFFFFFA4
:10D8D00014A500000842B2945CE738C62421000079
:10D8E0000000000000000000000000000000000038
:10D8F0000000000000000000000000000000000028
:10D900000000000000000000000000000000000017
:10D910000000000000000000000000000000000007
:10D9200000000000000000000000000000000000F7
:10D9300000000000000000000000000000000000E7
:10D9400000000000000000000000000000000000D7
:10D9500000002421FBDEFBDEAA52000000000000D4
:10D96000000000002D6BFFFFFFFFFFFFFFFFFFFF29
:10D97000FBDE00000000000000003084FFFFFFFF1E
:10D98000FFFFFFFFFFFFFFFFB2940842FBDEB294F0
:10D9900000002421BEF7FFFFFFFFFFFFFFFFFFFF97
:10D9A000BEF72421000030845CE7BEF7FFFFFFFFD5
:10D9B000FFFFFFFFFFFFFFFFFFFF00000000000071
:10D9C00000003084FFFFFFFFFFFFFFFFFFFF2D6B15
:10D9D00000000000B294BEF75CE7FFFFFFFFFFFF0F
:10D9E000FFFFFFFFFFFF14A50000000014A5FFFFCD
:10D9F000FFFFFFFFFFFFFFFFFFFF9AD600000000C1
:10DA000000000000AA52BEF7FFFFFFFFFFFFFFFF6D
:10DA100014A5000000000000000014A5FBDE242176
:10DA200000000000000000000000000000000000F6
:10DA300000000000000000000000000000000000E6
:10DA400000000000000000000000000000000000D6
:10DA500000000000000000000000000000000000C6
:10DA600000000000000000000000000000000000B6
:10DA700000000000000000000000000000000000A6
:10DA80000000000000000000000000000000000096
:10DA90000000084238C624210000000000000000F9
:10DAA00000000842BEF7FFFFFFFFFFFFFFFFFFFF81
:10DAB000FFFF14A50000000000009AD6FFFFFFFF43
:10DAC000FFFFFFFFFFFFFFFF2D6B000008425CE739
:10DAD0002421CF7BFFFFFFFFFFFFFFFFFFFFFFFFC3
:10DAE0009AD6000000000000000075ADFFFFFFFFA8
:10DAF000FFFFFFFFFFFFFFFFFFFF00000000000030
:10DB00002D6BFFFFFFFFFFFFFFFFFFFFFFFF2D6BF1
:10DB10000000000000003084FFFFFFFFFFFFFFFF59
:10DB2000FFFFFFFFFFFF14A50000000014A5FFFF8B
:10DB3000FFFFFFFFFFFFFFFFFFFF9AD6000000007F
:10DB400000002421BEF7FFFFFFFFFFFFFFFFFFFFE5
:10DB500014A500000000000000000000B2949AD656
:10DB600000000000000000000000000000000000B5
:10DB700000000000000000000000000000000000A5
:10DB80000000000000000000000000000000000095
:10DB90000000000000000000000000000000000085
:10DBA0000000000000000000000000000000000075
:10DBB0000000000000000000000000000000000065
:10DBC0000000000000000000000000000000000055
:10DBD0000000000000000000000000000000000045
:10DBE0002421FBDEFFFFFFFFFFFFFFFFFFFFFFFF23
:10DBF000FFFF5CE7000000000000FFFFFFFFFFFFEA
:10DC0000FFFFFFFFFFFFFFFF2D6B00000000D7BDF0
:10DC10002D6B14A5FFFFFFFFFFFFFFFFFFFFFFFFBF
:10DC20009AD600000000000000002D6BFFFFFFFFF0
:10DC3000FFFFFFFFFFFFFFFFFFFF000000000000EE
:10DC40005CE7FFFFFFFFFFFFFFFFFFFFFFFF2D6B05
:10DC500000000000000000009AD6FFFFFFFFFFFF5A
:10DC6000FFFFFFFFFFFF14A50000000014A5FFFF4A
:10DC7000FFFFFFFFFFFFFFFFFFFF9AD6000000003E
:10DC80000000D7BDFFFFFFFFFFFFFFFFFFFFFFFF0C
:10DC900014A50000000000000000000000009AD65B
:10DCA00030840000000000000000000000000000C0
:10DCB0000000000000000000000000000000000064
:10DCC0000000000000000000000000000000000054
:10DCD0000000000000000000000000000000000044
:10DCE0000000000000000000000000000000000034
:10DCF0000000000000000000000000000000000024
:10DD00000000000000000000000000000000000013
:10DD100000000000000000000000000000002421BE
:10DD2000FBDEFFFFFFFFFFFFFFFFFFFFFFFFFFFF28
:10DD3000FFFFFFFF000000000000FFFFFFFFFFFFED
:10DD4000FFFFFFFFFFFFFFFF2D6B00000000000043
:10DD5000000014A5FFFFFFFFFFFFFFFFFFFFFFFF16
:10DD60009AD600000000000000002D6BFFFFFFFFAF
:10DD7000FFFFFFFFFFFFFFFFFFFF00000000CF7B63
:10DD8000FFFFFFFFFFFFFFFFFFFFFFFFFFFF2D6B09
:10DD900000000000000000009AD6FFFFFFFFFFFF19
:10DDA000FFFFFFFFFFFF14A50000000014A5FFFF09
:10DDB000FFFFFFFFFFFFFFFFFFFF9AD600000000FD
:10DDC0002421FFFFFFFFFFFFFFFFFFFFFFFFFFFF1C
:10DDD00014A50000000000000000000000002D6BF2
:10DDE0009AD60000000000000000000000000000C3
:10DDF0000000000000000000000000000000000023
:10DE00000000000000000000000000000000000012
:10DE10000000000000000000000000000000000002
:10DE200000000000000000000000000000000000F2
:10DE300000000000000000000000000000000000E2
:10DE400000000000000000000000000000000000D2
:10DE50000000000000000000000000002421FBDEA4
:10DE6000FFFFFFFFFFFFFFFFFFFFFFFFFFFFFFFFC2
:10DE7000FFFFBEF7000000000000FFFFFFFFFFFFF5
:10DE8000FFFFFFFFFFFFFFFF2D6B00000000000002
:10DE9000000014A5FFFFFFFFFFFFFFFFFFFFFFFFD5
:10DEA0009AD600000000000000002D6BFFFFFFFF6E
:10DEB000FFFFFFFFFFFFFFFFFFFF0000000075AD4A
:10DEC000FFFFFFFFFFFFFFFFFFFFFFFFFFFF2D6BC8
:10DED00000000000000000009AD6FFFFFFFFFFFFD8
:10DEE000FFFFFFFFFFFF14A50000000014A5FFFFC8
:10DEF000FFFFFFFFFFFFFFFFFFFF9AD600000000BC
:10DF0000CF7BFFFFFFFFFFFFFFFFFFFFFFFFFFFFD5
:10DF100014A5000000000000000000000000000048
:10DF2000BEF72421000000000000000000000000F7
:10DF300000000000000000000000000000000000E1
:10DF400000000000000000000000000000000000D1
:10DF500000000000000000000000000000000000C1
:10DF600000000000000000000000000000000000B1
:10DF700000000000000000000000000000000000A1
:10DF80000000000000000000000000000000000091
:10DF9000000000000000000000002421FBDEFFFF65
:10DFA000FFFFFFFFFFFFFFFFFFFFFFFFFFFFFFFF81
:10DFB000FFFFD7BD000000000000FFFFFFFFFFFFD5
:10DFC000FFFFFFFFFFFFFFFF2D6B000000000000C1
:10DFD000000014A5FFFFFFFFFFFFFFFFFFFFFFFF94
:10DFE0009AD600000000000000002D6BFFFFFFFF2D
:10DFF000FFFFFFFFFFFFFFFFFFFF000000009AD6BB
:10E00000FFFFFFFFFFFFFFFFFFFFFFFFFFFF2D6B86
:10E0100000000000000000009AD6FFFFFFFFFFFF96
:10E02000FFFFFFFFFFFF14A50000000014A5FFFF86
:10E03000FFFFFFFFFFFFFFFFFFFF9AD6000000007A
:10E0400014A5FFFFFFFFFFFFFFFFFFFFFFFFFFFF25
:10E0500014A5000000000000000000000000000007
:10E060009AD62D6B000000000000000000000000A8
:10E0700000000000000000000000000000000000A0
:10E080000000000000000000000000000000000090
:10E090000000000000000000000000000000000080
:10E0A0000000000000000000000000000000000070
:10E0B0000000000000000000000000000000000060
:10E0C0000000000000000000000000000000000050
:10E0D00000000000000000000000D7BDFFFFFFFFB0
:10E0E000FFFFFFFFFFFFFFFFFFFFFFFFFFFFFFFF40
:10E0F000FFFF0842000000000000FFFFFFFFFFFFDE
:10E10000FFFFFFFFFFFFFFFF2D6B0000000000007F
:10E11000000014A5FFFFFFFFFFFFFFFFFFFFFFFF52
:10E120009AD600000000000000002D6BFFFFFFFFEB
:10E13000FFFFFFFFFFFFFFFFFFFF000000009AD679
:10E14000FFFFFFFFFFFFFFFFFFFFFFFFFFFF2D6B45
:10E1500000000000000000009AD6FFFFFFFFFFFF55
:10E16000FFFFFFFFFFFF14A50000000014A5FFFF45
:10E17000FFFFFFFFFFFFFFFFFFFF9AD60000000039
:10E1800014A5FFFFFFFFFFFFFFFFFFFFFFFFFFFFE4
:10E1900014A50000000000000000000000000000C6
:10E1A0009AD62D6B00000000000000000000000067
:10E1B000000000000000000000000000000000005F
:10E1C000000000000000000000000000000000004F
:10E1D000000000000000000000000000000000003F
:10E1E000000000000000000000000000000000002F
:10E1F000000000000000000000000000000000001F
:10E20000000000000000000000000000000000000E
:10E21000000000000000000075ADFFFFFFFFFFFFE2
:10E22000FFFFFFFFFFFFFFFFFFFFFFFFFFFFFFFFFE
:10E2300014A50000000000000000FFFFFFFFFFFF2B
:10E24000FFFFFFFFFFFFFFFF2D6B0000000000003E
:10E25000000014A5FFFFFFFFFFFFFFFFFFFFFFFF11
:10E260009AD600000000000000002D6BFFFFFFFFAA
:10E27000FFFFFFFFFFFFFFFFFFFF000000009AD638
:10E28000FFFFFFFFFFFFFFFFFFFFFFFFFFFF2D6B04
:10E2900000000000000000009AD6FFFFFFFFFFFF14
:10E2A000FFFFFFFFFFFF14A50000000014A5FFFF04
:10E2B000FFFFFFFFFFFFFFFFFFFF9AD600000000F8
:10E2C000B294FFFFFFFFFFFFFFFFFFFFFFFFFFFF16
:10E2D00014A5000000000000000000000000000085
:10E2E0005CE70842000000000000000000000000A1
:10E2F000000000000000000000000000000000001E
:10E30000000000000000000000000000000000000D
:10E3100000000000000000000000000000000000FD
:10E3200000000000000000000000000000000000ED
:10E3300000000000000000000000000000000000DD
:10E3400000000000000000000000000000000000CD
:10E35000000000000000CF7BFFFFFFFFFFFFFFFF7B
:10E36000FFFFFFFFFFFFFFFFFFFFFFFFFFFF38C6BD
:10E3700000000000000000000000FFFFFFFFFFFFA3
:10E38000FFFFFFFFFFFFFFFF2D6B000000000000FD
:10E39000000014A5FFFFFFFFFFFFFFFFFFFFFFFFD0
:10E3A0009AD600000000000000002D6BFFFFFFFF69
:10E3B000FFFFFFFFFFFFFFFFFFFF0000000014A5AE
:10E3C000FFFFFFFFFFFFFFFFFFFFFFFFFFFF2D6BC3
:10E3D00000000000000000009AD6FFFFFFFFFFFFD3
:10E3E000FFFFFFFFFFFF14A50000000014A5FFFFC3
:10E3F000FFFFFFFFFFFFFFFFFFFF9AD600000000B7
:10E40000AA52FFFFFFFFFFFFFFFFFFFFFFFFFFFF1E
:10E4100014A50000000000000000000000000842F9
:10E42000BEF7000000000000000000000000000037
:10E4300000000000000000000000000000000000DC
:10E4400000000000000000000000000000000000CC
:10E4500000000000000000000000000000000000BC
:10E4600000000000000000000000000000000000AC
:10E47000000000000000000000000000000000009C
:10E48000000000000000000000000000000000008C
:10E49000000000002421BEF7FFFFFFFFFFFFFFFF8A
:10E4A000FFFFFFFFFFFFFFFFFFFFFFFFFBDE24215A
:10E4B00000000000000000000000FFFFFFFFFFFF62
:10E4C000FFFFFFFFFFFFFFFF2D6B000000000000BC
:10E4D000000014A5FFFFFFFFFFFFFFFFFFFFFFFF8F
:10E4E0009AD600000000000000002D6BFFFFFFFF28
:10E4F000FFFFFFFFFFFFFFFFFFFF00000000AA522A
:10E50000FFFFFFFFFFFFFFFFFFFFFFFFFFFF2D6B81
:10E5100000000000000000009AD6FFFFFFFFFFFF91
:10E52000FFFFFFFFFFFF14A50000000014A5FFFF81
:10E53000FFFFFFFFFFFFFFFFFFFF9AD60000000075
:10E5400000005CE7FFFFFFFFFFFFFFFFFFFFFFFF94
:10E5500014A500000000000000000000000014A549
:10E5600075AD000000000000000000000000000089
:10E57000000000000000000000000000000000009B
:10E58000000000000000000000000000000000008B
:10E59000000000000000000000000000000000007B
:10E5A000000000000000000000000000000000006B
:10E5B000000000000000000000000000000000005B
:10E5C000000000000000000000000000000000004B
:10E5D0000000000014A5FFFFFFFFFFFFFFFFFFFF8C
:10E5E000FFFFFFFFFFFFFFFFFFFF5CE724210000AD
:10E5F00000000000000000000000FFFFFFFFFFFF21
:10E60000FFFFFFFFFFFFFFFF2D6B0000000000007A
:10E61000000014A5FFFFFFFFFFFFFFFFFFFFFFFF4D
:10E620009AD600000000000000002D6BFFFFFFFFE6
:10E63000FFFFFFFFFFFFFFFFFFFF000000000000E4
:10E6400038C6FFFFFFFFFFFFFFFFFFFFFFFF2D6B40
:10E6500000000000000000009AD6FFFFFFFFFFFF50
:10E66000FFFFFFFFFFFF14A50000000014A5FFFF40
:10E67000FFFFFFFFFFFFFFFFFFFF9AD60000000034
:10E680000000CF7BFFFFFFFFFFFFFFFFFFFFFFFF4C
:10E6900014A500000000000000000000AA525CE782
:10E6A0002421000000000000000000000000000025
:10E6B000000000000000000000000000000000005A
:10E6C000000000000000000000000000000000004A
:10E6D000000000000000000000000000000000003A
:10E6E000000000000000000000000000000000002A
:10E6F000000000000000000000000000000000001A
:10E700000000000000000000000000000000000009
:10E71000000000005CE7FFFFFFFFFFFFFFFFFFFFC0
:10E72000FFFFFFFFFFFFFFFFBEF7AA520000000040
:10E7300000000000000000000000FFFFFFFFFFFFDF
:10E74000FFFFFFFFFFFFFFFF2D6B00000000000039
:10E75000000014A5FFFFFFFFFFFFFFFFFFFFFFFF0C
:10E760009AD600000000000000002D6BFFFFFFFFA5
:10E77000FFFFFFFFFFFFFFFFFFFF000000000000A3
:10E7800024215CE7FFFFFFFFFFFFFFFFFFFF2D6B73
:10E7900000000000000024215CE7FFFFFFFFFFFFF7
:10E7A000FFFFFFFFFFFF14A50000000014A5FFFFFF
:10E7B000FFFFFFFFFFFFFFFFFFFF9AD600000000F3
:10E7C00000000000D7BDFFFFFFFFFFFFFFFFFFFFBF
:10E7D00014A50000000000000000AA52BEF730841B
:10E7E0000000000000000000000000000000000029
:10E7F0000000000000000000000000000000000019
:10E800000000000000000000000000000000000008
:10E8100000000000000000000000000000000000F8
:10E8200000000000000000000000000000000000E8
:10E8300000000000000000000000000000000000D8
:10E8400000000000000000000000000000000000C8
:10E8500000000000FFFFFFFFFFFFFFFFFFFFFFFFC4
:10E86000FFFFFFFFFFFFBEF7AA52000000000000FD
:10E8700000000000000000000000FFFFFFFFFFFF9E
:10E88000FFFFFFFFFFFFFFFF2D6B000000000000F8
:10E89000000014A5FFFFFFFFFFFFFFFFFFFFFFFFCB
:10E8A0009AD600000000000000002D6BFFFFFFFF64
:10E8B000FFFFFFFFFFFFFFFFFFFF00000000000062
:10E8C0000000AA52FBDEFFFFFFFFFFFFFFFF2D6BE3
:10E8D000000000002D6BFBDE5CE7FFFFFFFFFFFF8A
:10E8E000FFFFFFFFFFFF14A50000000014A5FFFFBE
:10E8F000FFFFFFFFFFFFFFFFFFFF9AD600000000B2
:10E9000000000000000075ADFFFFFFFFFFFFFFFFED
:10E9100014A5000000000000B2945CE73084000001
:10E9200000000000000000000000000000000000E7
:10E9300000000000000000000000000000000000D7
:10E9400000000000000000000000000000000000C7
:10E9500000000000000000000000000000000000B7
:10E9600000000000000000000000000000000000A7
:10E970000000000000000000000000000000000097
:10E980000000000000000000000000000000000087
:10E9900000000000FFFFFFFFFFFFFFFFFFFFFFFF83
:10E9A000FFFFFFFFFFFFAA52000000000000000071
:10E9B0000000000008429AD69AD6FFFFFFFFFFFF33
:10E9C000FFFFFFFFFFFFFFFFFBDE9AD69AD63084E2
:10E9D000000014A5FFFFFFFFFFFFFFFFFFFFFFFF8A
:10E9E0009AD600000000000000002D6BFFFFFFFF23
:10E9F000FFFFFFFFFFFFFFFFFFFF00000000000021
:10EA000000000000242114A5BEF7FFFFFFFFFBDE7E
:10EA100014A5FBDE9AD608429AD6FFFFFFFFFFFF40
:10EA2000FFFFFFFFFFFF14A50000000014A5FFFF7C
:10EA3000FFFFFFFFFFFFFFFFFFFF9AD60000000070
:10EA400000000000000000002D6B9AD6FFFFFFFFC2
:10EA50009AD614A5D7BDBEF7D7BD08420000000066
:10EA600000000000000000000000000000000000A6
:10EA70000000000000000000000000000000000096
:10EA80000000000000000000000000000000000086
:10EA90000000000000000000000000000000000076
:10EAA0000000000000000000000000000000000066
:10EAB0000000000000000000000000000000000056
:10EAC0000000000000000000000000000000000046
:10EAD0000000000038C6FFFFFFFFFFFFFFFFFFFF42
:10EAE000FFFFFFFF30840000000000000000000076
:10EAF0000000000024212D6B2D6BFFFFFFFFFFFFA7
:10EB0000FFFFFFFFFFFFFFFF2D6B2D6B2D6B0842FB
:10EB1000000008422D6B2D6B2D6B2D6B2D6B2D6B1B
:10EB2000AA52000000000000000024212D6B2D6B74
:10EB30002D6B2D6B2D6B2D6B2D6B000000000000DD
:10EB4000000000000000000000002D6B14A514A5BB
:10EB500030840842000000009AD6FFFFFFFFFFFF4D
:10EB6000FFFFFFFFFFFF14A50000000008422D6B10
:10EB70002D6B2D6B2D6B2D6B2D6BAA5200000000A1
:10EB80000000000000000000000000000842308487
:10EB900014A514A5CF7B2421000000000000000074
:10EBA0000000000000000000000000000000000065
:10EBB0000000000000000000000000000000000055
:10EBC0000000000000000000000000000000000045
:10EBD0000000000000000000000000000000000035
:10EBE0000000000000000000000000000000000025
:10EBF0000000000000000000000000000000000015
:10EC00000000000000000000000000000000000004
:10EC100000000000AA52FFFFFFFFFFFFFFFFFFFF02
:10EC2000FFFF14A500000000000000000000AA5231
:10EC3000AA520000000000000000FFFFFFFFFFFFDE
:10EC4000FFFFFFFFFFFFFFFF242100000000000087
:10EC500000000000000000000000000000000000B4
:10EC600000000000000000000000000000000000A4
:10EC70000000000000000000000000000000000094
:10EC80000000000000000000000000000000000084
:10EC900000000000000000009AD6FFFFFFFFFFFF0A
:10ECA000FFFFFFFFFFFF14A500000000000024216C
:10ECB000308414A514A53084084200000000000030
:10ECC0000000000000000000000000000000000044
:10ECD0000000000000000000000000000000000034
:10ECE0000000000000000000000000000000000024
:10ECF0000000000000000000000000000000000014
:10ED00000000000000000000000000000000000003
:10ED100000000000000000000000000000000000F3
:10ED200000000000000000000000000000000000E3
:10ED300000000000000000000000000000000000D3
:10ED400000000000000000000000000000000000C3
:10ED50000000000000003084FFFFFFFFFFFFFFFF07
:10ED6000FFFF24210000000000000000B294FFFF1C
:10ED70002D6B0000000000000000084214A55CE7B5
:10ED8000FFFFFFFFFFFFFFFF2D6B000000000000F3
:10ED90000000000000000000000000000000000073
:10EDA0000000000000000000000000000000000063
:10EDB0000000000000000000000000000000000053
:10EDC0000000000000000000000000000000000043
:10EDD00000000000000000009AD6FFFFFFFFFFFFC9
:10EDE000FFFFFFFFFFFF14A5000000000842BEF771
:10EDF000FFFFFFFFFFFFFFFFBEF7CF7B000000001C
:10EE00000000000000000000000000000000000002
:10EE100000000000000000000000000000000000F2
:10EE200000000000000000000000000000000000E2
:10EE300000000000000000000000000000000000D2
:10EE400000000000000000000000000000000000C2
:10EE500000000000000000000000000000000000B2
:10EE600000000000000000000000000000000000A2
:10EE70000000000000000000000000000000000092
:10EE80000000000000000000000000000000000082
:10EE90000000000000000000AA529AD6FFFFFFFF0A
:10EEA000FFFF14A52D6B2D6B75AD5CE79AD6AA52AA
:10EEB0000000000000000000000000000000000052
:10EEC00030845CE7FFFFFFFF2D6B000000000000B7
:10EED0000000000000000000000000000000000032
:10EEE0000000000000000000000000000000000022
:10EEF0000000000000000000000000000000000012
:10EF00000000000000000000000000000000000001
:10EF100000000000000000009AD6FFFFFFFFFFFF87
:10EF2000FFFFFFFFFFFF14A50000000014A5FFFF77
:10EF3000FFFFFFFFFFFFFFFFFFFF9AD6000000006B
:10EF400000000000000000000000000000000000C1
:10EF500000000000000000000000000000000000B1
:10EF600000000000000000000000000000000000A1
:10EF70000000000000000000000000000000000091
:10EF80000000000000000000000000000000000081
:10EF90000000000000000000000000000000000071
:10EFA0000000000000000000000000000000000061
:10EFB0000000000000000000000000000000000051
:10EFC0000000000000000000000000000000000041
:10EFD0000000000000000000000000000842B294A1
:10EFE000D7BD9AD69AD638C614A5AA5200000000FA
:10EFF0000000000000000000000000000000000011
:10F000000000000030845CE72D6B00000000000071
:10F0100000000000000000000000000000000000F0
:10F0200000000000000000000000000000000000E0
:10F0300000000000000000000000000000000000D0
:10F0400000000000000000000000000000000000C0
:10F050000000000000000000AA522D6B2D6B2D6BEC
:10F060002D6B2D6B2D6B0842000000002D6BFFFFF8
:10F07000FFFFFFFFFFFFFFFFFFFF14A500000000E1
:10F080000000000000000000000000000000000080
:10F090000000000000000000000000000000000070
:10F0A0000000000000000000000000000000000060
:10F0B0000000000000000000000000000000000050
:10F0C0000000000000000000000000000000000040
:10F0D0000000000000000000000000000000000030
:10F0E0000000000000000000000000000000000020
:10F0F0000000000000000000000000000000000010
:10F1000000000000000000000000000000000000FF
:10F1100000000000000000000000000000000000EF
:10F1200000000000000000000000000000000000DF
:10F1300000000000000000000000000000000000CF
:10F140000000000000002421242100000000000035
:10F1500000000000000000000000000000000000AF
:10F16000000000000000000000000000000000009F
:10F17000000000000000000000000000000000008F
:10F18000000000000000000000000000000000007F
:10F19000000000000000000000000000000000006F
:10F1A00000000000000000000000000000002D6BC7
:10F1B000D7BD9AD69AD638C6308400000000000029
:10F1C000000000000000000000000000000000003F
:10F1D000000000000000000000000000000000002F
:10F1E000000000000000000000000000000000001F
:10F1F000000000000000000000000000000000000F
:10F7000000000000000000000000000024210000B4
:10F7100000000000000000000000000000000000E9
:10F720000000000000002421000000000000000094
:10F7300000000000000000000000000000000000C9
:10F7400000000000000000000000000000000000B9
:10F7500000000000000000000000000000000000A9
:10F760000000000000000000000000000000000099
:10F770000000000000000000000000000000000089
:10F780000000000000000000000000000000000079
:10F790000000000000000000000000000000000069
:10F7A0000000000000000000000000000000000059
:10F7B0000000000000000000000000000000000049
:10F7C0000000000000000000000000000000000039
:10F7D0000000000000000000000000000000000029
:10F7E0000000000000000000000000000000000019
:10F7F0000000000000000000000000000000000009
:10F8000000000000000000000000000000000000F8
:10F8100000000000000000000000000000000000E8
:10F8200000000000000000000000000000000000D8
:10F8300000000000000000000000000000000000C8
:10F84000000000000000000000000000D7BD000024
:10F8500000000000000000000000000000000000A8
:10F8600000000000242138C6000000000000000055
:10F870000000000000000000000000000000000088
:10F880000000000000000000000000000000000078
:10F89000000000000000000000000000AA5200006C
:10F8A0000000000000000000000000000000000058
:10F8B0000000000000000000000000000000000048
:10F8C0000000000000000000000000000000000038
:10F8D0000000000000000000000000000000000028
:10F8E0000000000000000000000000000000000018
:10F8F0000000000000000000000000000000000008
:10F9000000000000000000000000000000000000F7
:10F9100000000000000000000000000000000000E7
:10F9200000000000000000000000000000000000D7
:10F9300000000000000000000000000000000000C7
:10F9400000000000000000000000000000000000B7
:10F9500000000000000000000000000000000000A7
:10F960000000000000000000000000000000000097
:10F970000000000000000000000000000000000087
:10F9800000000000000000000000CF7BFFFF2D6B97
:10F990000000000000000000000000000000000067
:10F9A0000000000014A5FFFF084200000000000056
:10F9B0000000000000000000000000000000000047
:10F9C0000000084275ADFBDEFFFFFFFFBEF738C643
:10F9D0003084242100000000000000005CE7CF7BA1
:10F9E0000000000000000000000000000000000017
:10F9F00000000000000008429AD69AD69AD69AD6FD
:10FA00009AD69AD69AD69AD69AD69AD62421000011
:10FA1000000000000000308438C65CE7FFFFFFFFF5
:10FA20005CE7D7BD2D6B0000000000000000000067
:10FA300000000000242114A55CE7FFFFFFFF5CE746
:10FA400075AD08420000000000000000000000004A
:10FA500000000000000000000000000000000000A6
:10FA60000000000000000000000000000000000096
:10FA70000000000000000000000000000000000086
:10FA80000000000000000000000000000000000076
:10FA90000000000000000000000000000000000066
:10FAA0000000000000000000000000000000000056
:10FAB0000000000000000000000000000000000046
:10FAC0000000000000000000000038C6FFFF5CE7F7
:10FAD0000000000000000000000000000000000026
:10FAE00000000842FFFFFFFFD7BD0000000000003C
:10FAF0000000000000000000000000000000000006
:10FB000014A5FFFFFFFFBEF7AA5200002421CF7B00
:10FB10009AD6BEF7B29400000000000030845CE783
:10FB20002421000000000000000000000000000090
:10FB3000000000000000D7BDFFFFFFFFFFFFFFFF39
:10FB4000FFFFFFFFFFFFFFFFFFFF14A50000000006
:10FB50000000AA52FBDEFFFFFFFFFFFF38C60000D8
:10FB60002421CF7B9AD69AD60842000000000000DC
:10FB700000002421FBDEFFFFFFFFFFFFFFFFFFFF71
:10FB8000FFFFBEF73084000000000000000000000E
:10FB90000000000000000000000000000000000065
:10FBA0000000000000000000000000000000000055
:10FBB0000000000000000000000000000000000045
:10FBC0000000000000000000000000000000000035
:10FBD0000000000000000000000000000000000025
:10FBE0000000000000000000000000000000000015
:10FBF0000000000000000000000000000000000005
:10FC000000000000000000000842FFFFFFFFFFFFB0
:10FC10003084000000000000000000000000000030
:10FC20000000D7BDFFFFFFFFFFFF24210000000001
:10FC30000000000000000000000000000000D7BD30
:10FC4000FFFFFFFFFFFF9AD600000000000000004A
:10FC500000002D6BBEF738C62421000000009AD6A4
:10FC6000D7BD2D6B2D6B2D6B2D6B2D6B2D6B2D6BD8
:10FC70002D6B2D6B3084FFFFFFFFFFFFFFFFFFFFAA
:10FC8000FFFFFFFFFFFFFFFFBEF724210000000082
:10FC9000AA52BEF7FFFFFFFFFFFFFFFF14A5000002
:10FCA000000000000000CF7B5CE7AA5200000000CB
:10FCB0000000D7BDFFFFFFFFFFFFFFFFFFFFFFFFBC
:10FCC000AA522D6BBEF7AA520000000000000000EF
:10FCD0000000000000000000000000000000000024
:10FCE0000000000000000000000000000000000014
:10FCF0000000000000000000000000000000000004
:10FD000000000000000000000000000000000000F3
:10FD100000000000000000000000000000000000E3
:10FD200000000000000000000000000000000000D3
:10FD300000000000000000000000000000000000C3
:10FD4000000000000000000014A5FFFFFFFFFFFF00
:10FD5000BEF72421000000000000000000000000A9
:10FD60000842FFFFFFFFFFFFFFFF14A50000000098
:10FD700000000000000000000000000014A5FFFFCC
:10FD8000FFFFFFFFFFFF9AD6000000000000000009
:10FD9000000000002421FBDE9AD6000000002D6B3D
:10FDA000FFFFFBDE9AD69AD69AD69AD69AD69AD6DC
:10FDB0009AD69AD6BEF7FFFFFFFFFFFFFFFFFFFFB8
:10FDC000FFFFFFFFFFFFFFFFB294000000002421B0
:10FDD000BEF7FFFFFFFFFFFFFFFFFFFF14A50000BF
:10FDE0000000000000000000AA525CE7AA520000D8
:10FDF0000000FFFFFFFFFFFFFFFFFFFFFFFFFFFF11
:10FE000000000000CF7B9AD6000000000000000038
:10FE100000000000000000000000000000000000E2
:10FE200000000000000000000000000000000000D2
:10FE300000000000000000000000000000000000C2
:10FE400000000000000000000000000000000000B2
:10FE500000000000000000000000000000000000A2
:10FE60000000000000000000000000000000000092
:10FE70000000000000000000000000000000000082
:10FE800000000000000000005CE7FFFFFFFFFFFF35
:10FE9000FFFF14A5000000000000000000000000AB
:10FEA000D7BDFFFFFFFFFFFFFFFFBEF70000000011
:10FEB000000000000000000000000842FFFFFFFFFC
:10FEC000FFFFFFFFFFFF9AD60000000000000000C8
:10FED000000000000000AA52BEF7AA520000000075
:10FEE000D7BDD7BD000000000000000000000000EA
:10FEF0000000AA52FFFFFFFFFFFFFFFFFFFFFFFF12
:10FF0000FFFFFFFFFFFF5CE7000000000000D7BD20
:10FF1000FFFFFFFFFFFFFFFFFFFFFFFF14A5000034
:10FF200000000000000000000000B29438C600008D
:10FF30002D6BFFFFFFFFFFFFFFFFFFFFFFFFFFFF37
:10FF40000000000000005CE700000000000000006E
:10FF500000000000000000000000000000000000A1
:10FF60000000000000000000000000000000000091
:10FF70000000000000000000000000000000000081
:10FF80000000000000000000000000000000000071
:10FF90000000000000000000000000000000000061
:10FFA0000000000000000000000000000000000051
:10FFB0000000000000000000000000000000000041
:10FFC000000000000000CF7BFFFFFFFFFFFFFFFFEF
:10FFD000FFFFBEF7242100000000000000002D6B91
:10FFE000FFFFFFFFFFFFFFFFFFFFFFFF3084000069
:10FFF0000000000000000000000014A5FFFFFFFF4C
:020000040801F1
:10000000FFFFFFFFFFFF9AD6000000000000000086
:100010000000000000000000084200000000000096
:100020002421BEF7AA5200000000000000000000DA
:1000300000009AD6FFFFFFFFFFFFFFFFFFFFFFFF5C
:10004000FFFFFFFFFFFFCF7B000000002421FFFF29
:10005000FFFFFFFFFFFFFFFFFFFFFFFF14A50000F3
:100060000000000000000000000000000842000046
:100070002D6BFFFFFFFFFFFFFFFFFFFFFFFFFFFFF6
:100080000000000000000000000000000000000070
:100090000000000000000000000000000000000060
:1000A0000000000000000000000000000000000050
:1000B0000000000000000000000000000000000040
:1000C0000000000000000000000000000000000030
:1000D0000000000000000000000000000000000020
:1000E0000000000000000000000000000000000010
:1000F0000000000000000000000000000000000000
:100100000000000000009AD6FFFFFFFFFFFFFFFF87
:10011000FFFFFFFFD7BD00000000000000009AD6DF
:10012000FFFFFFFFFFFFFFFFFFFFFFFF5CE7000098
:1001300000000000000000000000FBDEFFFFFFFFEA
:10014000FFFFFFFFFFFF9AD6000000000000000045
:10015000000000000000000000000000000000009F
:100160000000B2949AD600000000000000000000D9
:100170002D6BFFFFFFFFFFFFFFFFFFFFFFFFFFFFF5
:10018000FFFFFFFF9AD6000000000000CF7BFFFFBB
:10019000FFFFFFFFFFFFFFFFFFFFFFFF14A50000B2
:1001A000000000000000000000000000000000004F
:1001B0002D6BFFFFFFFFFFFFFFFFFFFFFFFFFFFFB5
:1001C000000000000000000000000000000000002F
:1001D000000000000000000000000000000000001F
:1001E000000000000000000000000000000000000F
:1001F00000000000000000000000000000000000FF
:1002000000000000000000000000000000000000EE
:1002100000000000000000000000000000000000DE
:1002200000000000000000000000000000000000CE
:1002300000000000000000000000000000000000BE
:10024000000000000842FFFFFFFFFFFFFFFFFFFF6E
:10025000FFFFFFFFFFFF0842000000002D6BFFFFC4
:10026000FFFFFFFFFFFFFFFFFFFFFFFFFFFF2D6B04
:1002700000000000000000000000FFFFFFFFFFFF84
:10028000FFFFFFFFFFFFFBDE2D6B2D6B2D6B2D6B3B
:100290002D6B2D6B2D6B2D6B2D6BAA52000000006A
:1002A000000000005CE7CF7B0000000000000000C1
:1002B0009AD6FFFFFFFFFFFFFFFFFFFFFFFFFFFFDC
:1002C000FFFFFFFF2D6B00000000000014A5FFFFE3
:1002D000FFFFFFFFFFFFFFFFFFFFFFFF14A5000071
:1002E000000000000000000000000000000000000E
:1002F0002D6BFFFFFFFFFFFFFFFFFFFFFFFFFFFF74
:1003000000000000000000000000000000000000ED
:1003100000000000000000000000000000000000DD
:1003200000000000000000000000000000000000CD
:1003300000000000000000000000000000000000BD
:1003400000000000000000000000000000000000AD
:10035000000000000000000000000000000000009D
:10036000000000000000000000000000000000008D
:10037000000000000000000000000000000000007D
:100380000000000075ADFFFFFFFFFFFFFFFFFFFF55
:10039000FFFFFFFFFFFF9AD6000000005CE7FFFFB2
:1003A000FFFFFFFFFFFFFFFFFFFFFFFFFFFF9AD6EB
:1003B00000000000000000000000FFFFFFFFFFFF43
:1003C000FFFFFFFFFFFFBEF79AD69AD69AD6FBDE55
:1003D000FFFFFFFFFFFFFFFFFFFF9AD600000000B7
:1003E000000000002D6B5CE7242100000000308439
:1003F000FFFFFFFFFFFFFFFFFFFFFFFFFFFFFFFF0D
:10040000FFFFD7BD000000000000000014A5FFFFA3
:10041000FFFFFFFFFFFFFFFFFFFFFFFF14A500002F
:1004200000000000000000000000000000000000CC
:100430002D6BFFFFFFFFFFFFFFFFFFFFFFFFFFFF32
:1004400000000000000000000000000000000000AC
:10045000000000000000000000000000000000009C
:10046000000000000000000000000000000000008C
:10047000000000000000000000000000000000007C
:10048000000000000000000000000000000000006C
:10049000000000000000000000000000000000005C
:1004A000000000000000000000000000000000004C
:1004B000000000000000000000000000000000003C
:1004C00000000000BEF7FFFFFFFFFFFFFFFFFFFF81
:1004D000FFFFFFFFFFFFFFFF2D6BB294FFFFFFFF4A
:1004E000FFFFFFFFFFFFFFFFFFFFFFFFFFFFBEF765
:1004F000AA5200000000000000005CE7FFFFFFFFC1
:10050000FFFFFFFFFFFF9AD60000000000002D6BE9
:10051000FFFFFFFFFFFFFFFFFFFFD7BD0000000051
:1005200000000000000038C614A5000000005CE7D1
:10053000FFFFFFFFFFFFFFFFFFFFFFFFFFFFFFFFCB
:10054000BEF708420000000000000000B294FFFF68
:10055000FFFFFFFFFFFFFFFFFFFFFFFF14A50000EE
:10056000000000000000000000000000000000008B
:100570002D6BFFFFFFFFFFFFFFFFFFFFFFFFFFFFF1
:10058000000000000000000000000000000000006B
:10059000000000000000000000000000000000005B
:1005A000000000000000000000000000000000004B
:1005B000000000000000000000000000000000003B
:1005C000000000000000000000000000000000002B
:1005D000000000000000000000000000000000001B
:1005E000000000000000000000000000000000000B
:1005F00000000000000000000000000000000000FB
:1006000000003084FFFFFFFFFFFFFFFFFFFFFFFF42
:10061000FFFFFFFFD7BD14A55CE7BEF7FFFFFFFF9D
:10062000FFFFFFFFFFFFFFFFFFFFFFFFD7BDD7BDAE
:10063000D7BD0000000000000000D7BDFFFFFFFF96
:10064000FFFFFFFFFFFF9AD60000000000002D6BA8
:10065000FFFFFFFFFFFFFFFFFFFFB294000000005E
:1006600000000000000008425CE708423084FFFF01
:10067000FFFFFFFFFFFFFFFFFFFFFFFFFFFFFFFF8A
:1006800014A500000000000000000000AA52FFFFB7
:10069000FFFFFFFFFFFFFFFFFFFFFFFF14A50000AD
:1006A000000000000000000000000000000000004A
:1006B0002D6BFFFFFFFFFFFFFFFFFFFFFFFFFFFFB0
:1006C000000000000000000000000000000000002A
:1006D000000000000000000000000000000000001A
:1006E000000000000000000000000000000000000A
:1006F00000000000000000000000000000000000FA
:1007000000000000000000000000000000000000E9
:1007100000000000000000000000000000000000D9
:1007200000000000000000000000000000000000C9
:1007300000000000000000000000000000000000B9
:1007400000009AD6FFFFFFFFFFFFFFFFFFFFFFFF45
:10075000FFFFFFFFAA522421BEF7FFFFFFFFFFFFAD
:10076000FFFFFFFFFFFFFFFFFFFFBEF7242108424F
:10077000FFFF08420000000000002D6BFFFFFFFF9D
:10078000FFFFFFFFFFFF9AD60000000000002D6B67
:10079000FFFFFFFFFFFFFFFFFFFF08420000000019
:1007A000000000000000000014A538C65CE7FFFF51
:1007B000FFFFFFFFFFFFFFFFFFFFFFFFFFFFBEF792
:1007C00024210000000000000000000000005CE7A1
:1007D000FFFFFFFFFFFFFFFFFFFFFFFF14A500006C
:1007E0000000000000000000000000000000000009
:1007F0002D6BFFFFFFFFFFFFFFFFFFFFFFFFFFFF6F
:1008000000000000000000000000000000000000E8
:1008100000000000000000000000000000000000D8
:1008200000000000000000000000000000000000C8
:1008300000000000000000000000000000000000B8
:1008400000000000000000000000000000000000A8
:100850000000000000000000000000000000000098
:100860000000000000000000000000000000000088
:100870000000000000000000000000000000000078
:100880000842FFFFFFFFFFFFFFFFFFFFFFFFFFFF2C
:10089000FFFF9AD6000000003084FFFFFFFFFFFF3C
:1008A000FFFFFFFFFFFFFFFFFFFF14A50000000099
:1008B00038C614A500000000000000009AD6FFFF13
:1008C000FFFFFFFFFFFF9AD60000000000002D6B26
:1008D000FFFFFFFFFFFFFFFF75AD000000000000FE
:1008E000000000000000000024215CE7FFFFFFFF84
:1008F000FFFFFFFFFFFFFFFFFFFFFFFFFFFF308452
:100900000000000000000000000000000000CF7B9D
:10091000FFFFFFFFFFFFFFFFFFFFFFFF14A500002A
:1009200000000000000000002421D7BD00000000EE
:100930002D6BFFFFFFFFFFFFFFFFFFFFFFFFFFFF2D
:1009400000000000000000000000000000000000A7
:100950000000000000000000000000000000000097
:100960000000000000000000000000000000000087
:100970000000000000000000000000000000000077
:100980000000000000000000000000000000000067
:100990000000000000000000000000000000000057
:1009A0000000000000000000000000000000000047
:1009B0000000000000000000000000000000000037
:1009C00075ADFFFFFFFFFFFFFFFFFFFFFFFFFFFF13
:1009D000FFFF30840000000000005CE7FFFFFFFF26
:1009E000FFFFFFFFFFFFFFFF5CE724210000000087
:1009F0002D6BBEF724210000000000000842BEF766
:100A0000FFFFFFFFFFFF9AD60000000000002D6BE4
:100A1000FFFFFFFFFFFFFBDE2421000000000000BE
:100A200000000000000000000000CF7BFFFFFFFF80
:100A3000FFFFFFFFFFFFFFFFFFFFFFFF5CE700007F
:100A400000000000000000000000000000000000A6
:100A5000D7BDFFFFFFFFFFFFFFFFFFFF14A5000053
:100A60000000000000000000D7BD9AD60000000082
:100A70002D6BFFFFFFFFFFFFFFFFFFFFFFFFFFFFEC
:100A80000000000000000000000000000000000066
:100A90000000000000000000000000000000000056
:100AA0000000000000000000000000000000000046
:100AB0000000000000000000000000000000000036
:100AC0000000000000000000000000000000000026
:100AD0000000000000000000000000000000000016
:100AE0000000000000000000000000000000000006
:100AF00000000000000000000000000000002421B1
:100B0000BEF7FFFFFFFFFFFFFFFFFFFFFFFFFFFF3E
:100B1000BEF700000000000000002D6BFFFFFFFF8C
:100B2000FFFFFFFFFFFFFFFF308400000000000019
:100B300000005CE730840000000000000000AA52C2
:100B40005CE7FFFFFFFF5CE7000000000000CF7BD9
:100B5000FFFFFFFFFBDE242100000000000000007B
:100B60000000000000000000000000009AD6FFFF17
:100B7000FFFFFFFFFFFFFFFFFFFFFFFF2D6B0000E9
:100B80000000000000000000000000000000000065
:100B9000000075ADFFFFFFFFFFFFFFFF75AD000019
:100BA000000000002D6B9AD6FBDE2421000000001F
:100BB0002D6BFFFFFFFFFFFFFFFFFFFFFFFFFFFFAB
:100BC0000000000000000000000000000000000025
:100BD0000000000000000000000000000000000015
:100BE0000000000000000000000000000000000005
:100BF00000000000000000000000000000000000F5
:100C000000000000000000000000000000000000E4
:100C100000000000000000000000000000000000D4
:100C200000000000000000000000000000000000C4
:100C30000000000000000000000000000000308400
:100C4000FFFFFFFFFFFFFFFFFFFFFFFFFFFFFFFFB4
:100C500014A5000000000000000000009AD6FFFF6D
:100C6000FFFFFFFFFFFF5CE7000000000000000047
:100C70000000B2945CE700000000000000000000EB
:100C8000242114A5BEF7FFFF9AD614A575ADBEF7B3
:100C90005CE714A500000000000000000000000058
:100CA0000000000000000000000000000842FFFFFC
:100CB000FFFFFFFFFFFFFFFFFFFF9AD600000000CE
:100CC0000000000000000000000000000000000024
:100CD000000000002D6B9AD6FFFFFFFFBEF775AD39
:100CE00014A5FBDE5CE714A500000000CF7B9AD6BC
:100CF000FBDEFFFFFFFFFFFFFFFFFFFFFFFFFFFF29
:100D00009AD69AD69AD6AA52000000000000000097
:100D100000000000000000000000000000000000D3
:100D200000000000000000000000000000000000C3
:100D300000000000000000000000000000000000B3
:100D400000000000000000000000000000000000A3
:100D50000000000000000000000000000000000093
:100D60000000000000000000000000000000000083
:100D700000000000000000000000000000005CE730
:100D8000FFFFFFFFFFFFFFFFFFFFFFFFFFFFFFFF73
:100D90000842000000000000000000002D6BFFFF73
:100DA000FFFFFFFFFFFF2D6B0000000000000000B1
:100DB00000002421BEF73084000000000000000085
:100DC0000000000000002D6B14A514A514A52D6BC8
:100DD0000000000000000000000000000000000013
:100DE000000000000000000000000000000014A54A
:100DF000FFFFFFFFFFFFFFFFFFFFAA520000000001
:100E000000000000000000000000000000000000E2
:100E100000000000000000000842308414A514A562
:100E2000B2942D6B000000000000000008422D6B02
:100E3000B294FFFFFFFFFFFFFFFFFFFFFFFFFBDE9F
:100E40002D6B2D6B2D6B2421000000000000000095
:100E50000000000000000000000000000000000092
:100E60000000000000000000000000000000000082
:100E70000000000000000000000000000000000072
:100E80000000000000000000000000000000000062
:100E90000000000000000000000000000000000052
:100EA0000000000000000000000000000000000042
:100EB0000000000000000000000000002D6BFFFF9C
:100EC000FFFFFFFFFFFFFFFFFFFFFFFFFFFF38C632
:100ED0000000000000000000000000000000D7BD7E
:100EE000FFFFFFFF9AD60000000000000000000096
:100EF00000000000D7BD9AD60000000000000000EE
:100F000000000000000000000000000000000000E1
:100F100000000000000000000000000000000000D1
:100F2000000000000000000000000000000024217C
:100F3000BEF7FFFFFFFFFFFFD7BD0000000000006E
:100F400000000000000000000000000000000000A1
:100F50000000000000000000000000000000000091
:100F60000000000000000000000000000000000081
:100F70002D6BFFFFFFFFFFFFFFFFFFFFFFFFFBDE0C
:100F80000000000000000000000000000000000061
:100F90000000000000000000000000000000000051
:100FA0000000000000000000000000000000000041
:100FB0000000000000000000000000000000000031
:100FC0000000000000000000000000000000000021
:100FD0000000000000000000000000000000000011
:100FE0000000000000000000000000000000000001
:100FF00000000000000000000000000038C6FFFFF5
:10100000FFFFFFFFFFFFFFFFFFFFFFFFFFFF30843A
:101010000000000000000000000000000000084286
:10102000FFFFFFFF2D6B000000000000000000002C
:1010300000000000AA52FFFF2D6B0000000000001E
:1010400000000000000000000000000000000000A0
:101050000000000000000000000000000000000090
:101060000000000000000000000000000000000080
:101070003084FFFFFFFFBEF72421000000000000C6
:101080000000000000000000000000000000000060
:101090000000000000000000000000000000000050
:1010A0000000000000000000000000000000000040
:1010B0000000AA52D7BDBEF7FFFFFFFFFFFFFFFFF3
:1010C0000000000000000000000000000000000020
:1010D0000000000000000000000000000000000010
:1010E0000000000000000000000000000000000000
:1010F00000000000000000000000000000000000F0
:1011000000000000000000000000000000000000DF
:1011100000000000000000000000000000000000CF
:1011200000000000000000000000000000000000BF
:10113000000000000000000000000842FFFFFFFF69
:10114000FFFFFFFFFFFFFFFFFFFFFFFFBEF70000F6
:10115000000000000000000000000000000000008F
:1011600075AD9AD6000000000000000000000000ED
:10117000000000000000FBDED7BD00000000000002
:10118000000000000000000000000000000000005F
:10119000000000000000000000000000000000004F
:1011A000000000000000000000000000000000003F
:1011B00000009AD6FFFF14A5000000000000000008
:1011C000000000000000000000000000000000001F
:1011D000000000000000000000000000000000000F
:1011E00000000000000000000000000000000000FF
:1011F000000000000000242114A5BEF7FFFFFFFF40
:1012000000000000000000000000000000000000DE
:1012100000000000000000000000000000000000CE
:1012200000000000000000000000000000000000BE
:1012300000000000000000000000000000000000AE
:10124000000000000000000000000000000000009E
:10125000000000000000000000000000000000008E
:10126000000000000000000000000000000000007E
:101270000000000000000000000008422D6B2D6BF4
:101280002D6B2D6B2D6B2D6B2D6B2D6BAA520000D2
:10129000000000000000000000000000000000004E
:1012A00024212D6B00000000000000000000000061
:1012B000000000000000084208420000000000009A
:1012C000000000000000000000000000000000001E
:1012D000000000000000000000000000000000000E
:1012E00000000000000000000000000000000000FE
:1012F00000002D6B5CE724210000000000000000CE
:1013000000000000000000000000000000000000DD
:1013100000000000000000000000000000000000CD
:1013200000000000000000000000000000000000BD
:1013300000000000000000000000242114A5BEF7FA
:10134000000000000000000000000000000000009D
:10135000000000000000000000000000000000008D
:10136000000000000000000000000000000000007D
:10137000000000000000000000000000000000006D
:10138000000000000000000000000000000000005D
:10139000000000000000000000000000000000004D
:1013A000000000000000000000000000000000003D
:1013B000000000000000000000000000000000002D
:1013C000000000000000000000000000000000001D
:1013D000000000000000000000000000000000000D
:1013E00000000000000000000000000000000000FD
:1013F00000000000000000000000000000000000ED
:1014000000000000000000000000000000000000DC
:1014100000000000000000000000000000000000CC
:1014200000000000000000000000000000000000BC
:101430000000000008420000000000000000000062
:10144000000000000000000000000000000000009C
:10145000000000000000000000000000000000008C
:10146000000000000000000000000000000000007C
:101470000000000000000000000000000000084222
:10148000000000000000000000000000000000005C
:10149000000000000000000000000000000000004C
:1014A000000000000000000000000000000000003C
:1014B000000000000000000000000000000000002C
:10217000000000F800F800F800F800F800F800F897
:1021800000F800F800F800F800F800F800F800F88F
:1021900000F800F800F80000000000000000E00770
:1021A000E007E007E007E007E007E007E007E007F7
:1021B000E007E007E007E007E007E007E007E007E7
:1021C000E00700000000000000001F001F001F00CB
:1021D0001F001F001F001F001F001F001F001F0007
:1021E0001F001F001F001F001F001F001F00000016
:1021F00000000000000000000000000000000000DF
:1022000000000000000000000000000000000000CE
:1022100000000000000000000000000000000000BE
:1022200000000000000000000000000000000000AE
:10223000000000000000000000000000000000009E
:10224000000000000000000000000000000000008E
:10225000000000000000000000000000000000007E
:10226000000000000000000000000000000000006E
:10227000000000000000000000000000000000005E
:10228000000000000000000000000000000000004E
:10229000000000000000000000000000000000003E
:1022A000000000000000000000000000000000002E
:1022B000000000F800F800F800F800F800F800F856
:1022C00000F800F800F800F800F800F800F800F84E
:1022D00000F800F800F80000000000000000E0072F
:1022E000E007E007E007E007E007E007E007E007B6
:1022F000E007E007E007E007E007E007E007E007A6
:10230000E00700000000000000001F001F001F0089
:102310001F001F001F001F001F001F001F001F00C5
:102320001F001F001F001F001F001F001F000000D4
:10233000000000000000000000000000000000009D
:10234000000000000000000000000000000000008D
:10235000000000000000000000000000000000007D
:10236000000000000000000000000000000000006D
:10237000000000000000000000000000000000005D
:10238000000000000000000000000000000000004D
:10239000000000000000000000000000000000003D
:1023A000000000000000000000000000000000002D
:1023B000000000000000000000000000000000001D
:1023C000000000000000000000000000000000000D
:1023D00000000000000000000000000000000000FD
:1023E00000000000000000000000000000000000ED
:1023F000000000F800F800F800F800F800F800F815
:1024000000F800F800F800F800F800F800F800F80C
:1024100000F800F800F80000000000000000E007ED
:10242000E007E007E007E007E007E007E007E00774
:10243000E007E007E007E007E007E007E007E00764
:10244000E00700000000000000001F001F001F0048
:102450001F001F001F001F001F001F001F001F0084
:102460001F001F001F001F001F001F001F00000093
:10247000000000000000000000000000000000005C
:10248000000000000000000000000000000000004C
:10249000000000000000000000000000000000003C
:1024A000000000000000000000000000000000002C
:1024B000000000000000000000000000000000001C
:1024C000000000000000000000000000000000000C
:1024D00000000000000000000000000000000000FC
:1024E00000000000000000000000000000000000EC
:1024F00000000000000000000000000000000000DC
:1025000000000000000000000000000000000000CB
:1025100000000000000000000000000000000000BB
:1025200000000000000000000000000000000000AB
:10253000000000F800F800F800F800F800F800F8D3
:1025400000F800F800F800F800F800F800F800F8CB
:1025500000F800F800F80000000000000000E007AC
:10256000E007E007E007E007E007E007E007E00733
:10257000E007E007E007E007E007E007E007E00723
:10258000E00700000000000000001F001F001F0007
:102590001F001F001F001F001F001F001F001F0043
:1025A0001F001F001F001F001F001F001F00000052
:1025B000000000000000000000000000000000001B
:1025C000000000000000000000000000000000000B
:1025D00000000000000000000000000000000000FB
:1025E00000000000000000000000000000000000EB
:1025F00000000000000000000000000000000000DB
:1026000000000000000000000000000000000000CA
:1026100000000000000000000000000000000000BA
:1026200000000000000000000000000000000000AA
:10263000000000000000000000000000000000009A
:10264000000000000000000000000000000000008A
:10265000000000000000000000000000000000007A
:10266000000000000000000000000000000000006A
:10267000000000F800F800F800F800F800F800F892
:1026800000F800F800F800F800F800F800F800F88A
:1026900000F800F800F80000000000000000E0076B
:1026A000E007E007E007E007E007E007E007E007F2
:1026B000E007E007E007E007E007E007E007E007E2
:1026C000E00700000000000000001F001F001F00C6
:1026D0001F001F001F001F001F001F001F001F0002
:1026E0001F001F001F001F001F001F001F00000011
:1026F00000000000000000000000000000000000DA
:1027000000000000000000000000000000000000C9
:1027100000000000000000000000000000000000B9
:1027200000000000000000000000000000000000A9
:102730000000000000000000000000000000000099
:102740000000000000000000000000000000000089
:102750000000000000000000000000000000000079
:102760000000000000000000000000000000000069
:102770000000000000000000000000000000000059
:102780000000000000000000000000000000000049
:102790000000000000000000000000000000000039
:1027A0000000000000000000000000000000000029
:1027B000000000F800F800F800F800F800F800F851
:1027C00000F800F800F800F800F800F800F800F849
:1027D00000F800F800F80000000000000000E0072A
:1027E000E007E007E007E007E007E007E007E007B1
:1027F000E007E007E007E007E007E007E007E007A1
:10280000E00700000000000000001F001F001F0084
:102810001F001F001F001F001F001F001F001F00C0
:102820001F001F001F001F001F001F001F000000CF
:102830000000000000000000000000000000000098
:102840000000000000000000000000000000000088
:102850000000000000000000000000000000000078
:102860000000000000000000000000000000000068
:102870000000000000000000000000000000000058
:102880000000000000000000000000000000000048
:102890000000000000000000000000000000000038
:1028A0000000000000000000000000000000000028
:1028B0000000000000000000000000000000000018
:1028C0000000000000000000000000000000000008
:1028D00000000000000000000000000000000000F8
:1028E00000000000000000000000000000000000E8
:1028F000000000F800F800F800F800F800F800F810
:1029000000F800F800F800F800F800F800F800F807
:1029100000F800F800F80000000000000000E007E8
:10292000E007E007E007E007E007E007E007E0076F
:10293000E007E007E007E007E007E007E007E0075F
:10294000E00700000000000000001F001F001F0043
:102950001F001F001F001F001F001F001F001F007F
:102960001F001F001F001F001F001F001F0000008E
:102970000000000000000000000000000000000057
:102980000000000000000000000000000000000047
:102990000000000000000000000000000000000037
:1029A0000000000000000000000000000000000027
:1029B0000000000000000000000000000000000017
:1029C0000000000000000000000000000000000007
:1029D00000000000000000000000000000000000F7
:1029E00000000000000000000000000000000000E7
:1029F00000000000000000000000000000000000D7
:102A000000000000000000000000000000000000C6
:102A100000000000000000000000000000000000B6
:102A200000000000000000000000000000000000A6
:102A30000000000000000000000000000000000096
:102A400000000000003F40000000000000000030D7
:102A500000400030004000000009000BC03D000BAA
:102A6000C03D00090018C024407FE02240318000B2
:102A700000180024C01B000D803240018003801C20
:102A80004027401C8007400040100060000000000C
:102A900000000000000000000000001F80204040F7
:102AA000200000402020401F800000000009000698
:102AB000001F80060009000000040004003F80049D
:102AC0000004000000001000600000000000000092
:102AD00000040004000400040004000000000000E2
:102AE000400000000000000000002001C006003887
:102AF00000400000001F802040204020401F800038
:102B000000000010403FC000400000000018C0213D
:102B100040224024401840000010802040244024DF
:102B2000401B80000002000D0011003FC00140006A
:102B3000003C80244024402440238000001F802447
:102B40004024403440038000003000200027C0387B
:102B500000200000001B802440244024401B8000F3
:102B6000001C0022C0224022401F80000000000004
:102B700000084000000000000000000000046000A9
:102B80000000000000000004000A00110020804046
:102B90004009000900090009000900000000004088
:102BA00040208011000A0004001800200023402467
:102BB00000180000001F802040274029401F4000CF
:102BC00000004007C039000F0001C0004020403F16
:102BD000C0244024401B8000001F80204020402053
:102BE000403080000020403FC0204020401F800037
:102BF0000020403FC024402E4030C0000020403F15
:102C0000C024402E00300000000F00108020402221
:102C1000403380020020403FC0040004003FC02039
:102C200040204020403FC020402040000000602065
:102C30002020203FC02000200020403FC024400B27
:102C40000030C0204020403FC020400040004000F5
:102C5000C03FC03C0003C03C003FC0000020403FDC
:102C6000C00C4023003FC020001F80204020402097
:102C7000401F80000020403FC02440240018000076
:102C8000001F802140214020E01FA0000020403F85
:102C9000C02440260019C0004018C024402440220F
:102CA0004031800000300020403FC0204030000014
:102CB0000020003F80004000403F80200020003E78
:102CC0000001C0070038002000380007C03C0007A2
:102CD000C038000000204039C0060039C020400044
:102CE000002000384007C03840200000003040215C
:102CF000C02640384020C00000000000007FE040B7
:102D00002040200000000070000C00038000400004
:102D1000000000402040207FE00000000000002074
:102D20000040002000000000000010001000100013
:102D30001000100010000000004000000000000023
:102D400000000002800540054003C0004020003F15
:102D5000C0044004400380000000000380044004DD
:102D6000400640000000000380044024403FC000B3
:102D700040000003800540054003400000000004BF
:102D8000401FC0244024402000000002E005500500
:102D9000500650042020403FC00440040003C000FF
:102DA000400000044027C000400000000000100068
:102DB00010041027E00000000020403FC001400741
:102DC0000004C00440204020403FC00040004000BC
:102DD0000007C0040007C0040003C000000440074F
:102DE000C00440040003C00040000003800440040D
:102DF0004003800000041007F004500440038000EA
:102E000000000003800440045007F0001004400755
:102E1000C002400400040000000000064005400518
:102E20004004C00000000004001F80044000400077
:102E300000040007800040044007C0004004000771
:102E40000004C0018006000400060001C007000164
:102E5000C006000000044006C0010006C004400097
:102E6000000410071004E0018006000400000004C4
:102E70004005C00640044000000000000004007B44
:102E8000E040200000000000000000FFF000000013
:102E900000000040207BE0040000000000400080B3
:102EA0000040002000200040000000000000000062
:102EB0000000000000000000000000000000001FF3
:102EC000CC000C0000000000000000080030006092
:102ED000000800300060000000022003FC1E2002F9
:102EE0002003FC1E200220000000000E1811043FE9
:102EF000FF10840C78000000000F0010840F3800D1
:102F0000C0077818840078000000780F8410C4117E
:102F1000240E9800E4008400080800680070000097
:102F2000000000000000000000000000000000079A
:102F3000E01818200440020000000040022004189D
:102F40001807E00000000000000240024001800F6E
:102F5000F001800240024000000080008000800FED
:102F6000F800800080008000000001000D000E00CD
:102F70000000000000000000000000008000800051
:102F80008000800080008000800000000C000C00A9
:102F90000000000000000000000000000600180013
:102FA000600180060018002000000007F0080810EB
:102FB000041004080807F000000000080408041FBB
:102FC000FC000400040000000000000E0C101410AF
:102FD00024104411840E0C000000000C1810041181
:102FE00004110412880C700000000000E0032004AB
:102FF0002408241FFC0024000000001F98108411E6
:10300000041104108810700000000007F0088811F7
:1030100004110418880070000000001C001000104B
:10302000FC13001C001000000000000E38114410BA
:1030300084108411440E38000000000700088C1032
:10304000441044088807F00000000000000000035E
:103050000C030C0000000000000000000000010153
:103060000600000000000000000000008001400297
:103070002004100808100400000220022002200290
:103080002002200220022000000000100408080492
:1030900010022001400080000000000E001200100D
:1030A0000C106C10800F00000003E00C1813E414E7
:1030B0002417C4082807D000000004003C03C41CE7
:1030C00040074000E4001C000410041FFC11041120
:1030D0000411040E880070000003E00C18100410A6
:1030E00004100410081C10000010041FFC10041031
:1030F000041004080807F0000010041FFC1104115C
:103100000417C410040818000010041FFC11041157
:103110000017C010000800000003E00C1810041095
:103120000410441C780040000010041FFC108400B0
:1031300080008010841FFC10040000100410041F85
:10314000FC10041004000000000003000110011036
:10315000011FFE10001000000010041FFC110403EA
:10316000801464181C1004000010041FFC100400DC
:103170000400040004000C000010041FFC1F0000E9
:10318000FC1F001FFC1004000010041FFC0C0403B3
:103190000000E010181FFC100007F00808100410D1
:1031A000041004080807F0000010041FFC1084102D
:1031B00080108010800F00000007F0081810241005
:1031C00024101C080A07F2000010041FFC1104114F
:1031D0000011C011300E0C000400000E1C11041070
:1031E00084108410441C3800001800100010041FC4
:1031F000FC100410001800000010001FF81004005C
:1032000004000410041FF8100010001E0011E0005C
:103210001C007013801C0010001FC0103C00E01F39
:103220000000E0103C1FC000001004180C16340110
:10323000C001C01634180C100410001C0013040048
:10324000FC13041C00100000000804101C10641083
:103250008413041C04101800000000000000007F0C
:10326000FE4002400240020000000030000C00035B
:10327000800060001C00030000000040024002408B
:10328000027FFE000000000000000000002000405F
:10329000004000400020000000000100010001008B
:1032A0000100010001000100010000400040002079
:1032B0000000000000000000000000009801240150
:1032C000440144014400FC000410001FFC0088017C
:1032D00004010400880070000000000070008801F4
:1032E000040104010400880000000000700088014F
:1032F00004010411081FFC0004000000F80144014F
:10330000440144014400C800000000010401040F0E
:10331000FC1104110411001800000000D60129015D
:1033200029012901C90106000010041FFC008401C5
:10333000000100010400FC0004000001041904194C
:10334000FC00040004000000000000000300010174
:1033500001190119FE0000000010041FFC002400E8
:103360004001B4010C010400000000100410041F0F
:10337000FC0004000400000000010401FC01040141
:103380000001FC0104010000FC010401FC008401B7
:10339000000100010400FC0004000000F801040129
:1033A000040104010400F80000010101FF0085018F
:1033B0000401040088007000000000007000880113
:1033C000040104010501FF00010104010401FC00E6
:1033D000840104010001800000000000CC012401F0
:1033E00024012401240198000000000100010007CD
:1033F000F80104010400000000010001F8000400CD
:10340000040004010801FC000401000180017000B7
:103410000C001001600180010001F0010C0030017E
:10342000C00030010C01F0010000000104018C001B
:10343000740170018C01040000010101810171001F
:103440000E001801600180010000000184010C01E0
:103450003401440184010C00000000000000000061
:103460000001003EFC40024002000000000000009D
:1034700000FFFF0000000000000000400240023E8C
:10348000FC010000000000000000006000800080DF
:10349000004000400020002000000000400000002C
:1034A000C0000000800000000000000020000000BC
:1034B00060000000E0000000A0000000E03401080F
:1034C00000000024A001000006040008E8350108FF
:1034D000A0010024C841000000C100080000000055
:1034E00041320142102C90D003041A8111135194DF
:1034F0001B0889041A99041AC9041AF9041A290420
:103500001A6104116226031108120A1422173112DB
:10351000021A80021B08200123FFFF13E184140814
:10352000917D1408D9891C08497E68190C13A98A51
:103530001B0841181BE18C1419081AB1101AF91C48
:103540001B61817C193C1AE10413F9821B08591C88
:1035500013798D1B08C1081AD1041B12015E2116B4
:103560004083042A571D02010203C0170403090403
:10357000E99C1C08A19B681A9DB4712A811019044A
:10358000C11A69281A29041AA9041A19041409026B
:10359000201808010104C0320904B8200A080650A6
:1035A0000507058102402C070501074B0A06701923
:1035B00067111B018E98198C1A09081A11041A191F
:1035C000041A89041AF91413A4C5041A081A038BDF
:1035D00019BC881339BD1B0831101AF1041AA9044B
:0835E0005A111C00000000005C
:04000005080002CD20
:00000001FF
